01 37019076  NP003  M  CALCIBON D 1500/200 X30                     321944650002239250000 1343550006583395000       000    0    0    0    0    2         1  7591821101029       21030296       21030296   512305120001  N  0                       2010930 01/08/2023       USD          740         2219    296667896
01 37019076  12039  M  CEFADROXILO AL250 PPSO60                    4 770291835 863749535 3738308003081167340       000    0    0    9    0    2         1  7597758000244       21030285       21030285   512305120001  N  0                         DL088 01/11/2022       USD          260         1039    296667896
01 37019076  12582  M  CEFOTAXIMA KMP 1G X1VIAL                   10 365638000 373100000  746200003656380000       000    0    0    0    0    2         1  6921875010816       21028896       21028896   512305120001  N  0                       2009464 01/09/2023       USD          123         1232    296667896
01 37019076  PD475  M  CLONIPRES 0,150MG. X20CO                    6 700700000 715000000  858000004204200000       000    0    0    0    0    2         1  7591955000182       21028896       21028896   512305120001  N  0                          0014 01/10/2022       USD          236         1417    296667896
01 37019076  VM470  M  CO-SULTRIN SUSP. 100 CC.                   10 583810500 595725000 1191450005838105000       000    0    0    0    0    2         1  7591020001069       21030285       21030285   512305120001  N  0                            97 01/03/2024       USD          197         1968    296667896
01 37019076  14695  M  DEXAMETASONA KM8 2ML.X10A                   215670200001599000000  639600003134040000       000    0    0    0    0    2         1  6942189211263       21030296       21030296   512305120001  N  0                        201018 01/10/2023       USD          528         1056    296667896
01 37019076  14781  M  DICLOFENAC P. DAC50 X20TA                  48 344814470 3703700001226665440       000       000    0    0    5    0    2         1  7598578000230       21030285       21030285   512305120001  N  0                          V170 01/09/2023       USD          116         5579    296667896
01 37019076  10881  M  DIDEROT AMP X1ML 50MG 5MG                   235786660003651700000 1460680007157332000       000    0    0    0    0    2         1  7502214984983       21030296       21030296   512305120001  N  0                         90540 01/07/2022       USD         1206         2413    296667896
01 37019076  MK038  M  ENALAPRIL +MK TAB. 20 X10                  10 252761600 257920000  515840002527616000       000    0    0    0    0    2         1  7591519317787       21030296       21030296   512305120001  N  0                         31813 01/03/2023       USD          085          852    296667896
01 37019076  GM149  M  FUROSEMIDA MY 40MG. X24TA                  12 665131907 678706028 1628894527981582884       000    0    0    0    0    2         1  7592601301059       21030285       21030285   512305120001  N  0                        157101 01/04/2023       USD          224         2690    296667896
01 37019076  12328  M  GENTAPLUS 0.3% 10ML                         4 391755000 399750000  319800001567020000       000    0    0    0    0    2         1  8904030802042       21028967       21028967   512305120001  N  0                        190710 01/07/2022       USD          132          528    296667896
01 37019076  GB840  M  GLICERINA GC SUPOS.PED. X6                  5 865516720 883180327  883180354327583600       000    0    0    0    0    2         1  7591136923873       21030285       21030285   512305120001  N  0                       2011134 01/11/2022       USD          292         1459    296667896
01 37019076  11820  M  LECHE MAGNESIA ALFA 120ML                   410881234001110330000  888264004352493600       000    0    0    0    0    2         1  7468999181682       21030296       21030296   512305120001  N  0                       2008045 01/08/2025       USD          367         1467    296667896
01 37019076  14609  M  LEVOTIROXINA SG75MCG.X50                    410691358611090954960  872763964276543444       000    0    0    0    0    2         1 18904180913466       21030285       21030285   512305120001  N  0                       AO0003A 01/11/2022       USD          360         1442    296667896
01 37019076  12578  M  PENICILINA KMP 1.200.000U                   4 232876584 237629167  19010332 931506336       000    0    0    0    0    2         1  6921875010762       21030285       21030285   512305120001  N  0                       2009460 01/09/2023       USD          078          314    296667896
01 37019076  12579  M  PENICILINA KMP 2.400.00UI                   2 299257291 305364583  12214584 598514582       000    0    0    0    0    2         1  6921875010779       21030285       21030285   512305120001  N  0                       2009461 01/09/2023       USD          101          202    296667896
01 37019076  CO125  M  PINVEX SOL.TOP.BUCAL 10ML                   2 633516136 646445037  258578021267032272       000    0    0    0    0    2         1  7591818111055       21030285       21030285   512305120001  N  0                         00457 01/10/2025       USD          214          427    296667896
01 37019076  LT434  M  PULMOLET SUSP. P.NEB. 15CC.                12 675220000 689000000 1653600008102640000       000    0    0    0    0    2         1  7591585117199       21029734       21029734   512305120001  N  0                           027 01/11/2022       USD          228         2731    296667896
01 37019076  11570  M  RAMIPRES 2,5MG. X30CO                       210192000001040000000  416000002038400000       000    0    0    0    0    2         1  7591619520520       21030285       21030285   512305120001  N  0                          0007 01/03/2024       USD          344          687    296667896
02 37019076        146   88176646618           000           000   88176646618    0    0    0  000    0    0    0   17/05/2021 10:00:47 p.m.   PR           000           000             0            19           USD    296667896        29722
