01 37017652  GQ954  M  BETAHISTINA ELTER 16MG. X20                 115279082001559090000  311818001527908200       000    0    0    0    0    2         1  7592454002400       21030296       21030296   512305130001  N  0                       3265285 01/04/2023       USD          515          515    296667896
01 37017652  LT028  M  BIOTALOL 2,5MG. X30CO                       413377000001365000000 1092000005350800000       000    0    0    0    0    2         1  7591585217172       21030285       21030285   512305130001  N  0                           058 01/04/2023       USD          451         1804    296667896
01 37017652  LT031  M  BIOTALOL 5MG. X30CO                         417581200001794000000 1435200007032480000       000    0    0    0    0    2         1  7591585217165       21030285       21030285   512305130001  N  0                           113 01/12/2022       USD          593         2370    296667896
01 37017652  QM200  M  BUMETIN RETARD300MG.X20TA                   117493294001785030000  357006001749329400       000    0    0    0    0    2         1  7703763861002       21030285       21030285   512305130001  N  0                       3261051 01/01/2023       USD          590          590    296667896
01 37017652  NP099  N  CALCIBON NATAL FORTE 30TAB.                 321944650002239250000 13435500065833950001053343200    0    0    0    0    2         1  7591821102071       21030296       21030296   512305130001  N  0                      20110421 01/11/2022       USD          740         2219    296667896
01 37017652  LT077  M  CANFIR LP 500MG. X30CO                      410574200001079000000  863200004229680000       000    0    0    0    0    2         1  7591585112620       21030296       21030296   512305130001  N  0                           025 01/11/2022       USD          356         1426    296667896
01 37017652  12025  M  CEFADROXILO DAC500 X10TA                   10 772473975 829725000 5725102507724739750       000    0    0    5    0    2         1  8906121690033       21030285       21030285   512305130001  N  0                          V115 01/06/2022       USD          260         2604    296667896
01 37017652  VM125  M  CO-SULTRIN TAB. X20                         4 457048799 466376326  373101081828195196       000    0    0    0    0    2         1  7591020001076       21030285       21030285   512305130001  N  0                           172 01/02/2026       USD          154          616    296667896
01 37017652  12466  M  DEKORT 4MG. X20TA                           321626150002206750000 1324050006487845000       000    0    0    0    0    2         1  8699525019752       21030296       21030296   512305130001  N  0                       A088151 01/08/2022       USD          729         2187    296667896
01 37017652  12397  M  FESTAL 210MG X10GRG                         2 879060000 897000000  358800001758120000       000    0    0    0    0    2         1  7591044407526       21030296       21030296   512305130001  N  0                         31748 01/03/2023       USD          296          593    296667896
01 37017652  EL035  M  GENURIN 200MG. X10CO                        420159182322057059420 1645647528063672928       000    0    0    0    0    2         1  7591062901198       21030296       21030296   512305130001  N  0                        21018A 01/03/2023       USD          680         2718    296667896
01 37017652  SA520  M  MESIGYNA INSTAYECT 1ML.                     224560172002506140000 1002456004912034400       000    0    0    0    0    2         1  7501303443318       21030296       21030296   512305130001  N  0                       XB30LG4 01/05/2022       USD          828         1656    296667896
01 37017652  11602  M  METFORMINA SW 850MG.X30TA                   8 702356200 716690000 1146704005618849600       000    0    0    0    0    2         1  7705959880019       21030285       21030285   512305130001  N  0                       ACL4294 01/10/2023       USD          237         1894    296667896
01 37017652  FA239  M  NOTOLAC 30MG. X4TA.SUBL.                    4 695604000 709800000  567840002782416000       000    0    0    0    0    2         1  7591821210134       21030285       21030285   512305130001  N  0                       2008742 01/09/2022       USD          234          938    296667896
01 37017652  13504  M  PEGYT 150MG X20 CAP                         616562000001690000000 2028000009937200000       000    0    0    0    0    2         1  7591585317025       21030285       21030285   512305130001  N  0                           004 01/08/2023       USD          558         3350    296667896
01 37017652  LT043  M  PEGYT 75MG. X20CA                           511466000001170000000 1170000005733000000       000    0    0    0    0    2         1  7591585317018       21030285       21030285   512305130001  N  0                           046 01/12/2023       USD          386         1932    296667896
01 37017652  LT885  M  TENSOPIN 10MG. X20CO.DISP                   3 649740000 663000000  397800001949220000       000    0    0    0    0    2         1  7591585111784       21030285       21030285   512305130001  N  0                           164 01/06/2023       USD          219          657    296667896
01 37017652  MK959  M  TIOCOLCHICOSIDO +MK 4MG.X12                 412281360001253200000 1002560004912544000       000    0    0    0    0    2         1  7591519007749       21030285       21030285   512305130001  N  0                         31745 01/02/2024       USD          414         1656    296667896
01 37017652  12080  M  TIOCOLCHICOSIDO AL4MG.X2A                  10 808986394 907138814 9815242008089863940       000    0    0    9    0    2         1       75971359       21030285       21030285   512305130001  N  0                        DG1937 01/05/2022       USD          273         2727    296667896
01 37017652  QM360  M  TIOCOLFEN 600-4 X15TA                       223098894002357030000  942812004619778800       000    0    0    0    0    2         1  7592454001779       21030285       21030285   512305130001  N  0                       3264254 01/03/2023       USD          779         1557    296667896
02 37017652         84  100891072214           000    1053343200  101944415414    0    0    0  000    0    0    0   17/05/2021 02:06:12 p.m.   PR           000           000             0            20           USD    296667896        34008
