01 37083217  FF660  M  FERRIUM PLUS TAB.MAST. X30                  622358700002235870000       000       000       000    0    0    0    0    0         1  7591096003493       21089582       21089582   512977320001  N  0                    E16WW20001 01/11/2022       USD          690         4138    324185460
01 37083217  VM474  M  IBUCOLVAL 400/4MG. X20TA                    616575000001657500000       0009945000000       000    0    0    0    0    0         1  7591020008051       21089582       21089582   512977320001  N  0                           289 01/04/2023       USD          511         3068    324185460
01 37083217  VM001  M  IBUCOLVAL 600/4MG. X20TA                    623205000002320500000       000       000       000    0    0    0    0    0         1  7591020008648       21089582       21089582   512977320001  N  0                           230 01/04/2026       USD          716         4295    324185460
01 37083217  13486  M  ITRACONAZOL 100 MGX10 CAP                   414352000001435200000       0005740800000       000    0    0    0    0    0         1  7598176000229       21089582       21089582   512977320001  N  0                       CEMH054 01/07/2023       USD          443         1771    324185460
01 37083217  BQ230  M  LANCERAN GOTAS PED. 30ML.                   6 665437500 665437500       0003992625000       000    0    0    0    0    0         1  7594000850220       21089582       21089582   512977320001  N  0                        210316 01/03/2024       USD          205         1232    324185460
01 37083217  13126  M  SALBUTAMOL DIS100 200D                      818185683501818568350       000       000       000    0    0    0    0    0         1  7598252101512       21089582       21089582   512977320001  N  0                        200903 01/09/2023       USD          561         4488    324185460
01 37083217  12378  M  TAMSULOSINA 0.4MG X30TA                     416120000001612000000       0006448000000       000    0    0    0    0    0         1  7598176000069       21089582       21089582   512977320001  N  0                       21T0435 01/03/2024       USD          497         1989    324185460
01 37083217  ED185  M  VIZERUL 150MG. X10CO                        4 806000000 806000000       0003224000000       000    0    0    0    0    0         1  7592803000989       21089582       21089582   512977320001  N  0                       2104523 01/04/2024       USD          249          994    324185460
01 37083217  BA950  M  YAZ 3MG/20MCG. X28CO                        246455500004645550000       0009291100000       000    0    0    0    0    0         1  7896116861634       21089971       21089971   512977320001  N  0                       BS01PH0 01/07/2022       USD         1433         2866    324185460
01 37083217  OJ021  N  ZABILA-LINAZA HP CAPS.X60                   213650000001365000000       0002730000000       000    0    0    0    0    0         1  7592710001000       21089582       21089582   512977320001  N  0                       0662503 01/03/2024       USD          421          842    324185460
01 37083217  ZU002  C  IODINEX SOL.BACTE. 120ML.                   4 920724288 969183461 1938366923682897152       000    0    0    5    0    0         2  7595248000040       21089582       21089582   512977320002  N  0                       0200544 01/04/2026       USD          284         1136    324185460
01 37083217  VM780  M  AMOXIVAL 250MG.PPSO 90ML.                   612396867911239686791       0007438120746       000    0    0    0    0    0         3  7591020000758       21089582       21089582   512977320003  N  0                           415 01/10/2022       USD          382         2294    324185460
01 37083217  MG604  M  FULGRAM 600/42,9SUSP.60CC                   422945000002294500000       0009178000000       000    0    0    0    0    0         3  7591585113139       21089582       21089582   512977320003  N  0                           329 01/04/2023       USD          708         2831    324185460
01 37083217  NP039  M  VALPRON 250MG. JBE.180ML.                   325949371032594937103       0007784811309       000    0    0    0    0    0         3  7591821901964       21089713       21089713   512977320003  N  0                       2010053 01/11/2022       USD          800         2401    324185460
02 37083217         65  107659223855    3682897152           000  111342121007    0    0    0  000    0    0    0   05/07/2021 01:34:22 p.m.   PR           000           000             0            14           USD    324185460        34345
