01 37098787  12928  M  CLOTRIMAZOL AL500MG X1OVU                   6 563272520 704090650 8449087803379635120       000  000  000 2000  000  000         1  7597758000664       21106354       21106354   513141130001  N  0                      K1AHK004 01/07/2023       USD          159          952    354828385
01 37098787  KF190  M  DERMAZOL 0,05% CR.30GR.                     412155000001430000000 8580000004862000000       000  000  000 1500  000  000         1  7591619519036       21106354       21106354   513141130001  N  0                          0061 01/03/2023       USD          343         1370    354828385
01 37098787  KN460  M  IVERGOT 6MG. X4CO                           8 884000000104000000012480000007072000000       000  000  000 1500  000  000         1  7591619001234       21106354       21106354   513141130001  N  0                          0001 01/04/2024       USD          249         1993    354828385
01 37098787  PD729  M  KELFEN GEL TOPICO 30GR.                     312155000001430000000 6435000003646500000       000  000  000 1500  000  000         1  7591955001677       21106354       21106354   513141130001  N  0                          0018 01/04/2023       USD          343         1028    354828385
01 37098787  KN104  M  RIDAL 1MG. SOL.ORAL 20ML.                   210400000001040000000       0002080000000       000  000  000  000  000  000         1  7594000491799       21106354       21106354   513141130001  N  0                          0032 01/01/2024       USD          293          586    354828385
01 37098787  PD124  M  TRIDETARMON CR. 15GR.                       3 9945000001170000000 5265000002983500000       000  000  000 1500  000  000         1  7591955000762       21106354       21106354   513141130001  N  0                          0080 01/04/2023       USD          280          841    354828385
02 37098787         26   24023635120           000           000   24023635120    0    0    0  000    0    0    0   19/07/2021 02:58:19 p.m.   PR           000           000             0             6           USD    354828385         6770
