01 37123612  MY185  M  BENDAMEN 100MG. X6TA                       12 827590400 844480000 2026752009931084800       000  000  000  000  000  200         1  7592601100218       21124672       21124672   513385890001  N  0                        111601 01/02/2023       USD          206         2473    401564576
01 37123612  PA126  M  BETADERM CR. 0,05% 15GR.                    314701825041500186229  900111754410547512       000  000  000  000  000  200         1  7591243804140       21124672       21124672   513385890001  N  0                       9231903 01/02/2023       USD          366         1098    401564576
01 37123612  PA054  M  BETADERM PLUS CREMA 15GR.                   315621077121593987461  956392474686323136       000  000  000  000  000  200         1  7591243804164       21124672       21124672   513385890001  N  0                       9230703 01/03/2023       USD          389         1167    401564576
01 37123612  GQ954  M  BETAHISTINA ELTER16MG.X20                   418702320001908400000 1526720007480928000       000  000  000  000  000  200         1  7592454002400       21124659       21124659   513385890001  N  0                       3267325 01/05/2023       USD          466         1863    401564576
01 37123612  MK133  M  CAPTOPRIL +MK 50MG. X30TA                   513109460001337700000 1337700006554730000       000  000  000  000  000  200         1  7591519051292       21124672       21124672   513385890001  N  0                         31775 01/03/2024       USD          326         1632    401564576
01 37123612  GQ600  M  CAPTOPRIL ELTER 25 X20TA                   12 343387590 58890000029461489204120651080       000  000 1500 3000  000  200         1  7703763100194       21124659       21124659   513385890001  N  0                       3228625 01/05/2022       USD          086         1026    401564576
01 37123612  MK027  M  DEFLAZACORT +MK 6MG. X10                    420065500002047500000 1638000008026200000       000  000  000  000  000  200         1  7591519008197       21124659       21124659   513385890001  N  0                         31982 01/05/2024       USD          500         1999    401564576
01 37123612  MK103  M  DIOSMINA +MK 600MG. X14TA                   231429580003207100000 1282840006285916000       000  000  000  000  000  200         1  7591519051193       21124672       21124672   513385890001  N  0                         32014 01/05/2024       USD          783         1565    401564576
01 37123612  MK579  M  DOL PLUS TAB. X10                           4 788606000 804700000  643760003154424000       000  000  000  000  000  200         1  7591519005134       21124672       21124672   513385890001  N  0                         31834 01/03/2024       USD          196          786    401564576
01 37123612  MY060  N  EQUALIV TAB. X30                            220358520002077400000  830960004071704000       000  000  000  000  000  200         1  7592601100805       21124659       21124659   513385890001  N  0                        050102 01/06/2022       USD          507         1014    401564576
01 37123612  GQ269  M  SILDENAFIL ELTER50MG.X1TA                  12 369460000 377000000  904800004433520000       000  000  000  000  000  200         1  7592454173971       21124659       21124659   513385890001  N  0                       3267660 01/05/2023       USD          092         1104    401564576
01 37123612  QO540  M  BROXOL ALERG S.ORAL 100ML                   414561820001485900000 1188720005824728000       000  000  000  000  000  200         2  7592454889513       21124659       21124659   513385890002  N  0                       3270983 01/06/2023       USD          363         1450    401564576
01 37123612  GQ474  M  CEFADROXILO ELTER250 60ML                   812141220001238900000 1982240009712976000       000  000  000  000  000  200         2  7703763180318       21124659       21124659   513385890002  N  0                       3237479 01/01/2022       USD          302         2419    401564576
01 37123612  11526  M  NONAFOL 10MG. GOTAS 15ML.                   810822630001104350000 1766960008658104000       000  000  000  000  000  200         2  7592601303114       21124672       21124672   513385890002  N  0                        054205 01/09/2022       USD          270         2156    401564576
02 37123612         83   87351836528           000           000   87351836528    0    0    0  000    0    0    0   02/08/2021 09:06:53 a.m.   PR           000           000             0            14           USD    401564576        21753
