01 37123928  GT119  M  ASAPROL 81MG. X100CO                       1235162400003588000000 861120000       000       000  000  000  000  000  200         1  7591585261236       21124672       21124672   513385870001  N  0                           166 01/05/2023       USD          876        10508    401564576
01 37123928  14871  M  AZITROMICINA FM200 15ML.                    6 611520000 624000000  748800003669120000       000  000  000  000  000  200         1  8906082150782       21124659       21124659   513385870001  N  0                      PLS20001 01/11/2022       USD          152          914    401564576
01 37123928  LT028  M  BIOTALOL 2,5MG. X30CO                       514651000001495000000 1495000007325500000       000  000  000  000  000  200         1  7591585217172       21124659       21124659   513385870001  N  0                           058 01/04/2023       USD          365         1824    401564576
01 37123928  LT031  M  BIOTALOL 5MG. X30CO                         519364800001976000000 1976000009682400000       000  000  000  000  000  200         1  7591585217165       21124659       21124659   513385870001  N  0                           114 01/01/2023       USD          482         2411    401564576
01 37123928  EL009  M  BRUGESIC 200MG. X10CO                      12 568671673 580277217 1392665286824060076       000  000  000  000  000  200         1  7591062902379       21124659       21124659   513385870001  N  0                        20048A 01/05/2022       USD          142         1699    401564576
01 37123928  EL920  M  BRUGESIC 400MG CO X 10                     12 784475526 800485231 1921164609413706312       000  000  000  000  000  200         1  7591062902546       21124659       21124659   513385870001  N  0                        21024A 01/05/2023       USD          195         2344    401564576
01 37123928  EL524  M  BRUGESICFORTE 200SUSP60ML                   6 938606964 957762208 1149314645631641784       000  000  000  000  000  200         1  7591062013082       21124659       21124659   513385870001  N  0                        20140A 01/11/2022       USD          234         1402    401564576
01 37123928  SA520  M  MESIGYNA INSTAYECT 1ML.                     533228468003390660000 339066000       000       000  000  000  000  000  200         1  7501303443318       21124659       21124659   513385870001  N  0                       XB30LG4 01/05/2022       USD          827         4137    401564576
01 37123928  AQ160  N  ÑAME SALVAJE AI CAPS. X60                   226219177352675426260 1070170505243835470       000  000  000  000  000  200         1  7592946005964       21124672       21124672   513385870001  N  0                      06205964 01/10/2022       USD          653         1306    401564576
01 37123928  12015  M  OMEPRAZOL DAC20MG. X20CA                   24 587059200 599040000 287539200       000       000  000  000  000  000  200         1  8906121690101       21124659       21124659   513385870001  N  0                          V128 01/06/2023       USD          146         3509    401564576
01 37123928  LT043  M  PEGYT 75MG. X20CA                           317237220001758900000 1055340005171166000       000  000  000  000  000  200         1  7591585317018       21124659       21124659   513385870001  N  0                           047 01/03/2024       USD          429         1288    401564576
01 37123928  14239  M  VALSARTAN GDG.PH 160MGX14                   6 952952000114400000011462880005717712000       000  000  000 1500  000  200         1  7598307000104       21124659       21124659   513385870001  N  0                         SM019 01/12/2023       USD          237         1424    401564576
01 37123928  XS025  N  VASELINA RECETTE 60GR.                      6 488832431 498808603  598570322932994586 469279134  000  000  000  000  200         1  7594001451907       21124672       21124672   513385870001  N  0                      26042173 01/03/2023       USD          122          730    401564576
01 37123928  ET340  C  ADEMINA PLUS CR.CORP.30GR                  12 688256333 702302381 16855257682590759961321452159  000  000  000  000  200         2  7591844000439       21124659       21124659   513385870002  N  0                    AP30210103 01/05/2024       USD          171         2057    401564576
01 37123928  12516  M  REHIDROSOL FRAMBUES 600ML                   6 897388841 915702899 1098843485384333046       000  000  000  000  000  200         3  7592637398535       21124659       21124659   513385870003  N  0                       2100050 01/03/2023       USD          223         1341    401564576
01 37123928  11944  M  REHIDROSOL MANZANA 600ML.                   6 939607560 958783224 1150539845637645360       000  000  000  000  000  200         3  7592637398528       21124659       21124659   513385870003  N  0                       2100059 01/04/2023       USD          234         1404    401564576
01 37123928  PB003  N  WAMPOLE EMUL. NRJA.240CC.                   3 616977592 629568971  377741371850932776 296149244  000  000  000  000  200         3  7591309000608       21124672       21124672   513385870003  N  0                      A2107213 01/07/2023       USD          154          461    401564576
01 37123928  PB006  N  WAMPOLE EMUL.T.FRUTI240ML                   2 616977592 629568971  251827581233955184 197432829  000  000  000  000  200         3  7591309000967       21124672       21124672   513385870003  N  0                      A2106188 01/06/2023       USD          154          307    401564576
02 37123928        133  148617537394    8259075996    2284313367  159160926757    0    0    0  000    0    0    0   02/08/2021 10:56:09 a.m.   PR           000           000             0            18           USD    401564576        39066
