01 37123815  VO107  M  AC FOLICO GENCER 10X30                     24 763603750 779187500 374010000       000       000  000  000  000  000  200         1  7591020008174       21124672       21124672   513385880001  N  0                            23 01/05/2026       USD          190         4564    401564576
01 37123815  VP041  M  ATOVAROL 40MG. X30CA                        430288083463090620761 247249660       000       000  000  000  000  000  200         1  7592432900155       21124672       21124672   513385880001  N  0                        210050 01/03/2023       USD          754         3017    401564576
01 37123815  KF190  M  DERMAZOL 0,05% CR.30GR.                     515288000001560000000 1560000007644000000       000  000  000  000  000  200         1  7591619519036       21124659       21124659   513385880001  N  0                          0061 01/03/2023       USD          381         1904    401564576
01 37123815  CO540  M  MIOVIT COMP. 3ML. X3A KIT                   6170395549618899240201115811144       000       000  000  000  800  000  200         1  7591818026366       21124659       21124659   513385880001  N  0                         10042 01/03/2024       USD          424         2546    401564576
01 37123815  CO105  M  MIOVIT GRAGEAS X30                          317404489861930400384 5698541945221346958       000  000  000  800  000  200         1  7591818118047       21124659       21124659   513385880001  N  0                         10168 01/05/2024       USD          433         1300    401564576
01 37123815  LO414  M  NAS SOL.GOTAS AD. 15ML.                     8 486132487 496053558  793685683889059896       000  000  000  000  000  200         1  7591196003140       21124659       21124659   513385880001  N  0                       I100017 01/11/2022       USD          121          968    401564576
01 37123815  LO419  M  NAS SOL.NASAL PED.15ML.                     3 486132487 496053558  297632131458397461       000  000  000  000  000  200         1  7591196003027       21124659       21124659   513385880001  N  0                        110829 01/11/2022       USD          121          363    401564576
01 37123815  VM780  M  AMOXIVAL 250MG.PPSO 90ML.                   614742896421504377186 1805252648845737852       000  000  000  000  000  200         2  7591020000758       21124672       21124672   513385880002  N  0                           414 01/10/2022       USD          367         2203    401564576
01 37123815  PD990  M  FERGANIC FOLIC JBE.120CC.                   624206000002470000000 296400000       000       000  000  000  000  000  200         2  7591955002803       21124659       21124659   513385880002  N  0                          0105 01/03/2024       USD          603         3617    401564576
02 37123815         65   82247598527           000           000   82247598527    0    0    0  000    0    0    0   02/08/2021 10:25:48 a.m.   PR           000           000             0             9           USD    401564576        20482
