01 37135026  11600  C  BARR DER.BIOS P.GRASA 90                    3 359197802 366528369  219917011077593406 172414945  000  000  000  000  200         1  7595481000234       21135881       21135881   513507750001  N  0                        210602 01/06/2025       USD          088          263    409450202
01 37135026  VT300  C  BOROCANFOR ORIG.POLVO 120GR                 314087076001437456735  862474054226122800 676179648  000  000  000  000  200         1       75930530       21135881       21135881   513507750001  N  0                       2105503 01/05/2023       USD          344         1032    409450202
01 37135026  VT125  C  BOROCANFOR ORIG.POLVO 60GR                  4 860604505 878167862  702534283442418020 550786883  000  000  000  000  200         1       75930516       21135881       21135881   513507750001  N  0                       2105501 01/05/2023       USD          210          841    409450202
01 37135026  12123  C  BOROCANFOR ORIG.PVO.35GR                    4 574808454 586539239  469231402299233816 367877411  000  000  000  000  200         1       75971427       21135881       21135881   513507750001  N  0                       2106301 01/06/2023       USD          140          562    409450202
01 37135026  ED165  C  NOPUCID CH. 100 CC.                         412612600001287000000 1029600005045040000 807206400  000  000  000  000  200         1  7592803000811       21135887       21135887   513507750001  N  0                       2105539 01/05/2023       USD          308         1232    409450202
01 37135026  ED175  C  NOPUCID LOC. 100 CC.                        213663650001394250000  557700002732730000 437236800  000  000  000  000  200         1  7592803000835       21135887       21135887   513507750001  N  0                       2101475 01/01/2023       USD          334          667    409450202
01 37135026  MG604  M  FULGRAM 600/42,9SUSP.60CC                   433550790003423550000 273884000       000       000  000  000  000  000  200         2  7591585113139       21135881       21135881   513507750002  N  0                           329 01/04/2023       USD          819         3278    409450202
01 37135026  ED379  M  VIZERUL 150MG. JBE.120ML.                   623569000002405000000 288600000       000       000  000  000  000  000  200         2  7592803002389       21135887       21135887   513507750002  N  0                       2106558 01/06/2023       USD          576         3454    409450202
01 37135026  LT992  M  ZONTRICON 100MG.PPSO30ML                    430410380003103100000 248248000       000       000  000  000  000  000  200         2  7591585118455       21135881       21135881   513507750002  N  0                           178 01/07/2024       USD          743         2971    409450202
02 37135026         34   39725868000   18823138042    3011702087   61560708129    0    0    0  000    0    0    0   11/08/2021 08:18:12 a.m.   PR           000           000             0             9           USD    409450202        14299
