01 37138884  13464  M  CANDEXIL PLUS 32/12,5MX28                   246108608004704960000 1881984009221721600       000  000  000  000  000  200         1  8699525014351       21138741       21138741   513541060001  N  0                       A086787 01/07/2023       USD         1121         2242    411336568
01 37138884  12574  M  METRONIDAZOL KMPLU 500X10                  12 316461600 322920000  775008003797539200       000  000  000  000  000  200         1  6921875010878       21138741       21138741   513541060001  N  0                       2004435 01/04/2023       USD          077          923    411336568
01 37138884  NP024  M  NOTOLAC 20MG. X10TA                         411475007181170919100  936735284590002872       000  000  000  000  000  200         1  7591821902022       21138741       21138741   513541060001  N  0                       2101002 01/03/2024       USD          279         1116    411336568
01 37138884  ZP290  M  OVUMIX 750-200  X7 O.VAG.                   227327300002788500000 1115400005465460000       000  000  000  000  000  200         1  7796285273231       21138741       21138741   513541060001  N  0                          8834 01/11/2022       USD          664         1329    411336568
01 37138884  LT043  M  PEGYT 75MG. X20CA                           217237220001758900000  703560003447444000       000  000  000  000  000  200         1  7591585317018       21138741       21138741   513541060001  N  0                           047 01/03/2024       USD          419          838    411336568
01 37138884  LT284  M  ANTUX SOL.ORAL 180ML.                       431595200003224000000 257920000       000       000  000  000  000  000  200         2  7591585214706       21138741       21138741   513541060002  N  0                           281 01/05/2023       USD          768         3072    411336568
02 37138884         26   39160247672           000           000   39160247672    0    0    0  000    0    0    0   13/08/2021 10:01:53 a.m.   PR           000           000             0             6           USD    411336568         9520
