01 37136261  ED450  M  ARZOMIDOL SUSP. 200MG.15ML.                1013377000001365000000 273000000       000       000  000  000  000  000  200         1  7592803000019       21135887       21135887   513507740001  N  0                       2107574 01/07/2023       USD          327         3267    409450202
01 37136261  14802  C  GUANTE ETER COC.CLAS-7                      2 658272326 671706455  268682581316544652 210647144  000  000  000  000  200         1  7702037503235       21135881       21135881   513507740001  N  0                           10X 01/01/2030       USD          161          322    409450202
01 37136261  14802  C  GUANTE ETER COC.CLAS-7                      2 513269736 523744629  209497861026539472 164246316  000  000  000  000  200         1  7702037503235       21135881       21135881   513507740001  N  0                           10X 01/01/2030       USD          125          251    409450202
01 37136261  14802  C  GUANTE ETER COC.CLAS-7                      4 658272326 671706455  537365162633089304 421294289  000  000  000  000  200         1  7702037503235       21135881       21135881   513507740001  N  0                           10X 01/01/2030       USD          161          643    409450202
01 37136261  14803  C  GUANTE ETER COC.CLAS-7.5                    8 658272326 671706455 1074730325266178608 842588577  000  000  000  000  200         1  7702037503242       21135881       21135881   513507740001  N  0                           10X 01/01/2030       USD          161         1286    409450202
01 37136261  14710  C  MASCARILLA DESC.PHARS.X50                   222733898532319785564  927914224546779706 727484753  000  000  000  000  200         1  7591061648131       21135887       21135887   513507740001  N  0                      10209118 01/02/2023       USD          555         1110    409450202
01 37136261  EM410  N  OMEGA 369 NS X60CABL                        224250590002474550000  989820004850118000       000  000  000  000  000  200         1   646824234063       21135881       21135881   513507740001  N  0                         39462 01/06/2024       USD          592         1185    409450202
01 37136261  14441  C  PILA TOSHIBA AAA X2                         6 611825760 624312000  749174403670954560 587352730  000  000  000  000  200         1  4904530592751       21135881       21135881   513507740001  N  0                           10X 01/01/2029       USD          149          897    409450202
01 37136261  ED185  M  VIZERUL 150MG. X10CO                        410510500001072500000  858000004204200000       000  000  000  000  000  200         1  7592803000989       21135887       21135887   513507740001  N  0                       2104523 01/04/2024       USD          257         1027    409450202
01 37136261  LN260  M  ACICLOVIR LN 200MG. X25TA                   412130446811237800695  990240564852178724       000  000  000  000  000  200         2  7592348201100       21135881       21135881   513507740002  N  0                       2006054 01/06/2023       USD          296         1185    409450202
01 37136261  LN001  M  ACICLOVIR LN CR.TOP.20GR.                   413436718751371093750 1096875005374687500       000  000  000  000  000  200         2  7592348201117       21135881       21135881   513507740002  N  0                       2104102 01/04/2024       USD          328         1313    409450202
01 37136261  13643  M  AZITROMICINA 500MGX5 TAB                   1211466000001170000000 280800000       000       000  000  000  000  000  200         2  0675696259973       21135887       21135887   513507740002  N  0                       AZN7601 01/08/2023       USD          280         3360    409450202
01 37136261  VP534  M  CARVIX CAPS.BLANDAS X30                     613535801311381204215 1657445048121480786       000  000  000  000  000  200         2  7592432009728       21135887       21135887   513507740002  N  0                        210163 01/05/2024       USD          331         1984    409450202
01 37136261  VP990  M  CEVAX 500MG. X30CA.BLA                      61392216145157847635511175612608353296870       000  000 1000  000  000  200         2  7592432007649       21135881       21135881   513507740002  N  0                        210181 01/06/2023       USD          340         2040    409450202
01 37136261  10091  M  CLAVOXILIN 500-125 X16CO                    430147936003076320000 246105600       000       000  000  000  000  000  200         2  5600360011644       21135887       21135887   513507740002  N  0                     J0011013J 01/10/2022       USD          736         2945    409450202
01 37136261  11499  M  FULGRAM 875MG-125MG X16CO                   449227360005023200000 401856000       000       000  000  000  000  000  200         2  7591585213198       21135881       21135881   513507740002  N  0                           605 01/04/2023       USD         1202         4809    409450202
01 37136261  13400  M  GLICAZET 500/2,5 X40TA                      417443665241779965841 1423972686977466096       000  000  000  000  000  200         2  7406076125303       21135887       21135887   513507740002  N  0                        J20038 01/10/2023       USD          426         1704    409450202
01 37136261  12028  M  METFORMINA DAC500 X30TA                     6 834724800 851760000 1022112005008348800       000  000  000  000  000  200         2  7598578000155       21135887       21135887   513507740002  N  0                          V161 01/09/2023       USD          204         1223    409450202
01 37136261  10703  M  METFORMINA SP 850MG.X30CO                   6 955500000 975000000 1170000005733000000       000  000  000  000  000  200         2  7590027002123       21135887       21135887   513507740002  N  0                           301 01/03/2023       USD          233         1400    409450202
01 37136261  LC409  M  MIGREN 650-50-1 X10CO                       6 637000000 650000000  780000003822000000       000  000  000  000  000  200         2  7591585115737       21135887       21135887   513507740002  N  0                           526 01/06/2023       USD          156          933    409450202
01 37136261  LX102  M  MIGREN 650-50-1 X20CO                       810790780001101100000 1761760008632624000       000  000  000  000  000  200         2  7591585415738       21135887       21135887   513507740002  N  0                           519 01/04/2023       USD          264         2108    409450202
01 37136261  11279  N  SENOKOT C.DOCUSATO X10TA                    616625700001696500000 2035800009975420000       000  000  000  000  000  200         2  7591821210295       21135887       21135887   513507740002  N  0                       2010063 01/10/2022       USD          406         2436    409450202
01 37136261  KV280  N  SENOKOT JBE. 10MG. 120ML.                   428665000002925000000 234000000       000       000  000  000  000  000  200         2  7591821800212       21135887       21135887   513507740002  N  0                      2106231B 01/07/2023       USD          700         2800    409450202
01 37136261  LT993  M  ZONTRICON 500MG. X6CO                       432232200003289000000 263120000       000       000  000  000  000  000  200         2  7591585118462       21135881       21135881   513507740002  N  0                           090 01/03/2023       USD          787         3149    409450202
02 37136261        124  159150019176   18460086302    2953613808  180563719286    0    0    0  000    0    0    0   11/08/2021 02:51:20 p.m.   PR           000           000             0            24           USD    409450202        43378
