01 37135531  VM464  M  CANDER 16MG. X30TA                          424843000002535000000 2028000009937200000       000  000  000  000  000  200         1  7591020008303       21135887       21135887   513507760001  N  0                           145 01/07/2025       USD          607         2427    409450202
01 37135531  VM025  M  CANDER HCT 16/12,5 X30TAB                   829700125003030625000 484900000       000       000  000  000  000  000  200         1  7591020080620       21135887       21135887   513507760001  N  0                            37 01/06/2023       USD          725         5803    409450202
01 37135531  VM026  M  CANDER HCT 8/12,5 X30TAB                    419110000001950000000 1560000007644000000       000  000  000  000  000  200         1  7591020080637       21135887       21135887   513507760001  N  0                            29 01/06/2023       USD          467         1867    409450202
01 37135531  OJ001  N  CENTELLA A. HP CAPS. X60                    220650266002341300000 5525468004130053200       000  000  000 1000  000  200         1  7592710000461       21135881       21135881   513507760001  N  0                       0131207 01/07/2024       USD          504         1009    409450202
01 37135531  11764  N  GLUCOSAMINA-CHON HP X60CA                   227506934003118700000 7360132005501386800       000  000  000 1000  000  200         1  7592710000881       21135887       21135887   513507760001  N  0                       0552805 01/05/2024       USD          672         1344    409450202
01 37135531  12500  N  LEVAD.CERVEZA AI500 X60CA                   226219177352675426260 1070170505243835470       000  000  000  000  000  200         1  7592946169918       21135881       21135881   513507760001  N  0                      07209918 01/10/2022       USD          640         1281    409450202
01 37135531  KL419  M  MIGRADORIXINA 125-1 X10CO                   4 9746100001170000000 7815600003898440000       000  000  000 1500  000  200         1  7591619518688       21135887       21135887   513507760001  N  0                          1012 01/03/2023       USD          238          952    409450202
01 37135531  LO414  M  NAS SOL.GOTAS AD. 15ML.                     6 544468385 555579985  666696003266810310       000  000  000  000  000  200         1  7591196003140       21135887       21135887   513507760001  N  0                       I120060 01/12/2022       USD          133          798    409450202
01 37135531  14786  M  NEULEVAL 500MG. X10TA                      1229461250003006250000 721500000       000       000  000  000  000  000  200         1  7591020081122       21135719       21135719   513507760001  N  0                            03 01/05/2023       USD          720         8634    409450202
01 37135531  LO550  M  QUINOTIC 0,30%S.OTICA 5ML                   410446943951066014689  852811764178777580       000  000  000  000  000  200         1  7591196000620       21135887       21135887   513507760001  N  0                        041077 01/04/2023       USD          255         1021    409450202
01 37135531  LO580  M  QUINOTIC HC OTICA 5ML.                      313760179271404099925  842459944128053781       000  000  000  000  000  200         1  7591196000637       21135887       21135887   513507760001  N  0                        051739 01/05/2023       USD          336         1008    409450202
01 37135531  PD124  M  TRIDETARMON CR. 15GR.                       411911900001430000000 9552400004764760000       000  000  000 1500  000  200         1  7591955000762       21135881       21135881   513507760001  N  0                          0081 01/04/2023       USD          291         1164    409450202
01 37135531  14816  M  AMOXIVAL AC250-62,5 60ML.                   817372700861772724578 283635936       000       000  000  000  000  000  200         2  7591020009003       21135887       21135887   513507760002  N  0                            04 01/05/2023       USD          424         3394    409450202
01 37135531  14817  M  AMOXIVAL AC400-57 60ML.                     619528894291992744315 239129316       000       000  000  000  000  000  200         2  7591020009010       21135887       21135887   513507760002  N  0                            03 01/06/2023       USD          477         2862    409450202
01 37135531  11143  N  BEUSAN CEB.MORADA JBE.240                   6 780261300 884650000 6263322004681567800       000  000  000 1000  000  200         2  7592710001260       21135881       21135881   513507760002  N  0                       1360408 01/08/2023       USD          191         1143    409450202
01 37135531  11142  N  BEUSAN EXPECTO JBE.240ML                    6 780261300 884650000 6263322004681567800       000  000  000 1000  000  200         2  7592710001277       21135881       21135881   513507760002  N  0                       1342406 01/06/2023       USD          191         1143    409450202
01 37135531  11144  N  BEUSAN PLUS JBE. 240ML.                     6 780261300 884650000 6263322004681567800       000  000  000 1000  000  200         2  7592710001253       21135881       21135881   513507760002  N  0                       1350707 01/06/2023       USD          191         1143    409450202
02 37135531         87  151467117803           000           000  151467117803    0    0    0  000    0    0    0   11/08/2021 10:59:14 a.m.   PR           000           000             0            17           USD    409450202        36993
