01 37144294  12992  C  CORTAUÑAS BEBE GENIAL                       2 716133685 730748658  292299461432267370 229162779  000  000  000  000  200         1  7453038456234       21143488       21143488   513594230001  N  0                           10X 01/01/2030       USD          173          347    413016486
01 37144294  GN146  M  ENALAPRIL GN 20MG. X30CO                    8 507164112 533520000 2108471044057312896       000  000  000  300  000  200         1  7591585378538       21143488       21143488   513594230001  N  0                           420 01/03/2023       USD          123          982    413016486
01 37144294  14567  M  LEVONORGESTREL LAND1.5 X1                   6 700700000 715000000  858000004204200000       000  000  000  000  000  200         1  7598008000472       21143488       21143488   513594230001  N  0                         T9074 01/09/2023       USD          170         1018    413016486
01 37144294  LT023  M  LONGACEF 400MG. X5CA                        3892233160093860000001391005200       000       000  000  000  300  000  200         1  7591585112224       21143488       21143488   513594230001  N  0                           038 01/02/2023       USD         2160         6481    413016486
01 37144294  LT041  M  RIFAMIX 200MG. X12CO                        436818600003757000000 300560000       000       000  000  000  000  000  200         1  7591585119049       21143488       21143488   513594230001  N  0                           041 01/10/2023       USD          891         3566    413016486
02 37144294         23   49755947696    1432267370     229162779   51417377845    0    0    0  000    0    0    0   18/08/2021 10:39:46 a.m.   PR           000           000             0             5           USD    413016486        12394
