01 37140813  NP002  M  FARMA D 1000UI X30TA                        412039300001228500000  982800004815720000       000  000  000  000  000  200         1  7591821102101       21140714       21140714   513559840001  N  0                       2106142 01/06/2024       USD          291         1164    413548809
01 37140813  14495  A  LACTOVAC SUSP.PED. 12ML.                    6 890879153 909060360 1090872425345274918       000  000  000  000  000  200         1  7596855001031       21140714       21140714   513559840001  N  0                   P0211210728 01/04/2022       USD          215         1293    413548809
01 37140813  XS021  N  SOL FISIOLOGICA XS 60ML                     6 306966946 313231578  375877921841801676       000  000  000  000  000  200         1  7594001451648       21140714       21140714   513559840001  N  0                      25052142 01/05/2023       USD          074          445    413548809
01 37140813  13121  M  SOLUCION F. 0,9% BM 100ML                   8 637000000 650000000 1040000005096000000       000  000  000  000  000  200         1  6972718560012       21140714       21140714   513559840001  N  0                        191128 01/10/2022       USD          154         1232    413548809
02 37140813         24   17098796594           000           000   17098796594    0    0    0  000    0    0    0   16/08/2021 12:58:37 p.m.   PR           000           000             0             4           USD    413548809         4135
