01 37144092  CO490  M  CELAY 10MG. GOTAS 15ML.                     2 575592220 652598889 1540133381151184440       000  000  000 1000  000  200         1  7591818111123       21143488       21143488   513594250001  N  0                         00299 01/07/2022       USD          139          279    413016486
01 37144092  CO460  M  CELAY 10MG. X10TA                          12 543730078 616474011 8729271966524760936       000  000  000 1000  000  200         1  7591818116104       21143488       21143488   513594250001  N  0                         10206 01/05/2023       USD          132         1580    413016486
01 37144092  CO003  M  CELAY SOL.ORAL. 100ML.                      610573372421198795059 8487469026344023452       000  000  000 1000  000  200         1  7591818215050       21143488       21143488   513594250001  N  0                         10076 01/03/2023       USD          256         1536    413016486
01 37144092  MY039  M  CETRAL SOL.ORAL 60ML.                       6 915114200 933790000 1120548005490685200       000  000  000  000  000  200         1  7592601100928       21143488       21143488   513594250001  N  0                        131201 01/01/2023       USD          222         1329    413016486
01 37144092  PD104  M  POLI-OTICO GOTAS 5 CC.                      4 9886240001040000000 2055040003954496000       000  000  000  300  000  200         1  7591955002278       21143488       21143488   513594250001  N  0                          0095 01/07/2022       USD          239          957    413016486
02 37144092         30   23465150028           000           000   23465150028    0    0    0  000    0    0    0   18/08/2021 09:43:25 a.m.   PR           000           000             0             5           USD    413016486         5681
