01 37149092  PO175  M  BACITRACINA PO UNG. 15GR.                   6 741468000 780000000 2311920004448808000       000  000  000  300  000  200         1  7592806141016       21148563       21148563   513648250001  N  0                        105072 01/05/2024       USD          180         1079    412346432
01 37149092  11805  M  CEFADROXILO MC500 X10CA                     6 797368954 813641790  976370164784213724       000  000  000  000  000  200         1  0614143659034       21148490       21148490   513648250001  N  0                        200232 01/04/2023       USD          193         1160    412346432
01 37149092  PA024  M  COLGESIC 400MG/4MG. X15CO                   421176591952160876730 1728701408470636780       000  000  000  000  000  200         1  7591243810028       21148563       21148563   513648250001  N  0                       9230901 01/06/2023       USD          514         2054    412346432
01 37149092  11288  M  COLYPAN 200MG. X10TA                        810654207201181700000 9302342408523365760       000  000  000  800  000  200         1  7591821210264       21148563       21148563   513648250001  N  0                       2105708 01/06/2024       USD          258         2067    412346432
01 37149092  GT004  M  COVENTROL 12,5MG. X30CO                     416116100001644500000 1315600006446440000       000  000  000  000  000  200         1  7591585365644       21148490       21148490   513648250001  N  0                           125 01/03/2023       USD          391         1563    412346432
01 37149092  11741  M  CRISOMET 50-500 X30TA                       259623200006084000000 243360000       000       000  000  000  000  000  200         1  7591821210509       21148411       21148411   513648250001  N  0                       2105068 01/04/2023       USD         1446         2892    412346432
01 37149092  ED590  M  DOLAK 20MG. X10CO                           411083800001131000000  904800004433520000       000  000  000  000  000  200         1  7592803000460       21148563       21148563   513648250001  N  0                       2105529 01/05/2023       USD          269         1075    412346432
01 37149092  ZA102  M  EVIGAX 125MG. X10CA.BLA                     411476448191377724873 9203202164590579276       000  000  000 1500  000  200         1  7592432900032       21148411       21148411   513648250001  N  0                        210122 01/05/2024       USD          278         1113    412346432
01 37149092  FA109  M  FARMACAINA POM. 35GR                        217199000001755000000  702000003439800000       000  000  000  000  000  200         1  7592229001294       21148563       21148563   513648250001  N  0                       2105214 01/05/2024       USD          417          834    412346432
01 37149092  11499  M  FULGRAM 875MG-125MG X16CO                   250172668005278000000 521466400       000       000  000  000  300  000  200         1  7591585213198       21148563       21148563   513648250001  N  0                           605 01/04/2023       USD         1217         2434    412346432
01 37149092  PD719  M  LEPTAZINE 10MG. X24CO                       414014000001430000000 1144000005605600000       000  000  000  000  000  200         1  7591955000977       21148563       21148563   513648250001  N  0                          0024 01/11/2022       USD          340         1359    412346432
01 37149092  12088  M  LEVOTIROXI DAC100MCG.30TA                   4 975374400 995280000  796224003901497600       000  000  000  000  000  200         1  8906121690071       21148411       21148411   513648250001  N  0                          V166 01/09/2023       USD          237          946    412346432
01 37149092  LN165  M  MADECASSOL 2% POLVO 5GR.                    417325459021767903982 1414323206930183608       000  000  000  000  000  200         1  7592348218108       21148563       21148563   513648250001  N  0                       2106028 01/06/2026       USD          420         1681    412346432
01 37149092  LC409  M  MIGREN 650-50-1 X10CO                       8 637000000 650000000 1040000005096000000       000  000  000  000  000  200         1  7591585115737       21148411       21148411   513648250001  N  0                           530 01/06/2023       USD          154         1236    412346432
01 37149092  NP024  M  NOTOLAC 20MG. X10TA                         411130756961170919100 2313736164452302784       000  000  000  300  000  200         1  7591821902022       21148563       21148563   513648250001  N  0                       2101002 01/03/2024       USD          270         1080    412346432
01 37149092  12632  M  OLANZAPINA PSICO 10MX14TA                   227939110952850929689 1140371885587822190       000  000  000  000  000  200         1  7501384546502       21148563       21148563   513648250001  N  0                       3500221 01/02/2023       USD          678         1355    412346432
01 37149092  11570  M  RAMIPRES 2,5MG. X30CO                       110192000001040000000  208000001019200000       000  000  000  000  000  200         1  7591619520520       21148563       21148563   513648250001  N  0                          0007 01/03/2024       USD          247          247    412346432
01 37149092  EH210  M  SECNIDAZOL VP 1GR. X2TA                     6 600041554 631224021 1870948023600249324       000  000  000  300  000  200         1  7703153019914       21148490       21148490   513648250001  N  0                       1354516 01/06/2024       USD          146          873    412346432
01 37149092  LT930  M  VIASEK COMPR. 50MG. X2                      6 341384225 359125000 1064446502048305350       000  000  000  300  000  200         1  7591585111005       21148449       21148449   513648250001  N  0                           094 01/04/2024       USD          083          497    412346432
01 37149092  BA950  M  YAZ 3MG/20MCG. X28CO                        358039643486105580000 904846956       000       000  000  000  300  000  200         1  7896116861634       21148449       21148449   513648250001  N  0                       BS01PH0 01/07/2022       USD         1408         4223    412346432
01 37149092  LT038  M  COVENTROL 6,25MG. X30CO                     510790780001101100000 1101100005395390000       000  000  000  000  000  200         2  7591585265630       21148490       21148490   513648250002  N  0                           124 01/03/2023       USD          262         1308    412346432
01 37149092  14215  M  DECOBEL 0.5MG X30TA                         211083800001131000000  452400002216760000       000  000  000  000  000  200         2  7592806133110       21148563       21148563   513648250002  N  0                        105081 01/05/2023       USD          269          538    412346432
01 37149092  ED394  M  DOLAK SL 30MG. X4CO                         4 891800000 910000000  728000003567200000       000  000  000  000  000  200         2  7592803002419       21148563       21148563   513648250002  N  0                       2105531 01/06/2023       USD          216          865    412346432
02 37149092         95  133928941040           000           000  133928941040    0    0    0  000    0    0    0   23/08/2021 10:47:14 a.m.   PR           000           000             0            23           USD    412346432        32480
