01 37149396  KQ016  C  ARNICA PLUS TARRO 250 G                     214387491141468111341  587244542877498228 460399716  000  000  000  000  200         1  7593434000089       21148490       21148490   513648260001  N  0                     219421131 01/07/2024       USD          349          698    412346432
01 37149396  SQ130  C  LUBRIX GEL 120CC.                           2 857656800 875160000  350064001715313600 274450176  000  000  000  000  200         1  7592904000024       21148449       21148449   513648260001  N  0                           114 01/06/2024       USD          208          416    412346432
01 37149396  SQ120  C  LUBRIX GEL 60CC.                            3 743149680 758316000  454989602229449040 356711846  000  000  000  000  200         1  7592904000017       21148449       21148449   513648260001  N  0                           113 01/05/2024       USD          180          541    412346432
01 37149396  SQ140  C  LUBRIX GEL ESPERMATI 120                    2 919675120 938444000  375377601839350240 294296038  000  000  000  000  200         1  7592904000031       21148449       21148449   513648260001  N  0                           116 01/06/2024       USD          223          446    412346432
01 37149396  SQ180  C  LUBRIX GEL LUB.CHOCO60CC.                   3 765928800 781560000  468936002297786400 367645824  000  000  000  000  200         1  7592904000437       21148449       21148449   513648260001  N  0                           112 01/05/2024       USD          186          557    412346432
01 37149396  SQ190  C  LUBRIX GEL MENTA 60CC.                      2 765928800 781560000  312624001531857600 245097216  000  000  000  000  200         1  7592904000451       21148449       21148449   513648260001  N  0                           111 01/05/2024       USD          186          371    412346432
01 37149396  SQ220  C  LUBRIX GEL PIÑA COL.60CC.                   3 765928800 781560000  468936002297786400 367645824  000  000  000  000  200         1  7592904000468       21148449       21148449   513648260001  N  0                           029 01/11/2023       USD          186          557    412346432
01 37149396  CR220  C  MIMADITO COL.BEBE 100ML.                    4 559322635 570737383  456589922237290540 357966486  000  000  000  000  200         1  7591248510107       21148449       21148449   513648260001  N  0                   01621812354 01/06/2023       USD          136          543    412346432
01 37149396  LC314  N  FLUVIRIN JBE. 120ML.                        413470002001417000000 2799992005388000800       000  000  000  300  000  200         2  7591585111166       21148549       21148549   513648260002  N  0                           224 01/04/2023       USD          327         1307    412346432
01 37149396  MG604  M  FULGRAM 600/42,9SUSP.60CC                   234231106003601000000 3557788006846221200       000  000  000  300  000  200         2  7591585113139       21148563       21148563   513648260002  N  0                           331 01/05/2023       USD          830         1660    412346432
02 37149396         27   12234222000   17026332048    2724213128   31984767176    0    0    0  000    0    0    0   23/08/2021 01:21:15 p.m.   PR           000           000             0            10           USD    412346432         7096
