01 37159162  QO290  M  ANALPER PLUS TAB. X10                       615542800001586000000 1903200009325680000       000  000  000  000  000  200         1  7592454000796       21156717       21156717   513739400001  N  0                       3269854 01/06/2023       USD          376         2256    413429805
01 37159162  LT031  M  BIOTALOL 5MG. X30CO                         6180092640019760000001050441600       000       000  000  000  700  000  200         1  7591585217165       21156739       21156739   513739400001  N  0                           114 01/01/2023       USD          436         2614    413429805
01 37159162  LT077  M  CANFIR LP 500MG. X30CO                      310574200001079000000  647400003172260000       000  000  000  000  000  200         1  7591585112620       21156717       21156717   513739400001  N  0                           028 01/12/2022       USD          256          767    413429805
01 37159162  GN091  M  CAPTOPRIL GN 25MG.X30CO                    12 815360000 832000000 1996800009784320000       000  000  000  000  000  200         1  7591585370167       21156739       21156739   513739400001  N  0                           119 01/04/2025       USD          197         2367    413429805
01 37159162  10091  M  CLAVOXILIN 500-125 X16CO                    431057572003169140000 253531200       000       000  000  000  000  000  200         1  5600360011644       21156717       21156717   513739400001  N  0                     J0011013J 01/10/2022       USD          751         3005    413429805
01 37159162  GQ719  M  CLOTRI-NEO-DEXA ELTER20GR                   319950840002035800000 1221480005985252000       000  000  000  000  000  200         1  7703763300051       21156739       21156739   513739400001  N  0                       3268051 01/05/2024       USD          483         1448    413429805
01 37159162  VF006  C  DUREX SENSI.ULT.DELG. X3                   12 789178201 805283879 19326813694701384121515222146  000  000  000  000  200         1  5052197008555       21156717       21156717   513739400001  N  0                    1000365538 01/12/2022       USD          191         2291    413429805
01 37159162  GN146  M  ENALAPRIL GN 20MG. X30CO                    8 550368000 561600000  898560004402944000       000  000  000  000  000  200         1  7591585378538       21156739       21156739   513739400001  N  0                           420 01/03/2023       USD          133         1065    413429805
01 37159162  VC215  M  FUGOLIN CR. 20 GR.                          410829000001105000000  884000004331600000       000  000  000  000  000  200         1  7592782000130       21156739       21156739   513739400001  N  0                       2150006 01/05/2023       USD          262         1048    413429805
01 37159162  VC450  M  FUGOLIN CR.VAG. 50GR.                       622295000002275000000 273000000       000       000  000  000  000  000  200         1  7592782000307       21156739       21156739   513739400001  N  0                       2140008 01/04/2023       USD          539         3236    413429805
01 37159162  VC003  M  GENCIVOL COMPU SOL.15ML.                    4 732550000 747500000  598000002930200000       000  000  000  000  000  200         1  7592782000529       21156717       21156717   513739400001  N  0                       2150008 01/06/2023       USD          177          709    413429805
01 37159162  10372  M  GYNOMET 15%-4%CR.VAG.40GR                   618781308001916460000 229975200       000       000  000  000  000  000  200         1  7591585119131       21156739       21156739   513739400001  N  0                           050 01/02/2023       USD          454         2726    413429805
01 37159162  11423  M  HIDROCLOROTI GN12,5 X30CO                   613759200001404000000 1684800008255520000       000  000  000  000  000  200         1  7591585172686       21156739       21156739   513739400001  N  0                           021 01/05/2023       USD          333         1997    413429805
01 37159162  GN744  M  KETOPROFENO GN100 X20CA                    1210319400001053000000 252720000       000       000  000  000  000  000  200         1  7591585171993       21156717       21156717   513739400001  N  0                           069 01/04/2023       USD          250         2995    413429805
01 37159162  HH190  M  MICOATIV CREMA 1% 20GR.                     410930920001267500000 6976320004372368000       000  000  000 1200  000  200         1  8904091148608       21156739       21156739   513739400001  N  0                      10192946 01/11/2023       USD          264         1058    413429805
01 37159162  CE120  M  NIOSILIN UNG. 20GR.TUBO                     312657190001291550000  774930003797157000       000  000  000  000  000  200         1  7594003280048       21156717       21156717   513739400001  N  0                       2103023 01/03/2023       USD          306          918    413429805
01 37159162  LT043  M  PEGYT 75MG. X20CA                           417237220001758900000 1407120006894888000       000  000  000  000  000  200         1  7591585317018       21156739       21156739   513739400001  N  0                           047 01/03/2024       USD          417         1668    413429805
01 37159162  KN104  M  RIDAL 1MG. SOL.ORAL 20ML.                   311466000001170000000  702000003439800000       000  000  000  000  000  200         1  7594000491799       21156739       21156739   513739400001  N  0                          0033 01/05/2024       USD          277          832    413429805
01 37159162  15303  M  SOLUNOVAR COMP.SOL. 120ML                   4 637000000 650000000  520000002548000000       000  000  000  000  000  200         1  7592782001861       21156717       21156717   513739400001  N  0                       2170005 01/07/2023       USD          154          616    413429805
01 37159162  FS003  N  YODO BLANCO 30CC. X6                        119275620001966900000  393380001927562000       000  000  000  000  000  200         1  7592368000875       21156717       21156717   513739400001  N  0                       0621037 01/06/2023       USD          466          466    413429805
01 37159162  LT028  M  BIOTALOL 2,5MG. X30CO                       414651000001495000000 1196000005860400000       000  000  000  000  000  200         2  7591585217172       21156739       21156739   513739400002  N  0                           059 01/04/2023       USD          354         1418    413429805
01 37159162  LX103  M  CARNISIN 1G.S.ORAL S/A180                   627391000002795000000 335400000       000       000  000  000  000  000  200         3  7591585112323       21156739       21156739   513739400003  N  0                           054 01/04/2023       USD          663         3975    413429805
01 37159162  PD390  M  FLEMICAINE SOL.TOP. 5ML.                    310192000001040000000  624000003057600000       000  000  000  000  000  200         3  7591955000489       21156739       21156739   513739400003  N  0                          0027 01/04/2024       USD          247          740    413429805
01 37159162  JN110  N  JENGIMIEL JBE.PED. 120ML.                   515021239991532779591 1532779607510619995       000  000  000  000  000  200         3  7592520000026       21156717       21156717   513739400003  N  0                        031120 01/11/2022       USD          363         1817    413429805
02 37159162        129  164288422995    9470138412    1515222146  175273783553    0    0    0  000    0    0    0   30/08/2021 02:27:39 p.m.   PR           000           000             0            24           USD    413429805        42029
