01 37158474  VP042  M  ATOVAROL 20MG. X30CA                        419543940291994279621 1595423687817576116       000  000  000  000  000  200         1  7592432900148       21156717       21156717   513739410001  N  0                        210142 01/03/2023       USD          473         1891    413429805
01 37158474  14208  M  METFORMINA PCAPS850 X30TA                   610538528001075360000 1290432006323116800       000  000  000  000  000  200         1  7703153018368       21156739       21156739   513739410001  N  0                       1354954 01/05/2023       USD          255         1529    413429805
01 37158474  FA239  M  NOTOLAC 30MG. X4TA.SUBL.                    4 856128000 873600000  698880003424512000       000  000  000  000  000  200         1  7591821210134       21156717       21156717   513739410001  N  0                       2106107 01/07/2023       USD          207          828    413429805
01 37158474  GG960  M  BRODILIN JBE. PED. 120ML.                   412740000001300000000 1040000005096000000       000  000  000  000  000  200         2  7591651896805       21156717       21156717   513739410002  N  0                       2106124 01/06/2023       USD          308         1233    413429805
01 37158474  NP039  M  VALPRON 250MG. JBE.180ML.                   335162406373588000650 215280039       000       000  000  000  000  000  200         2  7591821901964       21156739       21156739   513739410002  N  0                       2010053 01/11/2022       USD          850         2552    413429805
02 37158474         21   33209926827           000           000   33209926827    0    0    0  000    0    0    0   30/08/2021 10:54:15 a.m.   PR           000           000             0             5           USD    413429805         8033
