01 37162474  NP003  M  CALCIBON D 1500/200 X30                     228257957003100500000 5494086005651591400       000  000  000  700  000  200         1  7591821101029       21159584       21159584   513775470001  N  0                       2103578 01/12/2023       USD          682         1364    414450285
01 37162474  FA334  M  COLYPAN TAB. LP 300 X 20                    327154490822770866410 1662519848146347246       000  000  000  000  000  200         1  7591821902534       21159584       21159584   513775470001  N  0                       2104035 01/04/2024       USD          655         1966    414450285
01 37162474  FA109  M  FARMACAINA POM. 35GR                        317199000001755000000 1053000005159700000       000  000  000  000  000  200         1  7592229001294       21159584       21159584   513775470001  N  0                       2105218 01/06/2024       USD          415         1245    414450285
01 37162474  KV011  M  FEMMEXTRA 200-10 X10CA                      213759200001404000000  561600002751840000       000  000  000  000  000  200         1  7591821802773       21159584       21159584   513775470001  N  0                       2104648 01/05/2023       USD          332          664    414450285
01 37162474  BQ190  M  FERCOR COMP. CAPS. X30                     12148261750015925000001318590000       000       000  000  500  000  000  200         1  7594000850206       21159584       21159584   513775470001  N  0                        201007 01/10/2022       USD          358         4293    414450285
01 37162474  KV199  M  TERAGRIP FORTE NOC X6 SOB.                  616339050001667250000 2000700009803430000       000  000  000  000  000  200         1  7591821801882       21159584       21159584   513775470001  N  0                       2105144 01/06/2023       USD          394         2365    414450285
01 37162474  KV005  M  TERAGRIP SUPRA TAB. X10                     618918900001930500000 231660000       000       000  000  000  000  000  200         1  7591821802186       21159584       21159584   513775470001  N  0                       2105349 01/06/2023       USD          456         2739    414450285
01 37162474  BQ290  M  AMBROXOL BQ. 30MG.120ML.                    810701600001092000000 1747200008561280000       000  000  000  000  000  200         2  7594000850923       21159584       21159584   513775470002  N  0                        210608 01/06/2023       USD          258         2066    414450285
01 37162474  BQ250  M  IBUPROFENO BQ SUSP.120ML.                   410072562501027812500  822250004029025000       000  000  000  000  000  200         2  7594000850466       21159584       21159584   513775470002  N  0                        210515 01/05/2024       USD          243          972    414450285
02 37162474         46   73245963646           000           000   73245963646    0    0    0  000    0    0    0   31/08/2021 06:21:25 p.m.   PR           000           000             0             9           USD    414450285        17673
