01 37162486  AL120  C  ALGODON ALVE 10 GR.                        24 160745421 164025940  787324563857890104 617262417  000  000  000  000  200         1  7591442000046       21159584       21159584   513775450001  N  0                    AGOSTO2021 01/08/2026       USD          039          931    414450285
01 37162486  AL125  C  ALGODON ALVE 25 GR.                        12 329528126 336253190  807007683954337512 632694002  000  000  000  000  200         1  7591442000053       21159584       21159584   513775450001  N  0                     JULIO2021 01/07/2026       USD          080          954    414450285
01 37162486  LC309  M  ALIVET 4DIAS 8D-4N X12CO                    8 858816777 942305000 6679057846870534216       000  000  000  700  000  200         1  7591585116000       21159584       21159584   513775450001  N  0                           341 01/12/2022       USD          207         1658    414450285
01 37162486  12134  M  AMPICILINA BM500 X100CA                     128665000002925000000  585000002866500000       000  000  000  000  000  200         1  6930169708278       21159584       21159584   513775450001  N  0                        190457 01/03/2022       USD          692          692    414450285
01 37162486  ED450  M  ARZOMIDOL SUSP. 200MG.15ML.                1013377000001365000000 273000000       000       000  000  000  000  000  200         1  7592803000019       21159584       21159584   513775450001  N  0                       2107574 01/07/2023       USD          323         3228    414450285
01 37162486  EL524  M  BRUGESICFORTE 200SUSP60ML                   4 938606964 957762208  766209763754427856       000  000  000  000  000  200         1  7591062013082       21159584       21159584   513775450001  N  0                        20140A 01/11/2022       USD          226          906    414450285
01 37162486  ED540  M  CLOFEN 15MG. GOTAS 15ML.                    4 637000000 650000000  520000002548000000       000  000  000  000  000  200         1  7592803000200       21159584       21159584   513775450001  N  0                       1905217 01/05/2022       USD          154          615    414450285
01 37162486  WI110  M  CLOPACT 75MG. X30TA                         415647316111596664909 1277331926258926444       000  000  000  000  000  200         1  8901079005410       21159584       21159584   513775450001  N  0                     FGJ011003 01/12/2022       USD          378         1510    414450285
01 37162486  XS018  N  GOTAS VALERIANA XS 60ML.                    6 343980000 351000000  421200002063880000       000  000  000  000  000  200         1  7594001450825       21159584       21159584   513775450001  N  0                      10082192 01/08/2024       USD          083          498    414450285
01 37162486  SP059  M  IRBESARTAN SP TAB.150X10                    4 796250000 812500000  650000003185000000       000  000  000  000  000  200         1  7590027002345       21159584       21159584   513775450001  N  0                           801 01/07/2023       USD          192          768    414450285
01 37162486  LX102  M  MIGREN 650-50-1 X20CO                       610035425401101100000 5853447606021255240       000  000  000  700  000  200         1  7591585415738       21159584       21159584   513775450001  N  0                           519 01/04/2023       USD          242         1453    414450285
01 37162486  14777  M  NIFEDIPINA LAT20MG. X30TA                   3 891800000 910000000  546000002675400000       000  000  000  000  000  200         1   720524031013       21159584       21159584   513775450001  N  0                       NDE7501 01/10/2023       USD          215          646    414450285
01 37162486  12922  N  OMEGA3 ACEI.PE 1000X100CA                   429180970002977650000 238212000       000       000  000  000  000  000  200         1   646824222107       21159584       21159584   513775450001  N  0                         38877 01/05/2024       USD          704         2816    414450285
01 37162486  13089  M  OXITETRACICLINA OFTX6GR                     215550602171586796140  634718463110120434       000  000  000  000  000  200         1  7597446000044       21159584       21159584   513775450001  N  0                         20411 01/04/2024       USD          375          750    414450285
01 37162486  LT017  M  TENSOMAX 30MG. LP X40CA                     332487000003315000000 1989000009746100000       000  000  000  000  000  200         1  7591585418432       21159584       21159584   513775450001  N  0                           164 01/03/2023       USD          784         2352    414450285
01 37162486  KX100  C  TEST DE EMBARAZO KX                         312103000001235000000  741000003630900000 580944000  000  000  000  000  200         1   813333014589       21159584       21159584   513775450001  N  0                     W00101159 01/11/2022       USD          292          876    414450285
01 37162486  13955  M  VALSARTAN DAC 160MGX20 TA                   422503936002296320000 1837056009001574400       000  000  000  000  000  200         1  7598578000209       21159584       21159584   513775450001  N  0                          V193 01/01/2024       USD          543         2172    414450285
01 37162486  14239  M  VALSARTAN GDG.PH 160MGX14                   412752740001301300000 1041040005101096000       000  000  000  000  000  200         1  7598307000104       21159584       21159584   513775450001  N  0                         SM019 01/12/2023       USD          308         1231    414450285
01 37162486  XS025  N  VASELINA RECETTE 60GR.                      6 630630000 643500000  772200003783780000 605404800  000  000  000  000  200         1  7594001451907       21159584       21159584   513775450001  N  0                      28062117 01/03/2023       USD          152          913    414450285
02 37162486        112   92035982590   11443127616    2436305219  105915415425    0    0    0  000    0    0    0   31/08/2021 06:25:51 p.m.   PR           000           000             0            19           USD    414450285        24968
