01 37162461  12078  M  CLAUSY SUSP.ORAL X10 5ML.                   352998400005408000000 324480000       000       000  000  000  000  000  200         1  8936187370020       21159584       21159584   513775460001  N  0                         20820 01/08/2022       USD         1279         3836    414450285
01 37162461  14215  M  DECOBEL 0.5MG X30TA                         411083800001131000000  904800004433520000       000  000  000  000  000  200         1  7592806133110       21159584       21159584   513775460001  N  0                        105081 01/05/2023       USD          267         1070    414450285
01 37162461  PO195  M  DECOBEL VIAL 8MG. 2ML.                      4 840840000 858000000  686400003363360000       000  000  000  000  000  200         1  7592806112047       21159584       21159584   513775460001  N  0                        104052 01/04/2024       USD          203          812    414450285
01 37162461  LT046  M  GENLET 200MG. X20CO                         320001800002041000000 1224600006000540000       000  000  000  000  000  200         1  7591585110183       21159584       21159584   513775460001  N  0                           050 01/11/2022       USD          483         1448    414450285
01 37162461  GN744  M  KETOPROFENO GN100 X20CA                     610319400001053000000 1263600006191640000       000  000  000  000  000  200         1  7591585171993       21159584       21159584   513775460001  N  0                           069 01/04/2023       USD          249         1494    414450285
01 37162461  LT023  M  LONGACEF 400MG. X5CA                        291982800009386000000 375440000       000       000  000  000  000  000  200         1  7591585112224       21159584       21159584   513775460001  N  0                           038 01/02/2023       USD         2219         4439    414450285
01 37162461  15261  M  PREDNISOLONA BM5MG. X30TA                   9 968240000 988000000 1778400008714160000       000  000  000  000  000  200         1  7598127001206       21159584       21159584   513775460001  N  0                        210216 01/02/2024       USD          234         2103    414450285
01 37162461  15011  M  CLOFEN 1,8MG. SUSP.120ML.                   410351250001056250000  845000004140500000       000  000  000  000  000  200         2  7592803003997       21159584       21159584   513775460002  N  0                       2108601 01/08/2023       USD          250          999    414450285
01 37162461  LT199  M  DIKLASON SUSP. 120CC.                       413886600001417000000 1133600005554640000       000  000  000  000  000  200         2  7591585218254       21159584       21159584   513775460002  N  0                           183 01/02/2023       USD          335         1340    414450285
01 37162461  RN110  C  GERDEX SOL. SPRAY 240CC.                    2 713373045 727931679  291172681426746090 228279374  000  000  000  000  200         2  7591838000117       21159584       21159584   513775460002  N  0                       A236056 01/05/2024       USD          172          344    414450285
01 37162461  LT210  M  LONGACEF 100MG.PPSO 60ML.                   260769800006201000000 248040000       000       000  000  000  000  000  200         2  7591585116208       21159584       21159584   513775460002  N  0                           498 01/08/2022       USD         1466         2933    414450285
02 37162461         43   84848400000    1426746090     228279374   86503425464    0    0    0  000    0    0    0   31/08/2021 06:15:30 p.m.   PR           000           000             0            11           USD    414450285        20817
