01 37162507  PA054  M  BETADERM PLUS CREMA 15GR.                   417809173471817262599 1453810087123669388       000  000  000  000  000  200         1  7591243804164       21159584       21159584   513775480001  N  0                       9257702 01/06/2023       USD          430         1719    414450285
01 37162507  10346  M  BLOCAX 8MG. X30TA                           334665955203537342367 212240541       000       000  000  000  000  000  200         1  7591243805338       21159584       21159584   513775480001  N  0                       9286802 01/04/2023       USD          836         2509    414450285
01 37162507  CO265  M  CLORACE 500MG/4MG X10TA                     4 667347768 756630122 3571294162669391072       000  000  000 1000  000  200         1  7591818116043       21159584       21159584   513775480001  N  0                         10162 01/04/2024       USD          161          644    414450285
01 37162507  CO770  M  CLORACE 500MG/4MG X20TA                     412445134061411012932 6659981044978053624       000  000  000 1000  000  200         1  7591818215265       21159584       21159584   513775480001  N  0                         10114 01/04/2024       USD          300         1201    414450285
01 37162507  SA500  M  DUVADILAN 10MG. X30CO                       332614400003328000000 1996800009784320000       000  000  000  000  000  200         1  7591651932299       21159584       21159584   513775480001  N  0                       2106128 01/06/2026       USD          787         2361    414450285
01 37162507  LO219  M  GENTAMICINA LO S.OFT.5CC.                   4 878522691 896451726  717161403514090764       000  000  000  000  000  200         1  7591196002136       21159584       21159584   513775480001  N  0                        011289 01/01/2023       USD          212          848    414450285
01 37162507  VM474  M  IBUCOLVAL 400/4MG. X20TA                    422295000002275000000 1820000008918000000       000  000  000  000  000  200         1  7591020008051       21159584       21159584   513775480001  N  0                           290 01/04/2023       USD          538         2152    414450285
01 37162507  VM001  M  IBUCOLVAL 600/4MG. X20TA                    128891140702948075582  589615122889114070       000  000  000  000  000  200         1  7591020008648       21159584       21159584   513775480001  N  0                           232 01/04/2026       USD          697          697    414450285
01 37162507  CO450  M  KETOPROFENO CO 2ML.X1AMP.                   5 603619349 615938111  615938103018096745       000  000  000  000  000  200         1  7591818131039       21159584       21159584   513775480001  N  0                         10038 01/03/2025       USD          146          728    414450285
01 37162507  10523  C  MENTORUB UNG.CORP. 30GR.                    3 692928600 707070000  424242002078785800 332605728  000  000  000  000  200         1  7593090000959       21159584       21159584   513775480001  N  0                       F210704 01/07/2024       USD          167          502    414450285
01 37162507  10524  C  MENTORUB UNG.CORP. 60GR.                    111124313201135134000  227026801112431320 177989011  000  000  000  000  200         1  7593090000966       21159584       21159584   513775480001  N  0                       F210605 01/06/2024       USD          268          268    414450285
01 37162507  CO540  M  MIOVIT COMP. 3ML. X3A KIT                   9148170043218899240203674012292       000       000  000  000 2000  000  200         1  7591818026366       21159584       21159584   513775480001  N  0                         10028 01/02/2024       USD          358         3218    414450285
01 37162507  CO105  M  MIOVIT GRAGEAS X30                          41513433901193040038416678659326053735604       000  000  000 2000  000  200         1  7591818118047       21159584       21159584   513775480001  N  0                         10192 01/05/2024       USD          365         1461    414450285
01 37162507  PD900  M  NEFROTAL H 50/12,5 X14CO                    3 891800000 910000000  546000002675400000       000  000  000  000  000  200         1  7591955558270       21159584       21159584   513775480001  N  0                          0014 01/04/2024       USD          215          646    414450285
01 37162507  VO130  M  PREDNISONA GENCER50 X10TA                   213969703061425479904  570191962793940612       000  000  000  000  000  200         1  7591020007474       21159584       21159584   513775480001  N  0                            30 01/02/2026       USD          337          674    414450285
01 37162507  PA053  M  TAMOA 250MG. X6CO.MAST.                     217888050491825311274  730124503577610098       000  000  000  000  000  200         1  7591243849622       21159584       21159584   513775480001  N  0                       9213701 01/04/2023       USD          432          863    414450285
01 37162507  PD124  M  TRIDETARMON CR. 15GR.                       515288000001560000000 1560000007644000000       000  000  000  000  000  200         1  7591955000762       21159584       21159584   513775480001  N  0                          0081 01/04/2023       USD          369         1844    414450285
01 37162507  MO003  M  BROLAT 5-30 SO.ORAL 60ML.                   416471546001680770000 1344616006588618400       000  000  000  000  000  200         2  7592601301585       21159584       21159584   513775480002  N  0                        135601 01/05/2023       USD          397         1590    414450285
01 37162507  PD710  M  CLENBUXOL JBE. AD. 120CC.                   415288000001560000000 1248000006115200000       000  000  000  000  000  200         2  7591955000151       21159584       21159584   513775480002  N  0                          0064 01/03/2024       USD          369         1475    414450285
01 37162507  PD720  M  CLENBUXOL JBE.PED. 120CC.                   315288000001560000000  936000004586400000       000  000  000  000  000  200         2  7591955000168       21159584       21159584   513775480002  N  0                          0104 01/02/2025       USD          369         1107    414450285
01 37162507  CO011  M  MIOVIT JARABE 180ML.                        117892837971825799793  365159961789283797       000  000  000  000  000  200         2  7591818251393       21159584       21159584   513775480002  N  0                         10203 01/07/2023       USD          432          432    414450285
01 37162507  CO011  M  MIOVIT JARABE 180ML.                        317892837971825799793 1095479885367851391       000  000  000  000  000  200         2  7591818251393       21159584       21159584   513775480002  N  0                         10203 01/07/2023       USD          432         1295    414450285
01 37162507  VA010  M  PREVERAL DEXTROMET. 120ML                   611338600001157000000 1388400006803160000       000  000  000  000  000  200         2  7592349722864       21159584       21159584   513775480002  N  0                       2107041 01/07/2023       USD          274         1641    414450285
02 37162507         82  120625026013    3191217120     510594739  124326837872    0    0    0  000    0    0    0   31/08/2021 06:26:55 p.m.   PR           000           000             0            23           USD    414450285        29875
