01 37162465  QO540  M  BROXOL ALERG S.ORAL 100ML                   615925000001625000000 1950000009555000000       000  000  000  000  000  200         1  7592454889513       21159584       21159584   513775490001  N  0                       3270984 01/07/2023       USD          384         2305    414450285
01 37162465  GQ110  M  BROXOL JBE. PED. 120 CC.                    612141220001238900000 1486680007284732000       000  000  000  000  000  200         1  7592454536370       21159584       21159584   513775490001  N  0                       3269816 01/06/2023       USD          293         1758    414450285
01 37162465  GQ105  M  BROXOL JBE.AD. 120ML.                       614039480001432600000 1719120008423688000       000  000  000  000  000  200         1  7592454536271       21159584       21159584   513775490001  N  0                       3272095 01/07/2023       USD          339         2032    414450285
01 37162465  GQ474  M  CEFADROXILO ELTER250 60ML                   313134940001340300000  804180003940482000       000  000  000  000  000  200         1  7703763180318       21159584       21159584   513775490001  N  0                       3237481 01/01/2022       USD          317          951    414450285
02 37162465         21   29203902000           000           000   29203902000    0    0    0  000    0    0    0   31/08/2021 06:16:56 p.m.   PR           000           000             0             4           USD    414450285         7046
