01 37182812  LN260  M  ACICLOVIR LN 200MG. X25TA                   312006666741237800695 1114020633602000022       000  000  300  000  000  000         1  7592348201100       21176949       21176949   513988560001  N  0                       2006054 01/06/2023       USD          298          895    402327759
01 37182812  LN260  M  ACICLOVIR LN 200MG. X25TA                   112006666741237800695  371340211200666674       000  000  300  000  000  000         1  7592348201100       21176949       21176949   513988560001  N  0                       2006054 01/06/2023       USD          298          298    402327759
01 37182812  LN001  M  ACICLOVIR LN CR.TOP.20GR.                   613299609381371093750 2467968727979765628       000  000  300  000  000  000         1  7592348201117       21176949       21176949   513988560001  N  0                       2104102 01/04/2024       USD          331         1983    402327759
01 37182812  SP110  M  COMPLEJO B SP COMPR. X 20                   8 907920000 936000000 2246400007263360000       000  000  300  000  000  000         1  7590027000402       21176765       21176765   513988560001  N  0                           601 01/05/2023       USD          226         1805    402327759
01 37182812  KN310  M  FERRINEX 100MG IV 5ML.X1                    342874000004420000000 397800000       000       000  000  300  000  000  000         1  7795345121062       21177265       21177265   513988560001  N  0                         00236 01/03/2024       USD         1066         3197    402327759
01 37182812  15154  M  FLAMYDOL 75MG.2ML. X1A                      613779577501420575000 2557035008267746500       000  000  300  000  000  000         1   764600111121       21177243       21177243   513988560001  N  0                         10129 01/01/2024       USD          342         2055    402327759
01 37182812  13472  M  GESTAGENO 200MGX30 CAP                      387387300009009000000 810810000       000       000  000  300  000  000  000         1  7401078900163       21177265       21177265   513988560001  N  0                      LF22366F 01/01/2023       USD         2172         6516    402327759
01 37182812  14878  M  LOSARTAN P. FM50MG.X30TA                   12 624195000 643500000 2316600007490340000       000  000  300  000  000  000         1  8906082150751       21177265       21177265   513988560001  N  0                         T1009 01/12/2023       USD          155         1862    402327759
01 37182812  SA520  M  MESIGYNA INSTAYECT 1ML.                     637703900003887000000 699660000       000       000  000  300  000  000  000         1  7501303443318       21176949       21176949   513988560001  N  0                       XB30LG4 01/05/2022       USD          937         5623    402327759
01 37182812  KL419  M  MIGRADORIXINA 125-1 X10CO                   612610000001300000000 2340000007566000000       000  000  300  000  000  000         1  7591619518688       21176949       21176949   513988560001  N  0                          1012 01/03/2023       USD          313         1881    402327759
01 37182812  15111  M  NEUROMIX COMPLE B X10CO                     3 515118500 559000000 1316445001545355500       000  000  300  500  000  000         1  7591585113368       21177243       21177243   513988560001  N  0                           002 01/04/2023       USD          128          384    402327759
01 37182812  15110  M  NEUROMIX COMPLE B X30CO                     313871000001430000000 1287000004161300000       000  000  300  000  000  000         1  7591585213365       21177243       21177243   513988560001  N  0                           003 01/04/2023       USD          345         1034    402327759
01 37182812  VC008  M  PAPAVERYL GOTAS 30ML.                       314879800001534000000 1380600004463940000       000  000  300  000  000  000         1  7592782000611       21177243       21177243   513988560001  N  0                       2140001 01/04/2023       USD          370         1110    402327759
01 37182812  KL704  M  PRESIDERM 2% UNG.TOP.15GR                   318915000001950000000 1755000005674500000       000  000  300  000  000  000         1  7591619520513       21177243       21177243   513988560001  N  0                          0005 01/11/2022       USD          470         1410    402327759
01 37182812  KL704  M  PRESIDERM 2% UNG.TOP.15GR                   118915000001950000000  585000001891500000       000  000  300  000  000  000         1  7591619520513       21177243       21177243   513988560001  N  0                          0005 01/11/2022       USD          470          470    402327759
01 37182812  12649  N  REUMANAT N.S 500MG X60CA                    322414275002310750000 2079675006724282500       000  000  300  000  000  000         1   646824254061       21177243       21177243   513988560001  N  0                         32324 01/07/2022       USD          557         1671    402327759
01 37182812  15352  M  ROSUVASTATINA LAT20 X30TA                   323959000002600000000 6123000007187700000       000  000  300  500  000  000         1  0720524031242       21177243       21177243   513988560001  N  0                        RSA201 01/12/2022       USD          596         1787    402327759
01 37182812  10476  C  SET MANICURE BEBE GEN 4P.                   317654192121820019806 1638017825296257636 847401222  000  300  000  000  000         1  7453078522357       21177265       21177265   513988560001  N  0                           10X 01/01/2030       USD          439         1316    402327759
02 37182812         76  136719186824    5296257636     847401222  142862845682    0    0    0  000    0    0    0   16/09/2021 10:18:15 a.m.   PR           000           000             0            18           USD    402327759        35298
