01 37187470  GT119  M  ASAPROL 81MG. X100CO                        636569000003770000000 678600000       000       000  000  300  000  000  000         1  7591585261236       21180207       21180207   514029570001  N  0                           165 01/05/2023       USD          905         5429    404183044
01 37187470  NP099  N  CALCIBON NATAL FORT X30TA                   327495000002749500000       00082485000001319760000  000  000  000  000  000         1  7591821102071       21180332       21180332   514029570001  N  0                      21040651 01/04/2023       USD          680         2041    404183044
01 37187470  13536  A  COLAGENO HID. VIT E&C 30T                   3379280701842142300201264269006       000       000  000  000 1000  000  000         1  7597189000042       21180332       21180332   514029570001  N  0                        106055 01/06/2023       USD          938         2815    404183044
01 37187470  NQ100  N  OMEGA 3 FISH OIL VAL 30CA                   320604740002124200000 1911780006181422000       000  000  300  000  000  000         1   669238000499       21180207       21180207   514029570001  N  0                        520621 01/06/2025       USD          510         1529    404183044
01 37187470  12087  M  SULTAMICILINA DAC750 10TA                   341764320004305600000 387504000       000       000  000  300  000  000  000         1  7598578000186       21180207       21180207   514029570001  N  0                          V213 01/05/2023       USD         1033         3100    404183044
01 37187470  SP770  M  SULTAMICILINA SP 750 X6CO                   623870730002460900000 442962000       000       000  000  300  000  000  000         1  7590027001454       21180207       21180207   514029570001  N  0                           841 01/07/2023       USD          591         3544    404183044
01 37187470  LT017  M  TENSOMAX 30MG. LP X40CA                     332155500003315000000 2983500009646650000       000  000  300  000  000  000         1  7591585418432       21180207       21180207   514029570001  N  0                           164 01/03/2023       USD          796         2387    404183044
01 37187470  11849  C  EVERY N.GEL FIJ.POWER250                    6 512926482 528790188  951822363077558892 492409423  000  300  000  000  000         2  7590005168247       21180207       21180207   514029570002  N  0                       2105119 01/05/2023       USD          127          761    404183044
01 37187470  11848  C  EVERY N.GEL FIJ.STRONG500                   6 730111569 752692339 1354846204380669414 700907106  000  300  000  000  000         2  7590005168278       21180207       21180207   514029570002  N  0                     2106108S1 01/06/2023       USD          181         1084    404183044
01 37187470  SQ130  C  LUBRIX GEL 120CC.                           3 848905200 875160000  787644002546715600 407474496  000  300  000  000  000         2  7592904000024       21180207       21180207   514029570002  N  0                           119 01/06/2024       USD          210          630    404183044
01 37187470  SQ120  C  LUBRIX GEL 60CC.                            3 735566520 758316000  682484402206699560 353071930  000  300  000  000  000         2  7592904000017       21180207       21180207   514029570002  N  0                           113 01/05/2024       USD          182          546    404183044
01 37187470  SQ140  C  LUBRIX GEL ESPERMATI 120                    3 910290680 938444000  844599602730872040 436939526  000  300  000  000  000         2  7592904000031       21180207       21180207   514029570002  N  0                           116 01/06/2024       USD          225          676    404183044
01 37187470  NP007  M  BETADINE 10% SO.TOP.120ML                   322130550002281500000 2053350006639165000       000  000  300  000  000  000         3  7591821102231       21180207       21180207   514029570003  N  0                       2009825 01/11/2022       USD          548         1643    404183044
02 37187470         51   90887292054   14942515506    3710562481  109540370041    0    0    0  000    0    0    0   20/09/2021 10:47:15 a.m.   PR           000           000             0            13           USD    404183044        26184
