01 37183560  10237  C  PRE TRATA CAYENA NUVI 400                   312200175001257750000 1131975003660052500 585608400  000  300  000  000  000         1  7591202014009       21177243       21177243   513988570001  N  0                      15082020 01/08/2022       USD          303          910    402327759
01 37183560  10238  C  PRE TRATA QUINA NUVI 400                    312200175001257750000 1131975003660052500 585608400  000  300  000  000  000         1  7591202034007       21177243       21177243   513988570001  N  0                      25092020 01/09/2022       USD          303          910    402327759
01 37183560  10239  C  PRE TRATA ROMERO NUVI 400                   312200175001257750000 1131975003660052500 585608400  000  300  000  000  000         1  7591202024008       21177243       21177243   513988570001  N  0                        210301 01/03/2023       USD          303          910    402327759
01 37183560  10010  C  PRE TRATAMI GOLD SED380CC                   3 726336000 748800000  673920002179008000 348641280  000  300  000  000  000         1  7593723000882       21177243       21177243   513988570001  N  0                       1911294 01/11/2022       USD          181          542    402327759
01 37183560  10011  C  PRE TRATAMI KERATIN380CC                    3 726336000 748800000  673920002179008000 348641280  000  300  000  000  000         1  7593723000622       21177243       21177243   513988570001  N  0                       1910286 01/11/2022       USD          181          542    402327759
01 37183560  CR025  C  PROT DIARIO NUBES X40                       6 628028527 647452090 1165413783768171162 602907386  000  300  000  000  000         1  7591248330408       21177243       21177243   513988570001  N  0                       M406421 01/03/2023       USD          156          937    402327759
01 37183560  RQ008  C  SEC LOC MANDAR RENE 200GR                   3 603330704 621990417  559791391809992112 289598738  000  300  000  000  000         1  7596097001882       21177265       21177265   513988570001  N  0                   00518813003 01/10/2023       USD          150          450    402327759
01 37183560  RQ007  C  SEC LOC ROSA RENE  200GR                    3 603330704 621990417  559791391809992112 289598738  000  300  000  000  000         1  7596097001868       21177265       21177265   513988570001  N  0                    0061813002 01/10/2023       USD          150          450    402327759
01 37183560  RQ010  C  SEC LOC VAINILL RENE 200G                   2 603330704 621990417  373194261206661408 193065825  000  300  000  000  000         1  7596097001912       21177265       21177265   513988570001  N  0                   00520813073 01/09/2025       USD          150          300    402327759
01 37183560  RQ010  C  SEC LOC VAINILL RENE 200G                   1 603330704 621990417  18659713 603330704  96532913  000  300  000  000  000         1  7596097001912       21177265       21177265   513988570001  N  0                   00321813073 01/06/2026       USD          150          150    402327759
01 37183560  PD720  M  CLENBUXOL JBE.PED. 120CC.                   315132000001560000000 1404000004539600000       000  000  300  000  000  000         2  7591955000168       21177089       21177089   513988570002  N  0                          0114 01/02/2025       USD          376         1128    402327759
01 37183560  PD720  M  CLENBUXOL JBE.PED. 120CC.                   115132000001560000000  468000001513200000       000  000  300  000  000  000         2  7591955000168       21177089       21177089   513988570002  N  0                          0114 01/02/2025       USD          376          376    402327759
01 37183560  KN400  M  FERGANIC FOLIC GOTAS 30ML                   316393000001690000000 1521000004917900000       000  000  300  000  000  000         2  7591955003077       21177265       21177265   513988570002  N  0                          0071 01/03/2023       USD          407         1222    402327759
01 37183560  MG604  M  FULGRAM 600/42,9SUSP.60CC                   335308000003640000000 327600000       000       000  000  300  000  000  000         2  7591585113139       21177265       21177265   513988570002  N  0                           330 01/05/2023       USD          878         2633    402327759
01 37183560  VL370  C  MELODY ACEITE 200CC.                        3 706083021 727920640  655128572118249063 338919850  000  300  000  000  000         2   736674026014       21177243       21177243   513988570002  N  0                      11940117 01/07/2024       USD          175          526    402327759
01 37183560  KL151  N  PROSPAN JBE. 100CC.                         627742000002860000000 514800000       000       000  000  300  000  000  000         2  4104480705113       21177243       21177243   513988570002  N  0                       21B059C 01/01/2024       USD          690         4137    402327759
01 37183560  ED219  M  TALERC 1MG.SOL.ORAL 120ML                  12 725075000 747500000 2691000008700900000       000  000  300  000  000  000         2  7592803001818       21177265       21177265   513988570002  N  0                       2108612 01/08/2023       USD          180         2163    402327759
02 37183560         61   46909200000   26654570061    4264731210   77828501271    0    0    0  000    0    0    0   16/09/2021 01:31:22 p.m.   PR           000           000             0            17           USD    402327759        18285
