01 37184927  11716  M  ARUDIL 20MG. X10TA                          339721500004095000000 368550000       000       000  000  300  000  000  000         1  7591821210028       21178400       21178400   514006130001  N  0                       2105171 01/05/2023       USD          981         2943    404861340
01 37184927  11716  M  ARUDIL 20MG. X10TA                          139721500004095000000 1228500003972150000       000  000  300  000  000  000         1  7591821210028       21178400       21178400   514006130001  N  0                       2105171 01/05/2023       USD          981          981    404861340
01 37184927  14870  M  AZITROMICINA FM500 X3TA                    12 624195000 643500000 2316600007490340000       000  000  300  000  000  000         1  8906082150638       21178400       21178400   514006130001  N  0                         T0518 01/11/2023       USD          154         1850    404861340
01 37184927  VC215  M  FUGOLIN CR. 20 GR.                          310718500001105000000  994500003215550000       000  000  300  000  000  000         1  7592782000130       21178400       21178400   514006130001  N  0                       2150006 01/05/2023       USD          265          794    404861340
01 37184927  VC450  M  FUGOLIN CR.VAG. 50GR.                       322067500002275000000 2047500006620250000       000  000  300  000  000  000         1  7592782000307       21178400       21178400   514006130001  N  0                       2140008 01/04/2023       USD          545         1635    404861340
01 37184927  LT023  M  LONGACEF 400MG. X5CA                        294250000009425000000       000       000       000  000  000  000  000  000         1  7591585112224       21178400       21178400   514006130001  N  0                           038 01/02/2023       USD         2328         4656    404861340
01 37184927  LN165  M  MADECASSOL 2% POLVO 5GR.                    317148668631767903982 1591113575144600589       000  000  300  000  000  000         1  7592348218108       21178400       21178400   514006130001  N  0                       2106028 01/06/2026       USD          424         1271    404861340
01 37184927  PD104  M  POLI-OTICO GOTAS 5 CC.                      611349000001170000000 2106000006809400000       000  000  300  000  000  000         1  7591955002278       21178400       21178400   514006130001  N  0                          0095 01/07/2022       USD          280         1682    404861340
01 37184927  12378  M  TAMSULOSINA 0.4MG X30TA                     319350045001994850000 1795365005805013500       000  000  300  000  000  000         1  7598176000069       21178400       21178400   514006130001  N  0                       21T0435 01/03/2024       USD          478         1434    404861340
02 37184927         36   69823754089           000           000   69823754089    0    0    0  000    0    0    0   17/09/2021 01:09:46 p.m.   PR           000           000             0             9           USD    404861340        17246
