01 37183042  LO424  M  BUDENAS NASAL 200 DOSIS                     623249687502396875000 431437500       000       000  000  300  000  000  000         1  7591196000644       21176765       21176765   513988550001  N  0                        061589 01/08/2023       USD          578         3467    402327759
01 37183042  15529  M  CEVAX ZINC 500/7,5 X30CB                    61661367500201500000021217950009968205000       000  000  300 1500  000  000         1  7592432900193       21177243       21177243   513988550001  N  0                        210212 01/07/2024       USD          413         2478    402327759
01 37183042  PO335  M  COLAYTE POLVO 69,6GR 4TAR                   169160000006916000000       0006916000000       000  000  000  000  000  000         1  7592806132014       21176949       21176949   513988550001  N  0                        107123 01/07/2023       USD         1719         1719    402327759
01 37183042  15022  M  DICLOFENAC S.KM100 X5SUP.                   3 514488000 530400000  477360001543464000       000  000  300  000  000  000         1  6942189211287       21177243       21177243   513988550001  N  0                        201159 01/11/2023       USD          128          384    402327759
01 37183042  15390  M  ENOVAL 10MG. X30TA                          6 394435675 406634717  731942522366614050       000  000  300  000  000  000         1  7501075725407       21177243       21177243   513988550001  N  0                        160291 01/04/2023       USD          098          588    402327759
01 37183042  ED770  M  FAZOL SUSP. 500MG. 15CC.                    311349000001170000000 1053000003404700000       000  000  300  000  000  000         1  7592803001290       21177265       21177265   513988550001  N  0                       2108607 01/08/2023       USD          282          846    402327759
01 37183042  15021  M  LEVOFLOXACINA KM750 SPI                     330264000003120000000 2808000009079200000       000  000  300  000  000  000         1  6942189304606       21177243       21177243   513988550001  N  0                        210562 01/05/2024       USD          752         2257    402327759
01 37183042  14954  M  METRONIDAZOL PORT250 120                    317969250001852500000 1667250005390775000       000  000  300  000  000  000         1  7750215796597       21177243       21177243   513988550001  N  0                       2028771 01/02/2024       USD          447         1340    402327759
01 37183042  15199  M  NEUROMIX COMPLE B X3A                       615132000001560000000 2808000009079200000       000  000  300  000  000  000         1  7591585113382       21177243       21177243   513988550001  N  0                           003 01/05/2023       USD          376         2257    402327759
01 37183042  14431  M  PENTOXIFILINA GF400 X30TA                   338838800004004000000 360360000       000       000  000  300  000  000  000         1  7702605103294       21177243       21177243   513988550001  N  0                       B00012D 01/12/2022       USD          965         2896    402327759
01 37183042  13483  M  ROSUVASTATINA 20MGX30 TAB                   317415040501795365000 1615828505224512150       000  000  300  000  000  000         1  7598176000144       21177243       21177243   513988550001  N  0                        T00213 01/11/2023       USD          433         1299    402327759
01 37183042  EB380  C  SCHICK EXACTA MAQ. PS X3                    3 717193750 739375000  665437502151581250 344253000  000  300  000  000  000         1  7591066681294       21177265       21177265   513988550001  N  0                           10X 01/01/2030       USD          178          535    402327759
01 37183042  13569  C  SCHICK XTREME3 MAQ.AF X1                    3 522117050 538265000  484438501566351150 250616184  000  300  000  000  000         1  7591066701015       21177265       21177265   513988550001  N  0                           10X 01/01/2030       USD          130          389    402327759
01 37183042  EB880  C  SCHICK XTREME3 PS MAQ.AF X4                 318360160001892800000 1703520005508048000 881287680  000  300  000  000  000         1  7591066730466       21177265       21177265   513988550001  N  0                           10X 01/01/2030       USD          456         1369    402327759
01 37183042  EL374  M  TACHIPIRIN FORTE SUSP.120                  1210230687191054710020 379695612       000       000  000  300  000  000  000         1  7591062017301       21177265       21177265   513988550001  N  0                        21038A 01/08/2024       USD          254         3051    402327759
01 37183042  LM100  C  ULTRASKIN PS CR. 60GR.                      324211200002496000000 22464000072633600001162137600  000  300  000  000  000         1  7592025101013       21177265       21177265   513988550001  N  0                        210628 01/06/2025       USD          602         1805    402327759
01 37183042  LM110  C  ULTRASKIN PS GEL 60GR.                      324211200002496000000 22464000072633600001162137600  000  300  000  000  000         1  7592025101020       21177265       21177265   513988550001  N  0                        210598 01/06/2025       USD          602         1805    402327759
01 37183042  11400  N  VAGINEL CREMA 40GR.                         6 683966400 705120000 1269216004103798400       000  000  300  000  000  000         1  7593533004438       21177265       21177265   513988550001  N  0                     070621816 01/06/2024       USD          170         1020    402327759
02 37183042         76   94954745728   23752700400    3800432064  122507878192    0    0    0  000    0    0    0   16/09/2021 11:15:15 a.m.   PR           000           000             0            18           USD    402327759        29505
