01 37200062  GN203  M  ALIVET JBE.PED.125MG.120                    211050000001105000000       0002210000000       000  000  000  000  000  000         1  7591585216755       21190038       21190038   514161940001  N  0                           084 01/02/2025       USD          267          533    414272704
01 37200062  LT284  M  ANTUX SOL.ORAL 180ML.                       33088800000343200000010296000009266400000       000  000  000 1000  000  000         1  7591585214706       21189894       21189894   514161940001  N  0                           282 01/08/2023       USD          746         2237    414272704
01 37200062  QF300  M  BROMEXINA QF8MG.JBE.120ML                   6 572000000 572000000       0003432000000       000  000  000  000  000  000         1  7598484000041       21190051       21190051   514161940001  N  0                          9781 01/08/2023       USD          138          828    414272704
01 37200062  PD390  M  FLEMICAINE SOL.TOP. 5ML.                    210400000001040000000       0002080000000       000  000  000  000  000  000         1  7591955000489       21190050       21190050   514161940001  N  0                          0027 01/04/2024       USD          251          502    414272704
01 37200062  12516  M  REHIDROSOL FRAMBUES 600ML                   812674938601267493860       000       000       000  000  000  000  000  000         1  7592637398535       21190038       21190038   514161940001  N  0                       2100050 01/03/2023       USD          306         2448    414272704
01 37200062  10824  M  REHIDROSOL FRESA  600ML                     812221212121222121212       0009776969696       000  000  000  000  000  000         1  7592637397415       21190038       21190038   514161940001  N  0                       2100097 01/05/2023       USD          295         2360    414272704
01 37200062  LC314  N  FLUVIRIN JBE. 120ML.                        412870000001430000000 5720000005148000000       000  000  000 1000  000  000         2  7591585111166       21190038       21190038   514161940002  N  0                           224 01/04/2023       USD          311         1243    414272704
01 37200062  MG604  M  FULGRAM 600/42,9SUSP.60CC                   3343980000038220000001146600000       000       000  000  000 1000  000  000         2  7591585113139       21190050       21190050   514161940002  N  0                           334 01/07/2023       USD          830         2491    414272704
01 37200062  EL167  M  PEREBRON JBE.AD.FRANB120                    413474258011347425801       0005389703204       000  000  000  000  000  000         2  7591062011217       21190051       21190051   514161940002  N  0                        21064A 01/09/2023       USD          325         1301    414272704
01 37200062  11944  M  REHIDROSOL MANZANA 600ML.                   812907252191290725219       000       000       000  000  000  000  000  000         2  7592637398528       21190038       21190038   514161940002  N  0                       2100059 01/04/2023       USD          312         2493    414272704
01 37200062  11584  M  REHIDROSOL UVA 600ML.                       811790975351179097535       0009432780280       000  000  000  000  000  000         2  7592637398443       21190038       21190038   514161940002  N  0                       2100105 01/06/2023       USD          285         2277    414272704
02 37200062         56   77521005812           000           000   77521005812    0    0    0  000    0    0    0   28/09/2021 10:00:46 a.m.   PR           000           000             0            11           USD    414272704        18713
