01 37033156  KN420  M  ANASMOL 2,5MG. X30CO                        210530000001053000000       0002106000000       000    0    0    0    0    0         1  7591955003084        2637299       21042702   512475610001  N  0                          0030 01/10/2022       USD          343          686    307028283
01 37033156  MY105  M  ARBIXIL 7,5-5 JBE.PED.120                   115522000001552200000       0001552200000       000    0    0    0    0    0         1  7592601100638        2637299       21042702   512475610001  N  0                        024302 01/10/2023       USD          506          506    307028283
01 37033156  12466  M  DEKORT 4MG. X20TA                           122824100002282410000       0002282410000       000    0    0    0    0    0         1  8699525019752        2637299       21042702   512475610001  N  0                       A088151 01/08/2022       USD          743          743    307028283
01 37033156  QM500  M  DESLER M 2.5/5 X30TM                        221238100002123810000       0004247620000       000    0    0    0    0    0         1  7592454889278        2637299       21042702   512475610001  N  0                       3253701 01/11/2022       USD          692         1383    307028283
01 37033156  11913  M  DICLOFENAC S. BIO75 X100A                   162400000006240000000       0006240000000       000    0    0    0    0    0         1  7800061145107        2637299       21042702   512475610001  N  0                      19082664 01/08/2022       USD         2032         2032    307028283
01 37033156  ED730  M  NEMODINE 40MG. X20CO                        117790500001779050000       0001779050000       000    0    0    0    0    0         1  7592803001221        2637299       21042702   512475610001  N  0                       2103502 01/04/2024       USD          579          579    307028283
01 37033156  PA172  M  NORSINA 500-10 X 12TA                       310094124611009412461       0003028237383       000    0    0    0    0    0         1  7591243837452        2637299       21042702   512475610001  N  0                       9254901 01/02/2023       USD          329          986    307028283
01 37033156  FA249  M  RINOLAST D SUSP. 120CC.                     212761105501276110550       0002552221100       000    0    0    0    0    0         1  7591821901377        2637299       21042702   512475610001  N  0                       2007439 01/07/2022       USD          416          831    307028283
02 37033156         13   23787738483           000           000   23787738483    0    0    0  000    0    0    0   27/05/2021 01:26:45 p.m.   PR           000           000             0             8           USD    307028283         7748
