01 37019709  KV004  M  ANTILAX 2MG. X10TA                          6 414050000 422500000  507000002484300000       000    0    0    0    0    2         1  7591821102095       21029381       21029381   512283880001  N  0                       2010043 01/10/2022       USD          141          847    293194940
01 37019709  12543  M  ATOVAROL 20MG X14CA                         2 870322908 888084600  355233841740645816       000    0    0    0    0    2         1  7592432901435       21029495       21029495   512283880001  N  0                        200236 01/09/2022       USD          297          594    293194940
01 37019709  12543  M  ATOVAROL 20MG X14CA                         2 870322908 888084600  355233841740645816       000    0    0    0    0    2         1  7592432901435       21029495       21029495   512283880001  N  0                        200236 01/09/2022       USD          297          594    293194940
01 37019709  13008  M  BIOCOR 40MG X10TA                           3 810009200 826540000  495924002430027600       000    0    0    0    0    2         1  7591519317701       21029495       21029495   512283880001  N  0                         31317 01/06/2022       USD          276          829    293194940
01 37019709  12466  M  DEKORT 4MG. X20TA                           221626150002206750000  882700004325230000       000    0    0    0    0    2         1  8699525019752        2637236       21030544   512283880001  N  0                       A088151 01/08/2022       USD          738         1475    293194940
01 37019709  13411  M  DILUXEN 60MG X20 TAB                        116434600001677000000  335400001643460000       000    0    0    0    0    2         1  7591821210462       21029381       21029381   512283880001  N  0                       2008067 01/10/2022       USD          561          561    293194940
01 37019709  MK103  M  DIOSMINA +MK 600MG. X14TA                   222256780002271100000  908440004451356000       000    0    0    0    0    2         1  7591519051193       21029495       21029495   512283880001  N  0                         31681 01/01/2024       USD          759         1518    293194940
01 37019709  GN146  M  ENALAPRIL GN 20MG. X30CO                    4 509600000 520000000  416000002038400000       000    0    0    0    0    2         1  7591585378538       21030039       21030039   512283880001  N  0                           418 01/01/2023       USD          174          695    293194940
01 37019709  GN146  M  ENALAPRIL GN 20MG. X30CO                    8 509600000 520000000  832000004076800000       000    0    0    0    0    2         1  7591585378538       21030039       21030039   512283880001  N  0                           418 01/01/2023       USD          174         1390    293194940
01 37019709  LO810  M  FISIOLIN GOTAS PED. 15ML.                   6 695006813 709190625  851028724170040878       000    0    0    0    0    2         1  7591196002198       21030049       21030049   512283880001  N  0                       I020849 01/03/2023       USD          237         1422    293194940
01 37019709  MK117  M  FLAVOXATO +MK 200MG.X10TA                   6 774082400 789880000  947856004644494400       000    0    0    0    0    2         1  7591519009330       21030049       21030049   512283880001  N  0                         31825 01/03/2023       USD          264         1584    293194940
01 37019709  MK052  M  FLUCONAZOL +MK150MG. X2CA                  12 394430400 402480000  965952004733164800       000    0    0    0    0    2         1  7591519001594       21030049       21030049   512283880001  N  0                         31362 01/08/2022       USD          135         1614    293194940
01 37019709  MK809  M  IVERMECTINA +MK 6MG. X4TA                  12 431886000 440700000 1057680005182632000       000    0    0    0    0    2         1  7591519007121       21030049       21030049   512283880001  N  0                         31898 01/04/2023       USD          147         1768    293194940
01 37019709  VA551  M  KETAZOL 20MG. CREMA 15GR.                   2 812603034 829186769  331674701625206068       000    0    0    0    0    2         1  7592349429787        2637236       21030544   512283880001  N  0                       2009533 01/09/2025       USD          277          554    293194940
01 37019709  13041  M  LETALOP 25MG X30CO                          215466200021578183676  631273483093240004       000    0    0    0    0    2         1  7595368004195       21029495       21029495   512283880001  N  0                         12387 01/10/2022       USD          528         1055    293194940
01 37019709  11794  M  MEZHITIN 10MG. X50CO                        227920993682849080988 1139632405584198736       000    0    0    0    0    2         1  7595368000050        2637237       21030545   512283880001  N  0                         12383 01/10/2022       USD          952         1905    293194940
01 37019709  CO540  M  MIOVIT COMP.AMP.3ML. X3 KIT                 114432147061636297853 1930831471443214706       000    0    0   10    0    2         1  7591818026366        2637233       21027951   512283880001  N  0                         00505 01/11/2023       USD          492          492    293194940
01 37019709  CO185  M  MIOVIT GRAGEAS X10                          3 586299062 664738166 2353173121758897186       000    0    0   10    0    2         1  7591818118030        2637236       21030544   512283880001  N  0                         10116 01/04/2024       USD          200          600    293194940
01 37019709  PG110  M  NINAZO GOTAS AD. 15ML.                     12 393347500 422500000 3498300004720170000       000    0    5    0    0    2         1  7591821802957       21029381       21029381   512283880001  N  0                       2009011 01/03/2022       USD          134         1610    293194940
01 37019709  PO450  M  SARIFAN COMP X20TA                          215288000001560000000  624000003057600000       000    0    0    0    0    2         1  7592806134032       21030059       21030059   512283880001  N  0                        010121 01/10/2022       USD          521         1043    293194940
01 37019709  11448  M  SINUTIL DIA/NOCHE 500X9CA                   6 481240760 491062000  589274402887444560       000    0    0    0    0    2         1  7593090000713       21030059       21030059   512283880001  N  0                        200105 01/06/2022       USD          164          985    293194940
01 37019709  PA949  M  TONUM 10MG. X30TA                           310254024281046329008  627797403076207284       000    0    0    0    0    2         1  7591243851106        2637236       21030544   512283880001  N  0                       9228702 01/11/2023       USD          350         1049    293194940
02 37019709         99   70907375854           000           000   70907375854    0    0    0  000    0    0    0   18/05/2021 01:30:57 p.m.   PR           000           000             0            22           USD    293194940        24184
