01 37017759  14113  M  BROMEXINA 4MGX120ML                        12 369460000 377000000 1809600004433520000       000    0    0    0    0    2         1  7592236002055       21030039       21029084   512283900001  N  0                         40441 01/04/2023       USD          125         1494    296667896
01 37017759  14113  M  BROMEXINA 4MGX120ML                        12 369460000 377000000 1809600004433520000       000    0    0    0    0    2         1  7592236002055       21029084       21029084   512283900001  N  0                         40441 01/04/2023       USD          125         1494    296667896
01 37017759  GQ474  M  CEFADROXILO ELTER250 60ML                   1 9920638001012310000  20246200 992063800       000    0    0    0    0    2         1  7703763180318        2637234       21028299   512283900001  N  0                       3237479 01/01/2022       USD          334          334    296667896
01 37017759  13425  M  MIOVIT JBE SIN AZUCAR 90M                   2 750569452 850985773 2008326421501138904       000    0    0   10    0    2         1  7591818716687        2637236       21030544   512283900001  N  0                         00317 01/08/2022       USD          253          506    296667896
02 37017759         27   11360242704           000           000   11360242704    0    0    0  000    0    0    0   17/05/2021 02:57:51 p.m.   PR           000           000             0             3           USD    296667896         3829
