01 37018172  13282  M  AMODIS SUSP 60ML                            2 780325000 796250000  318500001560650000       000    0    0    0    0    2         1  8940001255707       21029495       21029495   512283850001  N  0                       0A04145 01/12/2022       USD          263          526    296667896
01 37018172  12039  M  CEFADROXILO AL250 PPSO60                    6 770291835 863749535 5607462004621751010       000    0    0    9    0    2         1  7597758000244        2637236       21030544   512283850001  N  0                         DL088 01/11/2022       USD          260         1558    296667896
01 37018172  14429  M  ENALAPRIL GN 20MG. X10CO                   12 144917500 147875000  354900001739010000       000    0    0    0    0    2         1  7591585278531       21030039       21030039   512283850001  N  0                           417 01/01/2023       USD          049          586    296667896
01 37018172  12622  C  EVERY N. GEL FIJ POWER100                   3 231918786 236651822  14199108 695756358 111321017    0    0    0    0    2         1  7590005168209       21030039       21030039   512283850001  N  0                       2104119 01/04/2023       USD          078          235    296667896
01 37018172  12621  C  EVERY N. GEL FIJ STRON100                   3 231918786 236651822  14199108 695756358 111321017    0    0    0    0    2         1  7590005168193       21030039       21030039   512283850001  N  0                     PS2103109 01/03/2023       USD          078          235    296667896
01 37018172  MY790  M  HEPAFOL B12 TAB. X30                        611138941081136626641 1363951986683364648       000    0    0    0    0    2         1  7592601100423       21030049       21030049   512283850001  N  0                        125102 01/04/2023       USD          375         2253    296667896
01 37018172  LO003  M  IPORET SUSP.PED. 60ML.                      6 648993516 662238282  794685963893961096       000    0    0    0    0    2         1  7591196004253       21030049       21030049   512283850001  N  0                       I060950 01/07/2022       USD          219         1313    296667896
01 37018172  11324  C  LIMP ENCIA DIAMOND120GALA                   6 338438100 345345000  414414002030628600 324900576    0    0    0    0    2         1  7595751001343       21030049       21030049   512283850001  N  0                       2009016 01/09/2023       USD          114          684    296667896
01 37018172  11325  C  LIMP ENCIA U.MINT 120GALA                   6 320856900 327405000  392886001925141400 308022624    0    0    0    0    2         1  7595751001367       21030049       21030049   512283850001  N  0                       2005007 01/05/2023       USD          108          649    296667896
01 37018172  14611  M  OMEPRAZOL AS40MG. IV X1                     2 539258720 550264000  220105601078517440       000    0    0    0    0    2         1  8906101410675       21030059       21030059   512283850001  N  0                       DI2G884 01/10/2023       USD          182          364    296667896
01 37018172  11063  N  SABEMIEL PLUS DROVEN180ML                   4 547820000 559000000  447200002191280000       000    0    0    0    0    2         1  7592710001062       21030059       21030059   512283850001  N  0                       1780802 01/08/2022       USD          185          739    296667896
01 37018172  13725  M  SALRES 100MCG AERO 200DOS                   612700187501295937500 1555125007620112500       000    0    0    0    0    2         1  8699525528148       21030059       21030059   512283850001  N  0                       A079946 01/09/2021       USD          428         2569    296667896
01 37018172  FF200  M  SILVEDERMA 1% CR. 50GR.                     215864969091618874397  647549763172993818       000    0    0    0    0    2         1  8470007006244       21029084       21029084   512283850001  N  0                      012P037B 01/09/2023       USD          535         1070    296667896
01 37018172  12680  M  SOLUCION ISOTO 0,9% 500ML                   6 420420000 429000000  514800002522520000       000    0    0    0    0    2         1  7597767000068       21030059       21030059   512283850001  N  0                      19082619 01/08/2022       USD          142          850    296667896
01 37018172  KV760  M  TERAGRIP JBE.PED. 120ML.                    2 828100000 845000000  338000001656200000       000    0    0    0    0    2         1  7591821101692       21029381       21029381   512283850001  N  0                      2011015B 01/02/2023       USD          279          558    296667896
01 37018172  14377  M  TRIMIC FORTE L O.VAG.X7OV                   214014000001430000000  572000002802800000       000    0    0    0    0    2         1  8906009238555       21029495       21029495   512283850001  N  0                      K2AJG004 01/04/2022       USD          472          945    296667896
01 37018172  OJ016  N  VENACARE HP CAPS. X60                       221021000002145000000  858000004204200000       000    0    0    0    0    2         1  7592710000935        2637233       21027951   512283850001  N  0                       0632110 01/10/2023       USD          709         1417    296667896
02 37018172         76   43747360512    5347282716     855565235   49950208463    0    0    0  000    0    0    0   17/05/2021 05:11:06 p.m.   PR           000           000             0            17           USD    296667896        16549
