01 37021122  13482  M  ALOPURINOL 100MGX30 TAB                     3 793065000 809250000  485550002379195000       000    0    0    0    0    2         1  7598176000137       21030039       21030039   512283860001  N  0                       TEMH218 01/07/2023       USD          270          811    293194940
01 37021122  GN939  M  AMLODIPINA GN10MG. X10CO                   12 194922000 198900000  477360002339064000       000    0    0    0    0    2         1  7591585178176       21029084       21029084   512283860001  N  0                           187 01/01/2023       USD          066          798    293194940
01 37021122  14785  M  ASARAP 15MG. X20CO                          133124000003380000000  676000003312400000       000    0    0    0    0    2         1  7591585113337       21029495       21029495   512283860001  N  0                           003 01/04/2023       USD         1130         1130    293194940
01 37021122  14271  M  ASARAP 20MG. X20CO                          146501000004745000000  949000004650100000       000    0    0    0    0    2         1  7591585113344       21030039       21030039   512283860001  N  0                           003 01/04/2023       USD         1586         1586    293194940
01 37021122  12383  M  AZEEWELL -200 200-5 15ML                    6 671448960 685152000  822182404028693760       000    0    0    0    0    2         1  8904307701054       21029084       21029084   512283860001  N  0                         01002 01/09/2023       USD          229         1374    293194940
01 37021122  PO180  M  BACTRON SUSP. 100ML.                        4 840840000 858000000  686400003363360000       000    0    0    0    0    2         1  7592806122015       21029495       21029495   512283860001  N  0                        102024 01/02/2026       USD          287         1147    293194940
01 37021122  NP910  M  BEDOYECTA AMP. X1                           310551827051196352273 4235087043165548115       000    0   10    0    0    2         1  7592229002123       21029381       21029381   512283860001  N  0                 2007437337499 01/08/2021       USD          360         1080    293194940
01 37021122  PA275  M  BETAGEN SOLSPEN 1ML.1AMP.                  1212113291221236050124 296652024       000       000    0    0    0    0    2         1  7591243804409       21029495       21029495   512283860001  N  0                         92322 01/09/2022       USD          413         4958    293194940
01 37021122  QR350  M  DAFLON 500MG. X60CO                         179756306958138398668 1627679737975630695       000    0    0    0    0    2         1  7592788000585       21029495       21029495   512283860001  N  0                       6025251 01/11/2023       USD         2720         2720    293194940
01 37021122  13892  M  ENALAPRIL PORTU10 X100TA                    222244040002269800000  907920004448808000       000    0    0    0    0    2         1  7750215003749       21030039       21030039   512283860001  N  0                       2073570 01/07/2022       USD          759         1517    293194940
01 37021122  CO245  M  EUSILEN 4MG. 2ML. X1KIT                     6 540523742 612838710 4338898083243142452       000    0    0   10    0    2         1  7591818113028       21029381       21029381   512283860001  N  0                         00328 01/08/2023       USD          184         1106    293194940
01 37021122  13484  M  FLUOXETINA 20MGX30 CAP                      3 802620000 819000000  491400002407860000       000    0    0    0    0    2         1  7598176000151       21029495       21029495   512283860001  N  0                       CEMG038 01/06/2023       USD          274          821    293194940
01 37021122  GM149  M  FUROSEMIDA MY 40MG. X24TA                   6 665131907 678706028  814447263990791442       000    0    0    0    0    2         1  7592601301059       21030049       21030049   512283860001  N  0                        157101 01/04/2023       USD          227         1361    293194940
01 37021122  13486  M  ITRACONAZOL 100 MGX10 CAP                   213185900001345500000  538200002637180000       000    0    0    0    0    2         1  7598176000229       21030049       21030049   512283860001  N  0                       CEMH054 01/07/2023       USD          450          899    293194940
01 37021122  11402  M  METFORMINA FARQ850MG.X100                   228569450002915250000 1166100005713890000       000    0    0    0    0    2         1  7467922680971       21030049       21030049   512283860001  N  0                       2005049 01/05/2024       USD          974         1949    293194940
01 37021122  14246  M  PARACETAMOL REME 500X100T                   165013809646634062208 1326812446501380964       000    0    0    0    0    2         1   737186266882       21029605       21029605   512283860001  N  0                       P77901T 01/10/2022       USD         2217         2217    293194940
01 37021122  12158  M  RANITIDINA BM50MG X10AMP                    1 465010000 474500000   9490000 465010000       000    0    0    0    0    2         1  6930169708124       21030059       21030059   512283860001  N  0                        190476 01/03/2022       USD          159          159    293194940
01 37021122  11063  N  SABEMIEL PLUS DROVEN180ML                   2 547820000 559000000  223600001095640000       000    0    0    0    0    2         1  7592710001062       21030059       21030059   512283860001  N  0                       1780802 01/08/2022       USD          187          374    293194940
01 37021122  DP720  M  SULFADIAZINA P. DP CR.30GR.                 110129120981033583773  206716751012912098       000    0    0    0    0    2         1  7592616480015       21029084       21029084   512283860001  N  0                         10197 01/02/2023       USD          345          345    293194940
01 37021122  13118  M  VIT C LS500MAND.10B.X10TM                   328737618002932410000 1759446008621285400       000    0    0    0    0    2         1  7703763750184        2637236       21030544   512283860001  N  0                       3264561 01/03/2024       USD          980         2940    293194940
02 37021122         72   85887841390           000           000   85887841390    0    0    0  000    0    0    0   18/05/2021 06:26:47 p.m.   PR           000           000             0            20           USD    293194940        29294
