01 37020245  12441  M  ATENOLOL 50MG X100TA                        116343687361667723200 1000633921634368736       000    0    0    0    0    2         1  7460828579387       21030039       21029381   512283840001  N  0                        109812 01/10/2023       USD          557          557    293194940
01 37020245  12441  M  ATENOLOL 50MG X100TA                        216343687361667723200 1000633923268737472       000    0    0    0    0    2         1  7460828579387       21029381       21029381   512283840001  N  0                        109812 01/10/2023       USD          557         1115    293194940
01 37020245  12544  M  ATOVAROL 40MG X14CA                         411793529401203421367  962737084717411760       000    0    0    0    0    2         1  7592432901442        2637234       21028299   512283840001  N  0                        210037 01/03/2023       USD          402         1609    293194940
01 37020245  14651  C  BRIUTCARE APOS. FLEX X20                    6 301301000 307450000  368940001807806000 289248960    0    0    0    0    2         1   742033994726       21030039       21030039   512283840001  N  0                      BCBA1018 01/10/2025       USD          103          617    293194940
01 37020245  14653  C  BRIUTCARE APOS. KIDS X20                    2 301301000 307450000  12298000 602602000  96416320    0    0    0    0    2         1   742033994719       21030039       21030039   512283840001  N  0                      BCBA1018 01/10/2025       USD          103          206    293194940
01 37020245  12573  M  DIPIRONA KMPLUS 500 X10TA                  11 229829600 234520000  515944002528125600       000    0    0    0    0    2         1  6921875010861       21030039       21030039   512283840001  N  0                       2004434 01/04/2023       USD          078          862    293194940
01 37020245  14117  M  FANASAL  AD. X 15ML GTAS                   24 293020000 299000000 1435200007032480000       000    0    0    0    0    2         1  7592236002215       21030049       21030049   512283840001  N  0                          3741 01/04/2023       USD          100         2399    293194940
01 37020245  PA184  N  FLEXURAT 500/400 X30TA                      132077676973273232344  654646473207767697       000    0    0    0    0    2         1  7591241817968       21030049       21030049   512283840001  N  0                       9227301 01/03/2023       USD         1094         1094    293194940
01 37020245  11479  M  FOSFOLIT SOL.ORAL 45ML.                     127061570802761384776  552276962706157080       000    0    0    0    0    2         1  7591136723596       21030049       21030049   512283840001  N  0                       2104007 01/04/2023       USD          923          923    293194940
01 37020245  CH071  C  FRIENDS TS TELA C/A X10                     6 189882719 193757877  232509481139296314 182287410    0    0    0    0    2         1  7591353701735       21030049       21030049   512283840001  N  0                      10427115 01/04/2023       USD          065          389    293194940
01 37020245  14484  M  LAGRIMART 0,5% SOFT MD5A                    111637990001187550000  237510001163799000       000    0    0    0    0    2         1  7709315171520       21030049       21030049   512283840001  N  0                         20140 01/08/2022       USD          397          397    293194940
01 37020245  14364  M  LAGRIMPRO 0.3 SOFT. MD5A                    111637990001187550000  237510001163799000       000    0    0    0    0    2         1  7709050343565       21030049       21030049   512283840001  N  0                         20139 01/08/2022       USD          397          397    293194940
01 37020245  11730  N  LEVINZOL 1000MG. X30CA.BL                   213018687501328437500  531375002603737500       000    0    0    0    0    2         1  7592782001847       21030049       21030049   512283840001  N  0                        200210 01/09/2022       USD          444          888    293194940
01 37020245  11350  C  LIMP ENCIA CLASIC100 GALA                   6 206579100 210795000  252954001239474600 198315936    0    0    0    0    2         1  7595751001350       21030049       21030049   512283840001  N  0                       2010007 01/10/2023       USD          070          423    293194940
01 37020245  LO224  M  MELOXICAM LO 15MG. X10TA                    6 524730144 535438922  642526683148380864       000    0    0    0    0    2         1  7591196001146       21030049       21030049   512283840001  N  0                       I041129 01/04/2023       USD          179         1074    293194940
01 37020245  14375  M  PARACETA PORTU500 X100TA                    222473360002293200000  917280004494672000       000    0    0    0    0    2         1  7750215496886       21029605       21029605   512283840001  N  0                       2015451 01/01/2024       USD          766         1533    293194940
01 37020245  13505  M  PEDIALY MAX 60 COCO 500ML                   2 794273104 810482759  324193101588546208       000    0    0    0    0    2         1  7501033961540       21030059       21030059   512283840001  N  0                       23448MC 01/11/2022       USD          271          542    293194940
01 37020245  13507  M  PEDIALY MAX 60 FRES 500ML                   2 794273104 810482759  324193101588546208       000    0    0    0    0    2         1  7501033961557       21030059       21030059   512283840001  N  0                       23444MC 01/11/2022       USD          271          542    293194940
01 37020245  11828  M  PREDNISONA CCM 5MG.X20TA                    6 546800800 557960000  669552003280804800       000    0    0    0    0    2         1  7501384546816       21030059       21030059   512283840001  N  0                       0720705 01/07/2022       USD          186         1119    293194940
01 37020245  13620  C  TAPA BOCAS DESECH.LIGA X5                   2 924191941 943053001  377221201848383882 295741421    0    0    0    0    2         1  7709131785925       21029495       21029495   512283840001  N  0                         M1820 01/01/2030       USD          315          630    293194940
02 37020245         88   44127333925    6637562796    1062010047   51826906768    0    0    0  000    0    0    0   18/05/2021 03:27:45 p.m.   PR           000           000             0            19           USD    293194940        17314
