01 37020525  10728  M  BIOCOR 20MG. X30TA                          114561820001485900000  297180001456182000       000    0    0    0    0    2         1  7591519000146       21029495       21029495   512283870001  N  0                         31819 01/03/2024       USD          497          497    293194940
01 37020525  14624  M  DICLOFENAC S. GN50 X10CO                    6 216580000 221000000  265200001299480000       000    0    0    0    0    2         1  7591585473967        2637234       21028299   512283870001  N  0                          6731 01/02/2026       USD          074          443    293194940
01 37020525  13492  M  DOMPERIDONA 10MGX30 TAB                     2 649740000 663000000  265200001299480000       000    0    0    0    0    2         1  7598176000212       21030039       21030039   512283870001  N  0                       TEM1266 01/08/2023       USD          222          443    293194940
01 37020525  GM129  M  FUROSEMIDA MY 20MG. X12TA                   6 509324816 519719200  623663043055948896       000    0    0    0    0    2         1  7592601300953       21030049       21030049   512283870001  N  0                        157201 01/04/2024       USD          174         1042    293194940
01 37020525  13211  M  IVAGAN DIS 650/1/40 25X4T                   253499456295459128193 218365128       000       000    0    0    0    0    2         1  7591243826814       21030049       21030049   512283870001  N  0                         91999 01/09/2022       USD         1825         3649    293194940
01 37020525  GN166  M  LOSARTAN P. GN 100 X30CO                    6 953206800 972660000 1167192005719240800       000    0    0    0    0    2         1  7591585378927       21030049       21030049   512283870001  N  0                           153 01/02/2024       USD          325         1951    293194940
01 37020525  GN166  M  LOSARTAN P. GN 100 X30CO                    4 953206800 972660000  778128003812827200       000    0    0    0    0    2         1  7591585378927        2637233       21027951   512283870001  N  0                           153 01/02/2024       USD          325         1300    293194940
01 37020525  GN072  M  LOSARTAN P. GN100 X10CO                     6 312130000 318500000  382200001872780000       000    0    0    0    0    2         1  7591585278920       21030049       21030049   512283870001  N  0                           153 01/02/2024       USD          106          639    293194940
01 37020525  CO540  M  MIOVIT COMP.AMP.3ML. X3 KIT                12144321470616362978532316997764       000       000    0    0   10    0    2         1  7591818026366       21029084       21029084   512283870001  N  0                         00505 01/11/2023       USD          492         5907    293194940
01 37020525  CO540  M  MIOVIT COMP.AMP.3ML. X3 KIT                11144321470616362978532123914617       000       000    0    0   10    0    2         1  7591818026366        2637233       21027951   512283870001  N  0                         00505 01/11/2023       USD          492         5415    293194940
01 37020525  LO414  M  NAS SOL.GOTAS AD. 15ML.                     6 348566400 355680000  426816002091398400       000    0    0    0    0    2         1  7591196003140       21030059       21030059   512283870001  N  0                       I100017 01/11/2022       USD          119          713    293194940
01 37020525  ED730  M  NEMODINE 40MG. X20CO                        215160600001547000000  618800003032120000       000    0    0    0    0    2         1  7592803001221       21029084       21029084   512283870001  N  0                       2103502 01/04/2024       USD          517         1034    293194940
01 37020525  12959  M  NIFEDIPINA 20MG X100TA                      214657370001495650000  598260002931474000       000    0    0    0    0    2         1 07460260000791        2637233       21029084   512283870001  N  0                          ND06 01/04/2023       USD          500         1000    293194940
01 37020525  12959  M  NIFEDIPINA 20MG X100TA                      214657370001495650000  598260002931474000       000    0    0    0    0    2         1 07460260000791       21029084       21027951   512283870001  N  0                          ND06 01/04/2023       USD          500         1000    293194940
01 37020525  PA172  M  NORSINA 500-10 X 12TA                       6 9892242121009412461 1211294945935345272       000    0    0    0    0    2         1  7591243837452       21030059       21030059   512283870001  N  0                       9254901 01/02/2023       USD          337         2024    293194940
02 37020525         74   79331580064           000           000   79331580064    0    0    0  000    0    0    0   18/05/2021 04:22:05 p.m.   PR           000           000             0            15           USD    293194940        27058
