01 37035189  GP500  M  ANGRIP COMPR. X6                           12 246480000 312000000 7862400002957760000       000    0    0   21    0    0         1  7594000490112       21043696       21043696   512487250001  N  0                          0040 01/06/2022       USD          080          964    306670603
01 37035189  GP520  M  ANGRIP NOC COMPR. X3                       12 236210000 299000000 7534800002834520000       000    0    0   21    0    0         1  7594000490860       21043696       21043696   512487250001  N  0                          0016 01/03/2022       USD          077          924    306670603
01 37035189  PD565  M  BARGONIL UNG. 10GR.                         3 718900000 910000000 5733000002156700000       000    0    0   21    0    0         1  7591955000045       21043696       21043696   512487250001  N  0                          0100 01/01/2022       USD          234          703    306670603
01 37035189  KN102  M  DIECAPS 120MG. X30CA                        214300000001430000000       0002860000000       000    0    0    0    0    0         1  7591955558188       21043696       21043696   512487250001  N  0                          0261 01/04/2023       USD          466          933    306670603
01 37035189  11285  M  FEBRIP 650MG. X14CO                         6 400530000 507000000 6388200002403180000       000    0    0   21    0    0         1  7591619519210       21043696       21043696   512487250001  N  0                          0027 01/10/2022       USD          131          784    306670603
01 37035189  11285  M  FEBRIP 650MG. X14CO                         6 400530000 507000000 6388200002403180000       000    0    0   21    0    0         1  7591619519210       21043696       21043696   512487250001  N  0                          0027 01/10/2022       USD          131          784    306670603
01 37035189  LP640  M  FERGANIC 40MG. X24CA                        320800000002080000000       0006240000000       000    0    0    0    0    0         1  7591955001257       21043696       21043696   512487250001  N  0                          0145 01/03/2024       USD          678         2035    306670603
01 37035189  KL400  M  HELAL 200MG. X2CO                          12 429000000 429000000       0005148000000       000    0    0    0    0    0         1  7591619102016       21043696       21043696   512487250001  N  0                          0024 01/02/2024       USD          140         1679    306670603
01 37035189  PD104  M  POLI-OTICO GOTAS 5 CC.                      6 718900000 91000000011466000004313400000       000    0    0   21    0    0         1  7591955002278       21043696       21043696   512487250001  N  0                          0094 01/07/2022       USD          234         1407    306670603
01 37035189  KL035  M  FEBRATIC 10MG.SUSP.120ML.                   311570000001157000000       0003471000000       000    0    0    0    0    0         2  7591619519081       21043696       21043696   512487250002  N  0                          0065 01/04/2023       USD          377         1132    306670603
02 37035189         65   34787740000           000           000   34787740000    0    0    0  000    0    0    0   28/05/2021 03:29:52 p.m.   PR           000           000             0            10           USD    306670603        11344
