01 37066385  ED165  C  NOPUCID CH. 100 CC.                         211700000001170000000       0002340000000 374400000    0    0    0    0    0         1  7592803000811       21073899       21073899   512809820001  N  0                       2105539 01/05/2023       USD          372          743    314729713
01 37066385  ED175  C  NOPUCID LOC. 100 CC.                        212675000001267500000       0002535000000 405600000    0    0    0    0    0         1  7592803000835       21073899       21073899   512809820001  N  0                       2101475 01/01/2023       USD          403          805    314729713
01 37066385  LT284  M  ANTUX SOL.ORAL 180ML.                       221515000002151500000       0004303000000       000    0    0    0    0    0         2  7591585214706       21073480       21073480   512809820002  N  0                           280 01/05/2023       USD          684         1367    314729713
01 37066385  ED379  M  VIZERUL 150MG. JBE.120ML.                   217550000001755000000       0003510000000       000    0    0    0    0    0         2  7592803002389       21073899       21073899   512809820002  N  0                       2104525 01/05/2023       USD          558         1115    314729713
02 37066385          8    7813000000    4875000000     780000000   13468000000    0    0    0  000    0    0    0   22/06/2021 11:06:02 a.m.   PR           000           000             0             4           USD    314729713         4031
