01 37077112  14867  C  BOMBILLO DOUB RECAR100W                     223426000002342600000       0004685200000 749632000    0    0    0    0    0         1  8539500033208       21084368       21084368   512921050001  N  0                           10X 01/01/2030       USD          731         1462    320407952
01 37077112  KN108  M  FLUTIXAIR 50/25 INH. 120                    267340000006734000000       000       000       000    0    0    0    0    0         1  7730698013435       21084368       21084368   512921050001  N  0                          3414 01/10/2022       USD         2102         4203    320407952
01 37077112  14876  M  IBUPRO+TIOCOL FM600/4 X10                  2410400000001040000000       000       000       000    0    0    0    0    0         1  8906082150775       21084368       21084368   512921050001  N  0                         T0528 01/09/2023       USD          325         7790    320407952
01 37077112  14793  M  ULFHINLAS-AIR 25/50 X120D                   216949827541694982754       0003389965508       000    0    0    0    0    0         1  7502213042653       21084368       21084368   512921050001  N  0                         1A013 01/01/2023       USD          529         1058    320407952
01 37077112  11090  M  VASSLUTEN 150MG. X30TA                      616719161111671916111       000       000       000    0    0    0    0    0         1  7406076104582       21084368       21084368   512921050001  N  0                        A21017 01/01/2024       USD          522         3131    320407952
02 37077112         36   51849462174    4685200000     749632000   57284294174    0    0    0  000    0    0    0   30/06/2021 11:26:12 a.m.   PR           000           000             0             5           USD    320407952        17645
