01 37103142  GN121  M  AC FOLICO GN 10MG. X30CO                   18 481572000 491400000 1769040008668296000       000  000  000  000  000  200         1  7591585271495       21109670       21109670   513177110001  N  0                           039 01/03/2023       USD          132         2377    364693100
01 37103142  EL010  M  ALBICAR 200MG. X6TA                         6 587090413 599071850  718886223522542478       000  000  000  000  000  200         1  7591062010173       21109670       21109670   513177110001  N  0                        21015B 01/02/2024       USD          161          966    364693100
01 37103142  VC380  M  DIARONA 200MG. X10TA                        315662237501598187500  958912504698671250       000  000  000  000  000  200         1  7592782000116       21109311       21109311   513177110001  N  0                       2140007 01/04/2025       USD          429         1288    364693100
01 37103142  EL369  M  FLATORIL GOTAS 20CC.                        2 821645024 838413290  335365321643290048       000  000  000  000  000  200         1  7591062166191       21109670       21109670   513177110001  N  0                        21017C 01/03/2023       USD          225          451    364693100
01 37103142  CE120  M  NIOSILIN UNG. 20GR.TUBO                     111338600001157000000  231400001133860000       000  000  000  000  000  200         1  7594003280048       21109311       21109311   513177110001  N  0                       2103023 01/03/2023       USD          311          311    364693100
01 37103142  14440  C  PILA TOSHIBA AA X2                          2 548533440 559728000  223891201097066880 175530701  000  000  000  000  200         1  4904530592720       21109670       21109670   513177110001  N  0                           10X 01/01/2031       USD          150          301    364693100
02 37103142         32   19666659776    1097066880     175530701   20939257357    0    0    0  000    0    0    0   21/07/2021 12:52:07 p.m.   PR           000           000             0             6           USD    364693100         5693
