01 37108547  12135  M  AMPICILINA BM250 PPSO60ML                   3 357357000 364650000  218790001072071000       000  000  000  000  000  200         1  6930169708070       21114861       21114861   513249910001  N  0                        190447 01/03/2022       USD          095          284    377369322
01 37108547  14850  M  DICLOFENAC S. JL100 X10SU                   314523600001482000000  889200004357080000       000  000  000  000  000  200         1  7598650000585       21114861       21114861   513249910001  N  0                          2733 01/08/2023       USD          385         1155    377369322
01 37108547  11582  M  ETORICOXIB +MK90MG. X10TA                   510829000001105000000 1105000005414500000       000  000  000  000  000  200         1  7591519317268       21114861       21114861   513249910001  N  0                         31992 01/06/2023       USD          287         1435    377369322
01 37108547  13286  M  TENOREN 100MG X30TAB                        6 484120000 494000000  592800002904720000       000  000  000  000  000  200         1  7598055000562       21114861       21114861   513249910001  N  0                         KK076 01/01/2025       USD          128          770    377369322
02 37108547         17   13748371000           000           000   13748371000    0    0    0  000    0    0    0   23/07/2021 02:39:27 p.m.   PR           000           000             0             4           USD    377369322         3643
