01 37104568  VP529  M  ALBISEC CAPS. X12                           217097883371938535530 4574943863419576674       000  000  000 1000  000  200         1  7703153037512       21110760       21110760   513199340001  N  0                       1328941 01/12/2023       USD          461          921    371269957
01 37104568  12025  M  CEFADROXILO DAC500 X10TA                   12 87026940010091250001666267200       000       000  000  000 1200  000  200         1  8906121690033       21110760       21110760   513199340001  N  0                          V178 01/01/2023       USD          234         2813    371269957
01 37104568  LO120  M  CLARASOL SOL.OFT. 15ML.                     311793890911203458256  722074953538167273       000  000  000  000  000  200         1  7591196000071       21110760       21110760   513199340001  N  0                       I041134 01/04/2024       USD          318          953    371269957
01 37104568  KL669  M  CORENTEL H 5/6,25 X30CO                     328028000002860000000 1716000008408400000       000  000  000  000  000  200         1  7591619520315       21110760       21110760   513199340001  N  0                          0005 01/11/2023       USD          755         2265    371269957
01 37104568  11686  M  DESLER 0,5MG. JBE.60ML.                     3 942760000 962000000  577200002828280000       000  000  000  000  000  200         1  7592454891318       21111683       21111683   513199340001  N  0                       3254792 01/01/2023       USD          254          762    371269957
01 37104568  LO509  M  DESLORAT 0,5MG. JBE.60ML.                   6 810687222 827231859  992678224864123332       000  000  000  000  000  200         1  7591196004161       21110760       21110760   513199340001  N  0                        031025 01/03/2023       USD          218         1310    371269957
01 37104568  11734  M  MYDROX 1% SOL.OFT. 5ML.                     114113107481440113008  288022601411310748       000  000  000  000  000  200         1  7591196003409       21110760       21110760   513199340001  N  0                        080354 01/08/2023       USD          380          380    371269957
01 37104568  13914  M  OLMESARTAN 20MGX30 TAB                      211410963201455480000 6287673602282192640       000  000  000 2000  000  200         1  7592454003285       21111683       21111683   513199340001  N  0                       3256503 01/11/2022       USD          307          615    371269957
01 37104568  14646  M  PERTEN 1% SOL.TOP. 30ML.                    114684124001498380000  299676001468412400       000  000  000  000  000  200         1  7592601301806       21110760       21110760   513199340001  N  0                        035901 01/10/2022       USD          396          396    371269957
01 37104568  PD210  M  PRAXONA 150MG. X10CO                        2 891800000 910000000  364000001783600000       000  000  000  000  000  200         1  7591955000663       21110760       21110760   513199340001  N  0                          0053 01/02/2023       USD          240          480    371269957
01 37104568  FA249  M  RINOLAST D SUSP. 120CC.                     214429865451472435250  588974102885973090       000  000  000  000  000  200         1  7591821901377       21110760       21110760   513199340001  N  0                      2007438B 01/07/2022       USD          389          777    371269957
01 37104568  12086  M  VIT E VP 400MG. X15CA.BLA                   3 9909701461011194027  606716432972910438       000  000  000  000  000  200         1  7592432901428       21110760       21110760   513199340001  N  0                        210007 01/11/2023       USD          267          801    371269957
02 37104568         40   46306179395           000           000   46306179395    0    0    0  000    0    0    0   22/07/2021 08:51:35 a.m.   PR           000           000             0            12           USD    371269957        12472
