01 37108580  GQ954  M  BETAHISTINA ELTER16MG.X20                   317647448001800760000 1080456005294234400       000  000  000  000  000  200         1  7592454002400       21114861       21114861   513249900001  N  0                       3265752 01/04/2023       USD          468         1403    377369322
01 37108580  11478  M  CANDESARTAN ELTER16MG.X10                   2 49405720010082800001028445600 988114400       000  000  000 5000  000  200         1  7592454891189       21114861       21114861   513249900001  N  0                       3265286 01/04/2023       USD          131          262    377369322
01 37108580  QM490  M  DICIGEL SUSP. 240ML.                        122677200002314000000  462800002267720000       000  000  000  000  000  200         1  7592454889216       21114861       21114861   513249900001  N  0                       3269896 01/06/2023       USD          601          601    377369322
01 37108580  PA184  N  FLEXURAT 500/400 X30TA                      236355653873709760599 1483904247271130774       000  000  000  000  000  200         1  7591241817968       21114861       21114861   513249900001  N  0                       9233301 01/05/2023       USD          963         1927    377369322
01 37108580  GM149  M  FUROSEMIDA MY 40MG. X24TA                   4 887595800 905710000  724568003550383200       000  000  000  000  000  200         1  7592601301059       21114861       21114861   513249900001  N  0                        157102 01/05/2023       USD          235          941    377369322
01 37108580  GQ379  M  GLIMEPIRIDE ELTER 4MG. X16                  411301654001153230000  922584004520661600       000  000  000  000  000  200         1  7703763165063       21114861       21114861   513249900001  N  0                       3268572 01/05/2024       USD          299         1198    377369322
01 37108580  11900  M  GLIMERID 4MG. X10TA                         410274810001048450000  838760004109924000       000  000  000  000  000  200         1  7592454891202       21114861       21114861   513249900001  N  0                       3268548 01/05/2024       USD          272         1089    377369322
01 37108580  AP020  M  GLYMAR 4MG. X20TA                           417653818001801410000 1441128007061527200       000  000  000  000  000  200         1  7592601101086       21114861       21114861   513249900001  N  0                        134101 01/02/2023       USD          468         1871    377369322
01 37108580  11893  M  TALYSTO 20MG. X1TA.MAST.                    6 188934200 192790000  231348001133605200       000  000  000  000  000  200         1  7592454891400       21114861       21114861   513249900001  N  0                       3242997 01/03/2022       USD          050          300    377369322
02 37108580         30   36197300774           000           000   36197300774    0    0    0  000    0    0    0   23/07/2021 02:47:06 p.m.   PR           000           000             0             9           USD    377369322         9592
