01 37105938  GT119  M  ASAPROL 81MG. X100CO                        627391000002795000000 335400000       000       000  000  000  000  000  200         1  7591585261236       21110760       21110760   513199310001  N  0                           165 01/05/2023       USD          738         4427    371269957
01 37105938  PB245  M  DENCORUB GEL 40 GR.                         3 617453690 630054786  378032881852361070       000  000  000  000  000  200         1  7591309010416       21110760       21110760   513199310001  N  0                       2106010 01/06/2023       USD          166          499    371269957
01 37105938  14429  M  ENALAPRIL GN 20MG. X10CO                   12 144917500 147875000  354900001739010000       000  000  000  000  000  200         1  7591585278531       21110760       21110760   513199310001  N  0                           421 01/05/2023       USD          039          468    371269957
01 37105938  AY171  C  JER 3CC 21X1-1/2 KX X100                    136946000003770000000  754000003694600000 591136000  000  000  000  000  200         1 10813333013824       21110760       21110760   513199310001  N  0                        201116 01/11/2025       USD          995          995    371269957
01 37105938  14378  M  LOFNAC-50MG. X10 SUPOS.                     212388376001264120000  505648002477675200       000  000  000  000  000  200         1  8906009232256       21111683       21111683   513199310001  N  0                      K1ABM008 01/07/2023       USD          334          667    371269957
01 37105938  LN165  M  MADECASSOL 2% POLVO 5GR.                    116304567611663731389  332746281630456761       000  000  000  000  000  200         1  7592348218108       21110760       21110760   513199310001  N  0                       2102027 01/02/2026       USD          439          439    371269957
01 37105938  GN694  M  MELOXICAM GN 15MG. X10CO                    6 637000000 650000000  780000003822000000       000  000  000  000  000  200         1  7591585178022       21110760       21110760   513199310001  N  0                           076 01/05/2023       USD          172         1029    371269957
01 37105938  11536  M  OLMECAR 20MG. X30CO                         214651000001495000000  598000002930200000       000  000  000  000  000  200         1  7591585318794       21111683       21111683   513199310001  N  0                           040 01/03/2023       USD          395          789    371269957
01 37105938  11793  M  SORKINOX 250-25 X30CO                       131161509663179745884  635949183116150966       000  000  000  000  000  200         1  7595368012732       21111683       21111683   513199310001  N  0                         12835 01/02/2023       USD          839          839    371269957
01 37105938  GN191  M  VALSARTAN GN 80MG. X30CA                    3 972062000 991900000  595140002916186000       000  000  000  000  000  200         1  7591585275875       21111683       21111683   513199310001  N  0                           192 01/02/2023       USD          262          785    371269957
02 37105938         37   36918639997    3694600000     591136000   41204375997    0    0    0  000    0    0    0   22/07/2021 02:33:46 p.m.   PR           000           000             0            10           USD    371269957        10939
