01 37108681  14379  M  ANOMEX 0,25/3/5/0,5 10SUP                   114701616021500164900  300032981470161602       000  000  000  000  000  200         1  8906009231020       21114861       21114861   513249870001  N  0                      K1ADX016 01/07/2022       USD          390          390    377369322
01 37108681  13642  M  ATENOLOL 50MG X30 TAB BUK                   6 637000000 650000000  780000003822000000       000  000  000  000  000  200         1  0675696259966       21114861       21114861   513249870001  N  0                         AT505 01/11/2022       USD          169         1013    377369322
01 37108681  11081  M  BRUDOL 200MG/65MG. X20CO                    2 741131154 756256280  302502521482262308       000  000  000  000  000  200         1  7591062901105       21114861       21114861   513249870001  N  0                        20001A 01/01/2022       USD          196          393    377369322
01 37108681  SP024  M  CARVEDILOL SP 6,25 X20CO                    6 559859300 672100000 6734442003359155800       000  000  000 1500  000  200         1  7590027002208       21114861       21114861   513249870001  N  0                           361 01/03/2023       USD          148          890    377369322
01 37108681  15022  M  DICLOFENAC S.KM100 X5SUP.                   3 508963000 552500000 1306110001526889000       000  000  000  600  000  200         1  6942189211287       21114861       21114861   513249870001  N  0                        211159 01/11/2023       USD          135          405    377369322
01 37108681  GN166  M  LOSARTAN P. GN 100 X30CO                    310682490001090050000  654030003204747000       000  000  000  000  000  200         1  7591585378927       21114861       21114861   513249870001  N  0                           154 01/05/2024       USD          283          849    377369322
01 37108681  14575  M  METOCLOPRAMI LAN10 X100TA                   123963940002445300000  489060002396394000       000  000  000  000  000  200         1  7598008000557       21114861       21114861   513249870001  N  0                         T9082 01/09/2023       USD          635          635    377369322
01 37108681  LC170  M  MONOSULPA GOTAS 15 CC.                      2 726180000 741000000  296400001452360000       000  000  000  000  000  200         1  7591585110923       21114861       21114861   513249870001  N  0                           194 01/12/2022       USD          192          385    377369322
01 37108681  ED008  M  MUCLAR 30MG-5MG X10CO                       1 866320000 884000000  17680000 866320000       000  000  000  000  000  200         1  7592803002594       21114861       21114861   513249870001  N  0                       2104514 01/04/2023       USD          230          230    377369322
01 37108681  CE120  M  NIOSILIN UNG. 20GR.TUBO                     2 9637810001157000000 3864380001927562000       000  000  000 1500  000  200         1  7594003280048       21114861       21114861   513249870001  N  0                       2103023 01/03/2023       USD          255          511    377369322
01 37108681  14377  M  TRIMIC FORTE L O.VAG.X7OV                   119112165801950221000  390044201911216580       000  000  000  000  000  200         1  8906009238555       21114861       21114861   513249870001  N  0                      K2AJG004 01/04/2022       USD          506          506    377369322
01 37108681  LT993  M  ZONTRICON 500MG. X6CO                       229302000002990000000 1196000005860400000       000  000  000  000  000  200         1  7591585118462       21114861       21114861   513249870001  N  0                           090 01/03/2023       USD          776         1553    377369322
02 37108681         30   29279468290           000           000   29279468290    0    0    0  000    0    0    0   23/07/2021 02:57:11 p.m.   PR           000           000             0            12           USD    377369322         7759
