01 37103107  12904  M  ADEGRA ACI 50MG X4TA                       24 133133000 27170000033256080003195192000       000  000  000 5000  000  200         1  7598055000241       21109311       21109311   513177120001  N  0                         TA026 01/12/2021       USD          036          876    364693100
01 37103107  12827  M  ALBENDAZOL PX 200MG X2TA                   12 294198450 300202500  720486003530381400       000  000  000  000  000  200         1  7594001100263       21109670       21109670   513177120001  N  0                          5751 01/05/2022       USD          081          968    364693100
01 37103107  14830  M  BETA+GENT+MICO+CLOR JL15G                   4 968240000 988000000  790400003872960000       000  000  000  000  000  200         1  7598650000165       21109311       21109311   513177120001  N  0                          2732 01/08/2023       USD          265         1062    364693100
01 37103107  PA054  M  BETADERM PLUS CREMA 15GR.                   215139698251544867168  617946863027939650       000  000  000  000  000  200         1  7591243804164       21109311       21109311   513177120001  N  0                       9230703 01/03/2023       USD          415          830    364693100
01 37103107  NP003  M  CALCIBON D 1500/200 X30                     324054712502583750000 5348362507216413750       000  000  000  500  000  200         1  7591821101029       21109311       21109311   513177120001  N  0                       2009843 01/06/2023       USD          660         1979    364693100
01 37103107  NP099  N  CALCIBON NATAL FORT X30TA                   320963937442251765568 46611547262891812321006268997  000  000  500  000  200         1  7591821102071       21109311       21109311   513177120001  N  0                       2011048 01/11/2022       USD          575         1725    364693100
01 37103107  12151  M  CIPROFLOXACI BM200 100ML.                   5 302256500 308425000  308425001511282500       000  000  000  000  000  200         1  6930169708179       21109311       21109311   513177120001  N  0                        190467 01/03/2022       USD          083          414    364693100
01 37103107  12151  M  CIPROFLOXACI BM200 100ML.                   2 541450000 552500000  221000001082900000       000  000  000  000  000  200         1  6930169708179       21109311       21109311   513177120001  N  0                        190467 01/03/2022       USD          148          297    364693100
01 37103107  KF200  M  DERMAZOL 0,05% UNG.30GR.                    116562000001690000000  338000001656200000       000  000  000  000  000  200         1  7591619519043       21109311       21109311   513177120001  N  0                          0048 01/03/2023       USD          454          454    364693100
01 37103107  13549  M  DIVAL FORTE 100MG X20TA                     1 636636081 649628654  12992573 636636081       000  000  000  000  000  200         1  7591020080965       21109311       21109311   513177120001  N  0                            02 01/10/2022       USD          175          175    364693100
01 37103107  FA021  M  FITEX  TAB 5MG X10                          2 380586933 417584960  73996054 761173866       000  000  000  700  000  200         1  7591821904323       21109311       21109311   513177120001  N  0                       2104590 01/04/2023       USD          104          209    364693100
01 37103107  FA018  M  FITEX 20MG. X1TA                            6 179745132 197218710 1048414681078470792       000  000  000  700  000  200         1  7591821904293       21109311       21109311   513177120001  N  0                       2006366 01/10/2022       USD          049          296    364693100
01 37103107  FA017  M  FITEX 20MG. X2TA                            6 351583724 385762260 2050712162109502344       000  000  000  700  000  200         1  7591821904309       21109311       21109311   513177120001  N  0                       2006366 01/10/2022       USD          096          578    364693100
01 37103107  MK052  M  FLUCONAZOL +MK150MG. X2CA                  24 524123600 534820000 256713600       000       000  000  000  000  000  200         1  7591519001594       21109311       21109311   513177120001  N  0                         31736 01/02/2023       USD          144         3449    364693100
01 37103107  AH295  M  LASIX 20MG. X24CO                           2 828418500 994500000 3321630001656837000       000  000  000 1500  000  200         1  7592205000037       21109311       21109311   513177120001  N  0                         31957 01/04/2024       USD          227          454    364693100
01 37103107  GQ239  M  LORACERT JBE. 60CC.                         3 582982400 594880000  356928001748947200       000  000  000  000  000  200         1  7592454153294       21109670       21109670   513177120001  N  0                       3262162 01/02/2023       USD          160          480    364693100
01 37103107  13131  M  METFORMINA CLO RE 850X10T                   6 348439000 355550000  426660002090634000       000  000  000  000  000  200         1  7595152002796       21109311       21109311   513177120001  N  0                         T8004 01/08/2022       USD          096          573    364693100
01 37103107  13914  M  OLMESARTAN 20MGX30 TAB                      311410963201455480000 9431510403423288960       000  000  000 2000  000  200         1  7592454003285       21109311       21109311   513177120001  N  0                       3256503 01/11/2022       USD          313          939    364693100
01 37103107  MK163  M  PINAVERIUM BROM.+MK 50 X20                  211911900001215500000  486200002382380000       000  000  000  000  000  200         1  7591519008623       21109311       21109311   513177120001  N  0                         31908 01/04/2024       USD          327          653    364693100
01 37103107  CO125  M  PINVEX SOL.TOP.BUCAL 10ML                   2 696867749 711089540  284435821393735498       000  000  000  000  000  200         1  7591818111055       21109670       21109670   513177120001  N  0                         10005 01/02/2026       USD          191          382    364693100
01 37103107  MK735  M  PREDNISONA +MK50MG. X10TA                   61113221200133640000013390728006679327200       000  000  000 1500  000  200         1  7591519001044       21109670       21109670   513177120001  N  0                         31944 01/05/2026       USD          305         1831    364693100
01 37103107  GQ364  M  GLIMEPIRIDE ELTER2MG. X16                   3 808098200 824590000  494754002424294600       000  000  000  000  000  200         2  7703763165056       21109670       21109670   513177120002  N  0                       3268802 01/04/2023       USD          222          665    364693100
02 37103107        122   70346644473           000    1006268997   71352913470    0    0    0  000    0    0    0   21/07/2021 12:46:42 p.m.   PR           000           000             0            22           USD    364693100        19289
