01 37109011  14109  M  ACETAMINOFEN QF JBE.120ML                  12 554190000 565500000 1357200006650280000       000  000  000  000  000  200         1  7592236001980       21114861       21114861   513249920001  N  0                          6961 01/06/2023       USD          147         1762    377369322
01 37109011  LT284  M  ANTUX SOL.ORAL 180ML.                       226117000002665000000 1066000005223400000       000  000  000  000  000  200         1  7591585214706       21114861       21114861   513249920001  N  0                           281 01/05/2023       USD          692         1384    377369322
01 37109011  MG604  M  FULGRAM 600/42,9SUSP.60CC                   229174600002977000000 1190800005834920000       000  000  000  000  000  200         1  7591585113139       21114861       21114861   513249920001  N  0                           329 01/04/2023       USD          773         1546    377369322
01 37109011  XS020  N  GLICERINA XS 30ML.                         12 221975170 226505276  543612722663702040 426192326  000  000  000  000  200         1  7594001450696       21114861       21114861   513249920001  N  0                      28062103 01/06/2023       USD          059          706    377369322
01 37109011  ED384  M  MUCLAR JBE. 30/5MG  60ML                    211593400001183000000  473200002318680000       000  000  000  000  000  200         1  7592803002402       21114861       21114861   513249920001  N  0                       2105536 01/05/2023       USD          307          614    377369322
02 37109011         30   22690982040           000     426192326   23117174366    0    0    0  000    0    0    0   23/07/2021 03:56:05 p.m.   PR           000           000             0             5           USD    377369322         6013
