01 37115028  GQ224  M  CETIRIZINA ELTER JBE60CC.                  12 615342000 627900000 1506960007384104000       000  000  000  000  000  200         1  7592454138239       21118337       21118337   513306780001  N  0                       3267570 01/05/2024       USD          158         1900    388581304
01 37115028  11599  M  DESLER 5MG. X10TA                           3 942760000 962000000  577200002828280000       000  000  000  000  000  200         1  7592454891325       21118337       21118337   513306780001  N  0                       3269016 01/06/2023       USD          243          728    388581304
01 37115028  PA874  M  DI EUDRIN 12,5MG. X24TA                     811376979041160916229 1857466009101583232       000  000  000  000  000  200         1  7591243812374       21118337       21118337   513306780001  N  0                       9199103 01/11/2023       USD          293         2342    388581304
01 37115028  PA994  M  DIAGESIC SUSP.ORAL 120ML.                   212996281441326151167  530460462599256288       000  000  000  000  000  200         1  7591243811728       21118337       21118337   513306780001  N  0                       9226801 01/05/2023       USD          334          669    388581304
01 37115028  MY585  M  DOCE PLEX ELIXIR 120ML.                     216502122001683890000  673556003300424400       000  000  000  000  000  200         1  7592601100331       21118337       21118337   513306780001  N  0                        101001 01/10/2022       USD          425          849    388581304
01 37115028  11556  M  ESOZ 40MG. X7CAPS.MGE                       3 9937200001014000000  608400002981160000       000  000  000  000  000  200         1  7592454891271       21118337       21118337   513306780001  N  0                       3265767 01/04/2023       USD          256          767    388581304
01 37115028  11582  M  ETORICOXIB +MK90MG. X10TA                   312306840001255800000  753480003692052000       000  000  000  000  000  200         1  7591519317268       21118337       21118337   513306780001  N  0                         31992 01/06/2023       USD          317          950    388581304
01 37115028  12397  M  FESTAL 210MG X10GRG                         311886420001212900000  727740003565926000       000  000  000  000  000  200         1  7591044407526       21118337       21118337   513306780001  N  0                         31748 01/03/2023       USD          306          918    388581304
01 37115028  GQ304  M  SERTRALINA ELTER 50 X 10                    6 551629260 73580000011050244403309775560       000  000 1500 1000  000  200         1  7703763190164       21118337       21118337   513306780001  N  0                       3257382 01/11/2022       USD          142          852    388581304
02 37115028         42   38762561480           000           000   38762561480    0    0    0  000    0    0    0   27/07/2021 03:50:13 p.m.   PR           000           000             0             9           USD    388581304         9975
