01 37117157  12502  M  BLOCAX 8MG X150TA                           11236178125012614062500 252281250       000       000  000  000  000  000  200         1  7591243805345       21119359       21119359   513324830001  N  0                       9269601 01/01/2023       USD         3099         3099    398884323
01 37117157  AP740  M  BUCLEN GOTAS 15ML.                          116288090001662050000  332410001628809000       000  000  000  000  000  200         1  7592601200925       21119359       21119359   513324830001  N  0                        030501 01/04/2022       USD          408          408    398884323
01 37117157  MK133  M  CAPTOPRIL +MK 50MG. X30TA                   211305476001281800000 3025048002261095200       000  000  000 1000  000  200         1  7591519051292       21119465       21119465   513324830001  N  0                         31719 01/03/2024       USD          283          567    398884323
01 37117157  14832  M  CAPTOPRIL JL50MG. X10TA                     3 389844000 397800000  238680001169532000       000  000  000  000  000  200         1  7598650000196       21119465       21119465   513324830001  N  0                         T8818 01/06/2023       USD          098          293    398884323
01 37117157  MK675  M  DOL 450-40-1 X10TA                          3 584766000 663000000 2347020001754298000       000  000  000 1000  000  200         1  7591519000474       21119465       21119465   513324830001  N  0                         31895 01/04/2024       USD          147          440    398884323
01 37117157  MK016  M  DOL 450-40-1 X20TA                          110193274001155700000 1363726001019327400       000  000  000 1000  000  200         1  7591519001587       21119465       21119465   513324830001  N  0                         31896 01/04/2024       USD          256          256    398884323
01 37117157  MK579  M  DOL PLUS TAB. X10                           2 681080400 772200000 1822392001362160800       000  000  000 1000  000  200         1  7591519005134       21119465       21119465   513324830001  N  0                         31834 01/03/2024       USD          171          341    398884323
01 37117157  GM169  M  ESPIRONOLACTONA MY 100X10                   223092524002356380000  942552004618504800       000  000  000  000  000  200         1  7592601301127       21119359       21119359   513324830001  N  0                        158102 01/05/2023       USD          579         1158    398884323
01 37117157  13115  M  LANSOPRAZOL +MK 30MGX14CA                   2 9700236001099800000 2595528001940047200       000  000  000 1000  000  200         1  7591519051377       21119359       21119359   513324830001  N  0                         31789 01/03/2024       USD          243          486    398884323
01 37117157  MK028  M  LANSOPRAZOL +MK30MG.X28CA                   115192450001722500000 2032550001519245000       000  000  000 1000  000  200         1  7591519001624       21119359       21119359   513324830001  N  0                         31687 01/02/2024       USD          381          381    398884323
01 37117157  11441  M  LOSARTAN P.100MG.X10ELTER                   2 436166640 824200000 776066720 872333280       000  000  000 4600  000  200         1  7592454891165       21119465       21119465   513324830001  N  0                       3263306 01/03/2023       USD          109          219    398884323
01 37117157  14889  M  PREDNISONA JL5MG. X10TA                     6 466284000 475800000  570960002797704000       000  000  000  000  000  200         1  7598650000554       21119465       21119465   513324830001  N  0                         T8874 01/07/2023       USD          117          701    398884323
01 37117157  PA045  M  PROPRANOLOL 40MG. X20TA                     313536250001381250000  828750004060875000       000  000  000  000  000  200         1  7591243843101       21119359       21119359   513324830001  N  0                       9201301 01/11/2023       USD          339         1018    398884323
02 37117157         29   37365712930           000           000   37365712930    0    0    0  000    0    0    0   28/07/2021 02:16:33 p.m.   PR           000           000             0            13           USD    398884323         9368
