01 37117260  GN088  M  AMLODIPINA GN 10MG. X30CO                   6 761852000 777400000 1865760004571112000       000  000  000  000  000  200         1  7591585278173       21119465       21119359   513324810001  N  0                           188 01/03/2024       USD          191         1146    398884323
01 37117260  GN088  M  AMLODIPINA GN 10MG. X30CO                   6 761852000 777400000 1865760004571112000       000  000  000  000  000  200         1  7591585278173       21119359       21119359   513324810001  N  0                           188 01/03/2024       USD          191         1146    398884323
01 37117260  GN790  M  AMLODIPINA GN 5MG. X30CO                    6 761852000 777400000  932880004571112000       000  000  000  000  000  200         1  7591585278166       21119465       21119465   513324810001  N  0                           384 01/02/2024       USD          191         1146    398884323
01 37117260  13642  M  ATENOLOL 50MG X30 TAB BUK                   6 637000000 650000000  780000003822000000       000  000  000  000  000  200         1  0675696259966       21119465       21119465   513324810001  N  0                         AT505 01/11/2022       USD          160          958    398884323
01 37117260  GN091  M  CAPTOPRIL GN 25MG.X30CO                     6 751660000 767000000  920400004509960000       000  000  000  000  000  200         1  7591585370167       21119359       21119359   513324810001  N  0                           118 01/12/2024       USD          188         1131    398884323
01 37117260  WI110  M  CLOPACT 75MG. X30TA                         312884944991460878117 5171508543865483497       000  000  000 1000  000  200         1  8901079005410       21119524       21119524   513324810001  N  0                     FGJ011002 01/12/2022       USD          323          969    398884323
01 37117260  LN335  M  COMPLEJO B LN COMP. X1A                     5 768602353 784288115  784288103843011765       000  000  000  000  000  200         1  7592348205009       21119359       21119359   513324810001  N  0                            31 01/10/2023       USD          193          963    398884323
01 37117260  13662  C  CURITAS IMP.PIELX20 ZUVIS                   3 361179000 368550000  221130001083537000 173365920  000  000  000  000  200         1  7597297000316       21119359       21119359   513324810001  N  0                        202008 01/08/2025       USD          091          272    398884323
01 37117260  ED330  M  DIFENAC 1%  GEL 30GR.                       2 930020000 949000000  379600001860040000       000  000  000  000  000  200         1  7592803000385       21119465       21119465   513324810001  N  0                       2105528 01/05/2023       USD          233          466    398884323
01 37117260  GN146  M  ENALAPRIL GN 20MG. X30CO                    6 458640000 468000000  561600002751840000       000  000  000  000  000  200         1  7591585378538       21119465       21119465   513324810001  N  0                           418 01/01/2023       USD          115          690    398884323
01 37117260  11828  M  PREDNISONA CCM 5MG.X20TA                    3 673075923 686812166  412087292019227769       000  000  000  000  000  200         1  7501384546816       21119465       21119465   513324810001  N  0                       0421360 01/04/2023       USD          169          506    398884323
01 37117260  13601  M  VASSLUTEN 300MG. X30TA                      128464226732904512932  580902592846422673       000  000  000  000  000  200         1  7406076101734       21119524       21119524   513324810001  N  0                        C21040 01/03/2023       USD          714          714    398884323
01 37117260  VY024  C  VENDA DE YESO GYPSONA 4X3                   7 602008000 614293878  860011464214056000 674248960  000  000  000  000  200         1  7594001560036       21119524       21119524   513324810001  N  0                          7738 01/07/2024       USD          151         1056    398884323
01 37117260  EL705  M  ZITOXIL 3% SO.TOPICA 30ML                   112913132781317666610  263533321291313278       000  000  000  000  000  200         1  7591062012221       21119359       21119359   513324810001  N  0                        20126A 01/11/2022       USD          324          324    398884323
02 37117260         61   40522634982    5297593000     847614880   46667842862    0    0    0  000    0    0    0   28/07/2021 02:32:10 p.m.   PR           000           000             0            13           USD    398884323        11487
