01 37111425  14501  M  ALBENDAZOL LAND200 X100TM                   142322280004318600000  863720004232228000       000  000  000  000  000  200         1  7598008000106       21116599       21116599   513279450001  N  0                         T9018 01/09/2023       USD         1118         1118    378465384
01 37111425  EL010  M  ALBICAR 200MG. X6TA                         6 587090413 599071850  718886223522542478       000  000  000  000  000  200         1  7591062010173       21116599       21116599   513279450001  N  0                        21015B 01/02/2024       USD          155          931    378465384
01 37111425  14271  M  ASARAP 20MG. X20CO                          263190400006448000000 257920000       000       000  000  000  000  000  200         1  7591585113344       21116599       21116599   513279450001  N  0                           004 01/05/2023       USD         1670         3339    378465384
01 37111425  PO180  M  BACTRON SUSP. 100ML.                        311083800001131000000  678600003325140000       000  000  000  000  000  200         1  7592806122015       21116599       21116599   513279450001  N  0                        104044 01/04/2026       USD          293          879    378465384
01 37111425  LT031  M  BIOTALOL 5MG. X30CO                         619364800001976000000 237120000       000       000  000  000  000  000  200         1  7591585217165       21116599       21116599   513279450001  N  0                           114 01/01/2023       USD          512         3070    378465384
01 37111425  VP324  M  COMPLEJO B VP 2CC. X3                       61036335300124410000012465882006218011800       000  000  000 1500  000  200         1  7703153013059       21116599       21116599   513279450001  N  0                       1319932 01/01/2024       USD          274         1643    378465384
01 37111425  14782  M  IBUPRO-TIOCOL DAC600-4X10                  2411955216001219920000 585561600       000       000  000  000  000  000  200         1  7598578000247       21116599       21116599   513279450001  N  0                          V186 01/01/2024       USD          316         7581    378465384
01 37111425  11563  N  OMEGA 369 AI 1000MG.X60CA                   230310453813092903450 1237161386062090762       000  000  000  000  000  200         1  7592946169659       21116599       21116599   513279450001  N  0                      01219659 01/05/2023       USD          801         1602    378465384
01 37111425  13089  M  OXITETRACICLINA OFTX6GR                     215550602171586796140  634718463110120434       000  000  000  000  000  200         1  7597446000044       21116599       21116599   513279450001  N  0                         20411 01/04/2024       USD          411          822    378465384
02 37111425         52   79419611874           000           000   79419611874    0    0    0  000    0    0    0   26/07/2021 02:00:49 p.m.   PR           000           000             0             9           USD    378465384        20985
