01 37112088  KL129  M  BETARRETIN 0,025 CR.30GR.                   222244040002340000000 2311920004448808000       000  000  000  300  000  200         1  7591619517841       21116599       21116599   513279470001  N  0                          0002 01/02/2025       USD          588         1175    378465384
01 37112088  KL132  M  BETARRETIN CR. 0,05 30GR.                   128422940002990000000 1477060002842294000       000  000  000  300  000  200         1  7591619517858       21116599       21116599   513279470001  N  0                          0002 01/02/2025       USD          751          751    378465384
01 37112088  KL199  M  BETARRETIN GEL0,025 30GR.                   127187160002860000000 1412840002718716000       000  000  000  300  000  200         1  7591619517834       21116599       21116599   513279470001  N  0                          0001 01/09/2023       USD          718          718    378465384
01 37112088  KL424  M  LOTESOFT SUSP.OFT. 5CC.                     227187160002860000000 2825680005437432000       000  000  000  300  000  200         1  7795368054101       21116599       21116599   513279470001  N  0                         00165 01/01/2022       USD          718         1437    378465384
01 37112088  FA239  M  NOTOLAC 30MG. X4TA.SUBL.                    4 813321600 873600000 2411136003253286400       000  000  000  500  000  200         1  7591821210134       21116599       21116599   513279470001  N  0                       2008742 01/09/2022       USD          215          860    378465384
01 37112088  PD104  M  POLI-OTICO GOTAS 5 CC.                      4 865046000 910000000 1798160003460184000       000  000  000  300  000  200         1  7591955002278       21116599       21116599   513279470001  N  0                          0095 01/07/2022       USD          229          914    378465384
01 37112088  FA249  M  RINOLAST D SUSP. 120CC.                     215391856481570597600  628239043078371296       000  000  000  000  000  200         1  7591821901377       21116599       21116599   513279470001  N  0                       2105037 01/06/2023       USD          407          813    378465384
01 37112088  PD124  M  TRIDETARMON CR. 15GR.                       311122020001170000000 1733940003336606000       000  000  000  300  000  200         1  7591955000762       21116599       21116599   513279470001  N  0                          0080 01/04/2023       USD          294          882    378465384
02 37112088         19   28575697696           000           000   28575697696    0    0    0  000    0    0    0   26/07/2021 03:53:57 p.m.   PR           000           000             0             8           USD    378465384         7550
