01 37111416  LO104  M  AIRON 5MG. X10TAB.MAST.                     6 672766595 686496525  823795804036599570       000  000  000  000  000  200         1  7591196002549       21116599       21116599   513279480001  N  0                       I050902 01/05/2022       USD          178         1067    378465384
01 37111416  EH116  M  ESOMEPRAZOL VP40MG. X20TA                   31346579565171757597611129892334039738695       000  000  000 2000  000  200         1  7703153027421       21116599       21116599   513279480001  N  0                       1330528 01/12/2022       USD          356         1067    378465384
01 37111416  14792  M  FARMAREST 100MCG. X200D                     31020219200185900000025163424003060657600       000  000 3000 2000  000  200         1  7502213042738       21116599       21116599   513279480001  N  0                         1B099 01/02/2024       USD          270          809    378465384
01 37111416  OJ020  N  GINKGO BILOBA HP CAPS.X60                   222944740002341300000  936520004588948000       000  000  000  000  000  200         1  7592710000621       21116599       21116599   513279480001  N  0                       0291805 01/05/2024       USD          606         1213    378465384
01 37111416  LO003  M  IPORET SUSP.PED. 60ML.                      3 865773574 883442422  530065442597320722       000  000  000  000  000  200         1  7591196004253       21116599       21116599   513279480001  N  0                       I060950 01/07/2022       USD          229          686    378465384
01 37111416  LO134  M  OCUPRED 1% SUSP.OFT. 5ML.                   2 900893138 919278712  367711481801786276       000  000  000  000  000  200         1  7591196002242       21116599       21116599   513279480001  N  0                        051968 01/05/2023       USD          238          476    378465384
01 37111416  15043  N  OMEGA MAX III VW1000 50CB                   216377855521856899719 4382283343275571104       000  000  000 1000  000  200         1   708669111333       21116599       21116599   513279480001  N  0                       7032020 01/11/2023       USD          433          865    378465384
01 37111416  LO550  M  QUINOTIC 0,30%S.OTICA 5ML                   3 949722177 969104262  581462552849166531       000  000  000  000  000  200         1  7591196000620       21116599       21116599   513279480001  N  0                        041077 01/04/2023       USD          251          753    378465384
01 37111416  LO580  M  QUINOTIC HC OTICA 5ML.                      312509253871276454477  765872703752776161       000  000  000  000  000  200         1  7591196000637       21116599       21116599   513279480001  N  0                        051739 01/05/2023       USD          331          992    378465384
02 37111416         27   30002564659           000           000   30002564659    0    0    0  000    0    0    0   26/07/2021 01:59:13 p.m.   PR           000           000             0             9           USD    378465384         7927
