01 37114597  12827  M  ALBENDAZOL PX 200MG X2TA                   24 313615484 320015800 1536075847526771616       000  000  000  000  000  200         1  7594001100263       21118337       21118337   513306770001  N  0                          5751 01/05/2022       USD          081         1937    388581304
01 37114597  VP041  M  ATOVAROL 40MG. X30CA                        22574487094309062076110322673345148974188       000  000  000 1500  000  200         1  7592432900155       21118337       21118337   513306770001  N  0                        210050 01/03/2023       USD          663         1325    388581304
01 37114597  VP990  M  CEVAX 500MG. X30CA.BLA                      212964202841556326871 5198131742592840568       000  000  000 1500  000  200         1  7592432007649       21118337       21118337   513306770001  N  0                        210165 01/06/2023       USD          334          667    388581304
01 37114597  FA334  M  COLYPAN TAB. LP 300 X 20                    322930458782462992350 5098394166879137634       000  000  000  500  000  200         1  7591821902534       21118337       21118337   513306770001  N  0                       2104035 01/04/2024       USD          590         1770    388581304
01 37114597  11279  N  SENOKOT C.DOCUSATO X10TA                    314778400001508000000  904800004433520000       000  000  000  000  000  200         1  7591821210295       21118337       21118337   513306770001  N  0                       2010063 01/10/2022       USD          380         1141    388581304
01 37114597  13646  M  SERTRALINA 50MGX10TA MORO                   3 9983904841198548000 6004725482995171452       000  000  000 1500  000  200         1  7592432000107       21118337       21118337   513306770001  N  0                       1350078 01/05/2023       USD          257          771    388581304
01 37114597  OJ016  N  VENACARE HP CAPS. X60                       128028000002860000000  572000002802800000       000  000  000  000  000  200         1  7592710000935       21118337       21118337   513306770001  N  0                       0632110 01/10/2023       USD          721          721    388581304
02 37114597         38   32379215458           000           000   32379215458    0    0    0  000    0    0    0   27/07/2021 02:13:49 p.m.   PR           000           000             0             7           USD    388581304         8333
