01 37119063  PO280  M  AMIKACINA PO500 2ML.1AMP.                   3 764400000 780000000  468000002293200000       000  000  000  000  000  200         1  7592806112030       21119924       21119924   513329060001  N  0                        102027 01/02/2024       USD          189          568    403663395
01 37119063  GT119  M  ASAPROL 81MG. X100CO                        630576000003120000000 374400000       000       000  000  000  000  000  200         1  7591585261236       21119924       21119924   513329060001  N  0                           165 01/05/2023       USD          757         4545    403663395
01 37119063  ZW010  N  CENTELLA A. NP X60CA                        125416300002593500000  518700002541630000       000  000  000  000  000  200         1  7592430000185       21119924       21119924   513329060001  N  0                      02170521 01/05/2023       USD          630          630    403663395
01 37119063  SA500  M  DUVADILAN 10MG. X30CO                       131595200003224000000  644800003159520000       000  000  000  000  000  200         1  7591651932299       21119924       21119924   513329060001  N  0                       2106128 01/06/2026       USD          783          783    403663395
01 37119063  BQ230  M  LANCERAN GOTAS PED. 30ML.                   3 875875000 893750000  536250002627625000       000  000  000  000  000  200         1  7594000850220       21119924       21119924   513329060001  N  0                        210316 01/03/2024       USD          217          651    403663395
01 37119063  10735  M  LANCERAN JBE. 90ML.                         3 856128000 873600000  524160002568384000       000  000  000  000  000  200         1  7594000850954       21119924       21119924   513329060001  N  0                        210505 01/05/2023       USD          212          636    403663395
01 37119063  LX104  M  LETISAN 500MG. X70TM                        133442500003412500000  682500003344250000       000  000  000  000  000  200         1  7591585217486       21119924       21119924   513329060001  N  0                           042 01/05/2023       USD          828          828    403663395
01 37119063  FF210  M  MATERNAVIT CAPS.BLAN. X30                   135649705003637725000  727545003564970500       000  000  000  000  000  200         1  7591096000102       21119924       21119924   513329060001  N  0                      04C21119 01/02/2023       USD          883          883    403663395
02 37119063         19   38445179500           000           000   38445179500    0    0    0  000    0    0    0   29/07/2021 01:18:27 p.m.   PR           000           000             0             8           USD    403663395         9524
