01 37114843  ET350  C  ADEMINA PLUS CR.CORP.60GR                   211872421761211471608  484588642374484352 379917496  000  000  000  000  200         1  7591844000446       21118337       21118337   513306760001  N  0                    AP60210100 01/01/2024       USD          306          611    388581304
01 37114843  EL524  M  BRUGESICFORTE 200SUSP60ML                   4 722005357 736740160  589392122888021428       000  000  000  000  000  200         1  7591062013082       21118337       21118337   513306760001  N  0                        20140A 01/11/2022       USD          186          743    388581304
01 37114843  ED105  M  CINAREN 25MG. X50CO                         225480000002600000000 1040000005096000000       000  000  000  000  000  200         1  7592803000101       21118337       21118337   513306760001  N  0                       2106572 01/07/2025       USD          656         1311    388581304
01 37114843  11004  M  DOBRACID LP 300MG. X30CO                    124843000002535000000  507000002484300000       000  000  000  000  000  200         1  7591585114327       21118337       21118337   513306760001  N  0                           013 01/11/2023       USD          639          639    388581304
01 37114843  13052  M  GENODERM 2N00/0N035 X21CO                   237124360003788200000 1515280007424872000       000  000  000  000  000  200         1  7730564249029       21118337       21118337   513306760001  N  0                         41961 01/05/2024       USD          955         1911    388581304
01 37114843  13400  M  GLICAZET 500/2,5 X40TA                      117443665241779965841  355993171744366524       000  000  000  000  000  200         1  7406076125303       21118337       21118337   513306760001  N  0                        J20038 01/10/2023       USD          449          449    388581304
01 37114843  13401  M  GLICAZET 500/5 X40TA                        133124002093380000213  676000043312400209       000  000  000  000  000  200         1  7406076101000       21118337       21118337   513306760001  N  0                        D21011 01/04/2024       USD          852          852    388581304
01 37114843  11423  M  HIDROCLOROTI GN12,5 X30CO                   611975600001222000000 1466400007185360000       000  000  000  000  000  200         1  7591585172686       21118337       21118337   513306760001  N  0                           021 01/05/2023       USD          308         1849    388581304
01 37114843  11502  M  LOPERAM 2MG. X10TA                          1 611774800 891800000 280025200 611774800       000  000  000 3000  000  200         1  7592349723571       21118337       21118337   513306760001  N  0                       2105444 01/05/2026       USD          157          157    388581304
01 37114843  GN639  M  OMEPRAZOL GN 20MG. X8CA                     6 321048000 327600000  393120001926288000       000  000  000  000  000  200         1  7591585573810       21118337       21118337   513306760001  N  0                           506 01/02/2023       USD          083          496    388581304
01 37114843  11164  M  OMEPRAZOL GN 40MG. X10CA                    2 745290000 760500000  304200001490580000       000  000  000  000  000  200         1  7591585173881       21118337       21118337   513306760001  N  0                           019 01/02/2023       USD          192          384    388581304
01 37114843  EL775  M  TALZIC SOL.GOTAS 20ML.                      3 604832901 617176430  370305871814498703       000  000  000  000  000  200         1  7591062016670       21118337       21118337   513306760001  N  0                        20114A 01/09/2022       USD          156          467    388581304
01 37114843  GN191  M  VALSARTAN GN 80MG. X30CA                    4 972062000 991900000  793520003888248000       000  000  000  000  000  200         1  7591585275875       21118337       21118337   513306760001  N  0                           192 01/02/2023       USD          250         1001    388581304
02 37114843         35   39866709664    2374484352     379917496   42621111512    0    0    0  000    0    0    0   27/07/2021 03:17:38 p.m.   PR           000           000             0            13           USD    388581304        10871
