01 37117038  13490  M  BISOPROLOL 10MGX30 TAB                      422008987002245815000 1796652008803594800       000  000  000  000  000  200         1  7598176000205       21119359       21119359   513324820001  N  0                        T00189 01/11/2022       USD          552         2207    398884323
01 37117038  12928  M  CLOTRIMAZOL AL500MG X1OVU                   6 698288943 89067467211543143744189733658       000  000  000 2000  000  200         1  7597758000664       21119359       21119359   513324820001  N  0                      K1AHK004 01/07/2023       USD          175         1050    398884323
01 37117038  NP002  M  FARMA D 1000UI X30TA                        310701600001092000000  655200003210480000       000  000  000  000  000  200         1  7591821102101       21119359       21119359   513324820001  N  0                       2106142 01/06/2024       USD          268          805    398884323
01 37117038  FA504  M  NEURIXA 150MG. X14CA                        121121170032317442400 2053253972112117003       000  000  000  700  000  200         1  7591821903609       21119465       21119465   513324820001  N  0                       2006390 01/08/2022       USD          530          530    398884323
01 37117038  FA514  M  NEURIXA 75MG. X14CA                         311618777381274827450 3388491363485633214       000  000  000  700  000  200         1  7591821903616       21119465       21119465   513324820001  N  0                       2102441 01/04/2023       USD          291          874    398884323
02 37117038         17   21801558675           000           000   21801558675    0    0    0  000    0    0    0   28/07/2021 01:41:26 p.m.   PR           000           000             0             5           USD    398884323         5466
