01 37119402  13652  M  CETIRIZINA 10MGX10TA BUKA                  12 382200000 390000000  936000004586400000       000  000  000  000  000  200         1  0675696260009       21121460       21121460   513347140001  N  0                        CTR202 01/11/2023       USD          095         1136    403663395
01 37119402  ED105  M  CINAREN 25MG. X50CO                         225480000002600000000 1040000005096000000       000  000  000  000  000  200         1  7592803000101       21121580       21121580   513347140001  N  0                       2106572 01/07/2025       USD          631         1262    403663395
01 37119402  ED100  M  CINAREN CAPS. 75MG. X20                     117836000001820000000  364000001783600000       000  000  000  000  000  200         1  7592803000118       21121580       21121580   513347140001  N  0                       2104504 01/04/2025       USD          442          442    403663395
01 37119402  PO195  M  DECOBEL VIAL 8MG. 2ML.                      2 840840000 858000000 1029600001681680000       000  000  000  000  000  200         1  7592806112047       21121580       21121460   513347140001  N  0                        104049 01/04/2024       USD          208          417    403663395
01 37119402  PO195  M  DECOBEL VIAL 8MG. 2ML.                      4 840840000 858000000 1029600003363360000       000  000  000  000  000  200         1  7592806112047       21121460       21121460   513347140001  N  0                        104049 01/04/2024       USD          208          833    403663395
01 37119402  GN784  M  DESLORATADINA GN 5MG. X10                  12 375830000 383500000  920400004509960000       000  000  000  000  000  200         1  7591585177469       21121580       21121580   513347140001  N  0                           088 01/03/2023       USD          093         1117    403663395
01 37119402  12209  M  DIOSMIL 500MG. X30CO                        139075707493987317091  797463423907570749       000  000  000  000  000  200         1  7406076104261       21121580       21121580   513347140001  N  0                        C21043 01/03/2024       USD          968          968    403663395
01 37119402  12673  M  DIOSMINA DAC 600MG X10TA                    126723424002726880000  545376002672342400       000  000  000  000  000  200         1  8906121690064       21121580       21121580   513347140001  N  0                          V142 01/06/2023       USD          662          662    403663395
01 37119402  14117  M  FANASAL  AD. X 15ML GTAS                   12 363090000 370500000  889200004357080000       000  000  000  000  000  200         1  7592236002215       21121580       21121580   513347140001  N  0                          6661 01/06/2023       USD          090         1079    403663395
01 37119402  10930  M  METRONI ALFA500MG.X100TA                    134143200003484000000  696800003414320000       000  000  000  000  000  200         1  7468999181774       21121580       21121580   513347140001  N  0                         19127 01/11/2024       USD          846          846    403663395
01 37119402  EL001  M  TALZIC 10MG. X10CO                          6 439476138 477069190 2255583122636856828       000  000  600  000  000  200         1  7591062016700       21121460       21121460   513347140001  N  0                        21022C 01/04/2023       USD          109          653    403663395
02 37119402         54   38009169977           000           000   38009169977    0    0    0  000    0    0    0   29/07/2021 02:34:54 p.m.   PR           000           000             0            10           USD    403663395         9416
