01 37122222  14696  M  AMPICILINA S. KM1.5GR.X1A                  12 323341200 351000000 3319056003880094400       000  000  000  600  000  200         1  6921875007038       21123206       21123206   513370450001  N  0                       2008472 01/08/2023       USD          081          974    398317355
01 37122222  GN176  M  CARBAMAZEPINA GN 200X30CO                   611809980001205100000 1446120007085988000       000  000  000  000  000  200         1  7591585278265       21123301       21123301   513370450001  N  0                           317 01/02/2026       USD          296         1779    398317355
01 37122222  13557  C  DERMOX LO.COR MILK.N200ML                   2 628075990 640893867  256357541256151980 200984317  000  000  000  000  200         1  7590005183066       21123206       21123206   513370450001  N  0                       2106046 01/06/2023       USD          158          315    398317355
01 37122222  13401  M  GLICAZET 500/5 X40TA                        233124002093380000213 1352000086624800418       000  000  000  000  000  200         1  7406076101000       21123301       21123301   513370450001  N  0                        D21011 01/04/2024       USD          832         1663    398317355
01 37122222  11561  N  GLUCOSAMINA AI500MG.X60CA                   227705463972827088160 1130835265541092794       000  000  000  000  000  200         1  7592946169758       21123206       21123206   513370450001  N  0                      19209758 01/11/2022       USD          696         1391    398317355
01 37122222  AY171  C  JER 3CC 21X1-1/2 KX X100                    136946000003770000000  754000003694600000 591136000  000  000  000  000  200         1 10813333013824       21123301       21123301   513370450001  N  0                        201116 01/11/2025       USD          928          928    398317355
01 37122222  LC840  M  LETISAN SOL.ORAL 120ML.                     2 972062000 991900000  396760001944124000       000  000  000  000  000  200         1  7591585214881       21123206       21123206   513370450001  N  0                           497 01/05/2024       USD          244          488    398317355
01 37122222  11351  M  MADECASSOL 1% UNG. 10GR.                    115935689001626090714  325218141593568900       000  000  000  000  000  200         1  7592348413824       21123206       21123206   513370450001  N  0                       2105023 01/05/2026       USD          400          400    398317355
01 37122222  LC409  M  MIGREN 650-50-1 X10CO                       2 637000000 650000000  260000001274000000       000  000  000  000  000  200         1  7591585115737       21123206       21123206   513370450001  N  0                           526 01/06/2023       USD          160          320    398317355
01 37122222  LX102  M  MIGREN 650-50-1 X20CO                       2 9172163001101100000 3677674001834432600       000  000  000 1500  000  200         1  7591585415738       21123206       21123206   513370450001  N  0                           518 01/03/2023       USD          230          461    398317355
01 37122222  CR310  C  MIMADITO BASTONCITOS X100                   2 454503820 463779408  18551176 909007640 145441222  000  000  000  000  200         1  7591248821203       21123206       21123206   513370450001  N  0                  M41232182123 01/05/2024       USD          114          228    398317355
01 37122222  PB032  C  OVERSKIN 10% CR. 50GR.                      2 567418777 578998752  231599501134837554 181574009  000  000  000  000  200         1  7591309900274       21123206       21123206   513370450001  N  0                      A2102018 01/02/2024       USD          142          285    398317355
01 37122222  14764  M  RIFAMICINA ZU1% SOL.25ML.                   111870910931211317442  242263491187091093       000  000  000  000  000  200         1  7840282039298       21123206       21123206   513370450001  N  0                        E52284 01/01/2024       USD          298          298    398317355
01 37122222  14361  C  TOALLAS H MIMLOT CREM 25U                   3 208936000 213200000  12792000 626808000 100289280  000  000  000  000  200         1  8697420536251       21123206       21123206   513370450001  N  0                          9588 01/02/2024       USD          052          157    398317355
01 37122222  12068  M  TOBRA DEXA ZU SU.OFT. 5ML                   118571098001895010000  379002001857109800       000  000  000  000  000  200         1  7597446000051       21123206       21123206   513370450001  N  0                        205031 01/05/2023       USD          466          466    398317355
01 37122222  LM140  C  ALBEPIR CH. A.CASPA 140CC                   111657100001189500000  237900001165710000 186513600  000  000  000  000  200         2  7592025101204       21123206       21123206   513370450002  N  0                        201023 01/04/2024       USD          293          293    398317355
01 37122222  CR220  C  MIMADITO COL.BEBE 100ML.                    2 520908602 531539390  212615761041817204 166690753  000  000  000  000  200         2  7591248510107       21123206       21123206   513370450002  N  0                   01621812354 01/06/2023       USD          131          262    398317355
01 37122222  QF300  M  BROMEXINA QF8MG.JBE.120ML                   6 490490000 500500000  600600002942940000       000  000  000  000  000  200         3  7598484000041       21123206       21123206   513370450003  N  0                          7871 01/07/2023       USD          123          739    398317355
01 37122222  LC140  M  LETISAN SOL.GOTAS 20ML.                     2 847082600 864370000  345748001694165200       000  000  000  000  000  200         3  7591585114884       21123206       21123206   513370450003  N  0                           493 01/10/2023       USD          213          425    398317355
01 37122222  PB003  N  WAMPOLE EMUL. NRJA.240CC.                   8 616977592 629568971 1007310324935820736 789731318  000  000  000  000  200         3  7591309000608       21123206       21123206   513370450003  N  0                      A2107213 01/07/2023       USD          155         1239    398317355
01 37122222  PB006  N  WAMPOLE EMUL.T.FRUTI240ML                   6 616977592 629568971  755482743701865552 592298488  000  000  000  000  200         3  7591309000967       21123206       21123206   513370450003  N  0                      A2106188 01/06/2023       USD          155          929    398317355
01 37122222  PB004  N  WAMPOLE EMULS. NRJA. 360CC.                 3 822636790 839425296  503655182467910370 394865659  000  000  000  000  200         3  7591309000615       21123206       21123206   513370450003  N  0                      A2106189 01/06/2023       USD          207          620    398317355
02 37122222         69   48565003863    9828932378    3349524646   61743460887    0    0    0  000    0    0    0   30/07/2021 02:47:31 p.m.   PR           000           000             0            22           USD    398317355        14660
