01 37125924  13542  M  ACETAMINOFEN GN650 X10CO                   12 293020000 299000000  717600003516240000       000  000  000  000  000  200         1  7591585279057       21127306       21127306   513410890001  N  0                           053 01/05/2023       USD          073          875    401849224
01 37125924  GN088  M  AMLODIPINA GN 10MG. X30CO                   6 761852000 777400000  932880004571112000       000  000  000  000  000  200         1  7591585278173       21127136       21127136   513410890001  N  0                           188 01/03/2024       USD          190         1138    401849224
01 37125924  PO185  M  BACTRON TAB. X20                            311593400001183000000  709800003478020000       000  000  000  000  000  200         1  7592806133073       21127136       21127136   513410890001  N  0                        105064 01/05/2026       USD          288          866    401849224
01 37125924  MY185  M  BENDAMEN 100MG. X6TA                        6 827590400 844480000 1013376004965542400       000  000  000  000  000  200         1  7592601100218       21127136       21127136   513410890001  N  0                        111601 01/02/2023       USD          206         1236    401849224
01 37125924  VP990  M  CEVAX 500MG. X30CA.BLA                     1215252003341556326871 373518444       000       000  000  000  000  000  200         1  7592432007649       21127306       21127306   513410890001  N  0                        210172 01/06/2023       USD          380         4555    401849224
01 37125924  12928  M  CLOTRIMAZOL AL500MG X1OVU                   3 872861179 890674672  534404792618583537       000  000  000  000  000  200         1  7597758000664       21127136       21127136   513410890001  N  0                      K1AHK004 01/07/2023       USD          217          652    401849224
01 37125924  PB442  M  DENCOFEN 1,16% GEL 40GR.                    212719616001297920000  519168002543923200       000  000  000  000  000  200         1  7591309002756       21127306       21127306   513410890001  N  0                       2101001 01/01/2024       USD          317          633    401849224
01 37125924  PB245  M  DENCORUB GEL 40 GR.                         3 947346400 966680000  580008002842039200       000  000  000  000  000  200         1  7591309010416       21127306       21127306   513410890001  N  0                       2106010 01/06/2023       USD          236          707    401849224
01 37125924  PB015  C  DENCORUB ICE GEL 40GR.                      3 484783937 494677487  296806501454351811 232696290  000  000  000  000  200         1  7591309001049       21127306       21127306   513410890001  N  0                      A2106175 01/06/2024       USD          121          362    401849224
01 37125924  VM020  M  ESQUIDONE 3MG. X30TA                        720476241252089412372 292517729       000       000  000  000  000  000  200         1  7591020080521       21127136       21127136   513410890001  N  0                            24 01/05/2023       USD          510         3567    401849224
01 37125924  VP194  M  MELOVAX 15MG. X10CAPS.BL.                   3 762262614 777818994  466691402286787842       000  000  000  000  000  200         1  7592432007427       21127136       21127136   513410890001  N  0                        200266 01/09/2023       USD          190          569    401849224
01 37125924  LC409  M  MIGREN 650-50-1 X10CO                       3 637000000 650000000  390000001911000000       000  000  000  000  000  200         1  7591585115737       21127136       21127136   513410890001  N  0                           526 01/06/2023       USD          159          476    401849224
01 37125924  13914  M  OLMESARTAN 20MGX30 TAB                      315122380001543100000  925860004536714000       000  000  000  000  000  200         1  7592454003285       21127136       21127136   513410890001  N  0                       3256503 01/11/2022       USD          376         1129    401849224
01 37125924  11164  M  OMEPRAZOL GN 40MG. X10CA                   12 779688000 795600000 1909440009356256000       000  000  000  000  000  200         1  7591585173881       21127306       21127306   513410890001  N  0                           019 01/02/2023       USD          194         2328    401849224
01 37125924  11629  M  PANTOPRAZOL AL40MG. X7TA                    4 573127192 584823665  467858922292508768       000  000  000  000  000  200         1  7597758000299       21127136       21127136   513410890001  N  0                         DL143 01/05/2023       USD          143          570    401849224
01 37125924  GN759  M  DESLORATADINA GN S.ORAL60                   6 656110000 669500000  803400003936660000       000  000  000  000  000  200         2  7591585177445       21127136       21127136   513410890002  N  0                           052 01/05/2023       USD          163          980    401849224
01 37125924  MG604  M  FULGRAM 600/42,9SUSP.60CC                   233550790003423550000 1369420006710158000       000  000  000  000  000  200         2  7591585113139       21127136       21127136   513410890002  N  0                           329 01/04/2023       USD          835         1670    401849224
01 37125924  ED384  M  MUCLAR JBE. 30/5MG  60ML                    212740000001300000000  520000002548000000       000  000  000  000  000  200         2  7592803002402       21127136       21127136   513410890002  N  0                       2105536 01/05/2023       USD          317          634    401849224
01 37125924  CO110  M  MUCOBROL 4MG. JBE.120ML.                    312456858161271107976  762664803737057448       000  000  000  000  000  200         2  7591818112021       21127136       21127136   513410890002  N  0                         00419 01/10/2022       USD          310          930    401849224
01 37125924  GG800  M  MUCORAMA 15MG. JBE.118ML.                   211083800001131000000  452400002216760000       000  000  000  000  000  200         2  7591651722401       21127136       21127136   513410890002  N  0                       2104055 01/04/2023       USD          276          552    401849224
01 37125924  14125  M  PIPERZAN X120ML JBE                         6 560560000 572000000  686400003363360000       000  000  000  000  000  200         2  7592236002277       21127136       21127136   513410890002  N  0                          6261 01/06/2024       USD          139          837    401849224
02 37125924        103  100066495278    1454351811     232696290  101753543379    0    0    0  000    0    0    0   03/08/2021 01:48:55 p.m.   PR           000           000             0            21           USD    401849224        25263
