01 37120505  11352  M  ANAPIR 400MG. X10CA,BLAN                    2 9747017281105104000 2608045441949403456       000  000  000 1000  000  200         1  7593090001024       21121580       21121580   513347150001  N  0                        210020 01/01/2024       USD          241          483    403663395
01 37120505  PD565  M  BARGONIL UNG. 10GR.                         3 865046000 910000000 1348620002595138000       000  000  000  300  000  200         1  7591955000045       21121460       21121460   513347150001  N  0                          0100 01/01/2022       USD          214          643    403663395
01 37120505  VP990  M  CEVAX 500MG. X30CA.BLA                      61296420284155632687115594395227778521704       000  000  000 1500  000  200         1  7592432007649       21121580       21121580   513347150001  N  0                        210172 01/06/2023       USD          321         1927    403663395
01 37120505  LO810  M  FISIOLIN GOTAS PED. 15ML.                   2 844785124 862025637  344810261689570248       000  000  000  000  000  200         1  7591196002198       21121580       21121580   513347150001  N  0                       I020850 01/03/2023       USD          209          419    403663395
01 37120505  CO185  M  MIOVIT GRAGEAS X10                          2 501611420 731211983 4592011261003222840       000  000  000 3000  000  200         1  7591818118030       21121580       21121580   513347150001  N  0                         10118 01/04/2024       USD          124          249    403663395
02 37120505         15   15015856248           000           000   15015856248    0    0    0  000    0    0    0   29/07/2021 05:58:34 p.m.   PR           000           000             0             5           USD    403663395         3720
