01 37126006  LN001  M  ACICLOVIR LN CR.TOP.20GR.                   213436718751371093750  548437502687343750       000  000  000  000  000  200         1  7592348201117       21127306       21127306   513410880001  N  0                       2006101 01/06/2023       USD          334          669    401849224
01 37126006  14501  M  ALBENDAZOL LAND200 X100TM                   242322280004318600000 1727440008464456000       000  000  000  000  000  200         1  7598008000106       21127306       21127306   513410880001  N  0                         T9018 01/09/2023       USD         1053         2106    401849224
01 37126006  MK995  M  AMLODIPINA +MK TAB.10 X10                   6 415833600 424320000  509184002495001600       000  000  000  000  000  200         1  7591519001358       21127136       21127136   513410880001  N  0                         31765 01/02/2023       USD          103          621    401849224
01 37126006  QO290  M  ANALPER PLUS TAB. X10                       214791140001509300000  603720002958228000       000  000  000  000  000  200         1  7592454000796       21127306       21127306   513410880001  N  0                       3269850 01/06/2023       USD          368          736    401849224
01 37126006  14338  M  BACIPORIN UNG.DER.14,17GR                   311981970001222650000  733590003594591000       000  000  000  000  000  200         1   732064572857       21127306       21127306   513410880001  N  0                        210181 01/01/2024       USD          298          895    401849224
01 37126006  DP105  M  BACITRACINA DP UNG. 15GR.                   3 9868259271144278672 4723582352960477781       000  000  000 1200  000  200         1  7592616021010       21127136       21127136   513410880001  N  0                         10530 01/06/2024       USD          246          737    401849224
01 37126006  ZW010  N  CENTELLA A. NP X60CA                        225798500002632500000 1053000005159700000       000  000  000  000  000  200         1  7592430000185       21127136       21127136   513410880001  N  0                      02170521 01/05/2023       USD          642         1284    401849224
01 37126006  13423  M  CLORACE JBE PED S/A 120M                    2 876148354 993365481 2344342541752296708       000  000  000 1000  000  200         1  7591818716700       21127306       21127306   513410880001  N  0                         10146 01/05/2025       USD          218          436    401849224
01 37126006  12466  M  DEKORT 4MG. X20TA                           132130280003278600000  655720003213028000       000  000  000  000  000  200         1  8699525019752       21127306       21127306   513410880001  N  0                       A092365 01/01/2023       USD          800          800    401849224
01 37126006  GN784  M  DESLORATADINA GN 5MG. X10                  12 407680000 416000000  998400004892160000       000  000  000  000  000  200         1  7591585177469       21127136       21127136   513410880001  N  0                           088 01/03/2023       USD          101         1217    401849224
01 37126006  QM490  M  DICIGEL SUSP. 240ML.                        224040380002453100000  981240004808076000       000  000  000  000  000  200         1  7592454889216       21127136       21127136   513410880001  N  0                       3269898 01/06/2023       USD          598         1196    401849224
01 37126006  14624  M  DICLOFENAC S. GN50 X10CO                    6 229320000 234000000  280800001375920000       000  000  000  000  000  200         1  7591585473967       21127136       21127136   513410880001  N  0                          6731 01/02/2026       USD          057          342    401849224
01 37126006  13052  M  GENODERM 2N00/0N035 X21CO                   237124360003788200000 1515280007424872000       000  000  000  000  000  200         1  7730564249029       21127136       21127136   513410880001  N  0                         41961 01/05/2024       USD          924         1848    401849224
01 37126006  NP069  N  KID CAL T.FRUTTI 180CC.                     217836000001820000000  728000003567200000 570752000  000  000  000  000  200         1  7591821102026       21127136       21127136   513410880001  N  0                       2106148 01/07/2023       USD          444          888    401849224
01 37126006  GN166  M  LOSARTAN P. GN 100 X30CO                    210682490001090050000  436020002136498000       000  000  000  000  000  200         1  7591585378927       21127306       21127306   513410880001  N  0                           154 01/05/2024       USD          266          532    401849224
01 37126006  AP370  M  METREN 500MG.CAPS.VAG.X10                   416009084001633580000 1306864006403633600       000  000  000  000  000  200         1  7592601200314       21127306       21127306   513410880001  N  0                        126702 01/08/2023       USD          398         1594    401849224
01 37126006  14222  M  OLMESARTAN 40MG X30                         326257140002679300000 1607580007877142000       000  000  000  000  000  200         1  7592454003278       21127136       21127136   513410880001  N  0                       3257289 01/11/2022       USD          653         1960    401849224
01 37126006  12546  M  PANTOPRAZOL 40MG X10TA                      311389560001162200000  697320003416868000       000  000  000  000  000  200         1  7703153034719       21127136       21127136   513410880001  N  0                       1349182 01/04/2023       USD          283          850    401849224
01 37126006  MY290  M  TILODRIN GOTAS 15ML.                        3 790389600 806520000  483912002371168800       000  000  000  000  000  200         1  7592601100539       21127136       21127136   513410880001  N  0                        002701 01/06/2022       USD          197          590    401849224
01 37126006  15003  M  UNILAPIN 5MG. X30TA                         22212586376282217650012191802484425172752       000  000  000 2000  000  200         1  7468318319208       21127136       21127136   513410880001  N  0                         10021 01/01/2024       USD          551         1101    401849224
02 37126006         64   81983833991           000     570752000   82554585991    0    0    0  000    0    0    0   03/08/2021 02:07:48 p.m.   PR           000           000             0            20           USD    401849224        20402
