01 37123321  12586  M  ACICLOVIR KMPLUS 200MGX10                   2 640215576 694980000 1095288481280431152       000  000  000  600  000  200         1  6921875010748       21124255       21124255   513382800001  N  0                       2004421 01/04/2023       USD          159          319    401564576
01 37123321  LN001  M  ACICLOVIR LN CR.TOP.20GR.                   213436718751371093750  548437502687343750       000  000  000  000  000  200         1  7592348201117       21124255       21124255   513382800001  N  0                       2006101 01/06/2023       USD          335          669    401564576
01 37123321  BG620  M  BACIPRO INF. 200MG.100ML.                   6 278963270 284656398  341587681673779620       000  000  000  000  000  200         1  8907695035114       21124403       21124403   513382800001  N  0                       1193194 01/05/2022       USD          069          417    401564576
01 37123321  EL524  M  BRUGESICFORTE 200SUSP60ML                   4 722005357 736740160  589392122888021428       000  000  000  000  000  200         1  7591062013082       21124403       21124403   513382800001  N  0                        20140A 01/11/2022       USD          180          719    401564576
01 37123321  12078  M  CLAUSY SUSP.ORAL X10 5ML.                   149940800005096000000 1019200004994080000       000  000  000  000  000  200         1  8936187370020       21124255       21124255   513382800001  N  0                         10320 01/03/2022       USD         1244         1244    401564576
01 37123321  VC380  M  DIARONA 200MG. X10TA                        316307200001664000000  998400004892160000       000  000  000  000  000  200         1  7592782000116       21124255       21124255   513382800001  N  0                       2140007 01/04/2025       USD          406         1218    401564576
01 37123321  15022  M  DICLOFENAC S.KM100 X5SUP.                   3 549680040 596700000 1410598801649040120       000  000  000  600  000  200         1  6942189211287       21124403       21124403   513382800001  N  0                        211159 01/11/2023       USD          137          411    401564576
01 37123321  12573  M  DIPIRONA KMPLUS 500 X10TA                   3 291007080 315900000  74678760 873021240       000  000  000  600  000  200         1  6921875010861       21124255       21124255   513382800001  N  0                       2004434 01/04/2023       USD          072          217    401564576
01 37123321  11600  C  BARR DER.BIOS P.GRASA 90                    3 359197802 366528369  219917011077593406 172414945  000  000  000  000  200         2  7595481000234       21124255       21124255   513382800002  N  0                        210602 01/06/2025       USD          089          268    401564576
01 37123321  11601  C  BARR DER.BIOS P.SECA 90                     4 349141277 356266609  285013281396565108 223450417  000  000  000  000  200         2  7595481000241       21124255       21124255   513382800002  N  0                        210601 01/06/2025       USD          087          348    401564576
01 37123321  14113  M  BROMEXINA 4MGX120ML                         6 484120000 494000000  592800002904720000       000  000  000  000  000  200         3  7592236002055       21124255       21124255   513382800003  N  0                          7571 01/07/2023       USD          121          723    401564576
02 37123321         37   23842597310    2474158514     395865362   26712621186    0    0    0  000    0    0    0   31/07/2021 01:33:01 p.m.   PR           000           000             0            11           USD    401564576         6554
