01 37123154  CO006  M  AEROFLAT GOTAS 80MG.20ML.                   211498313221173297267  469318902299662644       000  000  000  000  000  200         1  7591818210406       21124058       21124058   513380310001  N  0                         10016 01/05/2023       USD          286          573    401564576
01 37123154  11795  M  AFLAMAX 50MG. X10TA                         6 409510101 417867450  501440942457060606       000  000  000  000  000  200         1  7591196007186       21124173       21124173   513380310001  N  0                       I021150 01/02/2023       USD          102          612    401564576
01 37123154  LO124  M  AIRON 10MG. X10TA                           3 791945154 808107300  484864382375835462       000  000  000  000  000  200         1  7591196002563       21124173       21124173   513380310001  N  0                       I051124 01/05/2023       USD          197          592    401564576
01 37123154  11624  M  BISOPROLOL AL2,5MG. X30TA                   214134734981550881609 2748162222826946996       000  000  000  700  000  200         1  7597758000114       21124173       21124173   513380310001  N  0                         DL111 01/05/2023       USD          352          704    401564576
01 37123154  11625  M  BISOPROLOL AL5MG. X30TA                     318062164481981804310 5267635865418649344       000  000  000  700  000  200         1  7597758000121       21124173       21124173   513380310001  N  0                         DL109 01/05/2023       USD          450         1349    401564576
01 37123154  12927  M  CLOTRIMAZOL AL200MG X3OVU                   3 671431675 856417953 5549588342014295025       000  000  000 2000  000  200         1  7597758000657       21124173       21124173   513380310001  N  0                      K1AAL003 01/05/2023       USD          167          502    401564576
01 37123154  LO003  M  IPORET SUSP.PED. 60ML.                      3 865773574 883442422  530065442597320722       000  000  000  000  000  200         1  7591196004253       21124058       21124058   513380310001  N  0                       I060950 01/07/2022       USD          216          647    401564576
01 37123154  KL704  M  PRESIDERM 2% UNG.TOP.15GR                   119110000001950000000  390000001911000000       000  000  000  000  000  200         1  7591619520513       21124173       21124173   513380310001  N  0                          0005 01/11/2022       USD          476          476    401564576
01 37123154  RZ200  M  SILDEX 50MG. X1TA                          24 170509612 173989400  835149124092230688       000  000  000  000  000  200         1  7594001101413       21124058       21124058   513380310001  N  0                          5940 01/06/2024       USD          042         1019    401564576
01 37123154  KV204  M  TERAGRIP FORTE GRAN.X6SOB                   415522097501667250000 4601610006208839000       000  000  000  500  000  200         1  7591821802490       21124058       21124058   513380310001  N  0                       2104125 01/04/2023       USD          387         1546    401564576
01 37123154  KV199  M  TERAGRIP FORTE NOC X6 SOB.                  415522097501667250000 4601610006208839000       000  000  000  500  000  200         1  7591821801882       21124058       21124058   513380310001  N  0                       2105141 01/05/2023       USD          387         1546    401564576
01 37123154  11808  M  APIRET 180SOL.ORAL 60ML.                   12 382322088 390124580  936299044587865056       000  000  000  000  000  200         2  7591196007155       21124173       21124173   513380310002  N  0                       I051015 01/05/2023       USD          095         1142    401564576
02 37123154         67   42998544543           000           000   42998544543    0    0    0  000    0    0    0   31/07/2021 12:48:07 p.m.   PR           000           000             0            12           USD    401564576        10708
