01 37122767  PD754  M  FERGANIC 40MG. X14CA                        210192000001040000000  416000002038400000       000  000  000  000  000  200         1  7591955002421       21123986       21123986   513378420001  N  0                          0144 01/02/2023       USD          254          508    401564576
01 37122767  PD754  M  FERGANIC 40MG. X14CA                        110192000001040000000  208000001019200000       000  000  000  000  000  200         1  7591955002421       21123986       21123986   513378420001  N  0                          0144 01/02/2023       USD          254          254    401564576
01 37122767  KN320  M  IVERGOT 6% GOTAS 5ML.                       317836000001820000000 1092000005350800000       000  000  000  000  000  200         1  7591619001210       21123986       21123986   513378420001  N  0                          0001 01/06/2024       USD          444         1332    401564576
01 37122767  LP810  M  KELFEN 50MG. X10CA                          3 764400000 780000000  468000002293200000       000  000  000  000  000  200         1  7591955001660       21123986       21123986   513378420001  N  0                          0010 01/03/2023       USD          190          571    401564576
01 37122767  GP870  M  MISELLIM 10MG. X20CO                        215288000001560000000  624000003057600000       000  000  000  000  000  200         1  7594000491607       21123986       21123986   513378420001  N  0                          0046 01/02/2025       USD          381          761    401564576
01 37122767  PD104  M  POLI-OTICO GOTAS 5 CC.                     1210192000001040000000 249600000       000       000  000  000  000  000  200         1  7591955002278       21123986       21123986   513378420001  N  0                          0095 01/07/2022       USD          254         3046    401564576
01 37122767  KN104  M  RIDAL 1MG. SOL.ORAL 20ML.                   311466000001170000000  702000003439800000       000  000  000  000  000  200         1  7594000491799       21123986       21123986   513378420001  N  0                          0032 01/01/2024       USD          286          857    401564576
01 37122767  GP210  M  RIDAL 3MG. X20CO                            316562000001690000000 1014000004968600000       000  000  000  000  000  200         1  7594000490624       21123986       21123986   513378420001  N  0                          0012 01/03/2024       USD          412         1237    401564576
01 37122767  PD990  M  FERGANIC FOLIC JBE.120CC.                   324206000002470000000 1482000007261800000       000  000  000  000  000  200         2  7591955002803       21123986       21123986   513378420002  N  0                          0105 01/03/2024       USD          603         1808    401564576
01 37122767  10855  M  HEXANT 30MG/5MI 120ML                       612230400001248000000 1497600007338240000       000  000  000  000  000  200         2  7591619519166       21123986       21123986   513378420002  N  0                          0008 01/02/2023       USD          305         1827    401564576
01 37122767  11768  M  KELFEN 1MG. JBE.PED. 120                    314014000001430000000  858000004204200000       000  000  000  000  000  200         2  7591619520551       21123986       21123986   513378420002  N  0                          0002 01/01/2022       USD          349         1047    401564576
02 37122767         41   53202240000           000           000   53202240000    0    0    0  000    0    0    0   31/07/2021 10:22:11 a.m.   PR           000           000             0            11           USD    401564576        13249
