01 37122264  14021  C  BARROCUTINA TEEN T.FAC120                   214720050801668940000 3938698402944010160 471041626  000  000 1000  000  200         1  7593090000577       21122958       21122958   513366560001  N  0                        011120 01/11/2023       USD          370          739    398317355
01 37122264  VP290  M  BIPRIN 300MG. X10CA.BLA                     2 8420026721010807530 3376097161684005344       000  000  000 1500  000  200         1  7592432002576       21122958       21122958   513366560001  N  0                        210077 01/04/2024       USD          211          423    398317355
01 37122264  LO120  M  CLARASOL SOL.OFT. 15ML.                     412973280001323804082 1059043285189312000       000  000  000  000  000  200         1  7591196000071       21122958       21122958   513366560001  N  0                       I041134 01/04/2024       USD          326         1303    398317355
01 37122264  KL053  M  CORENTEL 1,25MG. X30CO                      3 865046000 910000000 1348620002595138000       000  000  000  300  000  200         1  7591619520261       21122958       21122958   513366560001  N  0                          0006 01/04/2024       USD          217          652    398317355
01 37122264  KL043  M  CORENTEL 2,5MG. X30CO                       313593580001430000000 2119260004078074000       000  000  000  300  000  200         1  7591619520278       21122958       21122958   513366560001  N  0                          0007 01/04/2024       USD          341         1024    398317355
01 37122264  11270  C  BARROCUTINA GEL FAC.20GR.                   2 859918150 923650000 1274637001719836300 275173808  000  000  500  000  200         2  7593090002199       21122958       21122958   513366560002  N  0                       F200804 01/08/2023       USD          216          432    398317355
01 37122264  PD390  M  FLEMICAINE SOL.TOP. 5ML.                    1 9886240001040000000  51376000 988624000       000  000  000  300  000  200         3  7591955000489       21122958       21122958   513366560003  N  0                          0026 01/09/2023       USD          248          248    398317355
02 37122264         17   14535153344    4663846460     746215434   19945215238    0    0    0  000    0    0    0   30/07/2021 02:58:19 p.m.   PR           000           000             0             7           USD    398317355         4820
