01 37122209  VP529  M  ALBISEC CAPS. X12                           218376793732206097687 7368366283675358746       000  000  000 1500  000  200         1  7703153037512       21123301       21123301   513370460001  N  0                       1328941 01/12/2023       USD          461          923    398317355
01 37122209  11716  M  ARUDIL 20MG. X10TA                          238124450004095000000 5651100007624890000       000  000  000  500  000  200         1  7591821210028       21123301       21123301   513370460001  N  0                       2105171 01/05/2023       USD          957         1914    398317355
01 37122209  12927  M  CLOTRIMAZOL AL200MG X3OVU                   3 671431675 856417953 5549588342014295025       000  000  000 2000  000  200         1  7597758000657       21123206       21123206   513370460001  N  0                      K1AAL003 01/05/2023       USD          169          506    398317355
01 37122209  FA019  M  FITEX  5MG. X30TA                           415664320491598400050 1278720046265728196       000  000  000  000  000  200         1  7591821904316       21123301       21123301   513370460001  N  0                       2104590 01/04/2023       USD          393         1573    398317355
01 37122209  LO690  M  RINOMAX SOL. NASAL 15ML.                    3 766449343 782091166  469254692299348029       000  000  000  000  000  200         1  7591196000682       21123206       21123206   513370460001  N  0                       I011084 01/02/2023       USD          192          577    398317355
02 37122209         14   21879619996           000           000   21879619996    0    0    0  000    0    0    0   30/07/2021 02:44:34 p.m.   PR           000           000             0             5           USD    398317355         5493
