01 37125956  LO124  M  AIRON 10MG. X10TA                           6 791945154 808107300  969728764751670924       000  000  000  000  000  200         1  7591196002563       21126081       21126081   513401780001  N  0                       I051124 01/05/2023       USD          197         1182    401849224
01 37125956  13482  M  ALOPURINOL 100MGX30 TAB                     210468458001068210000  427284002093691600       000  000  000  000  000  200         1  7598176000137       21126081       21126081   513401780001  N  0                       TEMH218 01/07/2023       USD          260          521    401849224
01 37125956  PO180  M  BACTRON SUSP. 100ML.                        311083800001131000000  678600003325140000       000  000  000  000  000  200         1  7592806122015       21126081       21126081   513401780001  N  0                        104044 01/04/2026       USD          276          827    401849224
01 37125956  12139  M  CAPTOPRIL BM25MG. X100TA                    116740360001708200000  341640001674036000       000  000  000  000  000  200         1  6930169708056       21126081       21126081   513401780001  N  0                        190445 01/03/2022       USD          417          417    401849224
01 37125956  GQ600  M  CAPTOPRIL ELTER 25 X20TA                    4 577122000 588900000  471120002308488000       000  000  000  000  000  200         1  7703763100194       21126081       21126081   513401780001  N  0                       3228625 01/05/2022       USD          144          574    401849224
01 37125956  12927  M  CLOTRIMAZOL AL200MG X3OVU                   3 839289594 856417953  513850772517868782       000  000  000  000  000  200         1  7597758000657       21126081       21126081   513401780001  N  0                      K1AAL003 01/05/2023       USD          209          627    401849224
01 37125956  12928  M  CLOTRIMAZOL AL500MG X1OVU                   6 872861179 890674672 1068809585237167074       000  000  000  000  000  200         1  7597758000664       21126081       21126081   513401780001  N  0                      K1AHK004 01/07/2023       USD          217         1303    401849224
01 37125956  14117  M  FANASAL  AD. X 15ML GTAS                   12 334587435 370500000 4309507804015049220       000  000  300  500  000  200         1  7592236002215       21126081       21126081   513401780001  N  0                          6661 01/06/2023       USD          083          999    401849224
01 37125956  14782  M  IBUPRO-TIOCOL DAC600-4X10                  1211955216001219920000 292780800       000       000  000  000  000  000  200         1  7598578000247       21126081       21126081   513401780001  N  0                          V186 01/01/2024       USD          298         3570    401849224
01 37125956  SP760  M  KETOPROFENO SP100MG.X10CO                   6 557375000 568750000  682500003344250000       000  000  000  000  000  200         1  7590027001362       21126081       21126081   513401780001  N  0                           201 01/03/2024       USD          139          832    401849224
01 37125956  GP480  M  NAFINA CREMA 1% 15GR.                       411466000001170000000  936000004586400000       000  000  000  000  000  200         1  7594000491164       21126081       21126081   513401780001  N  0                          0024 01/04/2023       USD          285         1141    401849224
01 37125956  EL775  M  TALZIC SOL.GOTAS 20ML.                      3 604832901 617176430  370305871814498703       000  000  000  000  000  200         1  7591062016670       21126081       21126081   513401780001  N  0                        20114A 01/09/2022       USD          151          452    401849224
01 37125956  MK854  M  VALSARTAN H+MK 80/12,5X14                   310202192001041040000  624624003060657600       000  000  000  000  000  200         1  7591519006698       21126081       21126081   513401780001  N  0                         31527 01/10/2022       USD          254          762    401849224
01 37125956  VM780  M  AMOXIVAL 250MG.PPSO 90ML.                   214742896421504377186  601750882948579284       000  000  000  000  000  200         2  7591020000758       21126081       21126081   513401780002  N  0                           414 01/10/2022       USD          367          734    401849224
01 37125956  14816  M  AMOXIVAL AC250-62,5 60ML.                   316579681931691804279 1015082584973904579       000  000  000  000  000  200         2  7591020009003       21126081       21126081   513401780002  N  0                            03 01/05/2023       USD          413         1238    401849224
02 37125956         70   60997660966           000           000   60997660966    0    0    0  000    0    0    0   03/08/2021 01:58:35 p.m.   PR           000           000             0            15           USD    401849224        15179
