01 37120177  14830  M  BETA+GENT+MICO+CLOR JL15G                   311618880001185600000  711360003485664000       000  000  000  000  000  200         1  7598650000165       21121580       21121580   513347160001  N  0                          2732 01/08/2023       USD          288          864    403663395
01 37120177  14831  M  BETAMETASONA JL4MG. X10A                    216893240001723800000  689520003378648000       000  000  000  000  000  200         1  7598650000172       21121580       21121580   513347160001  N  0                        N16291 01/07/2023       USD          418          837    403663395
01 37120177  QO530  M  BROXOL FLEM GOTAS 30ML.                     2 910910000 929500000  371800001821820000       000  000  000  000  000  200         1  7592454889094       21121460       21121460   513347160001  N  0                       3268608 01/05/2023       USD          226          451    403663395
01 37120177  QM490  M  DICIGEL SUSP. 240ML.                        124040380002453100000  490620002404038000       000  000  000  000  000  200         1  7592454889216       21121460       21121460   513347160001  N  0                       3269898 01/06/2023       USD          596          596    403663395
01 37120177  MK103  M  DIOSMINA +MK 600MG. X14TA                   227105624003073200000 7252752005421124800       000  000  000 1000  000  200         1  7591519051193       21121580       21121580   513347160001  N  0                         32016 01/05/2024       USD          671         1343    403663395
01 37120177  MY005  M  IMAZOL SOL.SPRAY 1% 25ML.                   223562630002404350000  961740004712526000       000  000  000  000  000  200         1  7592601100447       21121580       21121580   513347160001  N  0                        927902 01/11/2022       USD          584         1167    403663395
01 37120177  AH295  M  LASIX 20MG. X24CO                           410548720001196000000 5645120004219488000       000  000  000 1000  000  200         1  7592205000037       21121460       21121460   513347160001  N  0                         31957 01/04/2024       USD          261         1045    403663395
01 37120177  14646  M  PERTEN 1% SOL.TOP. 30ML.                    116885596001723020000  344604001688559600       000  000  000  000  000  200         1  7592601301806       21121580       21121580   513347160001  N  0                        035901 01/10/2022       USD          418          418    403663395
02 37120177         17   27131868400           000           000   27131868400    0    0    0  000    0    0    0   29/07/2021 05:09:57 p.m.   PR           000           000             0             8           USD    403663395         6721
