01 37126900  14700  M  AMIKACINA KM500 2ML.10A                     148157200004914000000  982800004815720000       000  000  000  000  000  200         1  6942189211454       21127669       21127669   513414240001  N  0                        201081 01/10/2023       USD         1194         1194    403310454
01 37126900  14830  M  BETA+GENT+MICO+CLOR JL15G                   611618880001185600000 1422720006971328000       000  000  000  000  000  200         1  7598650000165       21127669       21127669   513414240001  N  0                          2732 01/08/2023       USD          288         1729    403310454
01 37126900  14550  M  CETIRIZINA LAND10 X100TA                    224104080002459600000  983840004820816000       000  000  000  000  000  200         1  7598008000298       21127669       21127669   513414240001  N  0                         T9681 01/03/2024       USD          598         1195    403310454
01 37126900  14910  M  CIFLOSIN 500MG. X10TA                      12 636203750 649187500 1558050007634445000       000  000  000  000  000  200         1  8699525093059       21127669       21127669   513414240001  N  0                       A075709 01/03/2022       USD          158         1893    403310454
01 37126900  14228  M  DESLORATADINA GDG.PH 5X14                  12 481890500 491725000 1180140005782686000       000  000  000  000  000  200         1  7598307000067       21127669       21127669   513414240001  N  0                         SM018 01/12/2023       USD          119         1434    403310454
01 37126900  12209  M  DIOSMIL 500MG. X30CO                        339075707493987317091 239239026       000       000  000  000  000  000  200         1  7406076104261       21127669       21127669   513414240001  N  0                        C21043 01/03/2024       USD          969         2907    403310454
01 37126900  QM330  M  ITISONA CR. 30 GR.                          210523240001073800000  429520002104648000       000  000  000  000  000  200         1  7592454001182       21127669       21127669   513414240001  N  0                       3255473 01/10/2022       USD          261          522    403310454
01 37126900  MY109  M  CETRAL 10MG. GOTAS 10ML.                    4 567796320 724230000 6257347202271185280       000  000  000 2000  000  200         2  7592601100706       21127669       21127669   513414240002  N  0                        926105 01/01/2022       USD          141          563    403310454
02 37126900         42   46123540527           000           000   46123540527    0    0    0  000    0    0    0   04/08/2021 10:25:32 a.m.   PR           000           000             0             8           USD    403310454        11436
