01 37128256  14949  M  AZITROMICINA PORT200 15ML                   614064960001435200000 1722240008438976000       000  000  000  000  000  200         1  7750215017562       21128969       21128969   513428810001  N  0                       2091220 01/09/2023       USD          348         2091    403619485
01 37128256  13400  M  GLICAZET 500/2,5 X40TA                      317443665241779965841 1067979515233099572       000  000  000  000  000  200         1  7406076125303       21128969       21128969   513428810001  N  0                        J20038 01/10/2023       USD          432         1297    403619485
01 37128256  GP830  M  RIDAL 1MG. X20CO                            3 891800000 910000000  546000002675400000       000  000  000  000  000  200         1  7594000491669       21128969       21128969   513428810001  N  0                          0037 01/03/2024       USD          221          663    403619485
01 37128256  GP200  M  RIDAL 2MG. X20CO                            312740000001300000000  780000003822000000       000  000  000  000  000  200         1  7594000490617       21128969       21128969   513428810001  N  0                          0037 01/03/2025       USD          316          947    403619485
01 37128256  GP210  M  RIDAL 3MG. X20CO                            316562000001690000000 1014000004968600000       000  000  000  000  000  200         1  7594000490624       21128969       21128969   513428810001  N  0                          0012 01/03/2024       USD          410         1231    403619485
01 37128256  PD710  M  CLENBUXOL JBE. AD. 120CC.                   212740000001300000000  520000002548000000       000  000  000  000  000  200         2  7591955000151       21128969       21128969   513428810002  N  0                          0064 01/03/2024       USD          316          631    403619485
01 37128256  LP425  M  GULAPER JBE.PED. 120ML.                     311466000001170000000  702000003439800000       000  000  000  000  000  200         2  7591955001295       21128969       21128969   513428810002  N  0                          0045 01/05/2023       USD          284          852    403619485
01 37128256  EL114  M  SAVER SUSP. 37,5CC.                         223033638452350371270  940148504606727690       000  000  000  000  000  200         2  7591062010227       21128969       21128969   513428810002  N  0                        21023A 01/05/2023       USD          571         1141    403619485
02 37128256         25   35732603262           000           000   35732603262    0    0    0  000    0    0    0   05/08/2021 09:46:39 a.m.   PR           000           000             0             8           USD    403619485         8853
