01 37124251  13134  M  ANTAAR +MK 2,5MG X10TA                      2 558776400 570180000  228072001117552800       000  000  000  000  000  200         1  7591519317718       21125247       21125247   513391840001  N  0                         31715 01/02/2024       USD          139          278    401564576
01 37124251  14780  M  ATORVASTATINA DAC40 X30TA                   416877952001722240000 1377792006751180800       000  000  000  000  000  200         1  7598578000254       21125247       21125247   513391840001  N  0                          V187 01/01/2024       USD          420         1681    401564576
01 37124251  15151  M  ATORVASTATINA PORT20 X100                   155673800005681000000 1136200005567380000       000  000  000  000  000  200         1  7750215005682       21125247       21125247   513391840001  N  0                       2044761 01/04/2024       USD         1386         1386    401564576
01 37124251  12209  M  DIOSMIL 500MG. X30CO                        139075707493987317091  797463423907570749       000  000  000  000  000  200         1  7406076104261       21125247       21125247   513391840001  N  0                        C21043 01/03/2024       USD          973          973    401564576
01 37124251  MY060  N  EQUALIV TAB. X30                            120358520002077400000  415480002035852000       000  000  000  000  000  200         1  7592601100805       21125247       21125247   513391840001  N  0                        050102 01/06/2022       USD          507          507    401564576
01 37124251  11083  M  FLOMED SOL.BUCAL AER45ML.                   218926045551931229138  772491663785209110       000  000  000  000  000  200         1  7591062901129       21125247       21125247   513391840001  N  0                        21003B 01/02/2023       USD          471          943    401564576
01 37124251  PD104  M  POLI-OTICO GOTAS 5 CC.                      310192000001040000000  624000003057600000       000  000  000  000  000  200         1  7591955002278       21125247       21125247   513391840001  N  0                          0095 01/07/2022       USD          254          761    401564576
01 37124251  LO215  M  TOBRASOL SOL.OFT. 5ML.                      2 746643131 761880746  304752301493286262       000  000  000  000  000  200         1  7591196000491       21125247       21125247   513391840001  N  0                       I129381 01/01/2022       USD          186          372    401564576
01 37124251  MG519  M  TROPOCER AP 90MG. X20CO                     220893600002132000000  852800004178720000       000  000  000  000  000  200         1  7591585113597       21125247       21125247   513391840001  N  0                           120 01/11/2022       USD          520         1041    401564576
01 37124251  LO444  M  APIRET 180SOL.ORAL 120ML.                   6 805449039 821886774  986264104832694234       000  000  000  000  000  200         2  7591196002785       21125247       21125247   513391840002  N  0                       I051004 01/06/2023       USD          201         1203    401564576
01 37124251  11808  M  APIRET 180SOL.ORAL 60ML.                    6 382322088 390124580  468149522293932528       000  000  000  000  000  200         2  7591196007155       21125247       21125247   513391840002  N  0                       I051015 01/05/2023       USD          095          571    401564576
01 37124251  FS006  N  CLORURO MAGNE FSI33,3GX12                   180107209008174205000 1634841008010720900       000  000  000  000  000  200         2  7592368003432       21125247       21125247   513391840002  N  0                       0621046 01/05/2022       USD         1995         1995    401564576
01 37124251  13424  M  KATIVIL SOL.ORAL S/A 120M                   618644060581902455161 228294618       000       000  000  000  000  000  200         2  7591818716694       21125247       21125247   513391840002  N  0                         10009 01/02/2024       USD          464         2786    401564576
01 37124251  MO008  M  LECART SOL.ORAL 60ML.                       6 896259000 914550000 1097460005377554000       000  000  000  000  000  200         2  7592601301523       21125247       21125247   513391840002  N  0                        135101 01/03/2023       USD          223         1339    401564576
02 37124251         43   63595689731           000           000   63595689731    0    0    0  000    0    0    0   02/08/2021 01:35:34 p.m.   PR           000           000             0            14           USD    401564576        15837
