01 37126047  LO124  M  AIRON 10MG. X10TA                           6 791945154 808107300  969728764751670924       000  000  000  000  000  200         1  7591196002563       21127426       21127426   513412100001  N  0                       I051124 01/05/2023       USD          197         1182    401849224
01 37126047  10884  N  CASTAÑO DE INDIAS AI 60CA                   226219177352675426260 1070170505243835470       000  000  000  000  000  200         1  7592946007104       21127426       21127426   513412100001  N  0                      02217104 01/05/2024       USD          652         1305    401849224
01 37126047  12178  M  CIPROFLOXACI BM500 X100TA                   145864000004680000000  936000004586400000       000  000  000  000  000  200         1  6930169708254       21127391       21127391   513412100001  N  0                        190555 01/04/2022       USD         1141         1141    401849224
01 37126047  ZA102  M  EVIGAX 125MG. X10CA.BLA                     412779138771303993752 1043195005111655508       000  000  000  000  000  200         1  7592432900032       21127391       21127391   513412100001  N  0                        210153 01/04/2024       USD          318         1272    401849224
01 37126047  OJ020  N  GINKGO BILOBA HP CAPS.X60                   220650266002341300000 5525468004130053200       000  000  000 1000  000  200         1  7592710000621       21127426       21127426   513412100001  N  0                       0291805 01/05/2024       USD          514         1028    401849224
01 37126047  QM330  M  ITISONA CR. 30 GR.                          210523240001073800000  429520002104648000       000  000  000  000  000  200         1  7592454001182       21127391       21127391   513412100001  N  0                       3255473 01/10/2022       USD          262          524    401849224
01 37126047  13939  M  LACRIFORT SOL.OFT. 10ML.                    611104289441133090759 1359708906662573664       000  000  000  000  000  200         1  7591196007179       21127426       21127426   513412100001  N  0                        061291 01/06/2023       USD          276         1658    401849224
01 37126047  EL001  M  TALZIC 10MG. X10CO                          6 584409758 596336488  715603803506458548       000  000  000  000  000  200         1  7591062016700       21127426       21127426   513412100001  N  0                        21022C 01/04/2023       USD          145          873    401849224
01 37126047  LT017  M  TENSOMAX 30MG. LP X40CA                     132487000003315000000  663000003248700000       000  000  000  000  000  200         1  7591585418432       21127391       21127391   513412100001  N  0                           163 01/03/2023       USD          808          808    401849224
01 37126047  ZU001  C  IODINEX JABON LIQ. 120ML.                   213194963211346424817  538569922638992642       000  000  000  000  000  200         2  7595248000033       21127391       21127391   513412100002  N  0                       0200543 01/04/2026       USD          328          657    401849224
01 37126047  LT284  M  ANTUX SOL.ORAL 180ML.                       630066400003068000000 368160000       000       000  000  000  000  000  200         3  7591585214706       21127426       21127426   513412100003  N  0                           281 01/05/2023       USD          748         4489    401849224
01 37126047  11583  M  PERIDONT T.BUCAL 240ML.                     2 716703214 731329810  292531921433406428       000  000  000  000  000  200         3  7591196007193       21127391       21127391   513412100003  N  0                       I061456 01/06/2023       USD          178          357    401849224
02 37126047         40   58819241742    2638992642           000   61458234384    0    0    0  000    0    0    0   03/08/2021 02:16:25 p.m.   PR           000           000             0            12           USD    401849224        15294
