01 37129035  12137  M  ATENOLOL BM100MG. X100TA                    115702050001602250000  320450001570205000       000  000  000  000  000  200         1  6930169708063       21129983       21129983   513441140001  N  0                        190446 01/03/2022       USD          389          389    403619485
01 37129035  FA022  M  BONAMES 150MG. X1TA                         216339050001667250000  666900003267810000       000  000  000  000  000  200         1  7591821903326       21129983       21129983   513441140001  N  0                       2105132 01/05/2025       USD          405          810    403619485
01 37129035  15081  M  CETIRIZINA BM10MG. X10TA                   24 318500000 325000000 1560000007644000000       000  000  000  000  000  200         1  7598127001251       21130018       21130018   513441140001  N  0                        210173 01/01/2024       USD          079         1894    403619485
01 37129035  KN330  M  CURPINOL 25MG. X30CO                        320384000002080000000 1248000006115200000       000  000  000  000  000  200         1  7591955558225       21129983       21129983   513441140001  N  0                          0023 01/01/2024       USD          505         1515    403619485
01 37129035  12209  M  DIOSMIL 500MG. X30CO                        139075707493987317091  797463423907570749       000  000  000  000  000  200         1  7406076104261       21130018       21130018   513441140001  N  0                        C21043 01/03/2024       USD          968          968    403619485
01 37129035  13087  N  LECHE MAGNESIA 120ML BF                     113083980001335100000  267020001308398000       000  000  000  000  000  200         1  7591616000902       21129983       21129983   513441140001  N  0                        212709 01/05/2023       USD          324          324    403619485
01 37129035  KV280  N  SENOKOT JBE. 10MG. 120ML.                   228665000002925000000 1170000005733000000       000  000  000  000  000  200         1  7591821800212       21129983       21129983   513441140001  N  0                      2106231B 01/07/2023       USD          710         1420    403619485
01 37129035  12123  C  BOROCANFOR ORIG.PVO.35GR                    2 574808454 586539239  234615701149616908 183938705  000  000  000  000  200         2       75971427       21129983       21129983   513441140002  N  0                       2106301 01/06/2023       USD          142          285    403619485
02 37129035         36   29546183749    1149616908     183938705   30879739362    0    0    0  000    0    0    0   05/08/2021 12:58:57 p.m.   PR           000           000             0             8           USD    403619485         7605
