01 37135858  CO006  M  AEROFLAT GOTAS 80MG.20ML.                   211498313221173297267  469318902299662644       000  000  000  000  000  200         1  7591818210406       21135485       21135485   513498600001  N  0                         10015 01/05/2023       USD          281          562    409450202
01 37135858  11795  M  AFLAMAX 50MG. X10TA                         6 409510101 417867450  501440942457060606       000  000  000  000  000  200         1  7591196007186       21135352       21135352   513498600001  N  0                       I021150 01/02/2023       USD          100          600    409450202
01 37135858  LO469  M  ALFADYN 0,20% SO.OFT.5ML.                   6246184201227912040952964258747       000       000  000  000 1000  000  200         1  7591196003430       21135352       21135135   513498600001  N  0                        061806 01/06/2023       USD          601         3608    409450202
01 37135858  LO469  M  ALFADYN 0,20% SO.OFT.5ML.                   32461842012279120409529642587477385526036       000  000  000 1000  000  200         1  7591196003430       21133983       21135135   513498600001  N  0                        061806 01/06/2023       USD          601         1804    409450202
01 37135858  15031  M  ATORVASTATINA AL20 X30TA                    41140255899145440803412566085404561023596       000  000  000 2000  000  200         1  7597758000732       21135190       21135190   513498600001  N  0                        AVT001 01/02/2024       USD          278         1114    409450202
01 37135858  OJ007  N  CASTAÑO DE INDIAS HP 60CA                   32065026600234130000013813670006195079800       000  000  000 1000  000  200         1  7592710000454       21135352       21135135   513498600001  N  0                       0121207 01/07/2024       USD          504         1513    409450202
01 37135858  OJ007  N  CASTAÑO DE INDIAS HP 60CA                   22065026600234130000013813670004130053200       000  000  000 1000  000  200         1  7592710000454       21133983       21135135   513498600001  N  0                       0121207 01/07/2024       USD          504         1009    409450202
01 37135858  CO265  M  CLORACE 500MG/4MG X10TA                     3 667347768 756630122 2678470622002043304       000  000  000 1000  000  200         1  7591818116043       21135213       21135213   513498600001  N  0                         10162 01/04/2024       USD          163          489    409450202
01 37135858  13423  M  CLORACE JBE PED S/A 120M                    2 876148354 993365481 2344342541752296708       000  000  000 1000  000  200         1  7591818716700       21135213       21135213   513498600001  N  0                         10146 01/05/2025       USD          214          428    409450202
01 37135858  VM494  M  DUROVAL 50MG. X10TA                        1018699135001908075000 381615000       000       000  000  000  000  000  200         1  7591020008440       21135213       21135213   513498600001  N  0                           636 01/07/2026       USD          457         4567    409450202
01 37135858  LO810  M  FISIOLIN GOTAS PED. 15ML.                   3 844785124 862025637  517215392534355372       000  000  000  000  000  200         1  7591196002198       21135352       21135512   513498600001  N  0                       I020850 01/03/2023       USD          206          619    409450202
01 37135858  PD729  M  KELFEN GEL TOPICO 30GR.                     211911900001430000000 4776200002382380000       000  000  000 1500  000  200         1  7591955001677       21135506       21135514   513498600001  N  0                          0018 01/04/2023       USD          291          582    409450202
01 37135858  CO125  M  PINVEX SOL.TOP.BUCAL 10ML                   2 804882251 821308419  328523361609764502       000  000  000  000  000  200         1  7591818111055       21135352       21135512   513498600001  N  0                         10005 01/02/2026       USD          197          393    409450202
01 37135858  VM780  M  AMOXIVAL 250MG.PPSO 90ML.                   316065310381639317386 2295044364819593114       000  000  000  000  000  200         2  7591020000758       21135213       21135190   513498600002  N  0                           416 01/05/2023       USD          392         1177    409450202
01 37135858  VM780  M  AMOXIVAL 250MG.PPSO 90ML.                   216065310381639317386 2295044363213062076       000  000  000  000  000  200         2  7591020000758       21135352       21135190   513498600002  N  0                           416 01/05/2023       USD          392          785    409450202
01 37135858  VM780  M  AMOXIVAL 250MG.PPSO 90ML.                   216065310381639317386 2295044363213062076       000  000  000  000  000  200         2  7591020000758       21135190       21135190   513498600002  N  0                           416 01/05/2023       USD          392          785    409450202
01 37135858  14816  M  AMOXIVAL AC250-62,5 60ML.                   217372700861772724578  709089843474540172       000  000  000  000  000  200         2  7591020009003       21135352       21135352   513498600002  N  0                            04 01/05/2023       USD          424          849    409450202
01 37135858  CO380  M  CLORACE JBE.PED. 120ML.                     2 876148354 993365481 2344342541752296708       000  000  000 1000  000  200         2  7591818112069       21135213       21135213   513498600002  N  0                         00369 01/09/2024       USD          214          428    409450202
01 37135858  MO009  M  HEPAFOL JARABE 120ML.                       118183802001855490000  371098001818380200       000  000  000  000  000  200         2  7592601301592       21135190       21135190   513498600002  N  0                        135201 01/05/2023       USD          444          444    409450202
02 37135858         60   89070367186           000           000   89070367186    0    0    0  000    0    0    0   11/08/2021 12:59:32 p.m.   PR           000           000             0            15           USD    409450202        21754
