01 37138842  LO504  M  ACETAB 250MG. X20TA                         213259691201353029714  541211882651938240       000  000  000  000  000  200         1  7591196004802       21138193       21138193   513537980001  N  0                       I061144 01/07/2023       USD          322          645    411336568
01 37138842  OJ012  N  MACA HP CAPS. 500MG. X60                    122909068002597400000 3064932002290906800       000  000  000 1000  000  200         1  7592710000720       21138193       21138193   513537980001  N  0                       0391606 01/06/2024       USD          557          557    411336568
01 37138842  VM033  M  TADAFOX 5MG. X30TA                          610980950011120505103 1344606126588570006       000  000  000  000  000  200         1  7591020080781       21138193       21138193   513537980001  N  0                            47 01/04/2023       USD          267         1602    411336568
01 37138842  PD124  M  TRIDETARMON CR. 15GR.                       311911900001430000000 7164300003573570000       000  000  000 1500  000  200         1  7591955000762       21138193       21138193   513537980001  N  0                          0081 01/04/2023       USD          290          869    411336568
01 37138842  14816  M  AMOXIVAL AC250-62,5 60ML.                   417372700861772724578 1418179686949080344       000  000  000  000  000  200         2  7591020009003       21138193       21138193   513537980002  N  0                            04 01/05/2023       USD          422         1689    411336568
01 37138842  11260  M  PEDIACORT SOL.PED. 60ML.                    624210468932470456013 296454720       000       000  000  000  000  000  200         2  7591196006097       21138193       21138193   513537980002  N  0                        071793 01/07/2024       USD          589         3531    411336568
02 37138842         22   36580346748           000           000   36580346748    0    0    0  000    0    0    0   13/08/2021 09:44:02 a.m.   PR           000           000             0             6           USD    411336568         8893
