01 37130793  CO006  M  AEROFLAT GOTAS 80MG.20ML.                   211498313221173297267  469318902299662644       000  000  000  000  000  200         1  7591818210406       21131316       21131316   513460460001  N  0                         10016 01/05/2023       USD          285          569    404078473
01 37130793  13423  M  CLORACE JBE PED S/A 120M                    4 876148354 993365481 4688685083504593416       000  000  000 1000  000  200         1  7591818716700       21131316       21131316   513460460001  N  0                         10146 01/05/2025       USD          217          867    404078473
01 37130793  LO004  M  DICLORET SUSP.PED. 60ML.                    3 9905468771010762119  606457262971640631       000  000  000  000  000  200         1  7591196004499       21131527       21131527   513460460001  N  0                       I110048 01/12/2022       USD          245          735    404078473
01 37130793  MY255  M  IMAZOL 1% SOL.TOP.  20ML.                   211295284001152580000  461032002259056800       000  000  000  000  000  200         1  7592601100461       21131316       21131316   513460460001  N  0                        009501 01/07/2023       USD          280          559    404078473
01 37130793  CO018  M  KETOPROFENO CO100MG.X10TA                   6 763578385 779161617  934993924581470310       000  000  000  000  000  200         1  7591818136058       21131316       21131316   513460460001  N  0                         10104 01/03/2025       USD          189         1134    404078473
01 37130793  OJ016  N  VENACARE HP CAPS. X60                       125225200002860000000 3374800002522520000       000  000  000 1000  000  200         1  7592710000935       21131316       21131316   513460460001  N  0                       0632304 01/04/2024       USD          624          624    404078473
02 37130793         18   18138943801           000           000   18138943801    0    0    0  000    0    0    0   06/08/2021 01:08:42 p.m.   PR           000           000             0             6           USD    404078473         4489
