01 37136620  PD714  M  BUMELEX 1MG. X16CO                          211466000001170000000  468000002293200000       000  000  000  000  000  200         1  7591955000991       21136489       21136489   513515620001  N  0                          0051 01/06/2023       USD          280          560    409450202
01 37136620  14534  M  CEFADROXILO GN500 X10CA                    12 9949940001015300000 243672000       000       000  000  000  000  000  200         1  7591585470225       21136489       21136489   513515620001  N  0                           560 01/11/2023       USD          243         2916    409450202
01 37136620  GN784  M  DESLORATADINA GN 5MG. X10                  12 407680000 416000000  998400004892160000       000  000  000  000  000  200         1  7591585177469       21136489       21136489   513515620001  N  0                           088 01/03/2023       USD          100         1195    409450202
01 37136620  DT240  N  GLICERINA DT 30 X12                         149057848485005902906 1001180584905784848       000  000  000  000  000  200         1 17591616000664       21136489       21136489   513515620001  N  0                        112404 01/04/2024       USD         1198         1198    409450202
01 37136620  11350  C  LIMP ENCIA CLASIC100 GALA                   6 299390000 305500000  366600001796340000 287414400  000  000  000  000  200         1  7595751001350       21136489       21136489   513515620001  N  0                       2005007 01/05/2023       USD          073          439    409450202
01 37136620  11324  C  LIMP ENCIA DIAMOND120GALA                   6 490490000 500500000  600600002942940000 470870400  000  000  000  000  200         1  7595751001343       21136489       21136489   513515620001  N  0                       2005007 01/05/2023       USD          120          719    409450202
01 37136620  11325  C  LIMP ENCIA U.MINT 120GALA                   6 465010000 474500000  569400002790060000 446409600  000  000  000  000  200         1  7595751001367       21136489       21136489   513515620001  N  0                       2010007 01/10/2023       USD          114          681    409450202
01 37136620  NP640  M  MACRODANTINA 50MG. X30CA                    223765578202425059000  970023604753115640       000  000  000  000  000  200         1  7591821901858       21136489       21136489   513515620001  N  0                       2106163 01/06/2024       USD          580         1161    409450202
01 37136620  SR870  M  PLAQUINOL 200MG. X20TA                      152692640005376800000 1075360005269264000       000  000  000  000  000  200         1  7706263003835       21136489       21136489   513515620001  N  0                       ACL4576 01/10/2023       USD         1287         1287    409450202
01 37136620  ED175  C  NOPUCID LOC. 100 CC.                        213663650001394250000  557700002732730000 437236800  000  000  000  000  200         2  7592803000835       21136489       21136489   513515620002  N  0                       2101475 01/01/2023       USD          334          667    409450202
01 37136620  LC580  N  ALLIXON NARANJA 240 CC.                     3 751660000 767000000  460200002254980000 360796800  000  000  000  000  200         3  7591585112439       21136489       21136489   513515620003  N  0                           344 01/12/2022       USD          184          551    409450202
01 37136620  LN255  M  BROMEXINA LN 8MG.JBE120ML                   3 947537503 966875003  580125002842612509       000  000  000  000  000  200         3  7592348204002       21136489       21136489   513515620003  N  0                         41472 01/06/2024       USD          231          694    409450202
02 37136620         56   39151044997   10262070000    2002728000   51415842997    0    0    0  000    0    0    0   11/08/2021 03:44:50 p.m.   PR           000           000             0            12           USD    409450202        12068
