01 37139647  VC430  M  BUTROPINA SOL.GOTAS 20ML.                   213759200001404000000  561600002751840000       000  000  000  000  000  200         1  7592782000338       21139145       21139145   513546450001  N  0                       2160010 01/06/2023       USD          334          669    411336568
01 37139647  EH116  M  ESOMEPRAZOL VP40MG. X20TA                   31762974433224869187914571523385288923299       000  000  000 2000  000  200         1  7703153027421       21139145       21139145   513546450001  N  0                       1330528 01/12/2022       USD          429         1286    411336568
01 37139647  11083  M  FLOMED SOL.BUCAL AER45ML.                   318926045551931229138 1158737495677813665       000  000  000  000  000  200         1  7591062901129       21139145       21139145   513546450001  N  0                        21003B 01/02/2023       USD          460         1380    411336568
01 37139647  15260  M  FLUCONAZOL BM150MG. X2CA                   12 452270000 461500000 1107600005427240000       000  000  000  000  000  200         1  7598127001060       21139145       21139145   513546450001  N  0                        210214 01/02/2024       USD          110         1319    411336568
01 37139647  EL775  M  TALZIC SOL.GOTAS 20ML.                      3 604832901 617176430  370305871814498703       000  000  000  000  000  200         1  7591062016670       21139145       21139145   513546450001  N  0                        20114B 01/09/2022       USD          147          441    411336568
01 37139647  KV204  M  TERAGRIP FORTE GRAN.X6SOB                   316339050001667250000 1000350004901715000       000  000  000  000  000  200         1  7591821802490       21139145       21139145   513546450001  N  0                       2104125 01/04/2023       USD          397         1192    411336568
01 37139647  KV199  M  TERAGRIP FORTE NOC X6 SOB.                  316339050001667250000 1000350004901715000       000  000  000  000  000  200         1  7591821801882       21139145       21139145   513546450001  N  0                       2105144 01/06/2023       USD          397         1192    411336568
02 37139647         29   30763745667           000           000   30763745667    0    0    0  000    0    0    0   13/08/2021 01:34:15 p.m.   PR           000           000             0             7           USD    411336568         7479
