01 37131214  14869  M  AMOXICILINA FM500 X10CA                    12 509600000 520000000 1248000006115200000       000  000  000  000  000  200         1  8906082150676       21131527       21131527   513460450001  N  0                     ACAMX2012 01/10/2023       USD          126         1513    404078473
01 37131214  15038  M  ANGRIP DIA X8CO                             3 509600000 520000000  312000001528800000       000  000  000  000  000  200         1  7591619518978       21131316       21131316   513460450001  N  0                          0043 01/10/2023       USD          126          378    404078473
01 37131214  11280  M  ARANDA 5MG/100MG X12CA                      112840242111310228787  262045761284024211       000  000  000  000  000  200         1  7591821210257       21131316       21131316   513460450001  N  0                       2007580 01/09/2022       USD          318          318    404078473
01 37131214  12909  M  AZOPT SOL. OF 2%/5% X5ML                    317122560001747200000 1048320005136768000       000  000  000  000  000  200         1  7598055000043       21131316       21131316   513460450001  N  0                            17 01/08/2022       USD          424         1271    404078473
01 37131214  ZW010  N  CENTELLA A. NP X60CA                        125798500002632500000  526500002579850000       000  000  000  000  000  200         1  7592430000185       21131316       21131316   513460450001  N  0                      02170521 01/05/2023       USD          638          638    404078473
01 37131214  13471  M  DANIELE 2MG/0,035MG X21CO                   226626600002717000000 1086800005325320000       000  000  000  000  000  200         1  7401078900026       21131316       21131316   513460450001  N  0                      LF22989A 01/03/2023       USD          659         1318    404078473
01 37131214  SP760  M  KETOPROFENO SP100MG.X10CO                   6 473768750 568750000 5698875002842612500       000  000  000 1500  000  200         1  7590027001362       21131316       21131316   513460450001  N  0                           201 01/03/2024       USD          117          703    404078473
01 37131214  LN165  M  MADECASSOL 2% POLVO 5GR.                    217325459021767903982  707161603465091804       000  000  000  000  000  200         1  7592348218108       21131527       21131527   513460450001  N  0                       2102027 01/02/2026       USD          429          858    404078473
01 37131214  14699  M  METOCLOPRAMIDA KM10 X10A                    110319400001053000000  210600001031940000       000  000  000  000  000  200         1  6921875009186       21131316       21131316   513460450001  N  0                       2004441 01/04/2023       USD          255          255    404078473
01 37131214  12574  M  METRONIDAZOL KMPLU 500X10                  12 316461600 322920000  775008003797539200       000  000  000  000  000  200         1  6921875010878       21131527       21131527   513460450001  N  0                       2004435 01/04/2023       USD          078          940    404078473
01 37131214  15230  M  METRONIDAZOL LAND500 10TV                   612612600001287000000 1544400007567560000       000  000  000  000  000  200         1  7598008000939       21131527       21131527   513460450001  N  0                         T9480 01/02/2024       USD          312         1873    404078473
01 37131214  13120  M  TAMSULOSINA CL BM 0,4X30T                   311147500001137500000  682500003344250000       000  000  000  000  000  200         1  6972718560029       21131316       21131316   513460450001  N  0                        191243 01/11/2022       USD          276          828    404078473
02 37131214         52   44018955715           000           000   44018955715    0    0    0  000    0    0    0   06/08/2021 02:26:57 p.m.   PR           000           000             0            12           USD    404078473        10894
