01 37132636  MG524  M  ACICLOR AP 1GR. X10CO                       131111080003174600000  634920003111108000       000  000  000  000  000  200         1  7591585111838       21132647       21132647   513471580001  N  0                           037 01/10/2023       USD          765          765    406882303
01 37132636  GN088  M  AMLODIPINA GN 10MG. X30CO                   6 761852000 777400000  932880004571112000       000  000  000  000  000  200         1  7591585278173       21132706       21132706   513471580001  N  0                           188 01/03/2024       USD          187         1123    406882303
01 37132636  10189  M  AZITROMICINA BF500 X3CO                    12 591136000 603200000 1447680007093632000       000  000  000  000  000  200         1  8470007069430       21132706       21132706   513471580001  N  0                       L200748 01/05/2023       USD          145         1743    406882303
01 37132636  GF109  M  AZITROMICINA GF PPSO15ML.                   316256240001658800000  995280004876872000       000  000  000  000  000  200         1  7702605100538       21132647       21132647   513471580001  N  0                      0GC3898C 01/06/2022       USD          400         1199    406882303
01 37132636  10797  M  DERMAZOL 0,05% L.CAP.25ML                   115288000001560000000  312000001528800000       000  000  000  000  000  200         1  7591619519098       21132647       21132647   513471580001  N  0                          0017 01/05/2023       USD          376          376    406882303
01 37132636  SP210  M  DOMPERIDONA SP10MG. X20CO                   2 796250000 812500000  325000001592500000       000  000  000  000  000  200         1  7590027001843       21132647       21132647   513471580001  N  0                           241 01/03/2023       USD          196          391    406882303
01 37132636  VC450  M  FUGOLIN CR.VAG. 50GR.                       218711875001909375000  763750003742375000       000  000  000  000  000  200         1  7592782000307       21132647       21132647   513471580001  N  0                       2140002 01/04/2023       USD          460          920    406882303
01 37132636  15198  N  HEPAGRAS 120MG. X30CA                       126416390002695550000  539110002641639000       000  000  000  000  000  200         1  7591585216892       21132673       21132673   513471580001  N  0                           003 01/06/2024       USD          649          649    406882303
01 37132636  11423  M  HIDROCLOROTI GN12,5 X30CO                  1213053404001331980000 319675200       000       000  000  000  000  000  200         1  7591585172686       21132706       21132706   513471580001  N  0                           021 01/05/2023       USD          321         3850    406882303
01 37132636  GN534  M  KETOPROFENO GN100 2ML.X2A                   2 853580000 871000000  348400001707160000       000  000  000  000  000  200         1  7591585170781       21132647       21132647   513471580001  N  0                           090 01/03/2023       USD          210          420    406882303
01 37132636  15231  M  LANDGRA 100ORAL 7S.SABO                     122142120002259400000  451880002214212000       000  000  000  000  000  200         1  7598008001042       21132706       21132706   513471580001  N  0                        LJ1321 01/02/2024       USD          544          544    406882303
01 37132636  PO550  M  MILAX POLVO 120GR.                          221785400002223000000  889200004357080000       000  000  000  000  000  200         1  7592806132038       21132647       21132647   513471580001  N  0                        106085 01/06/2024       USD          535         1071    406882303
01 37132636  EL017  M  OFAFLAN GOTAS PED. 30ML.                    2 851817548 869201580  347680641703635096       000  000  000  000  000  200         1  7591062900894       21132647       21132647   513471580001  N  0                        20052A 01/05/2022       USD          209          419    406882303
01 37132636  PD210  M  PRAXONA 150MG. X10CO                        210192000001040000000  416000002038400000       000  000  000  000  000  200         1  7591955000663       21132706       21132706   513471580001  N  0                          0053 01/02/2023       USD          250          501    406882303
01 37132636  KL015  M  RISPERID 1MG. X30CO                         214014000001430000000  572000002802800000       000  000  000  000  000  200         1  7591619518565       21132647       21132647   513471580001  N  0                          0005 01/06/2024       USD          344          689    406882303
01 37132636  PA033  M  SAX SOL. VAGINAL 135 CC.                    211737302251197683903  479073562347460450       000  000  000  000  000  200         1  7591241846609       21132647       21132647   513471580001  N  0                       9223602 01/04/2024       USD          288          577    406882303
01 37132636  RZ360  M  SILDEX 50MG. X2TA                          12 269123582 274615900  659078163229482984       000  000  000  000  000  200         1  7594001101420       21132706       21132706   513471580001  N  0                          5880 01/05/2024       USD          066          794    406882303
01 37132636  DP720  M  SULFADIAZINA P.DP CR.30GR                   112743362721300343135  260068631274336272       000  000  000  000  000  200         1  7592616480015       21132647       21132647   513471580001  N  0                         10313 01/04/2023       USD          313          313    406882303
01 37132636  PA053  M  TAMOA 250MG. X6CO.MAST.                     617707616701806899663 216827958       000       000  000  000  000  000  200         1  7591243849622       21132647       21132647   513471580001  N  0                       9213701 01/04/2023       USD          435         2611    406882303
01 37132636  VP400  M  VIT E VP 400MG. X30CA.BLA                   617326602091768020621 212162472       000       000  000  000  000  000  200         1  7592432005478       21132647       21132647   513471580001  N  0                        210059 01/01/2024       USD          426         2555    406882303
01 37132636  12586  M  ACICLOVIR KMPLUS 200MGX10                   4 681080400 694980000  555984002724321600       000  000  000  000  000  200         2  6921875010748       21132647       21132647   513471580002  N  0                       2004421 01/04/2023       USD          167          670    406882303
01 37132636  LQ270  N  EPIVITAL CAPS. X15                          228836990002942550000 1177020005767398000       000  000  000  000  000  200         2  7592430000505       21132647       21132647   513471580002  N  0                      02260421 01/04/2023       USD          709         1417    406882303
01 37132636  VP194  M  MELOVAX 15MG. X10CAPS.BL.                   3 686036353 777818994 2753479232058109059       000  000 1000  000  000  200         2  7592432007427       21132647       21132647   513471580002  N  0                        200266 01/09/2023       USD          169          506    406882303
01 37132636  RZ200  M  SILDEX 50MG. X1TA                          12 170509612 173989400  417574562046115344       000  000  000  000  000  200         2  7594001101413       21132706       21132706   513471580002  N  0                          5940 01/06/2024       USD          042          503    406882303
01 37132636  12086  M  VIT E VP 400MG. X15CA.BLA                   210308846511051923113  420769242061769302       000  000  000  000  000  200         2  7592432901428       21132647       21132647   513471580002  N  0                        210007 01/11/2023       USD          253          507    406882303
02 37132636        101  102174934181           000           000  102174934181    0    0    0  000    0    0    0   09/08/2021 02:17:53 p.m.   PR           000           000             0            25           USD    406882303        25112
