01 37135321  ET350  C  ADEMINA PLUS CR.CORP.60GR                   213206678891347620295 1347620302641335778 422613724  000  000  000  000  200         1  7591844000446       21135352       21135135   513498570001  N  0                    AP60210100 01/01/2024       USD          323          645    409450202
01 37135321  ET350  C  ADEMINA PLUS CR.CORP.60GR                   313206678891347620295 1347620303962003667 633920587  000  000  000  000  200         1  7591844000446       21133983       21135135   513498570001  N  0                    AP60210100 01/01/2024       USD          323          968    409450202
01 37135321  VP529  M  ALBISEC CAPS. X12                           121782236452222677189  444535442178223645       000  000  000  000  000  200         1  7703153037512       21135352       21135352   513498570001  N  0                       1328941 01/12/2023       USD          532          532    409450202
01 37135321  GN790  M  AMLODIPINA GN 5MG. X30CO                    6 761852000 777400000  932880004571112000       000  000  000  000  000  200         1  7591585278166       21135485       21135485   513498570001  N  0                           384 01/02/2024       USD          186         1116    409450202
01 37135321  14702  M  AMOXICILINA KM500 X10CA                    24 543488400 554580000 266198400       000       000  000  000  000  000  200         1  6921875011134       21135213       21135213   513498570001  N  0                       2008470 01/08/2023       USD          133         3186    409450202
01 37135321  GF109  M  AZITROMICINA GF PPSO15ML.                   616256240001658800000 3981120009753744000       000  000  000  000  000  200         1  7702605100538       21135352       21135135   513498570001  N  0                      0GC3898C 01/06/2022       USD          397         2382    409450202
01 37135321  GF109  M  AZITROMICINA GF PPSO15ML.                   616256240001658800000 3981120009753744000       000  000  000  000  000  200         1  7702605100538       21133983       21135135   513498570001  N  0                      0GC3898C 01/06/2022       USD          397         2382    409450202
01 37135321  LR220  M  AZITROMICINA LF500 X3CA                    12 793799971 809999970 1943999889525599652       000  000  000  000  000  200         1  7594000020074       21135352       21135352   513498570001  N  0                         L2012 01/09/2022       USD          194         2326    409450202
01 37135321  PA054  M  BETADERM PLUS CREMA 15GR.                   315813951101613668480 1613668504744185330       000  000  000  000  000  200         1  7591243804164       21135213       21135135   513498570001  N  0                       9257701 01/06/2023       USD          386         1159    409450202
01 37135321  PA054  M  BETADERM PLUS CREMA 15GR.                   215813951101613668480 1613668503162790220       000  000  000  000  000  200         1  7591243804164       21133983       21135135   513498570001  N  0                       9257701 01/06/2023       USD          386          772    409450202
01 37135321  LT031  M  BIOTALOL 5MG. X30CO                         619364800001976000000 237120000       000       000  000  000  000  000  200         1  7591585217165       21135190       21135190   513498570001  N  0                           114 01/01/2023       USD          473         2838    409450202
01 37135321  GN091  M  CAPTOPRIL GN 25MG.X30CO                     6 815360000 832000000 1996800004892160000       000  000  000  000  000  200         1  7591585370167       21135352       21135135   513498570001  N  0                           119 01/04/2025       USD          199         1195    409450202
01 37135321  GN091  M  CAPTOPRIL GN 25MG.X30CO                     6 815360000 832000000 1996800004892160000       000  000  000  000  000  200         1  7591585370167       21133983       21135135   513498570001  N  0                           119 01/04/2025       USD          199         1195    409450202
01 37135321  11288  M  COLYPAN 200MG. X10TA                        611580660001181700000 1418040006948396000       000  000  000  000  000  200         1  7591821210264       21135190       21135190   513498570001  N  0                       2106193 01/06/2024       USD          283         1697    409450202
01 37135321  FA334  M  COLYPAN TAB. LP 300 X 20                    427154490822770866410 221669312       000       000  000  000  000  000  200         1  7591821902534       21135190       21135190   513498570001  N  0                       2104035 01/04/2024       USD          663         2653    409450202
01 37135321  PB015  C  DENCORUB ICE GEL 40GR.                      3 484783937 494677487  296806501454351811 232696290  000  000  000  000  200         1  7591309001049       21135352       21135512   513498570001  N  0                      A2106175 01/06/2024       USD          118          355    409450202
01 37135321  KF190  M  DERMAZOL 0,05% CR.30GR.                     115288000001560000000  624000001528800000       000  000  000  000  000  200         1  7591619519036       21135352       21135190   513498570001  N  0                          0062 01/06/2023       USD          373          373    409450202
01 37135321  KF190  M  DERMAZOL 0,05% CR.30GR.                     115288000001560000000  624000001528800000       000  000  000  000  000  200         1  7591619519036       21135190       21135190   513498570001  N  0                          0062 01/06/2023       USD          373          373    409450202
01 37135321  PA874  M  DI EUDRIN 12,5MG. X24TA                    1212733101201299296041 311831052       000       000  000  000  000  000  200         1  7591243812374       21135213       21135213   513498570001  N  0                       9199103 01/11/2023       USD          311         3732    409450202
01 37135321  EL369  M  FLATORIL GOTAS 20CC.                        210681385311089937277  435974922136277062       000  000  000  000  000  200         1  7591062166191       21135485       21135485   513498570001  N  0                        21017C 01/03/2023       USD          261          522    409450202
01 37135321  TQ530  M  GLIDAN 80MG. X20TA                          3 891800000 910000000 1092000002675400000       000  000  000  000  000  200         1  7591955002469       21135352       21135135   513498570001  N  0                          0027 01/05/2024       USD          218          653    409450202
01 37135321  TQ530  M  GLIDAN 80MG. X20TA                          3 891800000 910000000 1092000002675400000       000  000  000  000  000  200         1  7591955002469       21133983       21135135   513498570001  N  0                          0027 01/05/2024       USD          218          653    409450202
01 37135321  11423  M  HIDROCLOROTI GN12,5 X30CO                   313053404001331980000  799188003916021200       000  000  000  000  000  200         1  7591585172686       21135352       21135512   513498570001  N  0                           021 01/05/2023       USD          319          956    409450202
01 37135321  11794  M  MEZHITIN 10MG. X50CO                        237681482793845049264 1538019707536296558       000  000  000  000  000  200         1  7595368000050       21135352       21135512   513498570001  N  0                         13029 01/04/2023       USD          920         1841    409450202
01 37135321  ED730  M  NEMODINE 40MG. X20CO                        222295000002275000000  910000004459000000       000  000  000  000  000  200         1  7592803001221       21135213       21135213   513498570001  N  0                       2103502 01/04/2024       USD          545         1089    409450202
01 37135321  LT930  M  VIASEK COMPR. 50MG. X2                     12 541450000 552500000 1326000006497400000       000  000  000  000  000  200         1  7591585111005       21135485       21135513   513498570001  N  0                           094 01/04/2024       USD          132         1587    409450202
01 37135321  14780  M  ATORVASTATINA DAC40 X30TA                   316877952001722240000 1033344005063385600       000  000  000  000  000  200         2  7598578000254       21135352       21135352   513498570002  N  0                          V187 01/01/2024       USD          412         1237    409450202
01 37135321  GN694  M  MELOXICAM GN 15MG. X10CO                    6 777140000 793000000  951600004662840000       000  000  000  000  000  200         2  7591585178022       21135485       21135513   513498570002  N  0                           076 01/05/2023       USD          190         1139    409450202
01 37135321  12634  M  QUETIAPINA PSICO 25X30TA                    229600768543020486586 1208194645920153708       000  000  000  000  000  200         2  7501384546205       21135213       21135213   513498570002  N  0                       9040321 01/03/2023       USD          723         1446    409450202
01 37135321  11287  C  BRUCEN CR.DERMO RESTA30                     216367944321670198400  668079363273588864 523774218  000  000  000  000  200         3  7592090000075       21135190       21135190   513498570003  N  0                        210584 01/05/2024       USD          400          800    409450202
02 37135321        150  159826008343   11331280120    1813004819  172970293282    0    0    0  000    0    0    0   11/08/2021 10:29:16 a.m.   PR           000           000             0            24           USD    409450202        41802
