01 37137427  14271  M  ASARAP 20MG. X20CO                          169509440007092800000 1418560006950944000       000  000  000  000  000  200         1  7591585113344       21137516       21137516   513528110001  N  0                           004 01/05/2023       USD         1688         1688    411705464
01 37137427  11461  M  BRASARTAN 80MG. X10CA                       2 7452900001170000000 8494200001490580000       000  000  000 3500  000  200         1  7591821210301       21137516       21137516   513528110001  N  0                       2007119 01/08/2022       USD          181          362    411705464
01 37137427  10873  C  GUANTE QUIRU ONEUP 6.5                      6 372645000 380250000  456300002235870000 357739200  000  000  000  000  200         1  7596370000168       21137516       21137516   513528110001  N  0                 203051064SLZA 01/11/2022       USD          091          543    411705464
01 37137427  10618  M  VARTERAL 160-5 X14CA.BL.                    213481536791375667019  550266802696307358       000  000  000  000  000  200         1  7703153033408       21137516       21137516   513528110001  N  0                       1325290 01/11/2022       USD          327          655    411705464
02 37137427         11   11137831358    2235870000     357739200   13731440558    0    0    0  000    0    0    0   12/08/2021 11:08:49 a.m.   PR           000           000             0             4           USD    411705464         3248
