01 37139660  AP370  M  METREN 500MG.CAPS.VAG.X10                   316009084001633580000  980148004802725200       000  000  000  000  000  200         1  7592601200314       21139317       21139317   513548510001  N  0                        126702 01/08/2023       USD          389         1168    411336568
01 37139660  LO414  M  NAS SOL.GOTAS AD. 15ML.                     6 544468385 555579985  666696003266810310       000  000  000  000  000  200         1  7591196003140       21139317       21139317   513548510001  N  0                       I120060 01/12/2022       USD          132          794    411336568
01 37139660  LO419  M  NAS SOL.NASAL PED.15ML.                     6 544468385 555579985  666696003266810310       000  000  000  000  000  200         1  7591196003027       21139317       21139317   513548510001  N  0                        110829 01/11/2022       USD          132          794    411336568
01 37139660  LP220  M  PROTOSULFIL 1% CR. 30GR.                    212994800001560000000 5210400002598960000       000  000  000 1500  000  200         1  7591955001486       21139188       21139188   513548510001  N  0                          0297 01/07/2022       USD          316          632    411336568
01 37139660  LO690  M  RINOMAX SOL. NASAL 15ML.                    3 804771809 821195723  492717422414315427       000  000  000  000  000  200         1  7591196000682       21139317       21139317   513548510001  N  0                       I011084 01/02/2023       USD          196          587    411336568
02 37139660         20   16349621247           000           000   16349621247    0    0    0  000    0    0    0   13/08/2021 01:35:21 p.m.   PR           000           000             0             5           USD    411336568         3975
