01 37138988  GN108  M  ATORVASTATINA GN 40MG. X30                  219390280001978600000  791440003878056000       000  000  000  000  000  200         1  7591585373458       21138193       21138193   513537960001  N  0                           136 01/05/2023       USD          471          943    411336568
01 37138988  VC380  M  DIARONA 200MG. X10TA                        217326400001768000000  707200003465280000       000  000  000  000  000  200         1  7592782000116       21138193       21138193   513537960001  N  0                       2140007 01/04/2025       USD          421          842    411336568
01 37138988  13509  M  DISMIGRAS 40MGX30 TAB                       218336834881871105600  748442243667366976       000  000  000  000  000  200         1  8904159624938       21138193       21138193   513537960001  N  0                     BRA03115A 01/02/2022       USD          446          892    411336568
01 37138988  FA018  M  FITEX 20MG. X1TA                           12 209131181 213399164  512157962509574172       000  000  000  000  000  200         1  7591821904293       21138193       21138193   513537960001  N  0                       2006366 01/10/2022       USD          051          610    411336568
01 37138988  CE120  M  NIOSILIN UNG. 20GR.TUBO                     112657190001291550000  258310001265719000       000  000  000  000  000  200         1  7594003280048       21138193       21138193   513537960001  N  0                       2103023 01/03/2023       USD          308          308    411336568
01 37138988  PB089  C  OVERSKIN 40% CR. 50GR.                      3 630465307 643331946  385999171891395921 302623347  000  000  000  000  200         2  7591309000622       21138193       21138193   513537960002  N  0                      A2106196 01/06/2024       USD          153          460    411336568
01 37138988  LC314  N  FLUVIRIN JBE. 120ML.                        313886600001417000000  850200004165980000       000  000  000  000  000  200         3  7591585111166       21138499       21138499   513537960003  N  0                           224 01/04/2023       USD          338         1013    411336568
02 37138988         25   18951976148    1891395921     302623347   21145995416    0    0    0  000    0    0    0   13/08/2021 10:16:18 a.m.   PR           000           000             0             7           USD    411336568         5067
