01 37137054  PA054  M  BETADERM PLUS CREMA 15GR.                   215813951101613668480  645467403162790220       000  000  000  000  000  200         1  7591243804164       21136776       21136776   513519200001  N  0                       9257701 01/06/2023       USD          384          768    411705464
01 37137054  WI110  M  CLOPACT 75MG. X30TA                         315647316111596664909  957998944694194833       000  000  000  000  000  200         1  8901079005410       21136776       21136776   513519200001  N  0                     FGJ011002 01/12/2022       USD          380         1140    411705464
01 37137054  KL249  M  DERMOSUPRIL CR. 0,1% 15GR.                  117836000001820000000  364000001783600000       000  000  000  000  000  200         1  7591619000985       21136776       21136776   513519200001  N  0                          0001 01/06/2026       USD          433          433    411705464
01 37137054  PA010  M  LOGANIL JBE.PED. 120ML.                     2 972280873 992123340  396849341944561746       000  000  000  000  000  200         1  7591243831511       21136776       21136776   513519200001  N  0                       9253702 01/04/2023       USD          236          472    411705464
01 37137054  13504  M  PEGYT 150MG X20 CAP                         226066040002659800000 1063920005213208000       000  000  000  000  000  200         1  7591585317025       21136776       21136776   513519200001  N  0                           006 01/06/2024       USD          633         1266    411705464
01 37137054  14110  M  ACETAMINOFEN GOTAS X15ML                    3 438256000 447200000  268320001314768000       000  000  000  000  000  200         2  7592236001997       21136776       21136776   513519200002  N  0                          4451 01/05/2023       USD          106          319    411705464
02 37137054         13   18113122799           000           000   18113122799    0    0    0  000    0    0    0   12/08/2021 10:06:30 a.m.   PR           000           000             0             6           USD    411705464         4400
