01 37135775  11105  M  ALBENDA ALFA 400 X100TA                     21815450000018525000000 741000000       000       000  000  000  000  000  200         1  7468999193111       21135190       21135190   513498560001  N  0                         20962 01/09/2025       USD         4434         8868    409450202
01 37135775  13482  M  ALOPURINOL 100MGX30 TAB                     310468458001068210000 1068210003140537400       000  000  000  000  000  200         1  7598176000137       21135352       21135135   513498560001  N  0                       TEMH218 01/07/2023       USD          256          767    409450202
01 37135775  13482  M  ALOPURINOL 100MGX30 TAB                     210468458001068210000 1068210002093691600       000  000  000  000  000  200         1  7598176000137       21133983       21135135   513498560001  N  0                       TEMH218 01/07/2023       USD          256          511    409450202
01 37135775  14700  M  AMIKACINA KM500 2ML.10A                     148157200004914000000  982800004815720000       000  000  000  000  000  200         1  6942189211454       21133983       21135135   513498560001  N  0                        201081 01/10/2023       USD         1176         1176    409450202
01 37135775  GN939  M  AMLODIPINA GN10MG. X10CO                    6 223905500 228475000  548340001343433000       000  000  000  000  000  200         1  7591585178176       21135352       21135135   513498560001  N  0                           187 01/01/2023       USD          055          328    409450202
01 37135775  GN939  M  AMLODIPINA GN10MG. X10CO                    6 223905500 228475000  548340001343433000       000  000  000  000  000  200         1  7591585178176       21133983       21135135   513498560001  N  0                           187 01/01/2023       USD          055          328    409450202
01 37135775  13995  M  AMLODIPINO GF5MG. X10TA                     6 262444000 267800000  321360001574664000       000  000  000  000  000  200         1  7702605160174       21135190       21135190   513498560001  N  0                       A00096A 01/07/2023       USD          064          385    409450202
01 37135775  11716  M  ARUDIL 20MG. X10TA                          240131000004095000000 3276000008026200000       000  000  000  000  000  200         1  7591821210028       21135352       21135135   513498560001  N  0                       2105171 01/05/2023       USD          980         1960    409450202
01 37135775  11716  M  ARUDIL 20MG. X10TA                          240131000004095000000 3276000008026200000       000  000  000  000  000  200         1  7591821210028       21133983       21135135   513498560001  N  0                       2105171 01/05/2023       USD          980         1960    409450202
01 37135775  14538  M  ATENOLOL LAND50 X100TA                      233353320003403400000 2042040006670664000       000  000  000  000  000  200         1  7598008000175       21135352       21135135   513498560001  N  0                         T9044 01/09/2023       USD          815         1629    409450202
01 37135775  14538  M  ATENOLOL LAND50 X100TA                      133353320003403400000 2042040003335332000       000  000  000  000  000  200         1  7598008000175       21133983       21135135   513498560001  N  0                         T9044 01/09/2023       USD          815          815    409450202
01 37135775  12909  M  AZOPT SOL. OF 2%/5% X5ML                    117122560001747200000  349440001712256000       000  000  000  000  000  200         1  7598055000043       21133983       21135135   513498560001  N  0                            16 01/08/2022       USD          418          418    409450202
01 37135775  PA126  M  BETADERM CR. 0,05% 15GR.                    214802432471510452293 1208361842960486494       000  000  000  000  000  200         1  7591243804140       21135213       21135135   513498560001  N  0                       9231903 01/02/2023       USD          362          723    409450202
01 37135775  PA126  M  BETADERM CR. 0,05% 15GR.                    214802432471510452293 1208361842960486494       000  000  000  000  000  200         1  7591243804140       21133983       21135135   513498560001  N  0                       9231903 01/02/2023       USD          362          723    409450202
01 37135775  ED100  M  CINAREN CAPS. 75MG. X20                     217836000001820000000  728000003567200000       000  000  000  000  000  200         1  7592803000118       21135190       21135190   513498560001  N  0                       2104504 01/04/2025       USD          436          871    409450202
01 37135775  DP026  M  CLOTRIMAZOL DP10%CR.V.7GR                   412800791461306203210 1044962565120316584       000  000  000  000  000  200         1  7592616584157       21135213       21135213   513498560001  N  0                         10312 01/04/2024       USD          313         1251    409450202
01 37135775  KN330  M  CURPINOL 25MG. X30CO                        220384000002080000000  832000004076800000       000  000  000  000  000  200         1  7591955558225       21135352       21135512   513498560001  N  0                          0023 01/01/2024       USD          498          996    409450202
01 37135775  13411  M  DILUXEN 60MG X20 TAB                        122755601962322000200  464400042275560196       000  000  000  000  000  200         1  7591821210462       21135352       21135512   513498560001  N  0                       2008067 01/10/2022       USD          556          556    409450202
01 37135775  NP002  M  FARMA D 1000UI X30TA                        412039300001228500000  982800004815720000       000  000  000  000  000  200         1  7591821102101       21135485       21135513   513498560001  N  0                       2106142 01/06/2024       USD          294         1176    409450202
01 37135775  FA109  M  FARMACAINA POM. 35GR                        217199000001755000000  702000003439800000       000  000  000  000  000  200         1  7592229001294       21135190       21135190   513498560001  N  0                       2105214 01/05/2024       USD          420          840    409450202
01 37135775  10616  M  KETIAN 25MG. X10TA                          214228214011451858572  580743422845642802       000  000  000  000  000  200         1  7592432018065       21135352       21135512   513498560001  N  0                       1336223 01/02/2023       USD          347          695    409450202
01 37135775  ED008  M  MUCLAR 30MG-5MG X10CO                       1 942760000 962000000  19240000 942760000       000  000  000  000  000  200         1  7592803002594       21135213       21135213   513498560001  N  0                       2104514 01/04/2023       USD          230          230    409450202
01 37135775  13286  M  TENOREN 100MG X30TAB                        6 611520000 624000000 1497600003669120000       000  000  000  000  000  200         1  7598055000562       21135352       21135135   513498560001  N  0                         KK076 01/01/2025       USD          149          896    409450202
01 37135775  13286  M  TENOREN 100MG X30TAB                        6 611520000 624000000 1497600003669120000       000  000  000  000  000  200         1  7598055000562       21133983       21135135   513498560001  N  0                         KK076 01/01/2025       USD          149          896    409450202
01 37135775  12136  M  TONERVOL 5MG. X10TA                         2 7846263301000798890 4323451201569252660       000  000  000 2000  000  200         1  7591821210431       21135352       21135512   513498560001  N  0                       1909074 01/11/2021       USD          192          383    409450202
01 37135775  12143  M  TONERVOL 5MG. X30TA                         127604395002816775000  563355002760439500       000  000  000  000  000  200         1  7591821210547       21135352       21135512   513498560001  N  0                       1910203 01/01/2022       USD          674          674    409450202
02 37135775         71  123063835730           000           000  123063835730    0    0    0  000    0    0    0   11/08/2021 11:27:59 a.m.   PR           000           000             0            20           USD    409450202        30056
