01 37136275  LR140  M  AMOXICILINA LF250MG.SUSP.                   6 974667585 994558760 1193470505848005510       000  000  000  000  000  200         1  7594000020043       21135190       21135190   513498580001  N  0                         L2109 01/07/2024       USD          238         1428    409450202
01 37136275  NP007  M  BETADINE 10% SO.TOP.120ML                   122358700002281500000  912600002235870000       000  000  000  000  000  200         1  7591821102231       21135352       21135135   513498580001  N  0                       2009824 01/11/2022       USD          546          546    409450202
01 37136275  NP007  M  BETADINE 10% SO.TOP.120ML                   122358700002281500000  912600002235870000       000  000  000  000  000  200         1  7591821102231       21133983       21135135   513498580001  N  0                       2009824 01/11/2022       USD          546          546    409450202
01 37136275  PD710  M  CLENBUXOL JBE. AD. 120CC.                   212740000001300000000  520000002548000000       000  000  000  000  000  200         1  7591955000151       21135213       21135213   513498580001  N  0                          0064 01/03/2024       USD          311          622    409450202
01 37136275  KN400  M  FERGANIC FOLIC GOTAS 30ML                   216562000001690000000  676000003312400000       000  000  000  000  000  200         1  7591955003077       21135190       21135190   513498580001  N  0                          0071 01/03/2023       USD          404          809    409450202
01 37136275  PD390  M  FLEMICAINE SOL.TOP. 5ML.                    110192000001040000000  208000001019200000       000  000  000  000  000  200         1  7591955000489       21135190       21135190   513498580001  N  0                          0026 01/09/2023       USD          249          249    409450202
01 37136275  MG604  M  FULGRAM 600/42,9SUSP.60CC                   233550790003423550000 2738840006710158000       000  000  000  000  000  200         1  7591585113139       21135352       21135135   513498580001  N  0                           328 01/03/2023       USD          819         1639    409450202
01 37136275  MG604  M  FULGRAM 600/42,9SUSP.60CC                   233550790003423550000 2738840006710158000       000  000  000  000  000  200         1  7591585113139       21133983       21135135   513498580001  N  0                           328 01/03/2023       USD          819         1639    409450202
01 37136275  TQ175  M  GRAUSIN JBE. 120ML.                         211466000001170000000  468000002293200000       000  000  000  000  000  200         1  7591955002452       21135485       21135513   513498580001  N  0                          0029 01/07/2023       USD          280          560    409450202
01 37136275  ED384  M  MUCLAR JBE. 30/5MG  60ML                    212740000001300000000  520000002548000000       000  000  000  000  000  200         1  7592803002402       21135213       21135213   513498580001  N  0                       2105536 01/05/2023       USD          311          622    409450202
01 37136275  PB003  N  WAMPOLE EMUL. NRJA.240CC.                   3 616977592 629568971  377741371850932776 296149244  000  000  000  000  200         1  7591309000608       21133983       21135135   513498580001  N  0                      A2107213 01/07/2023       USD          151          452    409450202
01 37136275  PB006  N  WAMPOLE EMUL.T.FRUTI240ML                   3 616977592 629568971  377741371850932776 296149244  000  000  000  000  200         1  7591309000967       21133983       21135135   513498580001  N  0                      A2106188 01/06/2023       USD          151          452    409450202
01 37136275  11042  N  CITRATO DE POTASIO FG 1LT                   218962373721934936094  773974443792474744       000  000  000  000  000  200         2       25526479       21133983       21135135   513498580002  N  0                          2402 01/06/2024       USD          463          926    409450202
02 37136275         29   42955201806           000     592298488   43547500294    0    0    0  000    0    0    0   11/08/2021 02:57:23 p.m.   PR           000           000             0            11           USD    409450202        10491
