01 37143105  14271  M  ASARAP 20MG. X20CO                          269509440007092800000 283712000       000       000  000  000  000  000  200         1  7591585113344       21141604       21141604   513574870001  N  0                           004 01/05/2023       USD         1691         3382    411049800
01 37143105  14780  M  ATORVASTATINA DAC40 X30TA                   416877952001722240000 1377792006751180800       000  000  000  000  000  200         1  7598578000254       21141604       21141604   513574870001  N  0                          V187 01/01/2024       USD          411         1642    411049800
01 37143105  15220  C  CALAMINOL FRESH LOT.104ML                   213383370001365650000  546260002676674000 428267840  000  000  000  000  200         1       75971748       21141901       21141901   513574870001  N  0                       2106501 01/06/2024       USD          326          651    411049800
01 37143105  PA934  M  DIAGESIC 75MG. 3ML. X2A                     221653021852209492026  883796824330604370       000  000  000  000  000  200         1  7591243811704       21141442       21141442   513574870001  N  0                       9212501 01/03/2023       USD          527         1054    411049800
01 37143105  VC380  M  DIARONA 200MG. X10TA                        217326400001768000000  707200003465280000       000  000  000  000  000  200         1  7592782000116       21141495       21141495   513574870001  N  0                       2140007 01/04/2025       USD          422          843    411049800
01 37143105  14624  M  DICLOFENAC S. GN50 X10CO                    6 229320000 234000000  280800001375920000       000  000  000  000  000  200         1  7591585473967       21141495       21141495   513574870001  N  0                          6731 01/02/2026       USD          056          335    411049800
01 37143105  AY171  C  JER 3CC 21X1-1/2 KX X100                    140640600004147000000  829400004064060000 650249600  000  000  000  000  200         1 10813333013824       21141442       21141442   513574870001  N  0                        201116 01/11/2025       USD          989          989    411049800
01 37143105  GN534  M  KETOPROFENO GN100 2ML.X2A                   2 853580000 871000000  348400001707160000       000  000  000  000  000  200         1  7591585170781       21141495       21141495   513574870001  N  0                           090 01/03/2023       USD          208          415    411049800
01 37143105  14494  A  LACTOVAC SUSP. 12ML.                       12 890872783 909053860 218172924       000       000  000  000  000  000  200         1  7596855000027       21141604       21141604   513574870001  N  0                   P0104210712 01/04/2022       USD          217         2601    411049800
01 37143105  12379  M  LOSARTAN P HTC 50-12,5X30                   311981970001222650000  733590003594591000       000  000  000  000  000  200         1  7598176000090       21141442       21141442   513574870001  N  0                       21T0427 01/03/2024       USD          291          874    411049800
01 37143105  DP720  M  SULFADIAZINA P.DP CR.30GR                   213566433351457189404 2010921382713286670       000  000  000  500  000  200         1  7592616480015       21141442       21141442   513574870001  N  0                         10313 01/04/2023       USD          330          660    411049800
01 37143105  12124  C  BOROCANFOR COOL.PVO.35GR                    2 615214600 627770000  251108001230429200 196868672  000  000  000  000  200         2       75971434       21141604       21141604   513574870002  N  0                       2105301 01/05/2023       USD          150          299    411049800
01 37143105  12123  C  BOROCANFOR ORIG.PVO.35GR                    2 615214600 627770000  251108001230429200 196868672  000  000  000  000  200         2       75971427       21141604       21141604   513574870002  N  0                       2106301 01/06/2023       USD          150          299    411049800
01 37143105  ED165  C  NOPUCID CH. 100 CC.                         212612600001287000000  514800002522520000 403603200  000  000  000  000  200         2  7592803000811       21141604       21141604   513574870002  N  0                       2105539 01/05/2023       USD          307          614    411049800
01 37143105  ED175  C  NOPUCID LOC. 100 CC.                        213663650001394250000  557700002732730000 437236800  000  000  000  000  200         2  7592803000835       21141604       21141604   513574870002  N  0                       2101475 01/01/2023       USD          332          665    411049800
01 37143105  JN100  N  JENGIMIEL JBE.AD. 120ML.                    211848200001209000000  483600002369640000       000  000  000  000  000  200         3  7592520000019       21141604       21141604   513574870003  N  0                        030221 01/02/2023       USD          288          576    411049800
02 37143105         48   50900024236   14456842400    2313094784   67669961420    0    0    0  000    0    0    0   17/08/2021 01:51:39 p.m.   PR           000           000             0            16           USD    411049800        15900
