01 37149167  11640  M  CYTRIAX 1GR.IV-IM. X1                      12 585314447 597259640 1433423167023773364       000  000  000  000  000  200         1       75971342       21147472       21147472   513645080001  N  0                       3121034 01/02/2024       USD          142         1703    412346432
01 37149167  14426  M  HIDROCOR AL500IM/IM X1AM                    218027170301839507173  735802863605434060       000  000  000  000  000  200         1  7597758000695       21148138       21148138   513645080001  N  0                       2120170 01/07/2023       USD          437          874    412346432
01 37149167  PD124  M  TRIDETARMON CR. 15GR.                       215288000001560000000  624000003057600000       000  000  000  000  000  200         1  7591955000762       21147472       21147472   513645080001  N  0                          0081 01/04/2023       USD          371          742    412346432
01 37149167  MY100  M  AD VIT SUSP. 240ML.                         326811330002735850000 1641510008043399000       000  000  000  000  000  200         2  7592601100010       21147272       21147272   513645080002  N  0                        113302 01/03/2023       USD          650         1951    412346432
01 37149167  MO003  M  BROLAT 5-30 SO.ORAL 60ML.                   216471546001680770000  672308003294309200       000  000  000  000  000  200         2  7592601301585       21148138       21148138   513645080002  N  0                        135601 01/05/2023       USD          399          799    412346432
01 37149167  11583  M  PERIDONT T.BUCAL 240ML.                     2 867210888 884909069  353963621734421776       000  000  000  000  000  200         2  7591196007193       21148138       21148138   513645080002  N  0                       I061456 01/06/2023       USD          210          421    412346432
02 37149167         23   26758937400           000           000   26758937400    0    0    0  000    0    0    0   23/08/2021 11:09:06 a.m.   PR           000           000             0             6           USD    412346432         6489
