01 37149574  14700  M  AMIKACINA KM500 2ML.10A                     348157200004914000000 393120000       000       000  000  000  000  000  200         1  6942189211454       21148138       21147272   513645060001  N  0                        201081 01/10/2023       USD         1168         3504    412346432
01 37149574  14700  M  AMIKACINA KM500 2ML.10A                     148157200004914000000 3931200004815720000       000  000  000  000  000  200         1  6942189211454       21147272       21147272   513645060001  N  0                        201081 01/10/2023       USD         1168         1168    412346432
01 37149574  GN790  M  AMLODIPINA GN 5MG. X30CO                    6 738996440 777400000 2304213604433978640       000  000  000  300  000  200         1  7591585278166       21148215       21148215   513645060001  N  0                           384 01/02/2024       USD          179         1075    412346432
01 37149574  12133  M  AMOXICILINA BM500 X100CA                    657330000005850000000 702000000       000       000  000  000  000  000  200         1  6930169708261       21148138       21148138   513645060001  N  0                        210434 01/04/2024       USD         1390         8342    412346432
01 37149574  KV004  M  ANTILAX 2MG. X10TA                          6 533169000 544050000  652860003199014000       000  000  000  000  000  200         1  7591821102095       21148236       21148236   513645060001  N  0                       2010043 01/10/2022       USD          129          776    412346432
01 37149574  14780  M  ATORVASTATINA DAC40 X30TA                   616877952001722240000 206668800       000       000  000  000  000  000  200         1  7598578000254       21147272       21147272   513645060001  N  0                          V187 01/01/2024       USD          409         2456    412346432
01 37149574  12172  M  BETAHISTINA BP16MG. X60CO                   240801124004163380000 1665352008160224800       000  000  000  000  000  200         1        5410493       21148138       21148138   513645060001  N  0                      L2106951 01/05/2023       USD          989         1979    412346432
01 37149574  PO195  M  DECOBEL VIAL 8MG. 2ML.                      2 815614800 858000000  847704001631229600       000  000  000  300  000  200         1  7592806112047       21147272       21147272   513645060001  N  0                        104052 01/04/2024       USD          198          396    412346432
01 37149574  15083  M  DEXAMETASONA BM8/2ML.X10A                   219110000001950000000  780000003822000000       000  000  000  000  000  200         1  7598127001084       21148215       21148215   513645060001  N  0                        210170 01/01/2024       USD          463          927    412346432
01 37149574  13492  M  DOMPERIDONA 10MGX30 TAB                     3 964863900 984555000  590733002894591700       000  000  000  000  000  200         1  7598176000212       21148138       21148138   513645060001  N  0                       21T0422 01/03/2024       USD          234          702    412346432
01 37149574  14429  M  ENALAPRIL GN 20MG. X10CO                    4 180589500 184275000  14742000 722358000       000  000  000  000  000  200         1  7591585278531       21147272       21147272   513645060001  N  0                           421 01/05/2023       USD          044          175    412346432
01 37149574  14429  M  ENALAPRIL GN 20MG. X10CO                    2 180589500 184275000   7371000 361179000       000  000  000  000  000  200         1  7591585278531       21147272       21147272   513645060001  N  0                           421 01/05/2023       USD          044          088    412346432
01 37149574  10372  M  GYNOMET 15%-4%CR.VAG.40GR                   318217868761916460000 2840193725465360628       000  000  000  300  000  200         1  7591585119131       21148138       21148138   513645060001  N  0                           054 01/02/2023       USD          442         1325    412346432
01 37149574  15332  M  HIERRO SACA.LAND20MG.10A                    11118317200011411400000 228228000       000       000  000  000  000  000  200         1  7598008000892       21148236       21148236   513645060001  N  0                       IR12101 01/03/2023       USD         2712         2712    412346432
01 37149574  15230  M  METRONIDAZOL LAND500 10TV                   212612600001287000000  514800002522520000       000  000  000  000  000  200         1  7598008000939       21147272       21147272   513645060001  N  0                         T9480 01/02/2024       USD          306          612    412346432
01 37149574  14764  M  RIFAMICINA ZU1% SOL.25ML.                   311870910931211317442  726790473561273279       000  000  000  000  000  200         1  7840282039298       21147472       21147472   513645060001  N  0                        E52284 01/01/2024       USD          288          864    412346432
01 37149574  SP007  M  SECNIDAZOL SP 500MG. X4CO                   3 629037500 641875000  385125001887112500       000  000  000  000  000  200         1  7590027002406       21147272       21147272   513645060001  N  0                           711 01/06/2023       USD          153          458    412346432
01 37149574  12393  M  TAMSUWELL 0.4MG X100CO                      168830398007023510000 1404702006883039800       000  000  000  000  000  200         1  8904307701177       21147272       21147272   513645060001  N  0                         11348 01/05/2024       USD         1669         1669    412346432
01 37149574  12143  M  TONERVOL 5MG. X30TA                         127604395002816775000  563355002760439500       000  000  000  000  000  200         1  7591821210547       21147272       21147272   513645060001  N  0                       1910203 01/01/2022       USD          669          669    412346432
01 37149574  12086  M  VIT E VP 400MG. X15CA.BLA                   511187412451141572699 1141572705593706225       000  000  000  000  000  200         1  7592432901428       21148138       21148138   513645060001  N  0                        200291 01/10/2023       USD          271         1357    412346432
01 37149574  12086  M  VIT E VP 400MG. X15CA.BLA                   111187412451141572699  228314541118741245       000  000  000  000  000  200         1  7592432901428       21148138       21148138   513645060001  N  0                        210007 01/11/2023       USD          271          271    412346432
01 37149574  14109  M  ACETAMINOFEN QF JBE.120ML                   7 586995500 617500000 2135315004108968500       000  000  000  300  000  200         2  7592236001980       21147272       21147272   513645060002  N  0                          7671 01/07/2023       USD          142          996    412346432
01 37149574  LX103  M  CARNISIN 1G.S.ORAL S/A180                   327391000002795000000 1677000008217300000       000  000  000  000  000  200         2  7591585112323       21147272       21147272   513645060002  N  0                           054 01/04/2023       USD          664         1993    412346432
02 37149574         73  142313860617           000           000  142313860617    0    0    0  000    0    0    0   23/08/2021 02:05:56 p.m.   PR           000           000             0            22           USD    412346432        34513
