01 37140570  13419  M  APLACAL SAB.BAN 750MGX10T                   210318126001052870000  421148002063625200       000  000  000  000  000  200         1  7592601303176       21140215       21140215   513556610001  N  0                        039501 01/09/2022       USD          250          499    413548809
01 37140570  13420  M  APLACAL SAB.FRA750MG X10T                   210318126001052870000  421148002063625200       000  000  000  000  000  200         1  7592601303145       21140215       21140215   513556610001  N  0                        039602 01/10/2022       USD          250          499    413548809
01 37140570  KL033  M  COROPRES H 8/12,5 X30CO                     222932000002340000000  936000004586400000       000  000  000  000  000  200         1  7591619520353       21140242       21140242   513556610001  N  0                          0004 01/02/2024       USD          555         1109    413548809
01 37140570  LO509  M  DESLORAT 0,5MG. JBE.60ML.                   3 891755944 909955045  545973032675267832       000  000  000  000  000  200         1  7591196004161       21140242       21140242   513556610001  N  0                        031024 01/03/2023       USD          216          647    413548809
01 37140570  CO245  M  EUSILEN 4MG. 2ML. X1KIT                     2 755408956 856472739 2021275661510817912       000  000  000 1000  000  200         1  7591818113028       21140242       21140242   513556610001  N  0                         10035 01/03/2024       USD          183          365    413548809
01 37140570  VM031  M  TADAFOX 20MG. X1TA                         12 195643224 199635943  479126282347718688       000  000  000  000  000  200         1  7591020008754       21140158       21140158   513556610001  N  0                            05 01/10/2022       USD          047          568    413548809
01 37140570  14847  M  VERALEN 1,16% GEL TOP20GR                   3 552838637 564121058  338472631658515911       000  000  000  000  000  200         1  7591818716717       21140065       21140065   513556610001  N  0                         10018 01/04/2024       USD          134          401    413548809
01 37140570  MO006  M  LECART SOL.ORAL 120ML.                      215328768001564160000  625664003065753600       000  000  000  000  000  200         2  7592601301530       21139545       21139545   513556610002  N  0                        135102 01/06/2023       USD          371          741    413548809
01 37140570  MO006  M  LECART SOL.ORAL 120ML.                      115328768001564160000  312832001532876800       000  000  000  000  000  200         2  7592601301530       21139545       21139545   513556610002  N  0                        135102 01/06/2023       USD          371          371    413548809
02 37140570         29   21504601143           000           000   21504601143    0    0    0  000    0    0    0   16/08/2021 10:49:21 a.m.   PR           000           000             0             9           USD    413548809         5200
