01 37148553  12586  M  ACICLOVIR KMPLUS 200MGX10                   3 681080400 694980000  416988002043241200       000  000  000  000  000  200         1  6921875010748       21146832       21146832   513632440001  N  0                       2004421 01/04/2023       USD          165          496    412222338
01 37148553  12889  M  CAB 5 5MG 30TA                              6 519792000 530400000  636480003118752000       000  000  000  000  000  200         1  7598055000258       21146832       21146832   513632440001  N  0                         TA019 01/12/2022       USD          126          757    412222338
01 37148553  SP024  M  CARVEDILOL SP 6,25 X20CO                    3 796250000 812500000  487500002388750000       000  000  000  000  000  200         1  7590027002208       21146832       21146832   513632440001  N  0                           361 01/03/2023       USD          193          579    412222338
01 37148553  14228  M  DESLORATADINA GDG.PH 5X14                  12 544889800 556010000 1334424006538677600       000  000  000  000  000  200         1  7598307000067       21146832       21146832   513632440001  N  0                         SM018 01/12/2023       USD          132         1586    412222338
01 37148553  GN784  M  DESLORATADINA GN 5MG. X10                  12 426790000 435500000 1045200005121480000       000  000  000  000  000  200         1  7591585177469       21146832       21146832   513632440001  N  0                           088 01/03/2023       USD          104         1242    412222338
01 37148553  GN146  M  ENALAPRIL GN 20MG. X30CO                    6 533856960 561600000 1664582403203141760       000  000  000  300  000  200         1  7591585378538       21146832       21146832   513632440001  N  0                           420 01/03/2023       USD          130          777    412222338
01 37148553  LQ270  N  EPIVITAL CAPS. X15                          228836990002942550000 1177020005767398000       000  000  000  000  000  200         1  7592430000505       21146832       21146832   513632440001  N  0                      04120721 01/07/2023       USD          700         1399    412222338
01 37148553  GN534  M  KETOPROFENO GN100 2ML.X2A                   3 853580000 871000000  522600002560740000       000  000  000  000  000  200         1  7591585170781       21146832       21146832   513632440001  N  0                           090 01/03/2023       USD          207          621    412222338
01 37148553  LC409  M  MIGREN 650-50-1 X10CO                       3 617890000 650000000  963300001853670000       000  000  000  300  000  200         1  7591585115737       21146832       21146832   513632440001  N  0                           530 01/06/2023       USD          150          450    412222338
01 37148553  LX102  M  MIGREN 650-50-1 X20CO                       210467056601101100000 1087886802093411320       000  000  000  300  000  200         1  7591585415738       21146832       21146832   513632440001  N  0                           520 01/04/2023       USD          254          508    412222338
01 37148553  PD210  M  PRAXONA 150MG. X10CO                        110192000001040000000  208000001019200000       000  000  000  000  000  200         1  7591955000663       21146832       21146832   513632440001  N  0                          0053 01/02/2023       USD          247          247    412222338
01 37148553  LN200  C  POLIFIX POLVO 22GR.                         211304449271153515232  461406102260889854 361742377  000  000  000  000  200         2  7592348227506       21146832       21146832   513632440002  N  0                       2106507 01/06/2026       USD          274          548    412222338
01 37148553  LC580  N  ALLIXON NARANJA 240 CC.                     3 751660000 767000000  460200002254980000 360796800  000  000  000  000  200         3  7591585112439       21146832       21146832   513632440003  N  0                           344 01/12/2022       USD          182          547    412222338
01 37148553  14113  M  BROMEXINA 4MGX120ML                        12 484120000 494000000 1185600005809440000       000  000  000  000  000  200         3  7592236002055       21146832       21146832   513632440003  N  0                          7571 01/07/2023       USD          117         1409    412222338
02 37148553         70   43772881880    2260889854     722539177   46756310911    0    0    0  000    0    0    0   20/08/2021 03:17:30 p.m.   PR           000           000             0            14           USD    412222338        11167
