01 37147034  14696  M  AMPICILINA S. KM1.5GR.X1A                  12 343980000 351000000  842400004127760000       000  000  000  000  000  200         1  6921875007038       21145667       21145667   513619300001  N  0                       2008472 01/08/2023       USD          084         1010    408537225
01 37147034  14463  M  BROSIDUAL 100/300 X10CABL                   218562180001894100000  757640003712436000       000  000  000  000  000  200         1   793869810308       21145667       21145667   513619300001  N  0                      20100216 01/10/2022       USD          454          909    408537225
01 37147034  14107  M  GENTAM+BETAM+CLOTRIX30CR                    8 891800000 910000000 1456000007134400000       000  000  000  000  000  200         1  6930169708162       21145667       21145667   513619300001  N  0                        210215 01/02/2024       USD          218         1746    408537225
01 37147034  LC314  N  FLUVIRIN JBE. 120ML.                        313470002001417000000 2099994004041000600       000  000  000  300  000  200         2  7591585111166       21145667       21145667   513619300002  N  0                           224 01/04/2023       USD          330          989    408537225
02 37147034         25   19015596600           000           000   19015596600    0    0    0  000    0    0    0   19/08/2021 03:29:10 p.m.   PR           000           000             0             4           USD    408537225         4655
