01 37146403  LN001  M  ACICLOVIR LN CR.TOP.20GR.                   313436718751371093750  822656254031015625       000  000  000  000  000  200         1  7592348201117       21145499       21145499   513617540001  N  0                       2104102 01/04/2024       USD          329          987    408537225
01 37146403  GT119  M  ASAPROL 81MG. X100CO                       12340457390037700000004385113200       000       000  000  500  300  000  200         1  7591585261236       21145499       21145499   513617540001  N  0                           163 01/05/2023       USD          833        10000    408537225
01 37146403  12909  M  AZOPT SOL. OF 2%/5% X5ML                    117122560001747200000  349440001712256000       000  000  000  000  000  200         1  7598055000043       21145499       21145499   513617540001  N  0                            16 01/08/2022       USD          419          419    408537225
01 37146403  12025  M  CEFADROXILO DAC500 X10TA                   1210232258401076400000 638089920       000       000  000  000  300  000  200         1  8906121690033       21145499       21145499   513617540001  N  0                          V178 01/01/2023       USD          250         3006    408537225
01 37146403  14117  M  FANASAL  AD. X 15ML GTAS                   12 363090000 370500000  889200004357080000       000  000  000  000  000  200         1  7592236002215       21145499       21145499   513617540001  N  0                          6851 01/06/2023       USD          089         1066    408537225
01 37146403  15260  M  FLUCONAZOL BM150MG. X2CA                   12 452270000 461500000 1107600005427240000       000  000  000  000  000  200         1  7598127001060       21145499       21145499   513617540001  N  0                        210214 01/02/2024       USD          111         1328    408537225
01 37146403  GN694  M  MELOXICAM GN 15MG. X10CO                    7 777140000 793000000 1110200005439980000       000  000  000  000  000  200         1  7591585178022       21145499       21145499   513617540001  N  0                           074 01/04/2023       USD          190         1332    408537225
01 37146403  14125  M  PIPERZAN X120ML JBE                         6 560560000 572000000  686400003363360000       000  000  000  000  000  200         2  7592236002277       21145499       21145499   513617540002  N  0                          6261 01/06/2024       USD          137          823    408537225
02 37146403         65   77464528505           000           000   77464528505    0    0    0  000    0    0    0   19/08/2021 12:54:15 p.m.   PR           000           000             0             8           USD    408537225        18961
