01 37140016  PO550  M  MILAX POLVO 120GR.                          221785400002223000000  889200004357080000       000  000  000  000  000  200         1  7592806132038       21139419       21139419   513550200001  N  0                        106085 01/06/2024       USD          530         1059    411336568
01 37140016  12923  N  OMEGA 3 NS1000MG.X60CABL                    221384090002182050000  872820004276818000       000  000  000  000  000  200         1   646824222060       21139419       21139419   513550200001  N  0                         39459 01/06/2024       USD          520         1040    411336568
01 37140016  LT284  M  ANTUX SOL.ORAL 180ML.                       231595200003224000000 1289600006319040000       000  000  000  000  000  200         2  7591585214706       21139419       21139419   513550200002  N  0                           281 01/05/2023       USD          768         1536    411336568
01 37140016  14113  M  BROMEXINA 4MGX120ML                         6 484120000 494000000  592800002904720000       000  000  000  000  000  200         2  7592236002055       21139419       21139419   513550200002  N  0                          7571 01/07/2023       USD          118          706    411336568
01 37140016  LC314  N  FLUVIRIN JBE. 120ML.                        113886600001417000000  283400001388660000       000  000  000  000  000  200         2  7591585111166       21139419       21139419   513550200002  N  0                           224 01/04/2023       USD          338          338    411336568
02 37140016         13   19246318000           000           000   19246318000    0    0    0  000    0    0    0   13/08/2021 03:15:45 p.m.   PR           000           000             0             5           USD    411336568         4679
