01 37143853  12849  C  CREMA HI. DIA ANT-ED 50ML                   111286247531151657911  230331581128624753 180579960  000  000  000  000  200         1  7596211001033       21143136       21143136   513590670001  N  0                        210595 01/06/2024       USD          273          273    413016486
01 37143853  LT046  M  GENLET 200MG. X20CO                         220001800002041000000  816400004000360000       000  000  000  000  000  200         1  7591585110183       21143136       21143136   513590670001  N  0                           050 01/11/2022       USD          484          969    413016486
01 37143853  13052  M  GENODERM 2N00/0N035 X21CO                   237124360003788200000 1515280007424872000       000  000  000  000  000  200         1  7730564249029       21143136       21143136   513590670001  N  0                         41961 01/05/2024       USD          899         1798    413016486
01 37143853  LT037  M  LISILET 10MG. X30CO                         217517500001787500000  715000003503500000       000  000  000  000  000  200         1  7591585314369       21143136       21143136   513590670001  N  0                           130 01/11/2023       USD          424          848    413016486
01 37143853  FS250  C  PASTA AL AGUA 30GR. X6                      123811060002429700000  485940002381106000 380976960  000  000  000  000  200         1  7592368000967       21143136       21143136   513590670001  N  0                       0721076 01/07/2022       USD          577          577    413016486
01 37143853  15082  M  SANA 2% CR.VAG. 20GR.                       611147500001137500000 1365000006688500000       000  000  000  000  000  200         1  7598127001091       21143136       21143136   513590670001  N  0                        210310 01/03/2024       USD          270         1619    413016486
01 37143853  CH789  C  SECUREZZA CLASSIC GDE. X6                   316946789451729264230 1037558555084036835 813445894  000  000  000  000  200         1  7591353515011       21143136       21143136   513590670001  N  0                      10731101 01/07/2023       USD          410         1231    413016486
01 37143853  LT930  M  VIASEK COMPR. 50MG. X2                     12 341384225 359125000 2128893004096610700       000  000  000  300  000  200         1  7591585111005       21143136       21143136   513590670001  N  0                           094 01/04/2024       USD          083          992    413016486
01 37143853  PD680  M  CLENBUNAL GOTAS 15 CC.                      210192000001040000000  416000002038400000       000  000  000  000  000  200         2  7591955000144       21143136       21143136   513590670002  N  0                          0032 01/06/2023       USD          247          494    413016486
01 37143853  PD990  M  FERGANIC FOLIC JBE.120CC.                   124206000002470000000  494000002420600000       000  000  000  000  000  200         2  7591955002803       21143136       21143136   513590670002  N  0                          0105 01/03/2024       USD          586          586    413016486
01 37143853  ED379  M  VIZERUL 150MG. JBE.120ML.                   223569000002405000000  962000004713800000       000  000  000  000  000  200         2  7592803002389       21143136       21143136   513590670002  N  0                       2106559 01/06/2023       USD          571         1141    413016486
02 37143853         34   34886642700    8593767588    1375002814   44855413102    0    0    0  000    0    0    0   18/08/2021 08:22:40 a.m.   PR           000           000             0            11           USD    413016486        10528
