01 37140340  14831  M  BETAMETASONA JL4MG. X10A                    216893240001723800000  689520003378648000       000  000  000  000  000  200         1  7598650000172       21140158       21140158   513556620001  N  0                        N16291 01/07/2023       USD          408          817    413548809
01 37140340  MK027  M  DEFLAZACORT +MK 6MG. X10                    220129200002054000000  821600004025840000       000  000  000  000  000  200         1  7591519008197       21140158       21140158   513556620001  N  0                         31982 01/05/2024       USD          487          973    413548809
01 37140340  MK016  M  DOL 450-40-1 X20TA                          211848200001209000000  483600002369640000       000  000  000  000  000  200         1  7591519001587       21140242       21140242   513556620001  N  0                         31896 01/04/2024       USD          286          573    413548809
01 37140340  QM510  M  ESOZ 40MG. X14CAPS.MGE                      217542980001790100000  716040003508596000       000  000  000  000  000  200         1  7592454889292       21140158       21140158   513556620001  N  0                       3265769 01/04/2023       USD          424          848    413548809
01 37140340  13114  M  FINASTERIDE +MK 5MG X10TA                   210204740001041300000  416520002040948000       000  000  000  000  000  200         1  7591519317794       21140158       21140158   513556620001  N  0                         31847 01/04/2024       USD          247          494    413548809
01 37140340  GQ370  M  PIROXICAM ELTER20MG.X10CA                   3 861224000 878800000  527280002583672000       000  000  000  000  000  200         1  7592454172073       21140158       21140158   513556620001  N  0                       3248082 01/06/2025       USD          208          625    413548809
01 37140340  11893  M  TALYSTO 20MG. X1TA.MAST.                   12 212758000 217100000  521040002553096000       000  000  000  000  000  200         1  7592454891400       21140158       21140158   513556620001  N  0                       3267799 01/05/2023       USD          051          617    413548809
01 37140340  QO170  M  BROXOL FLEM PED. 120CC.                     313759200001404000000  842400004127760000       000  000  000  000  000  200         2  7592454000444       21140158       21140158   513556620002  N  0                       3269361 01/06/2023       USD          333          998    413548809
02 37140340         28   24588200000           000           000   24588200000    0    0    0  000    0    0    0   16/08/2021 09:46:04 a.m.   PR           000           000             0             8           USD    413548809         5946
