01 37141165  VP529  M  ALBISEC CAPS. X12                           221782236452222677189  889070884356447290       000  000  000  000  000  200         1  7703153037512       21140215       21140215   513556590001  N  0                       1328941 01/12/2023       USD          527         1053    413548809
01 37141165  FF230  M  BUDESONIDA MF 200MCG.200D                   356558256995771250713 346275042       000       000  000  000  000  000  200         1  7591096000133       21140242       21140242   513556590001  N  0                      070R002B 01/03/2023       USD         1368         4103    413548809
01 37141165  FF450  M  BUDESONIDA MF 50MCG.200D                    348483598804947306000 296838360       000       000  000  000  000  000  200         1  7591096000898       21140242       21140242   513556590001  N  0                      069R001E 01/02/2023       USD         1172         3517    413548809
01 37141165  14872  M  CARBAMAZEPINA FM200 X20TA                   6 764400000 780000000  936000004586400000       000  000  000  000  000  200         1  8906082150720       21140215       21140215   513556590001  N  0                         T0530 01/11/2023       USD          185         1109    413548809
01 37141165  12085  M  CEVAX 500MG. X15CA.BLA                      6 867746880 983840000 6965587205206481280       000  000 1000  000  000  200         1  7592432901381       21140065       21140065   513556590001  N  0                        210180 01/06/2023       USD          210         1259    413548809
01 37141165  VP990  M  CEVAX 500MG. X30CA.BLA                      61392216145157847635511175612608353296870       000  000 1000  000  000  200         1  7592432007649       21140065       21140065   513556590001  N  0                        210181 01/06/2023       USD          337         2020    413548809
01 37141165  GN146  M  ENALAPRIL GN 20MG. X30CO                    6 522849600 533520000  640224003137097600       000  000  000  000  000  200         1  7591585378538       21140158       21140158   513556590001  N  0                           420 01/03/2023       USD          126          759    413548809
01 37141165  VP664  M  EVIGAX 125MG. X20CA.BLA                     219683921552008563423  803425363936784310       000  000  000  000  000  200         1  7592432010212       21140065       21140065   513556590001  N  0                        210126 01/05/2024       USD          476          952    413548809
01 37141165  14117  M  FANASAL  AD. X 15ML GTAS                   12 363090000 370500000  889200004357080000       000  000  000  000  000  200         1  7592236002215       21140158       21140158   513556590001  N  0                          6851 01/06/2023       USD          088         1054    413548809
01 37141165  FA018  M  FITEX 20MG. X1TA                           12 209131181 213399164  512157962509574172       000  000  000  000  000  200         1  7591821904293       21140158       21140158   513556590001  N  0                       2006366 01/10/2022       USD          051          607    413548809
01 37141165  KL170  M  FURFURIL APOS.SOL. 30GR.                    114014000001430000000  286000001401400000       000  000  000  000  000  200         1  7591619122014       21140242       21140242   513556590001  N  0                          0110 01/05/2022       USD          339          339    413548809
01 37141165  GN166  M  LOSARTAN P. GN 100 X30CO                    613147680001341600000 1609920007888608000       000  000  000  000  000  200         1  7591585378927       21140065       21140065   513556590001  N  0                           154 01/05/2024       USD          318         1908    413548809
01 37141165  HI240  M  MANITOL 18%SOL.N38 500CC.                   316285121401661747082  997048264885536420       000  000  000  000  000  200         1  7592637001190       21140215       21140215   513556590001  N  0                       2100004 01/03/2023       USD          394         1181    413548809
01 37141165  LC409  M  MIGREN 650-50-1 X10CO                       2 637000000 650000000  260000001274000000       000  000  000  000  000  200         1  7591585115737       21140158       21140158   513556590001  N  0                           526 01/06/2023       USD          154          308    413548809
01 37141165  LX102  M  MIGREN 650-50-1 X20CO                       210790780001101100000  440440002158156000       000  000  000  000  000  200         1  7591585415738       21140158       21140158   513556590001  N  0                           519 01/04/2023       USD          261          522    413548809
01 37141165  NP024  M  NOTOLAC 20MG. X10TA                         311475007181170919100  702551463442502154       000  000  000  000  000  200         1  7591821902022       21140158       21140158   513556590001  N  0                       2101002 01/03/2024       USD          277          832    413548809
01 37141165  LT885  M  TENSOPIN 10MG. X20CO.DISP                   2 9809800001001000000  400400001961960000       000  000  000  000  000  200         1  7591585111784       21140242       21140242   513556590001  N  0                           164 01/06/2023       USD          237          474    413548809
01 37141165  LP250  M  TOLNAFTAN SOL. 15 CC.                       211466000001170000000  468000002293200000       000  000  000  000  000  200         1  7591955001622       21140065       21140065   513556590001  N  0                          0030 01/07/2023       USD          277          555    413548809
01 37141165  10708  C  GEL FACIAL SALIDER 20GR                     7 958685000 978250000 13695500067107950001073727200  000  000  000  000  200         2  7593668000015       21140065       21140065   513556590002  N  0                       A201203 01/12/2025       USD          232         1623    413548809
01 37141165  10709  C  SOL FACIAL SALIDER 120ML                    312599860001285700000  771420003779958000 604793280  000  000  000  000  200         2  7593668000046       21140065       21140065   513556590002  N  0                       A200902 01/09/2025       USD          305          914    413548809
01 37141165  RZ390  M  ANANTY FORTE SUSP.PED.120                   6 603410990 615725500  738870603620465940       000  000  000  000  000  200         3  7594001101581       21140158       21140158   513556590003  N  0                          5997 01/07/2023       USD          146          875    413548809
01 37141165  11743  N  CITRATO POTASIO BF10%1LT.                   622318723372277420752 273290490       000       000  000  000  000  000  200         3  7591616000704       21139545       21139545   513556590003  N  0                        211712 01/07/2024       USD          540         3238    413548809
01 37141165  GN759  M  DESLORATADINA GN S.ORAL60                   8 656110000 669500000 2678000005248880000       000  000  000  000  000  200         3  7591585177445       21140242       21140158   513556590003  N  0                           051 01/03/2023       USD          159         1269    413548809
01 37141165  GN759  M  DESLORATADINA GN S.ORAL60                  12 656110000 669500000 2678000007873320000       000  000  000  000  000  200         3  7591585177445       21140158       21140158   513556590003  N  0                           051 01/03/2023       USD          159         1904    413548809
01 37141165  11132  C  LOC FACIAL SALIDER 120ML                    315886780001621100000  972660004766034000 762565440  000  000  000  000  200         3  7593668000039       21140065       21140065   513556590003  N  0                       A201201 01/12/2025       USD          384         1152    413548809
02 37141165        124  123394980795   15256787000    2441085920  141092853715    0    0    0  000    0    0    0   16/08/2021 02:50:50 p.m.   PR           000           000             0            24           USD    413548809        33527
