01 37147755  12135  M  AMPICILINA BM250 PPSO60ML                   6 420420000 429000000  514800002522520000       000  000  000  000  000  200         1  6930169708070       21145784       21145784   513621740001  N  0                        190447 01/03/2022       USD          102          612    412222338
01 37147755  PO180  M  BACTRON SUSP. 100ML.                        310751286001131000000 1676142003225385800       000  000  000  300  000  200         1  7592806122015       21145784       21145784   513621740001  N  0                        106087 01/06/2026       USD          261          782    412222338
01 37147755  PA054  M  BETADERM PLUS CREMA 15GR.                   316162874911649272950  989563774848862473       000  000  000  000  000  200         1  7591243804164       21145784       21145784   513621740001  N  0                       9257701 01/06/2023       USD          392         1176    412222338
01 37147755  12502  M  BLOCAX 8MG X150TA                           11388030718014163578755 283271575       000       000  000  000  000  000  200         1  7591243805345       21145784       21145784   513621740001  N  0                       9269601 01/01/2023       USD         3367         3367    412222338
01 37147755  FA021  M  FITEX  TAB 5MG X10                          6 562010322 573479920  688175883372061932       000  000  000  000  000  200         1  7591821904323       21145784       21145784   513621740001  N  0                       2104590 01/04/2023       USD          136          818    412222338
01 37147755  HI240  M  MANITOL 18%SOL.N38 500CC.                   416285121401661747082 1329397686514048560       000  000  000  000  000  200         1  7592637001190       21145784       21145784   513621740001  N  0                       2100004 01/03/2023       USD          395         1580    412222338
01 37147755  LT017  M  TENSOMAX 30MG. LP X40CA                     132487000003315000000  663000003248700000       000  000  000  000  000  200         1  7591585418432       21145784       21145784   513621740001  N  0                           164 01/03/2023       USD          788          788    412222338
01 37147755  PA949  M  TONUM 10MG. X30TA                           315784241921610636931  966382174735272576       000  000  000  000  000  200         1  7591243851106       21145784       21145784   513621740001  N  0                       9231402 01/02/2024       USD          383         1149    412222338
01 37147755  14377  M  TRIMIC FORTE L O.VAG.X7OV                   219112165801950221000  780088403822433160       000  000  000  000  000  200         1  8906009238555       21145784       21145784   513621740001  N  0                      K2AJG004 01/04/2022       USD          464          927    412222338
01 37147755  PD390  M  FLEMICAINE SOL.TOP. 5ML.                    110192000001040000000  208000001019200000       000  000  000  000  000  200         2  7591955000489       21145784       21145784   513621740002  N  0                          0027 01/04/2024       USD          247          247    412222338
02 37147755         30   47188791681           000           000   47188791681    0    0    0  000    0    0    0   20/08/2021 10:55:53 a.m.   PR           000           000             0            10           USD    412222338        11447
