01 37143743  GN088  M  AMLODIPINA GN 10MG. X30CO                  12 738996440 777400000 4608427208867957280       000  000  000  300  000  200         1  7591585278173       21142776       21142776   513586150001  N  0                           188 01/03/2024       USD          180         2157    411049800
01 37143743  WI110  M  CLOPACT 75MG. X30TA                         415647316111596664909 1277331926258926444       000  000  000  000  000  200         1  8901079005410       21142776       21142776   513586150001  N  0                     FGJ011002 01/12/2022       USD          381         1523    411049800
01 37143743  12373  M  CLOPIDOGREL 75MG X30TA                      216648632001698840000  679536003329726400       000  000  000  000  000  200         1  7598176000014       21142776       21142776   513586150001  N  0                       21T0421 01/03/2024       USD          405          810    411049800
01 37143743  10704  M  CLOPIDOGREL SP 75MG. X14                    2 859950000 877500000  351000001719900000       000  000  000  000  000  200         1  7590027002024       21142776       21142776   513586150001  N  0                          1550 01/10/2022       USD          209          418    411049800
01 37143743  ED309  M  FUNGOSIN 100MG. X14CA                       134398000003510000000  702000003439800000       000  000  000  000  000  200         1  7592803002310       21142776       21142776   513586150001  N  0                       2106566 01/06/2023       USD          837          837    411049800
01 37143743  13486  M  ITRACONAZOL 100 MGX10 CAP                   117405388001776060000  355212001740538800       000  000  000  000  000  200         1  7598176000229       21142776       21142776   513586150001  N  0                       21C0403 01/03/2024       USD          423          423    411049800
01 37143743  LT037  M  LISILET 10MG. X30CO                         217517500001787500000  715000003503500000       000  000  000  000  000  200         1  7591585314369       21142776       21142776   513586150001  N  0                           130 01/11/2023       USD          426          852    411049800
01 37143743  MG399  M  LISILETIC 20/12,5 X30CO                     233633600003432000000 1372800006726720000       000  000  000  000  000  200         1  7591585114389       21142776       21142776   513586150001  N  0                           105 01/11/2022       USD          818         1636    411049800
01 37143743  GN694  M  MELOXICAM GN 15MG. X10CO                    6 777140000 793000000  951600004662840000       000  000  000  000  000  200         1  7591585178022       21142776       21142776   513586150001  N  0                           074 01/04/2023       USD          189         1134    411049800
01 37143743  14011  M  MEMANTINA PSICO10 X28TA                     126411756502695077194  539015442641175650       000  000  000  000  000  200         1  7501384547912       21142776       21142776   513586150001  N  0                       6750521 01/05/2023       USD          643          643    411049800
01 37143743  FA239  M  NOTOLAC 30MG. X4TA.SUBL.                    3 830444160 873600000 1294675202491332480       000  000  000  300  000  200         1  7591821210134       21142776       21142776   513586150001  N  0                       2106107 01/07/2023       USD          202          606    411049800
01 37143743  CH121  C  SECUREZZA POST PARTO X10                    3 390843045 398819434  239291671172529135 187604662  000  000  000  000  200         1  7591353700059       21142776       21142776   513586150001  N  0                      10721206 01/07/2023       USD          095          285    411049800
01 37143743  KX100  C  TEST DE EMBARAZO KX                         311911900001215500000  729300003573570000 571771200  000  000  000  000  200         1   813333014589       21142776       21142776   513586150001  N  0                     W00101159 01/11/2022       USD          290          869    411049800
01 37143743  ZU001  C  IODINEX JABON LIQ. 120ML.                   213194963211346424817  538569922638992642       000  000  000  000  000  200         2  7595248000033       21142776       21142776   513586150002  N  0                       0200543 01/04/2026       USD          321          642    411049800
01 37143743  LN255  M  BROMEXINA LN 8MG.JBE120ML                   6 947537503 966875003 1160250005685225018       000  000  000  000  000  200         3  7592348204002       21142776       21142776   513586150003  N  0                         41472 01/06/2024       USD          231         1383    411049800
01 37143743  11743  N  CITRATO POTASIO BF10%1LT.                   622318723372277420752 273290490       000       000  000  000  000  000  200         3  7591616000704       21142776       21142776   513586150003  N  0                        211712 01/07/2024       USD          543         3258    411049800
01 37143743  10615  N  CITRATO POTASIO10,8%FS240                   610488205001070225000 1284270006292923000       000  000  000  000  000  200         3  7592368003449       21142776       21142776   513586150003  N  0                       0621048 01/06/2022       USD          255         1531    411049800
01 37143743  TQ175  M  GRAUSIN JBE. 120ML.                         311466000001170000000  702000003439800000       000  000  000  000  000  200         3  7591955002452       21142776       21142776   513586150003  N  0                          0029 01/07/2023       USD          279          837    411049800
01 37143743  11041  N  LIMONADA PURGANTE FG250ML                   1 893984743 912229330  18244587 893984743       000  000  000  000  000  200         3  0112244009159       21142776       21142776   513586150003  N  0                          2371 01/05/2024       USD          217          217    411049800
02 37143743         66   75085583837    7385091777     759375862   83230051476    0    0    0  000    0    0    0   17/08/2021 03:41:09 p.m.   PR           000           000             0            19           USD    411049800        20063
