01 37159215  MG524  M  ACICLOR AP 1GR. X10CO                       231111080003174600000 1269840006222216000       000  000  000  000  000  200         1  7591585111838       21157101       21157101   513745370001  N  0                           037 01/10/2023       USD          753         1505    413429805
01 37159215  FF230  M  BUDESONIDA MF 200MCG.200D                   656558256995771250713 692550084       000       000  000  000  000  000  200         1  7591096000133       21157101       21157101   513745370001  N  0                      070R002B 01/03/2023       USD         1368         8208    413429805
01 37159215  11251  M  CICLOKAN 500MG. X21CO                       630576000003120000000 374400000       000       000  000  000  000  000  200         1  7591619519227       21157101       21157101   513745370001  N  0                          0024 01/07/2023       USD          740         4437    413429805
01 37159215  WI110  M  CLOPACT 75MG. X30TA                         615647316111596664909 1915997889388389666       000  000  000  000  000  200         1  8901079005410       21157188       21157188   513745370001  N  0                     FGJ011003 01/12/2022       USD          378         2271    413429805
01 37159215  LN335  M  COMPLEJO B LN COMP. X1A                     6 625056250 637812500  765375003750337500       000  000  000  000  000  200         1  7592348205009       21157112       21157112   513745370001  N  0                            31 01/10/2023       USD          151          907    413429805
01 37159215  PO195  M  DECOBEL VIAL 8MG. 2ML.                      3 840840000 858000000  514800002522520000       000  000  000  000  000  200         1  7592806112047       21157188       21157188   513745370001  N  0                        104052 01/04/2024       USD          203          610    413429805
01 37159215  GN534  M  KETOPROFENO GN100 2ML.X2A                   2 853580000 871000000  348400001707160000       000  000  000  000  000  200         1  7591585170781       21157188       21157188   513745370001  N  0                           090 01/03/2023       USD          206          413    413429805
02 37159215         31   75871177360           000           000   75871177360    0    0    0  000    0    0    0   30/08/2021 02:44:42 p.m.   PR           000           000             0             7           USD    413429805        18352
