01 37153930  ED100  M  CINAREN CAPS. 75MG. X20                     217836000001820000000  728000003567200000       000  000  000  000  000  200         1  7592803000118       21151875       21151875   513688760001  N  0                       2104504 01/04/2025       USD          433          865    412165273
01 37153930  SP760  M  KETOPROFENO SP100MG.X10CO                   6 675220000 689000000  826800004051320000       000  000  000  000  000  200         1  7590027001362       21151875       21151875   513688760001  N  0                           201 01/03/2024       USD          164          983    412165273
01 37153930  12186  M  MAXTHIO 4MG/2ML. IM X6A                     228012712002858440000 1143376005602542400       000  000  000  000  000  200         1  8699525755247       21151875       21151875   513688760001  N  0                       A080460 01/10/2022       USD          680         1359    412165273
01 37153930  12124  C  BOROCANFOR COOL.PVO.35GR                    2 615214600 627770000  251108001230429200 196868672  000  000  000  000  200         2       75971434       21151875       21151875   513688760002  N  0                       2105301 01/05/2023       USD          149          299    412165273
01 37153930  LN110  C  DIADEX PHIS JABON 120ML.                    2 945947090 965252133  386100861891894180 302703069  000  000  000  000  200         2  7592348208208       21151875       21151875   513688760002  N  0                      07021006 01/03/2024       USD          230          459    412165273
01 37153930  10708  C  GEL FACIAL SALIDER 20GR                     2 958685000 978250000  391300001917370000 306779200  000  000  000  000  200         2  7593668000015       21151875       21151875   513688760002  N  0                       A201203 01/12/2025       USD          233          465    412165273
02 37153930         16   13221062400    5039693380     806350941   19067106721    0    0    0  000    0    0    0   25/08/2021 02:01:38 p.m.   PR           000           000             0             6           USD    412165273         4430
