01 37156232  PO130  M  ALURON 100MG. X30TA                         214014000001430000000  572000002802800000       000  000  000  000  000  200         1  7592806133042       21153422       21153422   513708750001  N  0                        104046 01/04/2025       USD          339          677    413986026
01 37156232  14463  M  BROSIDUAL 100/300 X10CABL                   618562180001894100000 227292000       000       000  000  000  000  000  200         1   793869810308       21153422       21153422   513708750001  N  0                      20100216 01/10/2022       USD          448         2690    413986026
01 37156232  FF230  M  BUDESONIDA MF 200MCG.200D                   256558256995771250713 230850028       000       000  000  000  000  000  200         1  7591096000133       21153422       21153422   513708750001  N  0                      070R002B 01/03/2023       USD         1366         2732    413986026
01 37156232  LA102  C  CLIMAX BANANA PRESERV. X3                   3 544635000 585000000 1210950001633905000 261424800  000  500  000  000  200         1  8852961008661       21153422       21153422   513708750001  N  0                        174501 01/10/2022       USD          132          395    413986026
01 37156232  LA104  C  CLIMAX FRUTAS PRESERV. X3                   3 544635000 585000000 1210950001633905000 261424800  000  500  000  000  200         1  8852961008678       21153422       21153422   513708750001  N  0                        174504 01/10/2022       USD          132          395    413986026
01 37156232  11261  C  CLIMAX P.MASTER PRESER.X3                   3 544635000 585000000 1210950001633905000 261424800  000  500  000  000  200         1  8852961010848       21153422       21153422   513708750001  N  0                        174403 01/10/2022       USD          132          395    413986026
01 37156232  DP325  M  CLOTRIMAZOL DP1% CR.50GR.                   411986219881287456486 3553379924794487952       000  000  000  500  000  200         1  7592616110028       21153422       21153422   513708750001  N  0                         10739 01/07/2023       USD          290         1158    413986026
01 37156232  15324  M  COMPLEBREZ 200/6 PSI 150D                   11010088892610307029516 206140590       000       000  000  000  000  000  200         1  8904091122295       21153422       21153422   513708750001  N  0                      12200546 01/08/2022       USD         2440         2440    413986026
01 37156232  14557  M  DIOSMINA+HESP LAND500X100                   11933932000019734000000 394680000       000       000  000  000  000  000  200         1  7598008000694       21153422       21153422   513708750001  N  0                          T066 01/11/2022       USD         4671         4671    413986026
01 37156232  13725  M  SALRES 100MCG AERO 200DOS                   319388687501978437500 1187062505816606250       000  000  000  000  000  200         1  8699525528148       21153422       21153422   513708750001  N  0                       A092150 01/01/2023       USD          468         1405    413986026
02 37156232         28   65303062526    4901715000     784274400   70989051926    0    0    0  000    0    0    0   27/08/2021 10:14:38 a.m.   PR           000           000             0            10           USD    413986026        16958
