01 37158653  PO115  M  ALGOREN 10MG. X20TA                         2 840840000 858000000  343200001681680000       000  000  000  000  000  200         1  7592806133011       21156120       21156120   513735520001  N  0                        008095 01/08/2025       USD          203          407    413429805
01 37158653  GN088  M  AMLODIPINA GN 10MG. X30CO                  12 761852000 777400000 1865760009142224000       000  000  000  000  000  200         1  7591585278173       21156120       21156120   513735520001  N  0                           188 01/03/2024       USD          184         2211    413429805
01 37158653  13490  M  BISOPROLOL 10MGX30 TAB                      322008987002245815000 1347489006602696100       000  000  000  000  000  200         1  7598176000205       21156120       21156120   513735520001  N  0                        T00189 01/11/2022       USD          532         1597    413429805
01 37158653  ED004  M  CLOFEN 1,8MG. SUSP. 60ML.                   3 828100000 845000000  507000002484300000       000  000  000  000  000  200         1  7592803001801       21156232       21156232   513735520001  N  0                       2107578 01/08/2023       USD          200          601    413429805
01 37158653  13975  M  DEFLAZACORT 30MGX10 TAB                     218345600001872000000  748800003669120000       000  000  000  000  000  200         1  7591519000306       21156120       21156120   513735520001  N  0                         31691 01/01/2024       USD          444          887    413429805
01 37158653  LT046  M  GENLET 200MG. X20CO                         220001800002041000000  816400004000360000       000  000  000  000  000  200         1  7591585110183       21156176       21156176   513735520001  N  0                           050 01/11/2022       USD          484          968    413429805
01 37158653  14782  M  IBUPRO-TIOCOL DAC600-4X10                  1211955216001219920000 292780800       000       000  000  000  000  000  200         1  7598578000247       21156176       21156176   513735520001  N  0                          V186 01/01/2024       USD          289         3470    413429805
01 37158653  SA520  M  MESIGYNA INSTAYECT 1ML.                     238092600003887000000 1554800007618520000       000  000  000  000  000  200         1  7501303443318       21156120       21156120   513735520001  N  0                       XB30LG4 01/05/2022       USD          921         1843    413429805
01 37158653  KN380  M  ROWELUK 5MG. X30TA.MAST.                    215288000001560000000  624000003057600000       000  000  000  000  000  200         1  7591619517278       21156120       21156120   513735520001  N  0                          0006 01/11/2023       USD          370          740    413429805
01 37158653  GQ304  M  SERTRALINA ELTER 50 X 10                    2 779688000 795600000  318240001559376000       000  000  000  000  000  200         1  7703763190164       21156176       21156176   513735520001  N  0                       3257382 01/11/2022       USD          189          377    413429805
01 37158653  15011  M  CLOFEN 1,8MG. SUSP.120ML.                   210351250001056250000  422500002070250000       000  000  000  000  000  200         2  7592803003997       21156232       21156232   513735520002  N  0                       2108601 01/08/2023       USD          250          501    413429805
02 37158653         44   56232385300           000           000   56232385300    0    0    0  000    0    0    0   30/08/2021 11:17:03 a.m.   PR           000           000             0            11           USD    413429805        13601
