01 37158182  OJ007  N  CASTAÑO DE INDIAS HP 60CA                   320650266002341300000 8288202006195079800       000  000  000 1000  000  200         1  7592710000454       21156120       21156120   513735540001  N  0                       0121207 01/07/2024       USD          499         1498    413429805
01 37158182  10829  M  FLUCON 200MG. X4CA                          211466000001170000000  468000002293200000       000  000  000  000  000  200         1  7591955558331       21155552       21155552   513735540001  N  0                          0009 01/02/2023       USD          277          555    413429805
01 37158182  GM129  M  FUROSEMIDA MY 20MG. X12TA                   3 781599000 797550000  478530002344797000       000  000  000  000  000  200         1  7592601300953       21156120       21156120   513735540001  N  0                        157203 01/07/2024       USD          189          567    413429805
01 37158182  GM149  M  FUROSEMIDA MY 40MG. X24TA                   310207288001041560000  624936003062186400       000  000  000  000  000  200         1  7592601301059       21156120       21156120   513735540001  N  0                        157102 01/05/2023       USD          247          741    413429805
01 37158182  11418  M  LODESTAR HCT 50-12,5 30TA                   613585578471386283517 1663540208151347082       000  000  000  000  000  200         1  7591020080972       21156176       21156176   513735540001  N  0                            12 01/03/2023       USD          329         1972    413429805
01 37158182  VM715  M  SALBUROL SOL. P/INH.20ML.                   312705050051296433679  777860223811515015       000  000  000  000  000  200         1  7591020001625       21156176       21156176   513735540001  N  0                           116 01/05/2023       USD          307          922    413429805
01 37158182  OJ016  N  VENACARE HP CAPS. X60                       125225200002860000000 3374800002522520000       000  000  000 1000  000  200         1  7592710000935       21156176       21156176   513735540001  N  0                       0632304 01/04/2024       USD          610          610    413429805
02 37158182         21   28380645297           000           000   28380645297    0    0    0  000    0    0    0   30/08/2021 09:32:20 a.m.   PR           000           000             0             7           USD    413429805         6865
