01 37154043  MK036  M  PREDNISONA +MK5MG. X30TA                    612852112001352000000 4007328007711267200       000  000  000  300  000  200         1  7591519050806       21152042       21152042   513691540001  N  0                         31942 01/05/2026       USD          312         1871    412165273
01 37154043  12898  M  REVERSAIR 10 10MG X10TA                     6 764400000 780000000  936000004586400000       000  000  000  000  000  200         1  7598055000524       21152042       21152042   513691540001  N  0                         NA079 01/11/2022       USD          185         1113    412165273
01 37154043  QO540  M  BROXOL ALERG S.ORAL 100ML                   215925000001625000000  650000003185000000       000  000  000  000  000  200         2  7592454889513       21152042       21152042   513691540002  N  0                       3270984 01/07/2023       USD          386          773    412165273
01 37154043  QO250  M  BROXOL GRIP PED.JBE120ML.                   3 853580000 871000000  522600002560740000       000  000  000  000  000  200         2  7592454000734       21152042       21152042   513691540002  N  0                       3268229 01/05/2023       USD          207          621    412165273
02 37154043         17   18043407200           000           000   18043407200    0    0    0  000    0    0    0   25/08/2021 02:22:05 p.m.   PR           000           000             0             4           USD    412165273         4378
