01 37152246  MG110  M  ACICLOR 5% CR.TOP. 10GR.                    211911900001215500000  486200002382380000       000  000  000  000  000  200         1  7591585311634       21149721       21149721   513662500001  N  0                           251 01/05/2024       USD          288          577    412966092
01 37152246  GN939  M  AMLODIPINA GN10MG. X10CO                   12 223905500 228475000  548340002686866000       000  000  000  000  000  200         1  7591585178176       21149721       21149721   513662500001  N  0                           187 01/01/2023       USD          054          651    412966092
01 37152246  FA019  M  FITEX  5MG. X30TA                           614411174851598400050 9436953908646704910       000  000  000  800  000  200         1  7591821904316       21149721       21149721   513662500001  N  0                       2105765 01/06/2023       USD          349         2094    412966092
01 37152246  15260  M  FLUCONAZOL BM150MG. X2CA                   12 452270000 461500000 1107600005427240000       000  000  000  000  000  200         1  7598127001060       21149721       21149721   513662500001  N  0                        210214 01/02/2024       USD          110         1314    412966092
01 37152246  ZW004  N  GINKGO BILOBA NP X60CA                      226333580002687100000 1074840005266716000       000  000  000  000  000  200         1  7592430000116       21149721       21149721   513662500001  N  0                      01200121 01/01/2023       USD          638         1275    412966092
01 37152246  14782  M  IBUPRO-TIOCOL DAC600-4X10                  1211955216001219920000 292780800       000       000  000  000  000  000  200         1  7598578000247       21149721       21149721   513662500001  N  0                          V186 01/01/2024       USD          289         3474    412966092
01 37152246  14908  M  METROHEM 500MG SPI 100ML.                   4 401310000 409500000  327600001605240000       000  000  000  000  000  200         1  7597767000693       21149721       21149721   513662500001  N  0                        E11014 01/10/2022       USD          097          389    412966092
01 37152246  ED008  M  MUCLAR 30MG-5MG X10CO                       1 942760000 962000000  19240000 942760000       000  000  000  000  000  200         1  7592803002594       21149721       21149721   513662500001  N  0                       2104514 01/04/2023       USD          228          228    412966092
01 37152246  13505  M  PEDIALY MAX 60 COCO 500ML                   211151872371137946160  455178462230374474       000  000  000  000  000  200         1  7501033961540       21149721       21149721   513662500001  N  0                       29451MC 01/05/2023       USD          270          540    412966092
01 37152246  13507  M  PEDIALY MAX 60 FRES 500ML                   211151872371137946160  455178462230374474       000  000  000  000  000  200         1  7501033961557       21149721       21149721   513662500001  N  0                       29406MC 01/05/2023       USD          270          540    412966092
01 37152246  13506  M  PEDIALY MAX 60 UVA 500ML                    211151872371137946160  455178462230374474       000  000  000  000  000  200         1  7501033957376       21149721       21149721   513662500001  N  0                       27456MC 01/03/2023       USD          270          540    412966092
01 37152246  ZU001  C  IODINEX JABON LIQ. 120ML.                   213194963211346424817  538569922638992642       000  000  000  000  000  200         2  7595248000033       21149721       21149721   513662500002  N  0                       0200543 01/04/2026       USD          320          639    412966092
01 37152246  NP007  M  BETADINE 10% SO.TOP.120ML                   122358700002281500000  456300002235870000       000  000  000  000  000  200         3  7591821102231       21149721       21149721   513662500003  N  0                       2009825 01/11/2022       USD          541          541    412966092
02 37152246         60   50231159532    2638992642           000   52870152174    0    0    0  000    0    0    0   24/08/2021 02:02:58 p.m.   PR           000           000             0            13           USD    412966092        12803
