01 37155997  13542  M  ACETAMINOFEN GN650 X10CO                   12 275184000 312000000 4417920003302208000       000  000  000 1000  000  200         1  7591585279057       21153422       21153422   513708760001  N  0                           055 01/06/2023       USD          066          798    413986026
01 37155997  13976  M  ARASENS 2% UNG.TOP. 15GR.                   218345600001872000000  748800003669120000       000  000  000  000  000  200         1  7591585212900       21153422       21153422   513708760001  N  0                           005 01/07/2022       USD          443          886    413986026
01 37155997  14271  M  ASARAP 20MG. X20CO                          169509440007092800000 1418560006950944000       000  000  000  000  000  200         1  7591585113344       21153422       21153422   513708760001  N  0                           004 01/05/2023       USD         1679         1679    413986026
01 37155997  14208  M  METFORMINA PCAPS850 X30TA                   610538528001075360000 1290432006323116800       000  000  000  000  000  200         1  7703153018368       21153422       21153422   513708760001  N  0                       1354954 01/05/2023       USD          255         1527    413986026
01 37155997  LT041  M  RIFAMIX 200MG. X12CO                        136818600003757000000  751400003681860000       000  000  000  000  000  200         1  7591585119049       21153422       21153422   513708760001  N  0                           042 01/10/2023       USD          889          889    413986026
01 37155997  KV339  M  TERAGRIP FORTE 24H TAB. X14                 214378364001667250000 4588272002875672800       000  000  000 1200  000  200         1  7591821802414       21153422       21153422   513708760001  N  0                21061032104608 01/06/2023       USD          347          695    413986026
01 37155997  LT249  M  XYLON 5MG/6,25MG. X30CO                     220129200002054000000  821600004025840000       000  000  000  000  000  200         1  7591585113313       21153422       21153422   513708760001  N  0                           086 01/02/2023       USD          486          972    413986026
01 37155997  PA409  M  TONUM 1MG. SU.ORAL 100ML.                   213277784391354875958  541950382655556878       000  000  000  000  000  200         2  7591243851083       21153422       21153422   513708760002  N  0                       9203901 01/01/2023       USD          321          641    413986026
02 37155997         28   33484318478           000           000   33484318478    0    0    0  000    0    0    0   27/08/2021 09:33:53 a.m.   PR           000           000             0             8           USD    413986026         8088
