01 37169833  13976  M  ARASENS 2% UNG.TOP. 15GR.                   318850000001885000000       0005655000000       000  000  000  000  000  000         1  7591585212900       21166043       21166043   513852260001  N  0                           005 01/07/2022       USD          463         1388    407286612
01 37169833  14271  M  ASARAP 20MG. X20CO                          171500000007150000000       0007150000000       000  000  000  000  000  000         1  7591585113344       21166026       21166026   513852260001  N  0                           004 01/05/2023       USD         1756         1756    407286612
01 37169833  PO170  M  ATROBEL 10MG X15ML GTA                      112740000001274000000       0001274000000       000  000  000  000  000  000         1  7592806123012       21166124       21166124   513852260001  N  0                        012149 01/12/2022       USD          313          313    407286612
01 37169833  PO180  M  BACTRON SUSP. 100ML.                        111310000001131000000       0001131000000       000  000  000  000  000  000         1  7592806122015       21166153       21166153   513852260001  N  0                        106088 01/06/2026       USD          278          278    407286612
01 37169833  PO180  M  BACTRON SUSP. 100ML.                        111310000001131000000       0001131000000       000  000  000  000  000  000         1  7592806122015       21166153       21166153   513852260001  N  0                        106088 01/06/2026       USD          278          278    407286612
01 37169833  PO180  M  BACTRON SUSP. 100ML.                        111310000001131000000       0001131000000       000  000  000  000  000  000         1  7592806122015       21166153       21166153   513852260001  N  0                        106088 01/06/2026       USD          278          278    407286612
01 37169833  GN091  M  CAPTOPRIL GN 25MG.X30CO                     4 832000000 832000000       0003328000000       000  000  000  000  000  000         1  7591585370167       21166124       21166124   513852260001  N  0                           119 01/04/2025       USD          204          817    407286612
01 37169833  GN091  M  CAPTOPRIL GN 25MG.X30CO                     2 832000000 832000000       0001664000000       000  000  000  000  000  000         1  7591585370167       21166124       21166124   513852260001  N  0                           119 01/04/2025       USD          204          409    407286612
01 37169833  14369  M  CAPTOPRIL PORTU25 X100TA                    124700000002470000000       0002470000000       000  000  000  000  000  000         1  7750215000632       21166124       21166124   513852260001  N  0                       2036861 01/03/2024       USD          606          606    407286612
01 37169833  14485  M  DEKORT 8MG. X20CO                           154061800005406180000       0005406180000       000  000  000  000  000  000         1  8699525019769       21166168       21166168   513852260001  N  0                       A091485 01/12/2022       USD         1327         1327    407286612
01 37169833  13553  M  FLUOXETINA 20MGX14 TAB                      2 579147231 579147231       0001158294462       000  000  000  000  000  000         1  7501384504892       21166026       21166026   513852260001  N  0                       6300521 01/05/2023       USD          142          284    407286612
01 37169833  13484  M  FLUOXETINA 20MGX30 CAP                      110810800001081080000       0001081080000       000  000  000  000  000  000         1  7598176000151       21166026       21166026   513852260001  N  0                       CEMH062 01/07/2023       USD          265          265    407286612
01 37169833  13484  M  FLUOXETINA 20MGX30 CAP                      110810800001081080000       0001081080000       000  000  000  000  000  000         1  7598176000151       21166026       21166026   513852260001  N  0                       CEMH062 01/07/2023       USD          265          265    407286612
01 37169833  13504  M  PEGYT 150MG X20 CAP                         126650000002665000000       0002665000000       000  000  000  000  000  000         1  7591585317025       21166026       21166026   513852260001  N  0                           006 01/06/2024       USD          654          654    407286612
01 37169833  LT043  M  PEGYT 75MG. X20CA                           116796000001768000000  884000001679600000       000  000  000  500  000  000         1  7591585317018       21166026       21166026   513852260001  N  0                           047 01/03/2024       USD          412          412    407286612
01 37169833  LT043  M  PEGYT 75MG. X20CA                           116796000001768000000  884000001679600000       000  000  000  500  000  000         1  7591585317018       21166026       21166026   513852260001  N  0                           047 01/03/2024       USD          412          412    407286612
01 37169833  13488  M  PREDNISOLONA 5MGX30TAB                      410682100001068210000       0004272840000       000  000  000  000  000  000         1  7598176000175       21166202       21166202   513852260001  N  0                       TEMH191 01/07/2023       USD          262         1049    407286612
01 37169833  15261  M  PREDNISOLONA BM5MG. X30TA                   4 988000000 988000000       0003952000000       000  000  000  000  000  000         1  7598127001206       21166202       21166202   513852260001  N  0                        210216 01/02/2024       USD          243          970    407286612
01 37169833  KL704  M  PRESIDERM 2% UNG.TOP.15GR                   115600000001950000000 3900000001560000000       000  000  000 2000  000  000         1  7591619520513       21166026       21166026   513852260001  N  0                          0005 01/11/2022       USD          383          383    407286612
01 37169833  KL704  M  PRESIDERM 2% UNG.TOP.15GR                   115600000001950000000 3900000001560000000       000  000  000 2000  000  000         1  7591619520513       21166026       21166026   513852260001  N  0                          0005 01/11/2022       USD          383          383    407286612
01 37169833  LT810  M  ARTRODAR 50MG. X30CA                        329250000002925000000       0008775000000       000  000  000  000  000  000         2  7591585213402       21166136       21166136   513852260002  N  0                           317 01/07/2025       USD          718         2154    407286612
01 37169833  GP480  M  NAFINA CREMA 1% 15GR.                       111700000001170000000       0001170000000       000  000  000  000  000  000         2  7594000491164       21166026       21166026   513852260002  N  0                          0024 01/04/2023       USD          287          287    407286612
01 37169833  GP480  M  NAFINA CREMA 1% 15GR.                       111700000001170000000       0001170000000       000  000  000  000  000  000         2  7594000491164       21166026       21166026   513852260002  N  0                          0024 01/04/2023       USD          287          287    407286612
01 37169833  GP830  M  RIDAL 1MG. X20CO                            210400000001040000000       0002080000000       000  000  000  000  000  000         2  7594000491669       21166124       21166124   513852260002  N  0                          0037 01/03/2024       USD          255          511    407286612
02 37169833         40   64224674462           000           000   64224674462    0    0    0  000    0    0    0   07/09/2021 01:49:58 p.m.   PR           000           000             0            24           USD    407286612        15769
