01 37160048  13652  M  CETIRIZINA 10MGX10TA BUKA                  12 382200000 390000000  936000004586400000       000  000  000  000  000  200         1  0675696260009       21157591       21157591   513751460001  N  0                        CTR202 01/11/2023       USD          092         1109    413429805
01 37160048  GN025  M  CETIRIZINA GN10MG. X10CO                   12 363090000 370500000  889200004357080000       000  000  000  000  000  200         1  7591585174581       21157591       21157591   513751460001  N  0                           110 01/07/2024       USD          088         1054    413429805
01 37160048  LT065  M  SITAGLISMET 50-500 X30CO                    159878000006110000000 1222000005987800000       000  000  000  000  000  200         1  7591585118066       21157591       21157591   513751460001  N  0                           075 01/02/2023       USD         1448         1448    413429805
01 37160048  JN100  N  JENGIMIEL JBE.AD. 120ML.                    215174941501548463418  619385363034988300       000  000  000  000  000  200         2  7592520000019       21157591       21157591   513751460002  N  0                        040221 01/02/2023       USD          367          734    413429805
01 37160048  JN110  N  JENGIMIEL JBE.PED. 120ML.                   215021239991532779591  613111843004247998       000  000  000  000  000  200         2  7592520000026       21157591       21157591   513751460002  N  0                        031120 01/11/2022       USD          363          727    413429805
01 37160048  JN120  N  JENGIMIEL SABILA JBE.120ML.                 214578562221487608390  595043362915712444       000  000  000  000  000  200         2  7592520000033       21157591       21157591   513751460002  N  0                        030221 01/02/2023       USD          353          705    413429805
02 37160048         31   23886228742           000           000   23886228742    0    0    0  000    0    0    0   30/08/2021 05:28:52 p.m.   PR           000           000             0             6           USD    413429805         5778
