01 37168159  14234  M  CLONEDEX 1+0.50+0.04 X20G                  48 775008000 8611200004133376000       000       000  000 1000  000  000  000         1  7598578000117       21164774       21164774   513833630001  N  0                            37 01/03/2023       USD          191         9165    405878711
01 37168159  13402  M  HATIAL 100MG. X30TA                         133633532303363353230       0003363353230       000  000  000  000  000  000         1  7406076125228       21164774       21164774   513833630001  N  0                        E21079 01/05/2023       USD          829          829    405878711
01 37168159  SR520  M  HIPERLIPEN 100MG. X30TA                     153196000005319600000       0005319600000       000  000  000  000  000  000         1  7706263002036       21164774       21164774   513833630001  N  0                       BCL0458 01/02/2024       USD         1311         1311    405878711
01 37168159  15082  M  SANA 2% CR.VAG. 20GR.                       611375000001137500000       0006825000000       000  000  000  000  000  000         1  7598127001091       21164774       21164774   513833630001  N  0                        210310 01/03/2024       USD          280         1682    405878711
01 37168159  LT993  M  ZONTRICON 500MG. X6CO                       132890000003289000000       0003289000000       000  000  000  000  000  000         1  7591585118462       21164774       21164774   513833630001  N  0                           090 01/03/2023       USD          810          810    405878711
02 37168159         57   55997337230           000           000   55997337230    0    0    0  000    0    0    0   06/09/2021 03:25:59 p.m.   PR           000           000             0             5           USD    405878711        13797
