01 37161984  PA164  M  BROFLEMA 8MG. JBE. 120ML.                   313025006571329082303  797449383907501971       000  000  000  000  000  200         1  7591243807370       21159018       21159018   513769340001  N  0                       9278501 01/08/2023       USD          314          943    414450285
01 37161984  13423  M  CLORACE JBE PED S/A 120M                    2 876148354 993365481 2344342541752296708       000  000  000 1000  000  200         1  7591818716700       21159018       21159018   513769340001  N  0                         10145 01/05/2025       USD          211          423    414450285
01 37161984  KL694  M  CORENTEL 10MG. X30CO                        226754000002730000000 1092000005350800000       000  000  000  000  000  200         1  7591619520308       21159018       21159018   513769340001  N  0                          0005 01/03/2024       USD          646         1291    414450285
01 37161984  11640  M  CYTRIAX 1GR.IV-IM. X1                      24 585314447 597259640 286684632       000       000  000  000  000  000  200         1       75971342       21159018       21159018   513769340001  N  0                       3121034 01/02/2024       USD          141         3389    414450285
01 37161984  KL769  M  GIVOTAN 500MG. X6TA                         225480000002600000000 1040000005096000000       000  000  000  000  000  200         1  7861148020441       21159018       21159018   513769340001  N  0                       210227C 01/03/2024       USD          615         1230    414450285
01 37161984  LO003  M  IPORET SUSP.PED. 60ML.                      4 865773574 883442422  706753923463094296       000  000  000  000  000  200         1  7591196004253       21159018       21159018   513769340001  N  0                       I060950 01/07/2022       USD          209          836    414450285
01 37161984  VA551  M  KETAZOL 20MG. CREMA 15GR.                   411211200001144000000  915200004484480000       000  000  000  000  000  200         1  7592349429787       21159018       21159018   513769340001  N  0                       2009536 01/09/2025       USD          270         1082    414450285
01 37161984  12190  M  LEVOTIROXINA AL100MCG50TA                   615757713111607929909 1929515889454627866       000  000  000  000  000  200         1  7597758000497       21159018       21159018   513769340001  N  0                         DL072 01/07/2022       USD          380         2281    414450285
01 37161984  11648  M  OMEFLUX 40MG. IV. X1                        6 631562589 644451621  773341923789375534       000  000  000  000  000  200         1       75971182       21159018       21159018   513769340001  N  0                       2121062 01/02/2024       USD          152          914    414450285
01 37161984  11562  N  OMEGA 3 AI 1000MG.X60CA                     234857022203556839000 1422735606971404440       000  000  000  000  000  200         1  7592946169635       21159018       21159018   513769340001  N  0                      21209635 01/04/2023       USD          841         1682    414450285
01 37161984  14816  M  AMOXIVAL AC250-62,5 60ML.                   317778714401814154531 1088492735333614320       000  000  000  000  000  200         2  7591020009003       21159018       21159018   513769340002  N  0                            06 01/05/2023       USD          429         1287    414450285
01 37161984  PD710  M  CLENBUXOL JBE. AD. 120CC.                   215288000001560000000  624000003057600000       000  000  000  000  000  200         2  7591955000151       21159018       21159018   513769340002  N  0                          0064 01/03/2024       USD          369          738    414450285
01 37161984  PD720  M  CLENBUXOL JBE.PED. 120CC.                   215288000001560000000  624000003057600000       000  000  000  000  000  200         2  7591955000168       21159018       21159018   513769340002  N  0                          0114 01/02/2025       USD          369          738    414450285
01 37161984  LP425  M  GULAPER JBE.PED. 120ML.                     812740000001300000000 208000000       000       000  000  000  000  000  200         2  7591955001295       21159018       21159018   513769340002  N  0                          0046 01/07/2023       USD          307         2459    414450285
01 37161984  13424  M  KATIVIL SOL.ORAL S/A 120M                   316779654521902455161 6734691275033896356       000  000  000 1000  000  200         2  7591818716694       21159018       21159018   513769340002  N  0                         10010 01/02/2024       USD          405         1215    414450285
02 37161984         73   84991838219           000           000   84991838219    0    0    0  000    0    0    0   31/08/2021 04:41:32 p.m.   PR           000           000             0            15           USD    414450285        20507
