01 37160046  GQ114  M  FLUDIL 10MG. X20TA                          319110000001950000000 1170000005733000000       000  000  000  000  000  200         1  7592454345057       21157591       21157591   513751480001  N  0                       3263381 01/02/2024       USD          462         1387    413429805
01 37160046  QO540  M  BROXOL ALERG S.ORAL 100ML                   215925000001625000000  650000003185000000       000  000  000  000  000  200         2  7592454889513       21157591       21157591   513751480002  N  0                       3270984 01/07/2023       USD          385          770    413429805
01 37160046  GQ110  M  BROXOL JBE. PED. 120 CC.                    212141220001238900000  495560002428244000       000  000  000  000  000  200         2  7592454536370       21157591       21157591   513751480002  N  0                       3269816 01/06/2023       USD          294          587    413429805
01 37160046  GQ105  M  BROXOL JBE.AD. 120ML.                       214039480001432600000  573040002807896000       000  000  000  000  000  200         2  7592454536271       21157591       21157591   513751480002  N  0                       3272095 01/07/2023       USD          340          679    413429805
02 37160046          9   14154140000           000           000   14154140000    0    0    0  000    0    0    0   30/08/2021 05:28:44 p.m.   PR           000           000             0             4           USD    413429805         3424
