01 37161962  LT404  M  AXOKINE 400MG. X5CO                         246106060004704700000 1881880009221212000       000  000  000  000  000  200         1  7591585114280       21159018       21159018   513769320001  N  0                           041 01/07/2024       USD         1112         2225    414450285
01 37161962  SP024  M  CARVEDILOL SP 6,25 X20CO                    6 796250000 812500000  975000004777500000       000  000  000  000  000  200         1  7590027002208       21159018       21159018   513769320001  N  0                           361 01/03/2023       USD          192         1153    414450285
01 37161962  XS018  N  GOTAS VALERIANA XS 60ML.                   12 343980000 351000000  842400004127760000       000  000  000  000  000  200         1  7594001450825       21159018       21159018   513769320001  N  0                      10082192 01/08/2024       USD          083          996    414450285
01 37161962  LT237  M  KETOREL 30MG. IM-IV 1AMP.                   2 686686000 700700000  280280001373372000       000  000  000  000  000  200         1  7591585217875       21159018       21159018   513769320001  N  0                           002 01/01/2023       USD          166          331    414450285
01 37161962  LT037  M  LISILET 10MG. X30CO                         217517500001787500000  715000003503500000       000  000  000  000  000  200         1  7591585314369       21159018       21159018   513769320001  N  0                           130 01/11/2023       USD          423          845    414450285
01 37161962  14877  M  LORATADINA FM10MG. X10TA                   12 356720000 364000000  873600004280640000       000  000  000  000  000  200         1  8906082150669       21159018       21159018   513769320001  N  0                       BTLO101 01/12/2023       USD          086         1033    414450285
01 37161962  LX102  M  MIGREN 650-50-1 X20CO                       410035425401101100000 3902298404014170160       000  000  000  700  000  200         1  7591585415738       21159018       21159018   513769320001  N  0                           519 01/04/2023       USD          242          969    414450285
01 37161962  ED730  M  NEMODINE 40MG. X20CO                        222295000002275000000  910000004459000000       000  000  000  000  000  200         1  7592803001221       21159018       21159018   513769320001  N  0                       2106562 01/06/2024       USD          538         1076    414450285
01 37161962  12922  N  OMEGA3 ACEI.PE 1000X100CA                   229180970002977650000 1191060005836194000       000  000  000  000  000  200         1   646824222107       21159018       21159018   513769320001  N  0                         38877 01/05/2024       USD          704         1408    414450285
01 37161962  LT041  M  RIFAMIX 200MG. X12CO                        236818600003757000000 1502800007363720000       000  000  000  000  000  200         1  7591585119049       21159018       21159018   513769320001  N  0                           042 01/10/2023       USD          888         1777    414450285
01 37161962  13819  C  SET INF.GTA 1ML                            12 302855280 309036000  741686403634263360       000  000  000  000  000  200         1  7596793001742       21159018       21159018   513769320001  N  0                      20180328 01/03/2023       USD          073          877    414450285
01 37161962  RQ013  C  GEL CHICHI ANTB 100G                        6 293150054 299132708  358959241758900324 281424052  000  000  000  000  200         2  7596097003565       21159018       21159018   513769320002  N  0                   00221872409 01/04/2026       USD          071          424    414450285
01 37161962  13207  C  GEL CONDUCTOR BIO 250ML                     2 560560000 572000000  228800001121120000 179379200  000  000  000  000  200         2  7595651000408       21159018       21159018   513769320002  N  0                      BGUML005 01/05/2026       USD          135          270    414450285
01 37161962  14113  M  BROMEXINA 4MGX120ML                         6 484120000 494000000  592800002904720000       000  000  000  000  000  200         3  7592236002055       21159018       21159018   513769320003  N  0                          7071 01/07/2023       USD          117          701    414450285
01 37161962  LN255  M  BROMEXINA LN 8MG.JBE120ML                   6 947537503 966875003 1160250005685225018       000  000  000  000  000  200         3  7592348204002       21159018       21159018   513769320003  N  0                         41473 01/06/2024       USD          229         1372    414450285
01 37161962  QF300  M  BROMEXINA QF8MG.JBE.120ML                   6 496860000 507000000  608400002981160000       000  000  000  000  000  200         3  7598484000041       21159018       21159018   513769320003  N  0                          9181 01/08/2023       USD          120          719    414450285
01 37161962  GN759  M  DESLORATADINA GN S.ORAL60                   6 687960000 702000000  842400004127760000       000  000  000  000  000  200         3  7591585177445       21159018       21159018   513769320003  N  0                           051 01/03/2023       USD          166          996    414450285
01 37161962  LN155  M  LISOMUCIN 4MG. JBE.120ML.                   1 972020226 991857373  19837147 972020226       000  000  000  000  000  200         3  7592348218009       21159018       21159018   513769320003  N  0                       2106006 01/06/2026       USD          235          235    414450285
01 37161962  VL690  C  MELODY GEL  A.BACT.100ML.                   4 452970232 462214522  369771601811880928 289900948  000  000  000  000  200         3   736674026984       21159018       21159018   513769320003  N  0                      12080128 01/07/2025       USD          109          437    414450285
01 37161962  EL114  M  SAVER SUSP. 37,5CC.                         323033638452350371270 1410222756910091535       000  000  000  000  000  200         3  7591062010227       21159018       21159018   513769320003  N  0                        21023A 01/05/2023       USD          556         1667    414450285
01 37161962  PB003  N  WAMPOLE EMUL. NRJA.240CC.                   6 616977592 629568971  755482743701865552 592298488  000  000  000  000  200         3  7591309000608       21159018       21159018   513769320003  N  0                      A2107213 01/07/2023       USD          149          893    414450285
01 37161962  PB006  N  WAMPOLE EMUL.T.FRUTI240ML                   6 616977592 629568971  755482743701865552 592298488  000  000  000  000  200         3  7591309000967       21159018       21159018   513769320003  N  0                      A2106187 01/06/2023       USD          149          893    414450285
02 37161962        110   79941776043    8326164612    1935301177   90203241832    0    0    0  000    0    0    0   31/08/2021 04:36:21 p.m.   PR           000           000             0            22           USD    414450285        21298
