01 37171626  GN176  M  CARBAMAZEPINA GN 200X30CO                  1213390000001339000000       000       000       000  000  000  000  000  000         1  7591585278265       21167702       21167702   513871280001  N  0                           320 01/04/2026       USD          329         3946    407186625
01 37171626  11251  M  CICLOKAN 500MG. X21CO                       331200000003120000000       0009360000000       000  000  000  000  000  000         1  7591619519227       21167702       21167702   513871280001  N  0                          0024 01/07/2023       USD          766         2299    407186625
01 37171626  14429  M  ENALAPRIL GN 20MG. X10CO                   12 179692500 185250000  666900002156310000       000  000  000  300  000  000         1  7591585278531       21167702       21167702   513871280001  N  0                           421 01/05/2023       USD          044          530    407186625
01 37171626  15349  M  OLANZAPINA LAT10MG. X14TA                   129250000002925000000       0002925000000       000  000  000  000  000  000         1  0720524031211       21167702       21167702   513871280001  N  0                       OZA4501 01/12/2022       USD          718          718    407186625
02 37171626         28   30509310000           000           000   30509310000    0    0    0  000    0    0    0   08/09/2021 01:56:38 p.m.   PR           000           000             0             4           USD    407186625         7493
