01 37177576  CO006  M  AEROFLAT GOTAS 80MG.20ML.                   212906269941290626994       0002581253988       000  000  000  000  000  000         1  7591818210406       21171669       21171669   513918640001  N  0                         10805 01/08/2023       USD          318          636    405752865
01 37177576  MK995  M  AMLODIPINA +MK TAB.10 X10                   6 390000000 390000000       0002340000000       000  000  000  000  000  000         1  7591519001358       21171574       21171574   513918640001  N  0                         31765 01/02/2023       USD          096          577    405752865
01 37177576  12570  M  BUDECORT SOL.P INHAL10ML.                  1214301811951430181195       000       000       000  000  000  000  000  000         1  7591196007162       21171529       21171529   513918640001  N  0                        071731 01/08/2023       USD          352         4230    405752865
01 37177576  AO180  M  CALOXPIRINA 81MG. X30TA                    1212740000001274000000       000       000       000  000  000  000  000  000         1  7591519008487       21171671       21171671   513918640001  N  0                         32233 01/08/2024       USD          314         3768    405752865
01 37177576  OJ001  N  CENTELLA A. HP CAPS. X60                    221071700002341300000 4682600004214340000       000  000  000 1000  000  000         1  7592710000461       21171715       21171715   513918640001  N  0                       0131207 01/07/2024       USD          519         1039    405752865
01 37177576  11580  M  CLENOX 40MG. X1 JP 0,4ML.                   332918743003291874300       0009875622900       000  000  000  000  000  000         1  7703153016852       21171620       21171620   513918640001  N  0                       1356958 01/07/2023       USD          811         2434    405752865
01 37177576  12926  M  DICLOFENAC S. AL100 10SUP                   212116060321514507540 6058030162423212064       000  000  000 2000  000  000         1  7597758000633       21171603       21171603   513918640001  N  0                      K1ABG010 01/05/2023       USD          299          597    405752865
01 37177576  MK103  M  DIOSMINA +MK 600MG. X14TA                   231590000003510000000 7020000006318000000       000  000  000 1000  000  000         1  7591519051193       21171715       21171715   513918640001  N  0                         32014 01/05/2024       USD          779         1557    405752865
01 37177576  VA551  M  KETAZOL 20MG. CREMA 15GR.                   411440000001144000000       0004576000000       000  000  000  000  000  000         1  7592349429787       21171537       21171537   513918640001  N  0                       2009535 01/09/2025       USD          282         1128    405752865
01 37177576  11873  M  LEVOFLOXACINO +MK750MG X5                   616900000001690000000       000       000       000  000  000  000  000  000         1  7591519317329       21171718       21171718   513918640001  N  0                         32177 01/08/2023       USD          416         2499    405752865
01 37177576  VM715  M  SALBUROL SOL. P/INH.20ML.                   612977794611297779461       0007786676766       000  000  000  000  000  000         1  7591020001625       21171581       21171581   513918640001  N  0                           116 01/05/2023       USD          320         1919    405752865
01 37177576  13139  M  TORIVAS +MK 50MG X10TA                      210400000001040000000       0002080000000       000  000  000  000  000  000         1  7591519317633       21171669       21171669   513918640001  N  0                         31909 01/04/2024       USD          256          513    405752865
01 37177576  10684  M  TORIVAS 50MG. X30TA                         223400000002340000000       0004680000000       000  000  000  000  000  000         1  7591519000221       21171669       21171669   513918640001  N  0                         31906 01/04/2024       USD          577         1153    405752865
01 37177576  OJ016  N  VENACARE HP CAPS. X60                       225740000002860000000 5720000005148000000       000  000  000 1000  000  000         1  7592710000935       21171715       21171715   513918640001  N  0                       0633105 01/05/2024       USD          634         1269    405752865
01 37177576  13425  M  MIOVIT JBE SIN AZUCAR 90M                   311352362961135236296       0003405708888       000  000  000  000  000  000         2  7591818716687       21171559       21171559   513918640002  N  0                         00508 01/11/2022       USD          280          839    405752865
01 37177576  VM200  M  VITISIVAL SOL.ORAL 240ML.                   419500000001950000000       0007800000000       000  000  000  000  000  000         2  7591020008495       21171574       21171574   513918640002  N  0                           648 01/08/2025       USD          481         1922    405752865
02 37177576         70  105818988946           000           000  105818988946    0    0    0  000    0    0    0   13/09/2021 03:20:20 p.m.   PR           000           000             0            16           USD    405752865        26080
