01 37177382  11557  M  DESLER M 5MG/10MG. X10TA                    320150000002015000000       0006045000000       000  000  000  000  000  000         1  7592454891257       21171715       21171715   513918660001  N  0                       3272603 01/07/2023       USD          497         1490    405752865
01 37177382  QM470  M  DESLER M TAB. 5/10 X30                      241158000004115800000       0008231600000       000  000  000  000  000  000         1  7592454002769       21171715       21171715   513918660001  N  0                       3272601 01/07/2023       USD         1014         2029    405752865
01 37177382  QO540  M  BROXOL ALERG S.ORAL 100ML                   616250000001625000000       0009750000000       000  000  000  000  000  000         2  7592454889513       21171595       21171595   513918660002  N  0                       3271806 01/07/2023       USD          400         2403    405752865
01 37177382  QO170  M  BROXOL FLEM PED. 120CC.                     613338000001404000000 4212000008002800000       000  000  000  500  000  000         2  7592454000444       21171645       21171645   513918660002  N  0                       3271844 01/07/2023       USD          329         1972    405752865
02 37177382         17   32029400000           000           000   32029400000    0    0    0  000    0    0    0   13/09/2021 02:30:37 p.m.   PR           000           000             0             4           USD    405752865         7894
