01 37183948  CO006  M  AEROFLAT GOTAS 80MG.20ML.                   312519081841290626994 1161564303755724552       000  000  300  000  000  000         1  7591818210406       21177628       21177628   513993740001  N  0                         10805 01/08/2023       USD          311          933    402327759
01 37183948  LO120  M  CLARASOL SOL.OFT. 15ML.                     312840899601323804082 1191423663852269880       000  000  300  000  000  000         1  7591196000071       21177628       21177628   513993740001  N  0                       I041134 01/04/2024       USD          319          957    402327759
01 37183948  GB850  M  GLICERINA GC SUPOS.AD. X6                   315510300001599000000 1439100004653090000       000  000  300  000  000  000         1  7592349923957       21177628       21177628   513993740001  N  0                       2106163 01/06/2023       USD          386         1157    402327759
01 37183948  11418  M  LODESTAR HCT 50-12,5 30TA                   613446950111386283517 2495310368068170066       000  000  300  000  000  000         1  7591020080972       21177628       21177628   513993740001  N  0                            12 01/03/2023       USD          334         2005    402327759
01 37183948  CO380  M  CLORACE JBE.PED. 120ML.                     3 825912441 946062361 3604497602477737323       000  000  300 1000  000  000         2  7591818112069       21177628       21177628   513993740002  N  0                         10367 01/08/2025       USD          205          616    402327759
01 37183948  GG800  M  MUCORAMA 15MG. JBE.118ML.                   310970700001131000000 1017900003291210000       000  000  300  000  000  000         2  7591651722401       21177628       21177628   513993740002  N  0                       2104055 01/04/2023       USD          273          818    402327759
02 37183948         21   26098201821           000           000   26098201821    0    0    0  000    0    0    0   16/09/2021 02:40:48 p.m.   PR           000           000             0             6           USD    402327759         6487
