01 37188326  GN121  M  AC FOLICO GN 10MG. X30CO                   12 590148000 608400000 2190240007081776000       000  000  300  000  000  000         1  7591585271495       21179743       21179743   514022420001  N  0                           043 01/08/2023       USD          146         1752    404183044
01 37188326  ET350  C  ADEMINA PLUS CR.CORP.60GR                   314011802291444515700 1300064134203540687 672566510  000  300  000  000  000         1  7591844000446       21179845       21179845   514022420001  N  0                    AP60210103 01/05/2024       USD          347         1040    404183044
01 37188326  14869  M  AMOXICILINA FM500 X10CA                    12 567450000 585000000 2106000006809400000       000  000  300  000  000  000         1  8906082150676       21179743       21179743   514022420001  N  0                     ACAMX2013 01/12/2023       USD          140         1685    404183044
01 37188326  15038  M  ANGRIP DIA X8CO                             3 630500000 650000000  585000001891500000       000  000  300  000  000  000         1  7591619518978       21179743       21179743   514022420001  N  0                          0043 01/10/2023       USD          156          468    404183044
01 37188326  FS009  N  AZUL METILENO FSI 30ML.X6                   116487250001735500000  867750001648725000       000  000  000  500  000  000         1  7592368000424       21179743       21179743   514022420001  N  0                       0721062 01/07/2023       USD          408          408    404183044
01 37188326  LO424  M  BUDENAS NASAL 200 DOSIS                     323249687502396875000 2157187506974906250       000  000  300  000  000  000         1  7591196000644       21179845       21179845   514022420001  N  0                        061589 01/08/2023       USD          575         1726    404183044
01 37188326  GN091  M  CAPTOPRIL GN 25MG.X30CO                     3 807040000 832000000  748800002421120000       000  000  300  000  000  000         1  7591585370167       21179845       21179845   514022420001  N  0                           119 01/04/2025       USD          200          599    404183044
01 37188326  14114  M  CIPROFLOXACINA 500MGX10TA                  24 479180000 494000000 355680000       000       000  000  300  000  000  000         1  7592236002062       21179845       21179845   514022420001  N  0                     TC1220004 01/02/2023       USD          119         2845    404183044
01 37188326  VC380  M  DIARONA 200MG. X10TA                        117680000001768000000       0001768000000       000  000  000  000  000  000         1  7592782000116       21179845       21179845   514022420001  N  0                       2140007 01/04/2025       USD          437          437    404183044
01 37188326  SP760  M  KETOPROFENO SP100MG.X10CO                   6 668330000 689000000 1240200004009980000       000  000  300  000  000  000         1  7590027001362       21179845       21179845   514022420001  N  0                           951 01/07/2024       USD          165          992    404183044
01 37188326  14494  A  LACTOVAC SUSP. 12ML.                        3 887461914 914909190  823418282662385742       000  000  300  000  000  000         1  7596855000027       21179845       21179845   514022420001  N  0                   P0109210723 01/04/2022       USD          220          659    404183044
01 37188326  14495  A  LACTOVAC SUSP.PED. 12ML.                    3 887461914 914909190  823418282662385742       000  000  300  000  000  000         1  7596855001031       21179845       21179845   514022420001  N  0                   P0209210722 01/04/2022       USD          220          659    404183044
01 37188326  14121  M  METFORMINA 500MGX 30TAB                     6 416130000 429000000  772200002496780000       000  000  300  000  000  000         1  7592236002345       21179845       21179845   514022420001  N  0                      TM730010 01/01/2024       USD          103          618    404183044
01 37188326  LC409  M  MIGREN 650-50-1 X10CO                       3 668330000 689000000  620100002004990000       000  000  300  000  000  000         1  7591585115737       21179845       21179845   514022420001  N  0                           530 01/06/2023       USD          165          496    404183044
01 37188326  LC170  M  MONOSULPA GOTAS 15 CC.                      3 794430000 819000000  737100002383290000       000  000  300  000  000  000         1  7591585110923       21179743       21179743   514022420001  N  0                           194 01/12/2022       USD          197          590    404183044
01 37188326  11536  M  OLMECAR 20MG. X30CO                         118460000001846000000       0001846000000       000  000  000  000  000  000         1  7591585318794       21179845       21179845   514022420001  N  0                           041 01/05/2023       USD          457          457    404183044
01 37188326  KV339  M  TERAGRIP FORTE 24H TAB. X14                 316172325001667250000 1500525004851697500       000  000  300  000  000  000         1  7591821802414       21179743       21179743   514022420001  N  0                21061032104608 01/06/2023       USD          400         1200    404183044
01 37188326  ET340  C  ADEMINA PLUS CR.CORP.30GR                   3 811718201 836822888  753140612435154603 389624736  000  300  000  000  000         2  7591844000439       21179845       21179845   514022420002  N  0                    AP30210103 01/05/2024       USD          201          602    404183044
01 37188326  11262  C  BRUCEN LO.CR.CORP.250ML.                    122754160002275416000       0002275416000 364066560  000  000  000  000  000         2  7592090000334       21179743       21179743   514022420002  N  0                        210574 01/05/2024       USD          563          563    404183044
01 37188326  VT350  C  CALAMINOL FRESH GEL 90GR.                   112927200001292720000       0001292720000 206835200  000  000  000  000  000         2  7591808000086       21179845       21179845   514022420002  N  0                       2108501 01/08/2024       USD          320          320    404183044
01 37188326  PB089  C  OVERSKIN 40% CR. 50GR.                      3 708482977 730394822  657355352125448931 340071829  000  300  000  000  000         2  7591309000622       21179845       21179845   514022420002  N  0                      A2108251 01/08/2024       USD          175          526    404183044
01 37188326  10614  N  CITRATO POTASIO10%FSI240                    3 9329035631012375000 2384143112798710689       000  000  300  500  000  000         3  7592368003456       21179845       21179845   514022420003  N  0                       0821067 01/08/2022       USD          231          692    404183044
01 37188326  FS360  N  TINTURA YODO FSI 30CC. X6                   116487250001735500000  867750001648725000       000  000  000  500  000  000         3  7592368000813       21179743       21179743   514022420003  N  0                       0721031 01/07/2023       USD          408          408    404183044
02 37188326        102   67460691923   12332280221    1973164835   81766136979    0    0    0  000    0    0    0   20/09/2021 03:43:29 p.m.   PR           000           000             0            23           USD    404183044        19742
