01 37184838  15151  M  ATORVASTATINA PORT20 X100                   158662500005866250000       0005866250000       000  000  000  000  000  000         1  7750215005682       21177721       21177721   514000290001  N  0                       2044761 01/04/2024       USD         1449         1449    404861340
01 37184838  13123  M  AZITROMICINA BM 500MGX6CA                  1216393000001690000000 608400000       000       000  000  300  000  000  000         1  6972718560043       21178033       21178033   514000290001  N  0                        210172 01/01/2024       USD          405         4859    404861340
01 37184838  FA022  M  BONAMES 150MG. X1TA                         316172325001667250000 1500525004851697500       000  000  300  000  000  000         1  7591821903326       21177721       21177721   514000290001  N  0                       2105132 01/05/2025       USD          399         1198    404861340
01 37184838  14463  M  BROSIDUAL 100/300 X10CABL                   618372770001894100000 340938000       000       000  000  300  000  000  000         1   793869810308       21177721       21177721   514000290001  N  0                      20100216 01/10/2022       USD          454         2723    404861340
01 37184838  ED004  M  CLOFEN 1,8MG. SUSP. 60ML.                   3 819650000 845000000  760500002458950000       000  000  300  000  000  000         1  7592803001801       21178033       21178033   514000290001  N  0                       2107578 01/08/2023       USD          202          607    404861340
01 37184838  14485  M  DEKORT 8MG. X20CO                           154061800005406180000       0005406180000       000  000  000  000  000  000         1  8699525019769       21177851       21177851   514000290001  N  0                       A091485 01/12/2022       USD         1335         1335    404861340
01 37184838  15371  M  DOLCAN 50MG. X10CO                          6 290030000 299000000  538200001740180000       000  000  300  000  000  000         1  7591619002750       21177851       21177851   514000290001  N  0                          0001 01/05/2023       USD          072          430    404861340
01 37184838  14414  M  GABAPENTINA SP300 X20CA                     311349000001170000000 1053000003404700000       000  000  300  000  000  000         1  7590027002093       21177721       21177721   514000290001  N  0                           151 01/01/2023       USD          280          841    404861340
01 37184838  15306  M  IBUPROFENO LS100 SO 60ML                    3 887744000 915200000  823680002663232000       000  000  300  000  000  000         1  7592454003353       21178033       21178033   514000290001  N  0                       3271029 01/07/2023       USD          219          658    404861340
01 37184838  10703  M  METFORMINA SP 850MG.X30CO                   6 945750000 975000000 1755000005674500000       000  000  300  000  000  000         1  7590027002123       21178033       21178033   514000290001  N  0                           311 01/03/2023       USD          234         1402    404861340
01 37184838  14113  M  BROMEXINA 4MGX120ML                        12 535925000 552500000 1989000006431100000       000  000  300  000  000  000         2  7592236002055       21178033       21178033   514000290002  N  0                          7071 01/07/2023       USD          132         1588    404861340
01 37184838  LP660  M  GULAPER GOTAS 30CC.                         310088000001040000000  936000003026400000       000  000  300  000  000  000         2  7591955001301       21177721       21177721   514000290002  N  0                          0032 01/03/2023       USD          249          748    404861340
02 37184838         59   72218451500           000           000   72218451500    0    0    0  000    0    0    0   17/09/2021 12:42:22 p.m.   PR           000           000             0            12           USD    404861340        17838
