01 37186054  13411  M  DILUXEN 60MG X20 TAB                        123220002002322000200       0002322000200       000  000  000  000  000  000         1  7591821210462       21179328       21179328   514016900001  N  0                       2008075 01/10/2022       USD          574          574    404861340
01 37186054  14117  M  FANASAL  AD. X 15ML GTAS                   24 390910000 403000000 2901600009381840000       000  000  300  000  000  000         1  7592236002215       21179239       21179239   514016900001  N  0                          9281 01/08/2023       USD          097         2317    404861340
01 37186054  14118  M  FANASAL PED. X15ML GTAS                    12 378300000 390000000 1404000004539600000       000  000  300  000  000  000         1  7592236002222       21179239       21179239   514016900001  N  0                          8581 01/08/2023       USD          093         1121    404861340
01 37186054  12185  M  LETROZOL FZ2,5MG. X30CO                     11429220000014292200000       000       000       000  000  000  000  000  000         1        5093364       21179239       21179239   514016900001  N  0                         91165 01/07/2024       USD         3530         3530    404861340
01 37186054  GN694  M  MELOXICAM GN 15MG. X10CO                    6 769210000 793000000 1427400004615260000       000  000  300  000  000  000         1  7591585178022       21179239       21179239   514016900001  N  0                           075 01/05/2023       USD          190         1140    404861340
01 37186054  FA514  M  NEURIXA 75MG. X14CA                         613911555021434180930 2581525688346933012       000  000  300  000  000  000         1  7591821903616       21179328       21179328   514016900001  N  0                       2102441 01/04/2023       USD          344         2062    404861340
01 37186054  DT510  N  VASELINA DROTOCA 50GR.                      6 9892742041019870313 1835766545935645224       000  000  300  000  000  000         1  7591616001428       21179239       21179239   514016900001  N  0                        114101 01/01/2024       USD          244         1466    404861340
01 37186054  FS510  N  VASELINA FSI 30GR.                          6 522425995 566930000 2670240303134555970       000  000  300  500  000  000         1  7592368001049       21179239       21179239   514016900001  N  0                       0521055 01/08/2024       USD          129          774    404861340
01 37186054  LR140  M  AMOXICILINA LF250MG.SUSP.                   6 964721997 994558760 1790205785788331982       000  000  300  000  000  000         2  7594000020043       21179239       21179239   514016900002  N  0                         L2110 01/07/2024       USD          238         1430    404861340
01 37186054  LX103  M  CARNISIN 1G.S.ORAL S/A180                   127111500002795000000  838500002711150000       000  000  300  000  000  000         2  7591585112323       21179328       21179328   514016900002  N  0                           054 01/04/2023       USD          670          670    404861340
01 37186054  LX103  M  CARNISIN 1G.S.ORAL S/A180                   227111500002795000000 1677000005422300000       000  000  300  000  000  000         2  7591585112323       21179328       21179328   514016900002  N  0                           054 01/04/2023       USD          670         1339    404861340
01 37186054  LC140  M  LETISAN SOL.GOTAS 20ML.                     3 844870000 871000000  783900002534610000       000  000  300  000  000  000         2  7591585114884       21179328       21179328   514016900002  N  0                           493 01/10/2023       USD          209          626    404861340
01 37186054  DT530  C  PASTA AL AGUA DT 100GR                      314844694001530380825 1377342754453408200       000  000  300  000  000  000         2  7591616000988       21179239       21179239   514016900002  N  0                        212904 01/08/2024       USD          367         1100    404861340
02 37186054         77   69024426388    4453408200           000   73477834588    0    0    0  000    0    0    0   17/09/2021 04:52:53 p.m.   PR           000           000             0            13           USD    404861340        18149
