01 37183027  PD275  M  CLENBUNAL 0,020MG. X20CO                    211700000001170000000       0002340000000       000  000  000  000  000  000         1  7591955000106       21176954       21176954   513984100001  N  0                          0032 01/03/2024       USD          291          582    402327759
01 37183027  15371  M  DOLCAN 50MG. X10CO                         12 290030000 299000000 1076400003480360000       000  000  300  000  000  000         1  7591619002750       21176954       21176954   513984100001  N  0                          0001 01/05/2023       USD          072          865    402327759
01 37183027  KL419  M  MIGRADORIXINA 125-1 X10CO                   113000000001300000000       0001300000000       000  000  000  000  000  000         1  7591619518688       21176954       21176954   513984100001  N  0                          1012 01/03/2023       USD          323          323    402327759
01 37183027  15523  M  ONDANSETRON KL4 SOL.50ML                    216900000001690000000       0003380000000       000  000  000  000  000  000         1  7591619150000       21176954       21176954   513984100001  N  0                          0001 01/06/2023       USD          420          840    402327759
01 37183027  KL084  M  PLIDAN COMP.10-125  X10CO                   617654000001820000000 327600000       000       000  000  300  000  000  000         1  7591619518695       21176954       21176954   513984100001  N  0                          0011 01/07/2024       USD          439         2633    402327759
01 37183027  HU001  M  TADIFIL 20MG. X1CO                         12 252200000 260000000  936000003026400000       000  000  300  000  000  000         1  7591619519029       21176954       21176954   513984100001  N  0                          0020 01/07/2022       USD          063          752    402327759
01 37183027  KL068  M  TAUCARON 15MG. X10CO                        610088000001040000000 1872000006052800000       000  000  300  000  000  000         1  7730698394183       21176954       21176954   513984100001  N  0                        M04518 01/11/2024       USD          251         1504    402327759
01 37183027  PD124  M  TRIDETARMON CR. 15GR.                       115600000001560000000       0001560000000       000  000  000  000  000  000         1  7591955000762       21176954       21176954   513984100001  N  0                          0081 01/04/2023       USD          388          388    402327759
01 37183027  PD370  M  CLENBUNAL JBE. AD. 120 CC                   114300000001430000000       0001430000000       000  000  000  000  000  000         2  7591955000120       21176954       21176954   513984100002  N  0                          0041 01/04/2025       USD          355          355    402327759
01 37183027  LP660  M  GULAPER GOTAS 30CC.                         310088000001040000000  936000003026400000       000  000  300  000  000  000         2  7591955001301       21176954       21176954   513984100002  N  0                          0032 01/03/2023       USD          251          752    402327759
01 37183027  10855  M  HEXANT 30MG/5MI 120ML                       312610000001300000000 1170000003783000000       000  000  300  000  000  000         2  7591619519166       21176954       21176954   513984100002  N  0                          0008 01/02/2023       USD          313          940    402327759
02 37183027         49   39971360000           000           000   39971360000    0    0    0  000    0    0    0   16/09/2021 11:12:36 a.m.   PR           000           000             0            11           USD    402327759         9935
