01 37187257  CO265  M  CLORACE 500MG/4MG X10TA                     3 693565001 794461628 3026898812080695003       000  000  300 1000  000  000         1  7591818116043       21179743       21179743   514022430001  N  0                         10162 01/04/2024       USD          172          515    404183044
01 37187257  SA500  M  DUVADILAN 10MG. X30CO                       132370000003237000000       0003237000000       000  000  000  000  000  000         1  7591651932299       21179743       21179743   514022430001  N  0                       2106128 01/06/2026       USD          801          801    404183044
01 37187257  LO690  M  RINOMAX SOL. NASAL 15ML.                    3 920026629 948481061  853632962760079887       000  000  300  000  000  000         1  7591196000682       21179845       21179845   514022430001  N  0                       I011084 01/02/2023       USD          228          683    404183044
01 37187257  LO444  M  APIRET 180SOL.ORAL 120ML.                   6 920800847 949279224 1708702625524805082       000  000  300  000  000  000         2  7591196002785       21179743       21179743   514022430002  N  0                       I081181 01/08/2023       USD          228         1367    404183044
01 37187257  11808  M  APIRET 180SOL.ORAL 60ML.                    6 437113904 450632891  811139222622683424       000  000  300  000  000  000         2  7591196007155       21179743       21179743   514022430002  N  0                       I081182 01/08/2023       USD          108          649    404183044
02 37187257         19   16225263396           000           000   16225263396    0    0    0  000    0    0    0   20/09/2021 09:47:35 a.m.   PR           000           000             0             5           USD    404183044         4014
