01 37183758  GN153  M  AC FOLICO GN 5MG. X30CO                    12 624195000 643500000 2316600007490340000       000  000  300  000  000  000         1  7591585271488       21176349       21176349   513982640001  N  0                           024 01/05/2023       USD          155         1862    402327759
01 37183758  PO335  M  COLAYTE POLVO 69,6GR 4TAR                   169160000006916000000       0006916000000       000  000  000  000  000  000         1  7592806132014       21176349       21176349   513982640001  N  0                        107123 01/07/2023       USD         1719         1719    402327759
01 37183758  13848  M  DICLOFENAC P. FM50 X10TA                   96 170235000 175500000 505440000       000       000  000  300  000  000  000         1  8906082150621       21176773       21176773   513982640001  N  0                         T1017 01/12/2023       USD          042         4062    402327759
01 37183758  15240  M  DICLOFENAC P.LAND50 100TA                  1216090360001658800000 597168000       000       000  000  300  000  000  000         1  7598008000342       21176773       21176773   513982640001  N  0                         T9665 01/03/2024       USD          400         4799    402327759
01 37183758  GN146  M  ENALAPRIL GN 20MG. X30CO                   12 499356000 572000000 8717280005992272000       000  000  300 1000  000  000         1  7591585378538       21176718       21176718   513982640001  N  0                           420 01/03/2023       USD          124         1489    402327759
01 37183758  PO460  M  FOLIFER B12 TAB. X30                        612736100001313000000 2363400007641660000       000  000  300  000  000  000         1  7592806133639       21176349       21176349   513982640001  N  0                        106098 01/06/2024       USD          317         1899    402327759
01 37183758  10372  M  GYNOMET 15%-4%CR.VAG.40GR                   319766175002037750000 1833975005929852500       000  000  300  000  000  000         1  7591585119131       21176718       21176718   513982640001  N  0                           069 01/05/2023       USD          491         1474    402327759
01 37183758  AY171  C  JER 3CC 21X1-1/2 KX X100                    143550000004355000000       0004355000000 696800000  000  000  000  000  000         1 10813333013824       21176700       21176700   513982640001  N  0                        210225 01/03/2023       USD         1082         1082    402327759
01 37183758  LT037  M  LISILET 10MG. X30CO                         317401800001794000000 1614600005220540000       000  000  300  000  000  000         1  7591585314369       21176349       21176349   513982640001  N  0                           130 01/11/2023       USD          433         1298    402327759
01 37183758  MG365  M  LISILET 20MG. X30COMPR.                     128080000002808000000       0002808000000       000  000  000  000  000  000         1  7591585214379       21176349       21176349   513982640001  N  0                           136 01/05/2024       USD          698          698    402327759
01 37183758  15230  M  METRONIDAZOL LAND500 10TV                   610819380001115400000 2007720006491628000       000  000  300  000  000  000         1  7598008000939       21176718       21176718   513982640001  N  0                         T9480 01/02/2024       USD          269         1614    402327759
01 37183758  14580  M  OMEPRAZOL LAND20MG.X100CA                   317754880001830400000 1647360005326464000       000  000  300  000  000  000         1  7598008000601       21176718       21176718   513982640001  N  0                         C1886 01/03/2024       USD          441         1324    402327759
01 37183758  PD210  M  PRAXONA 150MG. X10CO                        310088000001040000000  936000003026400000       000  000  300  000  000  000         1  7591955000663       21176349       21176349   513982640001  N  0                          0053 01/02/2023       USD          251          752    402327759
01 37183758  GN759  M  DESLORATADINA GN S.ORAL60                  12 680940000 702000000 2527200008171280000       000  000  300  000  000  000         2  7591585177445       21176718       21176718   513982640002  N  0                           051 01/03/2023       USD          169         2031    402327759
01 37183758  LP425  M  GULAPER JBE.PED. 120ML.                     612610000001300000000 2340000007566000000       000  000  300  000  000  000         2  7591955001295       21176718       21176718   513982640002  N  0                          0047 01/07/2023       USD          313         1881    402327759
02 37183758        177  108231428500    4355000000     696800000  113283228500    0    0    0  000    0    0    0   16/09/2021 02:05:37 p.m.   PR           000           000             0            15           USD    402327759        27984
