01 37182098  EL524  M  BRUGESICFORTE 200SUSP60ML                   3 929029342 957762208  861985982787088026       000  000  300  000  000  000         1  7591062013082       21175854       21175854   513973780001  N  0                        20140A 01/11/2022       USD          230          691    403165431
01 37182098  QR350  M  DAFLON 500MG. X60CO                         11505317664815053176648       000       000       000  000  000  000  000  000         1  7592788000585       21175854       21175854   513973780001  N  0                       6025251 01/11/2023       USD         3734         3734    403165431
01 37182098  13893  M  DESAZONA 4MG. X100TA                        353907750005557500000 500175000       000       000  000  300  000  000  000         1  7750215026250       21175854       21175854   513973780001  N  0                       2061171 01/06/2024       USD         1337         4011    403165431
01 37182098  15240  M  DICLOFENAC P.LAND50 100TA                   316090360001658800000 1492920004827108000       000  000  300  000  000  000         1  7598008000342       21175854       21175854   513973780001  N  0                         T9665 01/03/2024       USD          399         1197    403165431
01 37182098  KN102  M  DIECAPS 120MG. X30CA                        322698000002340000000 2106000006809400000       000  000  300  000  000  000         1  7591955558188       21175854       21175854   513973780001  N  0                          0263 01/07/2023       USD          563         1689    403165431
01 37182098  ZU001  C  IODINEX JABON LIQ. 120ML.                   213464248171346424817       0002692849634       000  000  000  000  000  000         2  7595248000033       21175854       21175854   513973780002  N  0                       0200543 01/04/2026       USD          334          668    403165431
01 37182098  GN138  M  CEFADROXILO GN250 PPS75ML                   314501500001495000000 1345500004350450000       000  000  300  000  000  000         3  7591585270207       21175854       21175854   513973780003  N  0                           740 01/03/2023       USD          360         1079    403165431
01 37182098  LC314  N  FLUVIRIN JBE. 120ML.                        613871000001430000000 2574000008322600000       000  000  300  000  000  000         3  7591585111166       21175854       21175854   513973780003  N  0                           224 01/04/2023       USD          344         2064    403165431
02 37182098         24   58322147674    2692849634           000   61014997308    0    0    0  000    0    0    0   15/09/2021 02:48:00 p.m.   PR           000           000             0             8           USD    403165431        15134
