01 37184663  AO180  M  CALOXPIRINA 81MG. X30TA                    1212357800001274000000 458640000       000       000  000  300  000  000  000         1  7591519008487       21178033       21178033   514000310001  N  0                         32233 01/08/2024       USD          305         3663    404861340
01 37184663  MK117  M  FLAVOXATO +MK 200MG.X10TA                   312862200001326000000 1193400003858660000       000  000  300  000  000  000         1  7591519009330       21177851       21177851   514000310001  N  0                         31915 01/04/2023       USD          318          953    404861340
01 37184663  MY109  M  CETRAL 10MG. GOTAS 10ML.                    3 772740800 796640000  716976002318222400       000  000  300  000  000  000         2  7592601100706       21177721       21177721   514000310002  N  0                        926105 01/01/2022       USD          191          573    404861340
01 37184663  AP950  M  CETRAL D SOL.ORAL 60ML.                     313557011001397630000 1257867004067103300       000  000  300  000  000  000         2  7592601101147       21177721       21177721   514000310002  N  0                        033102 01/07/2022       USD          335         1005    404861340
02 37184663         21   25073345700           000           000   25073345700    0    0    0  000    0    0    0   17/09/2021 10:19:48 a.m.   PR           000           000             0             4           USD    404861340         6193
