01 37184144  13959  M  LEVATIR 1000MG. X30TA                       170127843247012784324       0007012784324       000  000  000  000  000  000         1  7406076125181       21177628       21177628   513993730001  N  0                        G20067 01/07/2022       USD         1743         1743    402327759
01 37184144  14121  M  METFORMINA 500MGX 30TAB                    12 416130000 429000000 1544400004993560000       000  000  300  000  000  000         1  7592236002345       21177628       21177628   513993730001  N  0                      TM730010 01/01/2024       USD          103         1241    402327759
01 37184144  ED008  M  MUCLAR 30MG-5MG X10CO                       3 933140000 962000000  865800002799420000       000  000  300  000  000  000         1  7592803002594       21177628       21177628   513993730001  N  0                       2104514 01/04/2023       USD          232          696    402327759
01 37184144  KL084  M  PLIDAN COMP.10-125  X10CO                   617654000001820000000 327600000       000       000  000  300  000  000  000         1  7591619518695       21177628       21177628   513993730001  N  0                          0011 01/07/2024       USD          439         2633    402327759
01 37184144  CH121  C  SECUREZZA POST PARTO X10                    3 394787265 406997180  366297451184361795 189497887  000  300  000  000  000         1  7591353700059       21177628       21177628   513993730001  N  0                      10731106 01/07/2023       USD          098          294    402327759
01 37184144  PD880  M  TIALIN 50MG. X30CO                          325220000002600000000 2340000007566000000       000  000  300  000  000  000         1  7591955000854       21177628       21177628   513993730001  N  0                          0057 01/04/2024       USD          627         1881    402327759
01 37184144  PD124  M  TRIDETARMON CR. 15GR.                       315132000001560000000 1404000004539600000       000  000  300  000  000  000         1  7591955000762       21177628       21177628   513993730001  N  0                          0081 01/04/2023       USD          376         1128    402327759
01 37184144  PB089  C  OVERSKIN 40% CR. 50GR.                      2 730394822 730394822       0001460789644 233726343  000  000  000  000  000         2  7591309000622       21177628       21177628   513993730002  N  0                      A2108251 01/08/2024       USD          182          363    402327759
01 37184144  KV007  N  TERATOSIL MIEL JBE.120ML.                   612483900001287000000 2316600007490340000       000  000  300  000  000  000         3  7591821802551       21177628       21177628   513993730003  N  0                      2106823B 01/06/2024       USD          310         1862    402327759
02 37184144         39   44994104324    2645151439     423224230   48062479993    0    0    0  000    0    0    0   16/09/2021 03:12:51 p.m.   PR           000           000             0             9           USD    402327759        11841
