01 37194906  13542  M  ACETAMINOFEN GN650 X10CO                   12 258960000 312000000 6364800003107520000       000  000  000 1700  000  000         1  7591585279057       21185546       21185546   514102430001  N  0                           055 01/06/2023       USD          064          771    403212857
01 37194906  MG519  M  TROPOCER AP 90MG. X20CO                     121450000002145000000       0002145000000       000  000  000  000  000  000         1  7591585113597       21185546       21185546   514102430001  N  0                           120 01/11/2022       USD          532          532    403212857
01 37194906  LN255  M  BROMEXINA LN 8MG.JBE120ML                   6 918531253 966875003 2900625005511187518       000  000  000  500  000  000         2  7592348204002       21185578       21185578   514102430002  N  0                         41476 01/08/2024       USD          228         1367    403212857
01 37194906  PD390  M  FLEMICAINE SOL.TOP. 5ML.                    110400000001040000000       0001040000000       000  000  000  000  000  000         2  7591955000489       21185546       21185546   514102430002  N  0                          0027 01/04/2024       USD          258          258    403212857
02 37194906         20   11803707518           000           000   11803707518    0    0    0  000    0    0    0   23/09/2021 05:29:26 p.m.   PR           000           000             0             4           USD    403212857         2927
