01 37192207  LO504  M  ACETAB 250MG. X20TA                         115627493211562749321       0001562749321       000  000  000  000  000  000         1  7591196004802       21183384       21183384   514076920001  N  0                       I061144 01/07/2023       USD          388          388    402631640
01 37192207  12193  M  AZITROMICINA AL200 22,5ML                  12 807737354100967169324232120689692848248       000  000  000 2000  000  000         1  7597758000152       21183474       21183474   514076920001  N  0                      A1ARD002 01/03/2024       USD          201         2407    402631640
01 37192207  VO310  M  AZITROMICINA GENCER500 X5                  2413689000001368900000       000       000       000  000  000  000  000  000         1  7591020007597       21183474       21183474   514076920001  N  0                            67 01/07/2026       USD          340         8160    402631640
01 37192207  12927  M  CLOTRIMAZOL AL200MG X3OVU                   6 784298548 871442831 5228656984705791288       000  000  000 1000  000  000         1  7597758000657       21183384       21183384   514076920001  N  0                      K1AAL004 01/07/2023       USD          195         1169    402631640
01 37192207  13523  M  LEFLUMAX 500MG X7CO                         6221000000026000000002340000000       000       000  000  000 1500  000  000         1  7796285052874       21183474       21183474   514076920001  N  0                          3531 01/04/2023       USD          549         3293    402631640
01 37192207  14786  M  NEULEVAL 500MG. X10TA                       630696108503069610850       000       000       000  000  000  000  000  000         1  7591020081122       21183474       21183474   514076920001  N  0                            04 01/08/2023       USD          762         4574    402631640
01 37192207  14787  M  NEULEVAL 750MG. X5TA                        620515625002051562500       000       000       000  000  000  000  000  000         1  7591020080989       21183474       21183474   514076920001  N  0                            03 01/08/2023       USD          510         3057    402631640
01 37192207  LO134  M  OCUPRED 1% SUSP.OFT. 5ML.                   3 919278712 919278712       0002757836136       000  000  000  000  000  000         1  7591196002242       21183384       21183384   514076920001  N  0                        051968 01/05/2023       USD          228          685    402631640
01 37192207  ZP002  M  ORALZINC MNDARINA.PVO.1S                    311180000001118000000       0003354000000       000  000  000  000  000  000         1  7591651722302       21183474       21183474   514076920001  N  0                       2106030 01/06/2023       USD          278          833    402631640
02 37192207         67   98913865093           000           000   98913865093    0    0    0  000    0    0    0   22/09/2021 04:57:52 p.m.   PR           000           000             0             9           USD    402631640        24567
