01 37192439  GT119  M  ASAPROL 81MG. X100CO                        636946000003770000000 452400000       000       000  000  000  200  000  000         1  7591585261236       21183653       21183653   514076910001  N  0                           165 01/05/2023       USD          918         5506    402631640
01 37192439  LA102  C  CLIMAX BANANA PRESERV. X3                   3 664950000 715000000 1501500001994850000 319176000  000  700  000  000  000         1  8852961008661       21183384       21183384   514076910001  N  0                        174501 01/10/2022       USD          165          495    402631640
01 37192439  KW003  C  CLIMAX CHOCO PRESERV. X3                    3 664950000 715000000 1501500001994850000 319176000  000  700  000  000  000         1  8852961006124       21183384       21183384   514076910001  N  0                        174502 01/10/2022       USD          165          495    402631640
01 37192439  KW001  C  CLIMAX FRESA PRESERV. X3                    3 664950000 715000000 1501500001994850000 319176000  000  700  000  000  000         1  8852961006179       21183384       21183384   514076910001  N  0                        174503 01/10/2022       USD          165          495    402631640
01 37192439  LA104  C  CLIMAX FRUTAS PRESERV. X3                   3 664950000 715000000 1501500001994850000 319176000  000  700  000  000  000         1  8852961008678       21183384       21183384   514076910001  N  0                        174504 01/10/2022       USD          165          495    402631640
01 37192439  ED004  M  CLOFEN 1,8MG. SUSP. 60ML.                   3 845000000 845000000       0002535000000       000  000  000  000  000  000         1  7592803001801       21183653       21183653   514076910001  N  0                       2107578 01/08/2023       USD          210          630    402631640
01 37192439  KF190  M  DERMAZOL 0,05% CR.30GR.                     118200000001820000000       0001820000000       000  000  000  000  000  000         1  7591619519036       21183384       21183384   514076910001  N  0                          0063 01/08/2023       USD          452          452    402631640
01 37192439  KF200  M  DERMAZOL 0,05% UNG.30GR.                    120800000002080000000       0002080000000       000  000  000  000  000  000         1  7591619519043       21183384       21183384   514076910001  N  0                          0049 01/06/2023       USD          517          517    402631640
01 37192439  14414  M  GABAPENTINA SP300 X20CA                     311700000001170000000       0003510000000       000  000  000  000  000  000         1  7590027002093       21183384       21183384   514076910001  N  0                           151 01/01/2023       USD          291          872    402631640
01 37192439  GP870  M  MISELLIM 10MG. X20CO                        315600000001560000000       0004680000000       000  000  000  000  000  000         1  7594000491607       21183384       21183384   514076910001  N  0                          0047 01/05/2025       USD          387         1162    402631640
01 37192439  14300  M  NEUMOCORT INH.200MCGX200D                   141959125004416750000 2208375004195912500       000  000  000  500  000  000         1  7795373012912       21183384       21183384   514076910001  N  0                           202 01/06/2023       USD         1042         1042    402631640
01 37192439  14578  M  NIFEDIPINA LAND20 X100TA                    116187600001618760000       0001618760000       000  000  000  000  000  000         1  7598008000588       21183653       21183653   514076910001  N  0                         T9084 01/09/2023       USD          402          402    402631640
01 37192439  14579  M  NIFEDIPINA LAND30 X100TA                    145474000004547400000       0004547400000       000  000  000  000  000  000         1  7598008000595       21183653       21183653   514076910001  N  0                         T9687 01/03/2024       USD         1129         1129    402631640
01 37192439  EL017  M  OFAFLAN GOTAS PED. 30ML.                    3 869201580 869201580       0002607604740       000  000  000  000  000  000         1  7591062900894       21183384       21183384   514076910001  N  0                        20052A 01/05/2022       USD          216          648    402631640
01 37192439  VC580  M  OTAN GOTAS 5ML.                             310660000001066000000       0003198000000       000  000  000  000  000  000         1  7592782000567       21183384       21183384   514076910001  N  0                       2120011 01/02/2023       USD          265          794    402631640
01 37192439  LT041  M  RIFAMIX 200MG. X12CO                        337700000003770000000       000       000       000  000  000  000  000  000         1  7591585119049       21183384       21183384   514076910001  N  0                           046 01/12/2023       USD          936         2809    402631640
01 37192439  12806  M  SACRUSYT 100MCG.AER. 200D                   318772000001877200000       0005631600000       000  000  000  000  000  000         1  7707274721206       21183384       21183384   514076910001  N  0                       2024821 01/09/2023       USD          466         1399    402631640
01 37192439  15082  M  SANA 2% CR.VAG. 20GR.                       611375000001137500000       0006825000000       000  000  000  000  000  000         1  7598127001091       21183384       21183384   514076910001  N  0                        210310 01/03/2024       USD          283         1695    402631640
01 37192439  13978  M  SOLFEM OV.VAG. X10                          135527605053552760505       0003552760505       000  000  000  000  000  000         1  7597767000808       21183384       21183384   514076910001  N  0                         12981 01/02/2023       USD          882          882    402631640
01 37192439  LT017  M  TENSOMAX 30MG. LP X40CA                     133150000003315000000       0003315000000       000  000  000  000  000  000         1  7591585418432       21183384       21183384   514076910001  N  0                           164 01/03/2023       USD          823          823    402631640
01 37192439  NP007  M  BETADINE 10% SO.TOP.120ML                   122815000002281500000       0002281500000       000  000  000  000  000  000         2  7591821102231       21183384       21183384   514076910002  N  0                       2009824 01/11/2022       USD          567          567    402631640
01 37192439  GN019  M  CETIRIZINA GN SOL. 60ML.                   12 611520000 624000000 1497600007338240000       000  000  000  200  000  000         2  7591585174598       21183384       21183384   514076910002  N  0                           083 01/08/2023       USD          152         1823    402631640
02 37192439         65   93214377745    7979400000    1276704000  102470481745    0    0    0  000    0    0    0   22/09/2021 05:43:45 p.m.   PR           000           000             0            22           USD    402631640        25133
