01 37197196  LO139  M  ALERGOT SOL.OFT. 5CC.                       317137362891713736289       0005141208867       000  000  000  000  000  000         1  7591196002693       21187014       21187014   514123770001  N  0                        021696 01/02/2023       USD          424         1272    404087150
01 37197196  12078  M  CLAUSY SUSP.ORAL X10 5ML.                   154080000005408000000       0005408000000       000  000  000  000  000  000         1  8936187370020       21187014       21187014   514123770001  N  0                         20820 01/08/2022       USD         1338         1338    404087150
01 37197196  VM780  M  AMOXIVAL 250MG.PPSO 90ML.                   317206245111720624511       0005161873533       000  000  000  000  000  000         2  7591020000758       21187014       21187014   514123770002  N  0                           419 01/05/2023       USD          426         1277    404087150
01 37197196  CO380  M  CLORACE JBE.PED. 120ML.                     6 851456125 946062361 5676374165108736750       000  000  000 1000  000  000         2  7591818112069       21187014       21187014   514123770002  N  0                         10367 01/08/2025       USD          211         1264    404087150
01 37197196  GG800  M  MUCORAMA 15MG. JBE.118ML.                   311310000001131000000       0003393000000       000  000  000  000  000  000         2  7591651722401       21187014       21187014   514123770002  N  0                       2104055 01/04/2023       USD          280          840    404087150
02 37197196         16   24212819150           000           000   24212819150    0    0    0  000    0    0    0   24/09/2021 06:04:23 p.m.   PR           000           000             0             5           USD    404087150         5992
