01 37198264  FF450  M  BUDESONIDA MF 50MCG.200D                    249473060004947306000       0009894612000       000  000  000  000  000  000         1  7591096000898       21187816       21187816   514130100001  N  0                      069R001E 01/02/2023       USD         1205         2411    410421799
01 37198264  15220  C  CALAMINOL FRESH LOT.104ML                   313656500001365650000       0004096950000 655512000  000  000  000  000  000         1       75971748       21187816       21187816   514130100001  N  0                       2106501 01/06/2024       USD          333          998    410421799
01 37198264  12139  M  CAPTOPRIL BM25MG. X100TA                    117082000001708200000       0001708200000       000  000  000  000  000  000         1  6930169708056       21187816       21187816   514130100001  N  0                        190445 01/03/2022       USD          416          416    410421799
01 37198264  12141  M  CARVEDILOL BM6,25 X100TA                    226000000002600000000       0005200000000       000  000  000  000  000  000         1  6930169708377       21187816       21187816   514130100001  N  0                        210431 01/04/2024       USD          633         1267    410421799
01 37198264  14429  M  ENALAPRIL GN 20MG. X10CO                   12 185250000 185250000       0002223000000       000  000  000  000  000  000         1  7591585278531       21187728       21187728   514130100001  N  0                           421 01/05/2023       USD          045          542    410421799
01 37198264  GN146  M  ENALAPRIL GN 20MG. X30CO                   12 474760000 57200000011668800005697120000       000  000  000 1700  000  000         1  7591585378538       21187728       21187728   514130100001  N  0                           422 01/05/2023       USD          116         1388    410421799
01 37198264  15390  M  ENOVAL 10MG. X30TA                          6 406634717 406634717       0002439808302       000  000  000  000  000  000         1  7501075725407       21187728       21187728   514130100001  N  0                        160291 01/04/2023       USD          099          594    410421799
01 37198264  VC450  M  FUGOLIN CR.VAG. 50GR.                       222750000002275000000       0004550000000       000  000  000  000  000  000         1  7592782000307       21187816       21187816   514130100001  N  0                       2140008 01/04/2023       USD          554         1109    410421799
01 37198264  10372  M  GYNOMET 15%-4%CR.VAG.40GR                   621450000002145000000       000       000       000  000  000  000  000  000         1  7591585119131       21187728       21187728   514130100001  N  0                           070 01/05/2023       USD          523         3136    410421799
01 37198264  BA104  M  GYNOTRAN OV.VAG. X7                         251591923035159192303       000       000       000  000  000  000  000  000         1  7401078990089       21187728       21187728   514130100001  N  0                        200230 01/08/2022       USD         1257         2514    410421799
01 37198264  14564  M  HIOSCINA BUTI LAND10 X100                   250908000005090800000       000       000       000  000  000  000  000  000         1  7598008000441       21187816       21187816   514130100001  N  0                         T9670 01/03/2024       USD         1240         2481    410421799
01 37198264  14846  M  KETOPROFENO ZIEL100 X5A                     225317500002531750000       0005063500000       000  000  000  000  000  000         1  0781584377633       21187844       21187844   514130100001  N  0                     EP0121011 01/03/2023       USD          617         1234    410421799
01 37198264  LC840  M  LETISAN SOL.ORAL 120ML.                     6 9009000001001000000 6006000005405400000       000  000  000 1000  000  000         1  7591585214881       21187728       21187728   514130100001  N  0                           498 01/07/2024       USD          220         1317    410421799
01 37198264  14121  M  METFORMINA 500MGX 30TAB                    12 429000000 429000000       0005148000000       000  000  000  000  000  000         1  7592236002345       21187816       21187816   514130100001  N  0                      TM730012 01/03/2024       USD          105         1254    410421799
01 37198264  13488  M  PREDNISOLONA 5MGX30TAB                      611329500001132950000       0006797700000       000  000  000  000  000  000         1  7598176000175       21187728       21187728   514130100001  N  0                       TEMH191 01/07/2023       USD          276         1656    410421799
01 37198264  KV280  N  SENOKOT JBE. 10MG. 120ML.                   329250000002925000000       0008775000000       000  000  000  000  000  000         1  7591821800212       21187853       21187853   514130100001  N  0                      2106231B 01/07/2023       USD          713         2138    410421799
01 37198264  14583  M  SULF.FERROSO LAND300 X100                   616588000001658800000       0009952800000       000  000  000  000  000  000         1  7598008000380       21187876       21187876   514130100001  N  0                         T9685 01/03/2024       USD          404         2425    410421799
01 37198264  12378  M  TAMSULOSINA 0.4MG X30TA                     221157500002115750000       0004231500000       000  000  000  000  000  000         1  7598176000069       21187841       21187841   514130100001  N  0                       21T0435 01/03/2024       USD          516         1031    410421799
01 37198264  12393  M  TAMSUWELL 0.4MG X100CO                      149240912504924091250       0004924091250       000  000  000  000  000  000         1  8904307701177       21187841       21187841   514130100001  N  0                         11348 01/05/2024       USD         1200         1200    410421799
01 37198264  ED185  M  VIZERUL 150MG. X10CO                        610725000001072500000       0006435000000       000  000  000  000  000  000         1  7592803000989       21187728       21187728   514130100001  N  0                       2108614 01/08/2024       USD          261         1568    410421799
01 37198264  GN091  M  CAPTOPRIL GN 25MG.X30CO                     6 832000000 832000000       0004992000000       000  000  000  000  000  000         2  7591585370167       21187816       21187816   514130100002  N  0                           119 01/04/2025       USD          203         1216    410421799
01 37198264  KF190  M  DERMAZOL 0,05% CR.30GR.                     218200000001820000000       0003640000000       000  000  000  000  000  000         2  7591619519036       21187728       21187728   514130100002  N  0                          0063 01/08/2023       USD          443          887    410421799
01 37198264  VT350  C  CALAMINOL FRESH GEL 90GR.                   212927200001292720000       0002585440000 413670400  000  000  000  000  000         3  7591808000086       21187816       21187816   514130100003  N  0                       2108501 01/08/2024       USD          315          630    410421799
01 37198264  LN200  C  POLIFIX POLVO 22GR.                         211535152321153515232       0002307030464 369124874  000  000  000  000  000         3  7592348227506       21187816       21187816   514130100003  N  0                       2106507 01/06/2026       USD          281          562    410421799
02 37198264        106  130447716158    8989420464    1438307274  140875443896    0    0    0  000    0    0    0   27/09/2021 01:55:42 p.m.   PR           000           000             0            24           USD    410421799        33974
