01 37201135  QO270  M  ANALPER FORTE TAB. 650X10                   6 337350000 449800000 6747000002024100000       000  000  000 2500  000  000         1  7592454000802       21190565       21190565   514167200001  N  0                       3268606 01/05/2023       USD          081          489    414272704
01 37201135  12903  M  CHEAR ACI 100MG X10TA                       310920000001092000000       0003276000000       000  000  000  000  000  000         1  7598055000272       21190565       21190565   514167200001  N  0                         TA225 01/12/2021       USD          264          791    414272704
01 37201135  11686  M  DESLER 0,5MG. JBE.60ML.                     310816000001081600000       0003244800000       000  000  000  000  000  000         1  7592454891318       21190565       21190565   514167200001  N  0                       3254792 01/01/2023       USD          261          783    414272704
01 37201135  GQ794  M  DESLORATADINA ELTR JBE.60                   6 797680000 99710000011965200004786080000       000  000  000 2000  000  000         1  7703763393053       21190565       21190565   514167200001  N  0                       3268611 01/05/2023       USD          193         1155    414272704
01 37201135  GQ037  M  LORATADINA ELTER 10MG.X20                  12 628745000 73970000013314600007544940000       000  000  000 1500  000  000         1  7592454889605       21190565       21190565   514167200001  N  0                       3269012 01/06/2023       USD          152         1821    414272704
02 37201135         30   20875920000           000           000   20875920000    0    0    0  000    0    0    0   28/09/2021 04:44:28 p.m.   PR           000           000             0             5           USD    414272704         5039
