01 37204407  GN088  M  AMLODIPINA GN 10MG. X30CO                   6 663000000 780000000 7020000003978000000       000  000  000 1500  000  000         1  7591585278173       21192418       21192418   514193770001  N  0                           189 01/03/2024       USD          160          961    413861756
01 37204407  12164  M  ANTICONCEPTI BM3-0,03 X21                   319695000001969500000       0005908500000       000  000  000  000  000  000         1  6930169708360       21192418       21192418   514193770001  N  0                        190439 01/03/2022       USD          476         1428    413861756
01 37204407  14227  M  ATORVAS. GDG.PHA 20MGX14T                   3 650650000 650650000       0001951950000       000  000  000  000  000  000         1  7598307000029       21192418       21192418   514193770001  N  0                         SM013 01/07/2022       USD          157          472    413861756
01 37204407  15428  M  ATORVASTATINA BUKA40 30TA                   324700000002470000000       0007410000000       000  000  000  000  000  000         1  0675696260146       21192418       21192418   514193770001  N  0                        AVA302 01/11/2023       USD          597         1790    413861756
01 37204407  GN092  M  ATORVASTATINA GN 20X30                      311279840001327040000 5971680003383952000       000  000  000 1500  000  000         1  7591585373441       21192418       21192418   514193770001  N  0                           248 01/06/2023       USD          273          818    413861756
01 37204407  14539  M  ATORVASTATINA LAND20 X100                   137180000003718000000       0003718000000       000  000  000  000  000  000         1  7598008000182       21192418       21192418   514193770001  N  0                     TA1950001 01/06/2024       USD          898          898    413861756
01 37204407  14540  M  ATORVASTATINA LAND40 X100                   168068000006806800000       0006806800000       000  000  000  000  000  000         1  7598008000199       21192418       21192418   514193770001  N  0                     TA1980001 01/06/2024       USD         1645         1645    413861756
01 37204407  14490  M  DICLOFEN S.BALAX100 100TA                   313000000001300000000       0003900000000       000  000  000  000  000  000         1  6937874104364       21192418       21192418   514193770001  N  0                       D190215 01/01/2022       USD          314          942    413861756
01 37204407  13484  M  FLUOXETINA 20MGX30 CAP                      311466000001146600000       0003439800000       000  000  000  000  000  000         1  7598176000151       21192418       21192418   514193770001  N  0                       CEMH062 01/07/2023       USD          277          831    413861756
01 37204407  13052  M  GENODERM 2N00/0N035 X21CO                   134456500003627000000 1813500003445650000       000  000  000  500  000  000         1  7730564249029       21192418       21192418   514193770001  N  0                         41961 01/05/2024       USD          833          833    413861756
01 37204407  SA520  M  MESIGYNA INSTAYECT 1ML.                     140137500004013750000       0004013750000       000  000  000  000  000  000         1  7501303443318       21192418       21192418   514193770001  N  0                       XB30LG4 01/05/2022       USD          970          970    413861756
01 37204407  LC409  M  MIGREN 650-50-1 X10CO                       6 655200000 728000000 4368000003931200000       000  000  000 1000  000  000         1  7591585115737       21192418       21192418   514193770001  N  0                           530 01/06/2023       USD          158          950    413861756
01 37204407  13491  M  VALSARTAN 160MG X10 TAB                     310442250001044225000       0003132675000       000  000  000  000  000  000         1  7598176000236       21192418       21192418   514193770001  N  0                        T00229 01/11/2023       USD          252          757    413861756
01 37204407  15599  M  VALSARTAN DIS160 X30TA                      132413960773241396077       0003241396077       000  000  000  000  000  000         1  7598252101673       21192418       21192418   514193770001  N  0                        210560 01/05/2024       USD          783          783    413861756
01 37204407  LT249  M  XYLON 5MG/6,25MG. X30CO                     316432000001643200000       0004929600000       000  000  000  000  000  000         1  7591585113313       21192418       21192418   514193770001  N  0                           087 01/02/2023       USD          397         1191    413861756
02 37204407         41   63191273077           000           000   63191273077    0    0    0  000    0    0    0   29/09/2021 06:43:06 p.m.   PR           000           000             0            15           USD    413861756        15269
