01 37202674  LT404  M  AXOKINE 400MG. X5CO                         142354000004706000000 4706000004235400000       000  000  000 1000  000  000         1  7591585114280       21191021       21191021   514174080001  N  0                           041 01/07/2024       USD         1023         1023    413861756
01 37202674  LT404  M  AXOKINE 400MG. X5CO                         242354000004706000000 9412000008470800000       000  000  000 1000  000  000         1  7591585114280       21191021       21191021   514174080001  N  0                           041 01/07/2024       USD         1023         2047    413861756
01 37202674  PO175  M  BACITRACINA PO UNG. 15GR.                   3 832000000 832000000       0002496000000       000  000  000  000  000  000         1  7592806141016       21191021       21191021   514174080001  N  0                        105074 01/05/2024       USD          201          603    413861756
01 37202674  FF450  M  BUDESONIDA MF 50MCG.200D                    349473060004947306000       000       000       000  000  000  000  000  000         1  7591096000898       21191021       21191021   514174080001  N  0                      069R001E 01/02/2023       USD         1195         3586    413861756
01 37202674  15240  M  DICLOFENAC P.LAND50 100TA                   616588000001658800000       0009952800000       000  000  000  000  000  000         1  7598008000342       21191021       21191021   514174080001  N  0                         T9665 01/03/2024       USD          401         2405    413861756
01 37202674  GP480  M  NAFINA CREMA 1% 15GR.                       311700000001170000000       0003510000000       000  000  000  000  000  000         1  7594000491164       21191021       21191021   514174080001  N  0                          0024 01/04/2023       USD          283          848    413861756
01 37202674  11536  M  OLMECAR 20MG. X30CO                         318460000001846000000       0005538000000       000  000  000  000  000  000         1  7591585318794       21191021       21191021   514174080001  N  0                           041 01/05/2023       USD          446         1338    413861756
01 37202674  15425  M  OLMESARTAN BUKA20 X30TA                     318850000001885000000       0005655000000       000  000  000  000  000  000         1  0675696260184       21191021       21191021   514174080001  N  0                        OSN301 01/11/2023       USD          455         1366    413861756
01 37202674  LX103  M  CARNISIN 1G.S.ORAL S/A180                   327950000002795000000       0008385000000       000  000  000  000  000  000         2  7591585112323       21191021       21191021   514174080002  N  0                           054 01/04/2023       USD          675         2026    413861756
02 37202674         27   63084918000           000           000   63084918000    0    0    0  000    0    0    0   29/09/2021 11:02:17 a.m.   PR           000           000             0             9           USD    413861756        15243
