01 37017485  MG524  M  ACICLOR AP 1GR. X10CO                       322932000002340000000 1404000006879600000       000    0    0    0    0    2         1  7591585111838       21030162       21030162   512302940001  N  0                           038 01/10/2023       USD          773         2319    296667896
01 37017485  MK106  M  AMLODIPINA +MK10MG. X30TA                   2 645408400 658580000  263432001290816800       000    0    0    0    0    2         1  7591519001648       21030162       21030162   512302940001  N  0                         31671 01/01/2023       USD          218          435    296667896
01 37017485  VO001  M  CIPROFLOXACINA GENCER500X12                 3 566811769 578379356  347027611700435307       000    0    0    0    0    2         1  7591020008891       21030162       21030162   512302940001  N  0                            48 01/10/2025       USD          191          573    296667896
01 37017485  13654  M  CLOPIDOGREL 75MGX30TA BUK                   210636626001085370000  434148002127325200       000    0    0    0    0    2         1   675696260023       21030162       21030162   512302940001  N  0                        CDL301 01/08/2023       USD          359          717    296667896
01 37017485  DP389  M  CLOPIDOGREL DP 75MG.X10TA                   210535910811075092940  430037182107182162       000    0    0    0    0    2         1  7592616576886       21030162       21030162   512302940001  N  0                         10207 01/03/2023       USD          355          710    296667896
01 37017485  GQ719  M  CLOTRI-NEO-DEXA ELTER 20GR.                 415066324001537380000 1229904006026529600       000    0    0    0    0    2         1  7703763300051       21030162       21030162   512302940001  N  0                       3263314 01/03/2024       USD          508         2031    296667896
01 37017485  MK117  M  FLAVOXATO +MK 200MG.X10TA                   3 774082400 789880000  473928002322247200       000    0    0    0    0    2         1  7591519009330       21030162       21030162   512302940001  N  0                         31825 01/03/2023       USD          261          783    296667896
01 37017485  11499  M  FULGRAM 875MG-125MG X16CO                   127008800002756000000  551200002700880000       000    0    0    0    0    2         1  7591585213198       21030162       21030162   512302940001  N  0                           594 01/11/2022       USD          910          910    296667896
01 37017485  GQ085  M  GENTAMICINA ELTER CR.15GR                   3 480960480 755040000 8222385601442881440       000    0    0   35    0    2         1  7592454146807       21030162       21030162   512302940001  N  0                       3234717 01/10/2021       USD          162          486    296667896
01 37017485  GQ364  M  GLIMEPIRIDE ELTER 2MG. X16                  3 734588400 749580000  449748002203765200       000    0    0    0    0    2         1  7703763165056       21030219       21030219   512302940001  N  0                       3259276 01/11/2022       USD          248          743    296667896
01 37017485  QM340  M  LEPRIT 25MG. X30TA                          211626524001186380000  474552002325304800       000    0    0    0    0    2         1  7703763363063       21030162       21030162   512302940001  N  0                       3263833 01/03/2023       USD          392          784    296667896
01 37017485  12192  M  METRONIDAZOL AL500MG.10TA                   3 205411221 230333282  74766183 616233663       000    0    0    9    0    2         1  7597758000534       21030162       21030162   512302940001  N  0                         DL099 01/11/2022       USD          069          208    296667896
01 37017485  LX102  M  MIGREN 650-50-1 X20CO                       3 789880000 806000000  967200002369640000       000    0    0    0    0    2         1  7591585415738       21030363       21030162   512302940001  N  0                           516 01/10/2022       USD          266          799    296667896
01 37017485  LX102  M  MIGREN 650-50-1 X20CO                       3 789880000 806000000  967200002369640000       000    0    0    0    0    2         1  7591585415738       21030162       21030162   512302940001  N  0                           516 01/10/2022       USD          266          799    296667896
01 37017485  LO414  M  NAS SOL.GOTAS AD. 15ML.                    12 348566400 355680000  853632004182796800       000    0    0    0    0    2         1  7591196003140       21030162       21030162   512302940001  N  0                       I100017 01/11/2022       USD          117         1410    296667896
01 37017485  LO419  M  NAS SOL.NASAL PED.15ML.                    12 348566400 355680000  853632004182796800       000    0    0    0    0    2         1  7591196003027       21030162       21030162   512302940001  N  0                        110599 01/11/2022       USD          117         1410    296667896
01 37017485  FA239  M  NOTOLAC 30MG. X4TA.SUBL.                    3 695604000 709800000  425880002086812000       000    0    0    0    0    2         1  7591821210134       21030363       21030363   512302940001  N  0                       2008742 01/09/2022       USD          234          703    296667896
01 37017485  MK735  M  PREDNISONA +MK50MG. X10TA                   110485020001069900000  213980001048502000       000    0    0    0    0    2         1  7591519001044       21030162       21030162   512302940001  N  0                         31524 01/10/2025       USD          353          353    296667896
01 37017485  LP220  M  PROTOSULFIL 1% CR. 30GR.                    211574290001495000000 6751420002314858000       000    0    0   21    0    2         1  7591955001486       21030162       21030162   512302940001  N  0                          0296 01/07/2022       USD          390          780    296667896
01 37017485  EL725  M  ULCENOL 40MG. X20TA                         210524929321073972380  429588962104985864       000    0    0    0    0    2         1  7591062018650       21030162       21030162   512302940001  N  0                        20071A 01/06/2024       USD          355          710    296667896
01 37017485  VO104  M  VALSARTAN H.GNCR 80/12,5X14                 3 602771642 615073104  369043861808314926       000    0    0    0    0    2         1  7591020008594       21030162       21030162   512302940001  N  0                            13 01/09/2022       USD          203          610    296667896
02 37017485         72   54211547762           000           000   54211547762    0    0    0  000    0    0    0   17/05/2021 11:43:59 a.m.   PR           000           000             0            20           USD    296667896        18273
