01 37017659  LA102  C  CLIMAX BANANA PRESERV. X3                   3 156733850 168350000  34848450 470201550  75232248    0    5    0    0    2         1  8852961008661       21030162       21030162   512302930001  N  0                     L35170201 01/01/2022       USD          053          158    296667896
01 37017659  KW003  C  CLIMAX CHOCO PRESERV. X3                    3 156733850 168350000  34848450 470201550  75232248    0    5    0    0    2         1  8852961006124       21030162       21030162   512302930001  N  0                     L35170303 01/02/2022       USD          053          158    296667896
01 37017659  KW001  C  CLIMAX FRESA PRESERV. X3                    3 156733850 168350000  34848450 470201550  75232248    0    5    0    0    2         1  8852961006179       21030162       21030162   512302930001  N  0                        174503 01/10/2022       USD          053          158    296667896
01 37017659  14686  C  DECOLO PVO.GARDEN'S 250GR                   123902775262439058700  487811742390277526 382444404    0    0    0    0    2         1  7590103000586       21030162       21030162   512302930001  N  0                      19116784 01/11/2024       USD          806          806    296667896
01 37017659  QM550  M  DESLER M SOB.PED1.25-4X30                   216081702001640990000  656396003216340400       000    0    0    0    0    2         1  7592454002776       21030162       21030162   512302930001  N  0                       3257333 01/01/2023       USD          542         1084    296667896
01 37017659  MG604  M  FULGRAM SUSP. 600/42,9 60CC                 218473000001885000000  754000003694600000       000    0    0    0    0    2         1  7591585113139       21030162       21030162   512302930001  N  0                           325 01/11/2022       USD          623         1245    296667896
01 37017659  AY295  C  GASAS ESTER KX3X3 50-S X2                   123441600002392000000  478400002344160000       000    0    0    0    0    2         1 10813333014159       21030162       21030162   512302930001  N  0                      20080306 01/09/2025       USD          790          790    296667896
01 37017659  AY298  C  GASAS ESTER KX4X4 50-S X2                   132104800003276000000  655200003210480000       000    0    0    0    0    2         1 10813333014173       21030162       21030162   512302930001  N  0                      20080307 01/09/2025       USD         1082         1082    296667896
01 37017659  LO003  M  IPORET SUSP.PED. 60ML.                      3 648993516 662238282  397342981946980548       000    0    0    0    0    2         1  7591196004253       21030219       21030219   512302930001  N  0                       I060950 01/07/2022       USD          219          656    296667896
01 37017659  12500  N  LEVAD.CERVEZA 500MG X60CA                   119825465662023006700  404601341982546566       000    0    0    0    0    2         1  7592946169918       21030219       21030219   512302930001  N  0                      05209918 01/08/2022       USD          668          668    296667896
01 37017659  DP225  M  MELOXICAM DP 15MG. X10TA                    3 577029235 588805342  353283211731087705       000    0    0    0    0    2         1  7592616375014       21030162       21030162   512302930001  N  0                         10100 01/02/2023       USD          194          584    296667896
01 37017659  12895  M  METFORM ACI 500MG X30TA                     3 624260000 637000000  382200001872780000       000    0    0    0    0    2         1  7598055000166       21030162       21030162   512302930001  N  0                         KK178 01/01/2022       USD          210          631    296667896
01 37017659  QM560  M  MOMEQ 0,1% CREMA 15GR.                      110048038001025310000  205062001004803800       000    0    0    0    0    2         1  7592454889667       21030162       21030162   512302930001  N  0                       3249301 01/07/2022       USD          339          339    296667896
01 37017659  14492  M  MULTIVITAMI BALAXI JBE100                   2 720447000 735150000  294060001440894000       000    0    0    0    0    2         1 18906101701602       21030162       21030162   512302930001  N  0                        SN0028 01/01/2023       USD          243          486    296667896
01 37017659  13507  M  PEDIALY MAX 60 FRES 500ML                   2 794273104 810482759  324193101588546208       000    0    0    0    0    2         1  7501033961557       21030162       21030162   512302930001  N  0                       23444MC 01/11/2022       USD          268          535    296667896
01 37017659  13506  M  PEDIALY MAX 60 UVA 500ML                    2 794273104 810482759  324193101588546208       000    0    0    0    0    2         1  7501033957376       21030162       21030162   512302930001  N  0                       22457MC 01/10/2022       USD          268          535    296667896
01 37017659  13605  M  SALBUTAMOL BIU100 SPI200D                   218918900001930500000  772200003783780000       000    0    0    0    0    2         1   795853122244       21030363       21030363   512302930001  N  0                      NSE2003A 01/04/2023       USD          638         1275    296667896
01 37017659  14390  M  SUEROLITO 75MEQ CHICLE400                   2 546546000 557700000  223080001093092000       000    0    0    0    0    2         1  7597767000334       21030162       21030162   512302930001  N  0                        252CH1 01/02/2023       USD          184          368    296667896
01 37017659  12569  M  TERBICRYM 1% CREMA X20GR                    1 758030000 773500000  15470000 758030000       000    0    0    0    0    2         1  7596654000044       21030219       21030219   512302930001  N  0                       2009009 01/09/2022       USD          256          256    296667896
01 37017659  AQ130  N  ZABILA AI CAPS. X30                         111137221371136451160  227290231113722137       000    0    0    0    0    2         1  7592946001164       21030363       21030363   512302930001  N  0                      15201164 01/02/2024       USD          375          375    296667896
02 37017659         39   26815749572    9355522176     608141148   36779412896    0    0    0  000    0    0    0   17/05/2021 02:11:38 p.m.   PR           000           000             0            20           USD    296667896        12193
