01 37041865  14857  M  KETOROLACO JL30MG. X10A                     121008000002100800000       0002100800000       000    0    0    0    0    0         1  7598650000400       21049679       21049679   512565740001  N  0                        N16317 01/07/2023       USD          678          678    309732675
01 37041865  14954  M  METRONIDAZOL PORT250 120                    314040000001404000000       0004212000000       000    0    0    0    0    0         1  7750215796597       21049679       21049679   512565740001  N  0                       2028771 01/02/2024       USD          453         1360    309732675
01 37041865  VM013  M  MOXVAL 400MG. X5TA                          222392500002239250000       0004478500000       000    0    0    0    0    0         1  7591020008709       21050603       21050603   512565740001  N  0                            11 01/02/2023       USD          723         1446    309732675
01 37041865  MK057  M  PINAVERIUM BRO+MK100 X20                    213338000001333800000       0002667600000       000    0    0    0    0    0         1  7591519008630       21049679       21049679   512565740001  N  0                         31804 01/03/2024       USD          431          861    309732675
01 37041865  11634  M  MUCOMAX 30MG. SOL.ORAL120                   3 726069814 806744238 2420232722178209442       000    0    0   10    0    0         2  7592616579061       21050603       21050603   512565740002  N  0                         10423 01/02/2023       USD          234          703    309732675
02 37041865         11   15637109442           000           000   15637109442    0    0    0  000    0    0    0   03/06/2021 11:31:25 a.m.   PR           000           000             0             5           USD    309732675         5049
