01 37085583  14693  M  DEFEROL 2000UI X30CABLA                     3 819000000 910000000 2730000002457000000       000  000  000 1000  000  000         1  7703153033163       21092433       21092433   513004520001  N  0                       1344628 01/03/2023       USD          252          757    324370871
01 37085583  FA109  M  FARMACAINA POM. 35GR                        214625000001462500000       0002925000000       000  000  000  000  000  000         1  7592229001294       21092409       21092409   513004520001  N  0                       2105214 01/05/2024       USD          451          902    324370871
01 37085583  14792  M  FARMAREST 100MCG. X200D                     214732575001473257500       0002946515000       000  000  000  000  000  000         1  7502213042738       21092433       21092433   513004520001  N  0                         1B099 01/02/2024       USD          454          908    324370871
01 37085583  11343  M  RINARIS 5MG-60MG. X10TA                     6 861412500 926250000 3890250005168475000       000  000  000  700  000  000         1  7591821802322       21092409       21092409   513004520001  N  0                       2105293 01/05/2023       USD          266         1593    324370871
01 37085583  GQ079  M  VIT C LS500NRJA.10B.X10TM                   241340000004134000000       0008268000000       000  000  000  000  000  000         1  7703763984329       21092433       21092433   513004520001  N  0                       3267011 01/05/2024       USD         1274         2549    324370871
02 37085583         15   21764990000           000           000   21764990000    0    0    0  000    0    0    0   07/07/2021 10:17:41 a.m.   PR           000           000             0             5           USD    324370871         6710
