01 37102920  13542  M  ACETAMINOFEN GN650 X10CO                   12 238238000 286000000 5731440002858856000       000  000 1500  000  000  200         1  7591585279057       21109340       21109340   513188410001  N  0                           053 01/05/2023       USD          065          784    364693100
01 37102920  ED004  M  CLOFEN 1,8MG. SUSP. 60ML.                   3 586040000 598000000  358800001758120000       000  000  000  000  000  200         1  7592803001801       21110317       21110317   513188410001  N  0                       2105549 01/05/2023       USD          161          482    364693100
01 37102920  13893  M  DESAZONA 4MG. X100TA                        248730500004972500000 1989000009746100000       000  000  000  000  000  200         1  7750215026250       21110328       21110328   513188410001  N  0                       2042211 01/04/2024       USD         1336         2672    364693100
01 37102920  12583  M  DICLOFENAC P KMP 50MGX10T                  24 173885712 214500000 9747429124173257088       000  000 1200  600  000  200         1  6921875010823       21110317       21110317   513188410001  N  0                       2009432 01/09/2023       USD          048         1144    364693100
01 37102920  12583  M  DICLOFENAC P KMP 50MGX10T                   6 173885712 214500000 2436857281043314272       000  000 1200  600  000  200         1  6921875010823       21110317       21110317   513188410001  N  0                       2009432 01/09/2023       USD          048          286    364693100
01 37102920  GN146  M  ENALAPRIL GN 20MG. X30CO                    4 458640000 468000000  374400001834560000       000  000  000  000  000  200         1  7591585378538       21110317       21110317   513188410001  N  0                           418 01/01/2023       USD          126          503    364693100
01 37102920  15040  M  ENOXAPARINA ZU40MG/0.4ML.                   225390750092590892866 1036357145078150018       000  000  000  000  000  200         1          15040       21108798       21108798   513188410001  N  0                    ME2104022A 01/03/2023       USD          696         1392    364693100
01 37102920  XS018  N  GOTAS VALERIANA XS 60ML.                   12 252252000 257400000  617760003027024000       000  000  000  000  000  200         1  7594001450825       21109340       21109340   513188410001  N  0                      02062158 01/06/2024       USD          069          830    364693100
01 37102920  SP760  M  KETOPROFENO SP100MG.X10CO                   4 473768750 568750000 3799250001895075000       000  000  000 1500  000  200         1  7590027001362       21110317       21110317   513188410001  N  0                           201 01/03/2024       USD          130          520    364693100
02 37102920         69   31414456378           000           000   31414456378    0    0    0  000    0    0    0   21/07/2021 10:35:48 a.m.   PR           000           000             0             9           USD    364693100         8614
