01 37107428  15044  M  ACETAMINOFEN BQ750 X10CO                    8 551801250 563062500  900900004414410000       000  000  000  000  000  200         1  7594000851289       21113275       21113275   513224720001  N  0                        210512 01/05/2023       USD          146         1170    377369322
01 37107428  14873  M  CEFADROXILO FM500 X10TA                     5 606424000 88400000013878800003032120000       000  000 3000  000  000  200         1  8906082150645       21112832       21112832   513224720001  N  0                      ATCM2001 01/10/2023       USD          161          803    377369322
01 37107428  GN025  M  CETIRIZINA GN10MG. X10CO                    8 293020000 299000000  478400002344160000       000  000  000  000  000  200         1  7591585174581       21113080       21113080   513224720001  N  0                           109 01/05/2024       USD          078          621    377369322
01 37107428  LT023  M  LONGACEF 400MG. X5CA                        278096200007969000000 318760000       000       000  000  000  000  000  200         1  7591585112224       21112930       21112930   513224720001  N  0                           038 01/02/2023       USD         2069         4139    377369322
01 37107428  13506  M  PEDIALY MAX 60 UVA 500ML                    2 9870903921007235094  402894041974180784       000  000  000  000  000  200         1  7501033957376       21113044       21113044   513224720001  N  0                       27456MC 01/03/2023       USD          262          523    377369322
02 37107428         25   27384110784           000           000   27384110784    0    0    0  000    0    0    0   23/07/2021 10:21:28 a.m.   PR           000           000             0             5           USD    377369322         7257
