01 37117453  14535  M  ACETAMINOFEN GN500 X10CO                   12 231868000 236600000  567840002782416000       000  000  000  000  000  200         1  7591585376657       21119303       21119303   513323230001  N  0                           295 01/04/2023       USD          058          698    398884323
01 37117453  13542  M  ACETAMINOFEN GN650 X10CO                    6 280280000 286000000  343200001681680000       000  000  000  000  000  200         1  7591585279057       21119303       21119303   513323230001  N  0                           053 01/05/2023       USD          070          422    398884323
01 37117453  SP760  M  KETOPROFENO SP100MG.X10CO                   6 557375000 568750000  682500003344250000       000  000  000  000  000  200         1  7590027001362       21119303       21119303   513323230001  N  0                           201 01/03/2024       USD          140          838    398884323
01 37117453  GN101  M  LOSARTAN P. GN 50MG. X30                    4 525525000 536250000  429000002102100000       000  000  000  000  000  200         1  7591585278951       21119303       21119303   513323230001  N  0                           354 01/12/2022       USD          132          527    398884323
01 37117453  14536  M  VALSARTAN GN80MG. X14CA                     2 508326000 518700000  207480001016652000       000  000  000  000  000  200         1  7591585375872       21119303       21119303   513323230001  N  0                           193 01/02/2023       USD          127          255    398884323
02 37117453         30   10927098000           000           000   10927098000    0    0    0  000    0    0    0   28/07/2021 03:07:48 p.m.   PR           000           000             0             5           USD    398884323         2739
