01 37111058  11044  N  ACHICORIA FG JBE. 120ML.                    3 657243134 670656259  402393751971729402       000  000  000  000  000  200         1       25525755       21116013       21116013   513267320001  N  0                          2254 01/11/2023       USD          174          521    378465384
01 37111058  LC309  M  ALIVET 4DIAS 8D-4N X12CO                    3 847210000 864500000  518700002541630000       000  000  000  000  000  200         1  7591585116000       21116013       21116013   513267320001  N  0                           340 01/10/2022       USD          224          672    378465384
01 37111058  LC424  M  ALIVETNOC FORTE GRAN.6SOB                   3 944034000 963300000  577980002832102000       000  000  000  000  000  200         1  7591585116673       21115477       21115477   513267320001  N  0                           035 01/05/2023       USD          249          748    378465384
01 37111058  12582  M  CEFOTAXIMA KMP 1G X1VIAL                    6 420343560 456300000 2157386402522061360       000  000  000  600  000  200         1  6921875010816       21116013       21116013   513267320001  N  0                       2009464 01/09/2023       USD          111          666    378465384
01 37111058  LR460  M  FLUCONAZOL LF 150MG X 2CA                   6 454888707 464172150  557006582729332242       000  000  000  000  000  200         1  7594000020609       21116013       21116013   513267320001  N  0                         L2105 01/06/2023       USD          120          721    378465384
01 37111058  VC003  M  GENCIVOL COMPU SOL.15ML.                    3 700700000 715000000  429000002102100000       000  000  000  000  000  200         1  7592782000529       21116013       21116013   513267320001  N  0                       2150008 01/06/2023       USD          185          555    378465384
01 37111058  GB850  M  GLICERINA GC SUPOS.AD. X6                   314357980001465100000  879060004307394000       000  000  000  000  000  200         1  7592349923957       21116013       21116013   513267320001  N  0                       2104162 01/04/2023       USD          379         1138    378465384
01 37111058  11423  M  HIDROCLOROTI GN12,5 X30CO                   611975600001222000000 1466400007185360000       000  000  000  000  000  200         1  7591585172686       21116013       21116013   513267320001  N  0                           021 01/05/2023       USD          316         1899    378465384
01 37111058  GN534  M  KETOPROFENO GN I.M.2ML.X2                   6 783510000 799500000  959400004701060000       000  000  000  000  000  200         1  7591585170781       21116013       21116013   513267320001  N  0                           090 01/03/2023       USD          207         1242    378465384
01 37111058  14962  M  LAMOTRIGINA GEA100 X100TD                   147524611864849450190  969890044752461186       000  000  000  000  000  200         1  8908007037383       21116013       21116013   513267320001  N  0                        20J136 01/09/2023       USD         1256         1256    378465384
01 37111058  FS190  N  MANZANILLA FLORES FSI X25                   169560400007098000000 1419600006956040000       000  000  000  000  000  200         1  7592368001728       21115477       21115477   513267320001  N  0                       0721054 01/05/2023       USD         1838         1838    378465384
01 37111058  ZP002  M  ORALZINC MNDARINA.PVO.1S                    310039120001024400000  614640003011736000       000  000  000  000  000  200         1  7591651722302       21116013       21116013   513267320001  N  0                       2106030 01/06/2023       USD          265          796    378465384
01 37111058  VC006  M  SINUTIL JARABE 90ML.                        3 624260000 637000000  382200001872780000       000  000  000  000  000  200         1  7592782000604       21116013       21116013   513267320001  N  0                       2130005 01/04/2023       USD          165          495    378465384
02 37111058         47   47485786190           000           000   47485786190    0    0    0  000    0    0    0   26/07/2021 11:28:26 a.m.   PR           000           000             0            13           USD    378465384        12547
