01 37119291  KL105  M  AC FOLICO KL 10MG. X20CO                    4 741468000 780000000 1541280002965872000       000  000  000  300  000  200         1  7591619501024       21121496       21121496   513349320001  N  0                          0188 01/09/2025       USD          184          735    403663395
01 37119291  VM384  M  DUROVAL 100MG. X1TA                         6 345900904 352960106  423552122075405424       000  000  000  000  000  200         1  7591020006330       21121396       21121396   513349320001  N  0                            21 01/05/2026       USD          086          514    403663395
01 37119291  VM209  M  DUROVAL 50MG. X3TA                         12 545165316 556291139 1335098766541983792       000  000  000  000  000  200         1  7591020005029       21121396       21121396   513349320001  N  0                           628 01/05/2026       USD          135         1621    403663395
01 37119291  14647  M  METFORMINA BIU500 X30TA                     3 859950000 877500000  526500002579850000       000  000  000  000  000  200         1   795853122220       21121496       21121496   513349320001  N  0                     FMA12003A 01/08/2023       USD          213          639    403663395
01 37119291  LO414  M  NAS SOL.GOTAS AD. 15ML.                     8 486132487 496053558  793685683889059896       000  000  000  000  000  200         1  7591196003140       21121396       21121396   513349320001  N  0                       I100017 01/11/2022       USD          120          963    403663395
01 37119291  FA514  M  NEURIXA 75MG. X14CA                         311618777381274827450 3388491363485633214       000  000  000  700  000  200         1  7591821903616       21121396       21121396   513349320001  N  0                       2102441 01/04/2023       USD          288          863    403663395
02 37119291         36   21537804326           000           000   21537804326    0    0    0  000    0    0    0   29/07/2021 02:05:14 p.m.   PR           000           000             0             6           USD    403663395         5336
