01 37114492  12972  M  AMOXICILINA 250MG/5M 60ML                   212740000001300000000  520000002548000000       000  000  000  000  000  200         1  6937874103657       21117787       21117787   513300940001  N  0                       D190932 01/08/2022       USD          328          656    388581304
01 37114492  14702  M  AMOXICILINA KM500 X10CA                     6 510879096 554580000 2622054243065274576       000  000  000  600  000  200         1  6921875011134       21117787       21117787   513300940001  N  0                       2008470 01/08/2023       USD          131          789    388581304
01 37114492  VA012  M  ANTIFOM 40MG. X10CO                         212829180001309100000  523640002565836000       000  000  000  000  000  200         1  7592349722925       21117787       21117787   513300940001  N  0                       2103017 01/03/2023       USD          330          660    388581304
01 37114492  10884  N  CASTAÑO DE INDIAS AI 60CA                   222799284872326457640  930583064559856974       000  000  000  000  000  200         1  7592946007104       21117787       21117787   513300940001  N  0                      01217104 01/03/2024       USD          587         1173    388581304
01 37114492  SW110  M  ENTEROGERMI S.ORAL5CC.X10                   161661600006292000000 1258400006166160000       000  000  000  000  000  200         1  3582910009900       21117787       21117787   513300940001  N  0                         0I253 01/11/2022       USD         1587         1587    388581304
01 37114492  14117  M  FANASAL  AD. X 15ML GTAS                    8 363090000 370500000  592800002904720000       000  000  000  000  000  200         1  7592236002215       21117787       21117787   513300940001  N  0                          6661 01/06/2023       USD          093          748    388581304
01 37114492  ED470  M  NEMODINE 30MG. X20CO                        220384000002080000000  832000004076800000       000  000  000  000  000  200         1  7592803000798       21117875       21117875   513300940001  N  0                       2105537 01/05/2024       USD          525         1049    388581304
01 37114492  15112  M  NEUROMIX COMPLE B X1A                       1 641459000 689000000  47541000 641459000       000  000  000  500  000  200         1  7591585213389       21117875       21117875   513300940001  N  0                           004 01/06/2023       USD          165          165    388581304
01 37114492  15110  M  NEUROMIX COMPLE B X30CO                     212103000001300000000 1794000002420600000       000  000  000  500  000  200         1  7591585213365       21117875       21117875   513300940001  N  0                           003 01/04/2023       USD          311          623    388581304
01 37114492  ZP290  M  OVUMIX 750-200  X7 O.VAG.                   127327300002788500000  557700002732730000       000  000  000  000  000  200         1  7796285273231       21117875       21117875   513300940001  N  0                          8834 01/11/2022       USD          703          703    388581304
01 37114492  14392  M  SUEROLITO 75MEQ MANDA400                    6 859950000 877500000 1053000005159700000       000  000  000  000  000  200         1  7597767000327       21117787       21117787   513300940001  N  0                         242M1 01/02/2023       USD          221         1328    388581304
02 37114492         33   36841136550           000           000   36841136550    0    0    0  000    0    0    0   27/07/2021 01:49:11 p.m.   PR           000           000             0            11           USD    388581304         9481
