01 37123805  14869  M  AMOXICILINA FM500 X10CA                    12 509600000 520000000 1248000006115200000       000  000  000  000  000  200         1  8906082150676       21124780       21124780   513388620001  N  0                     ACAMX2012 01/10/2023       USD          127         1523    401564576
01 37123805  DP105  M  BACITRACINA DP UNG. 15GR.                   611213930991144278672 1373134386728358594       000  000  000  000  000  200         1  7592616021010       21124780       21124780   513388620001  N  0                         10530 01/06/2024       USD          279         1676    401564576
01 37123805  CO003  M  CELAY SOL.ORAL. 100ML.                      411748191581198795059  959036044699276632       000  000  000  000  000  200         1  7591818215050       21124768       21124768   513388620001  N  0                         10076 01/03/2023       USD          293         1170    401564576
01 37123805  LO120  M  CLARASOL SOL.OFT. 15ML.                     612973280001323804082 1588564927783968000       000  000  000  000  000  200         1  7591196000071       21124780       21124780   513388620001  N  0                       I041134 01/04/2024       USD          323         1938    401564576
01 37123805  12927  M  CLOTRIMAZOL AL200MG X3OVU                   3 839289594 856417953  513850772517868782       000  000  000  000  000  200         1  7597758000657       21124768       21124768   513388620001  N  0                      K1AAL003 01/05/2023       USD          209          627    401564576
01 37123805  KL694  M  CORENTEL 10MG. X30CO                        321658000002210000000 1326000006497400000       000  000  000  000  000  200         1  7591619520308       21124780       21124780   513388620001  N  0                          0005 01/03/2024       USD          539         1618    401564576
01 37123805  LT073  M  DICLOFENAC P. GN 50 X30CO                   8 619164000 631800000 1010880004953312000       000  000  000  000  000  200         1  7591585379245       21124891       21124891   513388620001  N  0                           752 01/10/2023       USD          154         1234    401564576
01 37123805  12079  M  DICLOFENAC S.AL75MG. X2A                   12 366704993 374188768  898053004400459916       000  000  000  000  000  200         1       75971366       21124780       21124780   513388620001  N  0                       1320283 01/07/2023       USD          091         1096    401564576
01 37123805  ZA102  M  EVIGAX 125MG. X10CA.BLA                     212602019311285920338  514368142520403862       000  000  000  000  000  200         1  7592432900032       21124780       21124780   513388620001  N  0                        210153 01/04/2024       USD          314          628    401564576
01 37123805  14607  M  LEVOTIROXINA SG25MCG.X50                    313442718821371706002  823023604032815646       000  000  000  000  000  200         1 18904180913442       21124780       21124780   513388620001  N  0                       AK0003A 01/11/2022       USD          335         1004    401564576
01 37123805  14878  M  LOSARTAN P. FM50MG.X30TA                    6 764400000 780000000  936000004586400000       000  000  000  000  000  200         1  8906082150751       21124819       21124819   513388620001  N  0                         T1009 01/12/2023       USD          190         1142    401564576
01 37123805  GN101  M  LOSARTAN P. GN 50MG. X30                   12 525525000 536250000 1287000006306300000       000  000  000  000  000  200         1  7591585278951       21124913       21124913   513388620001  N  0                           356 01/01/2023       USD          131         1570    401564576
01 37123805  LC409  M  MIGREN 650-50-1 X10CO                       4 637000000 650000000  520000002548000000       000  000  000  000  000  200         1  7591585115737       21124819       21124819   513388620001  N  0                           526 01/06/2023       USD          159          635    401564576
01 37123805  LX102  M  MIGREN 650-50-1 X20CO                       210790780001101100000  440440002158156000       000  000  000  000  000  200         1  7591585415738       21124819       21124819   513388620001  N  0                           518 01/03/2023       USD          269          537    401564576
01 37123805  LC170  M  MONOSULPA GOTAS 15 CC.                      3 798798000 815100000  489060002396394000       000  000  000  000  000  200         1  7591585110923       21124891       21124891   513388620001  N  0                           194 01/12/2022       USD          199          597    401564576
01 37123805  CH794  C  SECUREZZA CLASSIC MED. X6                   212045205731229102625  491641042409041146 385446583  000  000  000  000  200         1  7591353515004       21124959       21124959   513388620001  N  0                      10622101 01/06/2023       USD          300          600    401564576
01 37123805  DP013  M  TERBINAFINA DP CR.1% 15GR.                  3 856283100 873758265  524254952568849300       000  000  000  000  000  200         1  7592616584126       21124780       21124780   513388620001  N  0                         10418 01/04/2023       USD          213          640    401564576
02 37123805         91   70813162732    2409041146     385446583   73607650461    0    0    0  000    0    0    0   02/08/2021 10:22:36 a.m.   PR           000           000             0            17           USD    401564576        18234
