01 37124164  VO111  M  ATORVASTATINA GENCER 40 X20                 321154770002158650000 1295190006346431000       000  000  000  000  000  200         1  7591020008884       21124780       21124780   513388610001  N  0                            79 01/06/2026       USD          527         1580    401564576
01 37124164  NP003  M  CALCIBON D 1500/200 X30                     330384900003100500000 1860300009115470000       000  000  000  000  000  200         1  7591821101029       21124780       21124780   513388610001  N  0                       2010930 01/08/2023       USD          757         2270    401564576
01 37124164  14701  M  CLINDAMICINA KM600 X5A                      130958200003159000000  631800003095820000       000  000  000  000  000  200         1  6937861391395       21124780       21124780   513388610001  N  0                        201080 01/10/2023       USD          771          771    401564576
01 37124164  GQ719  M  CLOTRI-NEO-DEXA ELTER20GR                   118447520001882400000  376480001844752000       000  000  000  000  000  200         1  7703763300051       21124819       21124819   513388610001  N  0                       3268053 01/05/2024       USD          459          459    401564576
01 37124164  11114  C  CREM ENCIA NIÑA 100GR.                      3 250532100 255645000  15338700 751596300 120255408  000  000  000  000  200         1  7595751001381       21124913       21124913   513388610001  N  0                       2012007 01/12/2023       USD          062          187    401564576
01 37124164  11113  C  CREM ENCIA NIÑO 100GR.                      3 250532100 255645000  15338700 751596300 120255408  000  000  000  000  200         1  7595751001374       21124913       21124913   513388610001  N  0                       2012007 01/12/2023       USD          062          187    401564576
01 37124164  14694  M  DEXAMETASONA KM4 1ML.X10A                   417199000001755000000 1404000006879600000       000  000  000  000  000  200         1  6942189211256       21124768       21124768   513388610001  N  0                        201019 01/10/2023       USD          428         1713    401564576
01 37124164  VM494  M  DUROVAL 50MG. X10TA                         418699135001908075000 1526460007479654000       000  000  000  000  000  200         1  7591020008440       21124913       21124913   513388610001  N  0                           636 01/07/2026       USD          466         1863    401564576
01 37124164  14580  M  OMEPRAZOL LAND20MG.X100CA                   217937920001830400000  732160003587584000       000  000  000  000  000  200         1  7598008000601       21124959       21124959   513388610001  N  0                         C1885 01/03/2024       USD          447          893    401564576
01 37124164  ZP002  M  ORALZINC MNDARINA.PVO.1S                    610956400001118000000 1341600006573840000       000  000  000  000  000  200         1  7591651722302       21124780       21124780   513388610001  N  0                       2106030 01/06/2023       USD          273         1637    401564576
01 37124164  13505  M  PEDIALY MAX 60 COCO 500ML                   2 9870903921007235094  402894041974180784       000  000  000  000  000  200         1  7501033961540       21124780       21124780   513388610001  N  0                       27431MC 01/03/2023       USD          246          492    401564576
01 37124164  13506  M  PEDIALY MAX 60 UVA 500ML                    2 9870903921007235094  402894041974180784       000  000  000  000  000  200         1  7501033957376       21124780       21124780   513388610001  N  0                       26458MC 01/03/2023       USD          246          492    401564576
01 37124164  11196  C  SIEMPRESECO PAÑAL AD.M X6                   211519584511175467807  470187122303916902 368626704  000  000  000  000  200         1  7591353699001       21124959       21124959   513388610001  N  0                      10719101 01/07/2023       USD          287          574    401564576
01 37124164  FS290  N  SOL FISIOLOGICA 30CC. X6                    114740180001504100000  300820001474018000       000  000  000  000  000  200         1  7592368000660       21124891       21124891   513388610001  N  0                       0321061 01/09/2022       USD          367          367    401564576
01 37124164  EL320  M  TACHIPIRIN SUPOS. 250X6                     312757879001301824388  781094643827363700       000  000  000  000  000  200         1  7591062011378       21124880       21124880   513388610001  N  0                        20039A 01/05/2025       USD          318          953    401564576
02 37124164         40   54172894268    3807109502     609137520   58589141290    0    0    0  000    0    0    0   02/08/2021 01:00:58 p.m.   PR           000           000             0            15           USD    401564576        14439
