01 37121960  GT119  M  ASAPROL 81MG. X100CO                        335162400003588000000 215280000       000       000  000  000  000  000  200         1  7591585261236       21122956       21122956   513367570001  N  0                           166 01/05/2023       USD          883         2648    398317355
01 37121960  14780  M  ATORVASTATINA DAC40 X30TA                   216877952001722240000  688896003375590400       000  000  000  000  000  200         1  7598578000254       21122886       21122886   513367570001  N  0                          V187 01/01/2024       USD          424          847    398317355
01 37121960  14871  M  AZITROMICINA FM200 15ML.                   12 522849600 62400000012138048006274195200       000  000  500 1000  000  200         1  8906082150782       21122886       21122886   513367570001  N  0                      PLS20001 01/11/2022       USD          131         1575    398317355
01 37121960  GN629  M  AZITROMICINA GN 500 X 5                     613173160001344200000 1613040007903896000       000  000  000  000  000  200         1  7591585279460       21122886       21122886   513367570001  N  0                           319 01/05/2023       USD          331         1984    398317355
01 37121960  13652  M  CETIRIZINA 10MGX10TA BUKA                   6 382200000 390000000  468000002293200000       000  000  000  000  000  200         1  0675696260009       21122886       21122886   513367570001  N  0                        CTR202 01/11/2023       USD          096          576    398317355
01 37121960  KW003  C  CLIMAX CHOCO PRESERV. X3                    2 302575000 325000000  44850000 605150000  96824000  000  000  500  000  200         1  8852961006124       21122939       21122939   513367570001  N  0                        174502 01/10/2022       USD          076          152    398317355
01 37121960  KW006  C  CLIMAX PUNTOS PRESERV. X3                   2 302575000 325000000  44850000 605150000  96824000  000  000  500  000  200         1  8852961006162       21122939       21122939   513367570001  N  0                        174603 01/10/2022       USD          076          152    398317355
01 37121960  LT073  M  DICLOFENAC P. GN 50 X30CO                  10 464373000 63180000016742700004643730000       000  000  000 2500  000  200         1  7591585379245       21122886       21122886   513367570001  N  0                           752 01/10/2023       USD          117         1166    398317355
01 37121960  14558  M  ENALAPRIL LAND10 X100TA                     122142120002259400000  451880002214212000       000  000  000  000  000  200         1  7598008000366       21122886       21122886   513367570001  N  0                         T9063 01/09/2023       USD          556          556    398317355
01 37121960  11083  M  FLOMED SOL.BUCAL AER45ML.                   415140836441544983310 1235986646056334576       000  000  000  000  000  200         1  7591062901129       21122939       21122939   513367570001  N  0                        21003B 01/02/2023       USD          380         1520    398317355
01 37121960  11499  M  FULGRAM 875MG-125MG X16CO                   249227360005023200000 2009280009845472000       000  000  000  000  000  200         1  7591585213198       21122886       21122886   513367570001  N  0                           605 01/04/2023       USD         1236         2472    398317355
01 37121960  LT930  M  VIASEK COMPR. 50MG. X2                      6 541450000 552500000  663000003248700000       000  000  000  000  000  200         1  7591585111005       21123044       21123044   513367570001  N  0                           094 01/04/2024       USD          136          816    398317355
01 37121960  11845  C  EVERY N.GEL FIJ.FRESH250                    3 447988723 457131350  274278811343966169 215034587  000  000  000  000  200         2  7590005168223       21122886       21122886   513367570002  N  0                       2104164 01/04/2023       USD          112          337    398317355
01 37121960  11843  C  EVERY N.GEL FIJ.WINNER250                   3 490960808 500980416  300588241472882424 235661188  000  000  000  000  200         2  7590005168216       21122886       21122886   513367570002  N  0                       2104162 01/04/2023       USD          123          370    398317355
02 37121960         62   56404050176    4027148593     644343775   61075542544    0    0    0  000    0    0    0   30/07/2021 01:50:47 p.m.   PR           000           000             0            14           USD    398317355        15172
