01 37124165  13542  M  ACETAMINOFEN GN650 X10CO                   12 293020000 299000000  717600003516240000       000  000  000  000  000  200         1  7591585279057       21125014       21125014   513390860001  N  0                           053 01/05/2023       USD          073          876    401564576
01 37124165  CO130  M  AIRFEN GOTAS NAS.AD.15ML                    2 859211964 876746902  350698761718423928       000  000  000  000  000  200         1  7591818111017       21125014       21125014   513390860001  N  0                         10196 01/05/2024       USD          214          428    401564576
01 37124165  PA129  M  ALIPAL FORTE D/N X6CA                       2 942315146 961546067  384618421884630292       000  000  000  000  000  200         1  7591243801620       21125014       21125014   513390860001  N  0                    9254192543 01/03/2023       USD          235          469    401564576
01 37124165  GN088  M  AMLODIPINA GN 10MG. X30CO                   4 761852000 777400000  621920003047408000       000  000  000  000  000  200         1  7591585278173       21125123       21125123   513390860001  N  0                           188 01/03/2024       USD          190          759    401564576
01 37124165  12561  C  BRIUTCARE AD TRANS X12UND                   135226991803594591000  718918203522699180 563631869  000  000  000  000  200         1   796029455289       21125123       21125123   513390860001  N  0                       SH19229 01/10/2024       USD          877          877    401564576
01 37124165  10868  A  COLAGENO VERA 500MG.X60CA                   217594577001795365000  718146003518915400       000  000  000  000  000  200         1  7593089000052       21125123       21125123   513390860001  N  0                   028CH010621 01/06/2023       USD          438          876    401564576
01 37124165  GQ107  M  ACETAMINOFEN ELTER JBE120                  12 531258000 542100000 1301040006375096000       000  000  000  000  000  200         2  7592454003100       21125014       21125014   513390860002  N  0                       3270613 01/07/2024       USD          132         1588    401564576
01 37124165  CO430  M  BENCIDAMINA CO T.BUCAL120                   4 739759280 754856408  603885122959037120       000  000  000  000  000  200         2  7591818139004       21125123       21125123   513390860002  N  0                          1020 01/06/2025       USD          184          737    401564576
02 37124165         39   23019750740    3522699180     563631869   27106081789    0    0    0  000    0    0    0   02/08/2021 01:01:04 p.m.   PR           000           000             0             8           USD    401564576         6610
