01 37128479  PA126  M  BETADERM CR. 0,05% 15GR.                    414701825041500186229 1200149005880730016       000  000  000  000  000  200         1  7591243804140       21129710       21129710   513436940001  N  0                       9231903 01/02/2023       USD          364         1457    403619485
01 37128479  14873  M  CEFADROXILO FM500 X10TA                     8 866320000 884000000 1414400006930560000       000  000  000  000  000  200         1  8906082150645       21129710       21129710   513436940001  N  0                      ATCM2001 01/10/2023       USD          215         1717    403619485
01 37128479  GN739  M  DICLOFENAC P. GN50 X10CO                   24 204367118 214987500 2548891684904810832       000  000  300  000  000  200         1  7591585279248       21129710       21129710   513436940001  N  0                          7551 01/03/2024       USD          051         1215    403619485
01 37128479  10873  C  GUANTE QUIRU ONEUP 6.5                     12 372645000 380250000  912600004471740000 715478400  000  000  000  000  200         1  7596370000168       21129710       21129710   513436940001  N  0                 203051064SLZA 01/11/2022       USD          092         1108    403619485
01 37128479  10874  C  GUANTE QUIRU ONEUP 7.0                     12 372645000 380250000  912600004471740000 715478400  000  000  000  000  200         1  7596370000175       21129710       21129710   513436940001  N  0                 203038197SLZA 01/02/2022       USD          092         1108    403619485
01 37128479  VP784  M  ILANA 600MG.VAG. X1CA.BL                    213864142401414708408  565883362772828480       000  000  000  000  000  200         1  7592432011523       21129710       21129710   513436940001  N  0                        200230 01/08/2023       USD          343          687    403619485
01 37128479  14575  M  METOCLOPRAMI LAN10 X100TA                   227747720002831400000 1132560005549544000       000  000  000  000  000  200         1  7598008000557       21129727       21129727   513436940001  N  0                         T9082 01/09/2023       USD          687         1375    403619485
01 37128479  FA514  M  NEURIXA 75MG. X14CA                         314054973111434180930  860508574216491933       000  000  000  000  000  200         1  7591821903616       21129710       21129710   513436940001  N  0                       2102441 01/04/2023       USD          348         1045    403619485
01 37128479  14242  M  QUETIAPINA CCM 100MGX30TA                   165461864036679782044 1335956416546186403       000  000  000  000  000  200         1  7501384545680       21129254       21129254   513436940001  N  0                       0220121 01/01/2023       USD         1622         1622    403619485
01 37128479  10572  C  HILO DENTAL MATRIX 35M.                     2 289214846 295117190  11804688 578429692  92548751  000  000  000  000  200         2  7453010092726       21129710       21129710   513436940002  N  0                           10X 01/01/2030       USD          072          143    403619485
01 37128479  PD280  M  CLENBUNAL JBE.PED. 120CC.                   310192000001040000000  624000003057600000       000  000  000  000  000  200         3  7591955000113       21129710       21129710   513436940003  N  0                          0071 01/11/2024       USD          253          758    403619485
02 37128479         73   39858751664    9521909692    1523505551   50904166907    0    0    0  000    0    0    0   05/08/2021 10:24:23 a.m.   PR           000           000             0            11           USD    403619485        12234
