01 37123588  14512  M  ACEVAL 180MG. SOL.PED.120                   3 9841650001004250000  602550002952495000       000  000  000  000  000  200         1  7591020008839       21124780       21124780   513388640001  N  0                            05 01/07/2023       USD          245          735    401564576
01 37123588  EH200  M  AMBROXOL VP JBE.PED.120ML                   6 814086000 830700000  996840004884516000       000  000  000  000  000  200         1  7703153020064       21124780       21124780   513388640001  N  0                       1318766 01/10/2023       USD          203         1216    401564576
01 37123588  LR140  M  AMOXICILINA LF250MG.SUSP.                   6 974667585 994558760 1193470505848005510       000  000  000  000  000  200         1  7594000020043       21124768       21124768   513388640001  N  0                         L2109 01/07/2024       USD          243         1456    401564576
01 37123588  LO444  M  APIRET 180SOL.ORAL 120ML.                  12 805449039 821886774 1972528209665388468       000  000  000  000  000  200         1  7591196002785       21124780       21124780   513388640001  N  0                       I051004 01/06/2023       USD          201         2407    401564576
01 37123588  QO540  M  BROXOL ALERG S.ORAL 100ML                   314561820001485900000  891540004368546000       000  000  000  000  000  200         1  7592454889513       21124780       21124780   513388640001  N  0                       3270983 01/06/2023       USD          363         1088    401564576
01 37123588  JN100  N  JENGIMIEL JBE.AD. 120ML.                    311848200001209000000  725400003554460000       000  000  000  000  000  200         1  7592520000019       21124780       21124780   513388640001  N  0                        030221 01/02/2023       USD          295          885    401564576
01 37123588  XS014  N  PASSIFLORA XS JBE.120ML.                    3 445900000 455000000  273000001337700000       000  000  000  000  000  200         1  7594001450962       21124959       21124959   513388640001  N  0                      24052137 01/05/2023       USD          111          333    401564576
01 37123588  12516  M  REHIDROSOL FRAMBUES 600ML                   2 897388841 915702899  366281161794777682       000  000  000  000  000  200         1  7592637398535       21124780       21124780   513388640001  N  0                       2100050 01/03/2023       USD          223          447    401564576
01 37123588  10824  M  REHIDROSOL FRESA  600ML                     2 898039407 916366742  366546701796078814       000  000  000  000  000  200         1  7592637397415       21124780       21124780   513388640001  N  0                       2100095 01/05/2023       USD          224          447    401564576
01 37123588  11584  M  REHIDROSOL UVA 600ML.                       2 892537278 910752324  364300921785074556       000  000  000  000  000  200         1  7592637398443       21124780       21124780   513388640001  N  0                       2100105 01/06/2023       USD          222          445    401564576
02 37123588         42   37987042030           000           000   37987042030    0    0    0  000    0    0    0   02/08/2021 08:44:06 a.m.   PR           000           000             0            10           USD    401564576         9460
