01 37125827  PB245  M  DENCORUB GEL 40 GR.                         3 947346400 966680000  580008002842039200       000  000  000  000  000  200         1  7591309010416       21126917       21126917   513408020001  N  0                       2106010 01/06/2023       USD          236          707    401849224
01 37125827  PB015  C  DENCORUB ICE GEL 40GR.                      3 484783937 494677487  296806501454351811 232696290  000  000  000  000  200         1  7591309001049       21126917       21126917   513408020001  N  0                      A2106175 01/06/2024       USD          121          362    401849224
01 37125827  12845  M  DEXTROSALINA 0.45% 500ML                    2 808735200 825240000  330096001617470400       000  000  000  000  000  200         1  7595624200200       21126917       21126917   513408020001  N  0                    1912191902 01/12/2022       USD          201          402    401849224
01 37125827  PA874  M  DI EUDRIN 12,5MG. X24TA                     412211803381246102386  996881924884721352       000  000  000  000  000  200         1  7591243812374       21126917       21126917   513408020001  N  0                       9199103 01/11/2023       USD          304         1216    401849224
01 37125827  VM001  M  IBUCOLVAL 600/4MG. X20TA                    228092852942866617647 1146647065618570588       000  000  000  000  000  200         1  7591020008648       21126917       21126917   513408020001  N  0                           230 01/04/2026       USD          699         1398    401849224
01 37125827  14782  M  IBUPRO-TIOCOL DAC600-4X10                   211955216001219920000  487968002391043200       000  000  000  000  000  200         1  7598578000247       21126917       21126917   513408020001  N  0                          V186 01/01/2024       USD          298          595    401849224
01 37125827  14954  M  METRONIDAZOL PORT250 120                    317581200001794000000 1076400005274360000       000  000  000  000  000  200         1  7750215796597       21126917       21126917   513408020001  N  0                       2117580 01/11/2023       USD          438         1313    401849224
01 37125827  CO540  M  MIOVIT COMP. 3ML. X3A KIT                   61481700432188992402024493415288890202592       000  000  000 2000  000  200         1  7591818026366       21127060       21127060   513408020001  N  0                         10042 01/03/2024       USD          369         2212    401849224
01 37125827  14113  M  BROMEXINA 4MGX120ML                         6 484120000 494000000  592800002904720000       000  000  000  000  000  200         2  7592236002055       21126917       21126917   513408020002  N  0                          7571 01/07/2023       USD          120          723    401849224
01 37125827  QF300  M  BROMEXINA QF8MG.JBE.120ML                   8 490490000 500500000  800800003923920000       000  000  000  000  000  200         2  7598484000041       21126917       21126917   513408020002  N  0                          7871 01/07/2023       USD          122          976    401849224
01 37125827  ED379  M  VIZERUL 150MG. JBE.120ML.                   223569000002405000000  962000004713800000       000  000  000  000  000  200         2  7592803002389       21126917       21126917   513408020002  N  0                       2106558 01/06/2023       USD          587         1173    401849224
02 37125827         41   43060847332    1454351811     232696290   44747895433    0    0    0  000    0    0    0   03/08/2021 01:10:22 p.m.   PR           000           000             0            11           USD    401849224        11078
