01 37123895  PD565  M  BARGONIL UNG. 10GR.                         211466000001170000000  468000002293200000       000  000  000  000  000  200         1  7591955000045       21124780       21124780   513388630001  N  0                          0100 01/01/2022       USD          286          571    401564576
01 37123895  LT031  M  BIOTALOL 5MG. X30CO                         219364800001976000000  790400003872960000       000  000  000  000  000  200         1  7591585217165       21124780       21124780   513388630001  N  0                           114 01/01/2023       USD          482          964    401564576
01 37123895  12078  M  CLAUSY SUSP.ORAL X10 5ML.                   149940800005096000000 1019200004994080000       000  000  000  000  000  200         1  8936187370020       21124768       21124768   513388630001  N  0                         10320 01/03/2022       USD         1244         1244    401564576
01 37123895  GQ189  M  CLINDAMICINA ELTER300 X16                   223390640002386800000  954720004678128000       000  000  000  000  000  200         1  7703763629251       21124880       21124880   513388630001  N  0                       3267932 01/06/2024       USD          582         1165    401564576
01 37123895  GQ719  M  CLOTRI-NEO-DEXA ELTER20GR                   518447520001882400000 1882400009223760000       000  000  000  000  000  200         1  7703763300051       21124819       21124819   513388630001  N  0                       3268053 01/05/2024       USD          459         2297    401564576
01 37123895  11320  M  CRISOMET 50-850 X10TA                       218144039601851432612  740573043628807920       000  000  000  000  000  200         1  7591821210349       21124880       21124880   513388630001  N  0                       2104091 01/03/2023       USD          452          904    401564576
01 37123895  11742  M  CRISOMET 50-850 X30TA                       172809100007429500000 1485900007280910000       000  000  000  000  000  200         1  7591821210523       21124880       21124880   513388630001  N  0                       2105032 01/05/2023       USD         1813         1813    401564576
01 37123895  AP470  M  CYPRAL 750MG. X6TA                          310041668001024660000  614796003012500400       000  000  000  000  000  200         1  7592601200482       21124780       21124780   513388630001  N  0                        022703 01/12/2024       USD          250          750    401564576
01 37123895  KF190  M  DERMAZOL 0,05% CR.30GR.                     215288000001560000000  624000003057600000       000  000  000  000  000  200         1  7591619519036       21124819       21124819   513388630001  N  0                          0061 01/03/2023       USD          381          761    401564576
01 37123895  LT021  M  DIMAVYL MET 2/500 X30CO                     220600580002102100000  840840004120116000       000  000  000  000  000  200         1  7591585212573       21124891       21124891   513388630001  N  0                           091 01/11/2022       USD          513         1026    401564576
01 37123895  MY060  N  EQUALIV TAB. X30                            220358520002077400000  830960004071704000       000  000  000  000  000  200         1  7592601100805       21124780       21124780   513388630001  N  0                        050102 01/06/2022       USD          507         1014    401564576
01 37123895  VP664  M  EVIGAX 125MG. X20CA.BLA                     117911031991827656325  365531261791103199       000  000  000  000  000  200         1  7592432010212       21124780       21124780   513388630001  N  0                        210126 01/05/2024       USD          446          446    401564576
01 37123895  LN165  M  MADECASSOL 2% POLVO 5GR.                    317325459021767903982 1060742405197637706       000  000  000  000  000  200         1  7592348218108       21124780       21124780   513388630001  N  0                       2102027 01/02/2026       USD          431         1294    401564576
01 37123895  11164  M  OMEPRAZOL GN 40MG. X10CA                    2 779688000 795600000  318240001559376000       000  000  000  000  000  200         1  7591585173881       21124959       21124959   513388630001  N  0                           019 01/02/2023       USD          194          388    401564576
01 37123895  DP720  M  SULFADIAZINA P.DP CR.30GR                   312743362721300343135  780205893823008816       000  000  000  000  000  200         1  7592616480015       21124780       21124780   513388630001  N  0                         10313 01/04/2023       USD          317          952    401564576
01 37123895  ET340  C  ADEMINA PLUS CR.CORP.30GR                   3 688256333 702302381  421381442064768999 330363040  000  000  000  000  200         2  7591844000439       21124780       21124780   513388630002  N  0                    AP30210103 01/05/2024       USD          171          514    401564576
01 37123895  LM140  C  ALBEPIR CH. A.CASPA 140CC                   211657100001189500000  475800002331420000 373027200  000  000  000  000  200         2  7592025101204       21124959       21124959   513388630002  N  0                        201023 01/04/2024       USD          290          581    401564576
01 37123895  SQ130  C  LUBRIX GEL 120CC.                           2 857656800 875160000  350064001715313600 274450176  000  000  000  000  200         2  7592904000024       21124891       21124891   513388630002  N  0                           118 01/06/2024       USD          214          427    401564576
01 37123895  SQ170  C  LUBRIX GEL FRESA 60CC.                      2 765928800 781560000  312624001531857600 245097216  000  000  000  000  200         2  7592904000444       21124891       21124891   513388630002  N  0                           117 01/06/2024       USD          191          381    401564576
01 37123895  SQ180  C  LUBRIX GEL LUB.CHOCO60CC.                   2 765928800 781560000  312624001531857600 245097216  000  000  000  000  200         2  7592904000437       21124891       21124891   513388630002  N  0                           112 01/05/2024       USD          191          381    401564576
01 37123895  10349  C  TALCO ACIBOR P.PIES120GR.                   2 440804000 449800000  17992000 881608000 141057280  000  000  000  000  200         2  7592930000715       21124780       21124780   513388630002  N  0                    2304202101 01/04/2024       USD          110          220    401564576
01 37123895  10348  C  TALCO ACIBOR P.PIES60GR.                    3 302192800 308360000  18501600 906578400 145052544  000  000  000  000  200         2  7592930000708       21124780       21124780   513388630002  N  0                    1504202101 01/04/2024       USD          075          226    401564576
02 37123895         49   62604892041   10963404199    1754144672   75322440912    0    0    0  000    0    0    0   02/08/2021 10:46:44 a.m.   PR           000           000             0            22           USD    401564576        18320
