01 37132008  13542  M  ACETAMINOFEN GN650 X10CO                    1 293020000 299000000   5980000 293020000       000  000  000  000  000  200         1  7591585279057       21132983       21132983   513477720001  N  0                           053 01/05/2023       USD          072          072    406882303
01 37132008  LR460  M  FLUCONAZOL LF 150MG X 2CA                   4 538544516 549535220  439628162154178064       000  000  000  000  000  200         1  7594000020609       21133257       21133257   513477720001  N  0                         L2105 01/06/2023       USD          132          529    406882303
01 37132008  TQ530  M  GLIDAN 80MG. X20TA                          3 891800000 910000000  546000002675400000       000  000  000  000  000  200         1  7591955002469       21132983       21132983   513477720001  N  0                          0027 01/05/2024       USD          219          658    406882303
01 37132008  NP024  M  NOTOLAC 20MG. X10TA                         311475007181170919100  702551463442502154       000  000  000  000  000  200         1  7591821902022       21132488       21132488   513477720001  N  0                       2101002 01/03/2024       USD          282          846    406882303
01 37132008  10638  C  ARNICA FSI CREMA 90GR.                      2 822048500 838825000  335530001644097000       000  000  000  000  000  200         2  7592368003401       21132979       21132979   513477720002  N  0                       0721024 01/01/2023       USD          202          404    406882303
01 37132008  12124  C  BOROCANFOR COOL.PVO.35GR                    3 574808454 586539239  351923551724425362 275908058  000  000  000  000  200         2       75971434       21132983       21132983   513477720002  N  0                       2105301 01/05/2023       USD          141          424    406882303
01 37132008  12123  C  BOROCANFOR ORIG.PVO.35GR                    3 574808454 586539239  351923551724425362 275908058  000  000  000  000  200         2       75971427       21132983       21132983   513477720002  N  0                       2106301 01/06/2023       USD          141          424    406882303
01 37132008  12429  C  CREMA PEINAR FELPA 200ML                    2 664645800 678210000  271284001329291600 212686656  000  000  000  000  200         2  5293455567784       21132488       21132488   513477720002  N  0                           001 01/03/2022       USD          163          327    406882303
01 37132008  PB089  C  OVERSKIN 40% CR. 50GR.                      4 630465307 643331946  514665562521861228 403497796  000  000  000  000  200         2  7591309000622       21133257       21133257   513477720002  N  0                      A2106196 01/06/2024       USD          155          620    406882303
01 37132008  DP299  M  DESLORATADINA DP JBE60CC.                   6 804195788 820607947  984729544825174728       000  000  000  000  000  200         3  7592616579016       21132488       21132488   513477720003  N  0                         10311 01/04/2023       USD          198         1186    406882303
01 37132008  LT210  M  LONGACEF 100MG.PPSO 60ML.                   357877820005905900000 354354000       000       000  000  000  000  000  200         3  7591585116208       21132488       21132488   513477720003  N  0                           499 01/08/2022       USD         1422         4267    406882303
02 37132008         34   30753620946    8944100552    1168000568   40865722066    0    0    0  000    0    0    0   09/08/2021 11:27:09 a.m.   PR           000           000             0            11           USD    406882303         9757
