01 37139249  GN121  M  AC FOLICO GN 10MG. X30CO                    8 592792200 604890000  967824004742337600       000  000  000  000  000  200         1  7591585271495       21138794       21138794   513542400001  N  0                          0411 01/05/2023       USD          144         1153    411336568
01 37139249  LT810  M  ARTRODAR 50MG. X30CA                        228588560002917200000 1166880005717712000       000  000  000  000  000  200         1  7591585213402       21138794       21138794   513542400001  N  0                           316 01/07/2025       USD          695         1390    411336568
01 37139249  EH140  M  CLARITROMICINA VP500X10TA                   226519567132706078279 1082431325303913426       000  000  000  000  000  200         1  7703153019976       21138768       21138768   513542400001  N  0                       1256731 01/07/2022       USD          645         1289    411336568
01 37139249  11288  M  COLYPAN 200MG. X10TA                        411580660001181700000  945360004632264000       000  000  000  000  000  200         1  7591821210264       21138768       21138768   513542400001  N  0                       2106193 01/06/2024       USD          282         1126    411336568
01 37139249  12186  M  MAXTHIO 4MG/2ML. IM X6A                     127192256002774720000  554944002719225600       000  000  000  000  000  200         1  8699525755247       21138768       21138768   513542400001  N  0                       A080460 01/10/2022       USD          661          661    411336568
01 37139249  15199  M  NEUROMIX COMPLE B X3A                       215288000001560000000  624000003057600000       000  000  000  000  000  200         1  7591585113382       21138768       21138768   513542400001  N  0                           003 01/05/2023       USD          372          743    411336568
01 37139249  14579  M  NIFEDIPINA LAND30 X100TA                    150170120005119400000 1023880005017012000       000  000  000  000  000  200         1  7598008000595       21138768       21138768   513542400001  N  0                         T9687 01/03/2024       USD         1220         1220    411336568
01 37139249  12923  N  OMEGA 3 NS1000MG.X60CABL                    221384090002182050000  872820004276818000       000  000  000  000  000  200         1   646824222060       21138838       21138838   513542400001  N  0                         39459 01/06/2024       USD          520         1040    411336568
01 37139249  EM410  N  OMEGA 369 NS X60CABL                        224250590002474550000  989820004850118000       000  000  000  000  000  200         1   646824234063       21138828       21138828   513542400001  N  0                         39462 01/06/2024       USD          590         1179    411336568
01 37139249  11164  M  OMEPRAZOL GN 40MG. X10CA                    3 779688000 795600000  477360002339064000       000  000  000  000  000  200         1  7591585173881       21138838       21138838   513542400001  N  0                           020 01/06/2023       USD          190          569    411336568
01 37139249  14109  M  ACETAMINOFEN QF JBE.120ML                   8 605150000 617500000  988000004841200000       000  000  000  000  000  200         2  7592236001980       21138794       21138794   513542400002  N  0                          7671 01/07/2023       USD          147         1177    411336568
02 37139249         35   47497264626           000           000   47497264626    0    0    0  000    0    0    0   13/08/2021 11:05:34 a.m.   PR           000           000             0            11           USD    411336568        11547
