01 37134207  GN176  M  CARBAMAZEPINA GN 200X30CO                   411809980001205100000  964080004723992000       000  000  000  000  000  200         1  7591585278265       21133370       21133370   513493120001  N  0                           317 01/02/2026       USD          289         1158    408037808
01 37134207  ED105  M  CINAREN 25MG. X50CO                         225480000002600000000 1040000005096000000       000  000  000  000  000  200         1  7592803000101       21134675       21134675   513493120001  N  0                       2106572 01/07/2025       USD          624         1249    408037808
01 37134207  ED100  M  CINAREN CAPS. 75MG. X20                     217836000001820000000  728000003567200000       000  000  000  000  000  200         1  7592803000118       21134675       21134675   513493120001  N  0                       2104504 01/04/2025       USD          437          874    408037808
01 37134207  12125  M  CLINDAMICINA BES600 X10A                    149655424005066880000 1013376004965542400       000  000  000  000  000  200         1 17709315171534       21134675       21134675   513493120001  N  0                         20135 01/08/2022       USD         1217         1217    408037808
01 37134207  ED540  M  CLOFEN 15MG. GOTAS 15ML.                    4 637000000 650000000  520000002548000000       000  000  000  000  000  200         1  7592803000200       21134675       21134675   513493120001  N  0                       1905217 01/05/2022       USD          156          624    408037808
01 37134207  KF190  M  DERMAZOL 0,05% CR.30GR.                     215288000001560000000  624000003057600000       000  000  000  000  000  200         1  7591619519036       21134675       21134675   513493120001  N  0                          0062 01/06/2023       USD          375          749    408037808
01 37134207  11499  M  FULGRAM 875MG-125MG X16CO                   245289171205023200000 9885657609057834240       000  000  000  800  000  200         1  7591585213198       21133370       21133370   513493120001  N  0                           605 01/04/2023       USD         1110         2220    408037808
01 37134207  13211  M  IVAGAN DIS 650/1/40 25X4T                   193958604619587612715 1917522549395860461       000  000  000  000  000  200         1  7591243826814       21134675       21134675   513493120001  N  0                         92191 01/03/2023       USD         2303         2303    408037808
01 37134207  SP760  M  KETOPROFENO SP100MG.X10CO                   6 557375000 568750000  682500003344250000       000  000  000  000  000  200         1  7590027001362       21134675       21134675   513493120001  N  0                           201 01/03/2024       USD          137          820    408037808
01 37134207  14231  M  LORATADINA GDG.PH 10MGX10                  10 294803600 300820000  601640002948036000       000  000  000  000  000  200         1  7598307000074       21133329       21133329   513493120001  N  0                         SM017 01/12/2023       USD          072          722    408037808
01 37134207  10703  M  METFORMINA SP 850MG.X30CO                   4 955500000 975000000  780000003822000000       000  000  000  000  000  200         1  7590027002123       21133366       21133366   513493120001  N  0                           301 01/03/2023       USD          234          937    408037808
01 37134207  12158  M  RANITIDINA BM50MG X10AMP                    3 465010000 474500000  284700001395030000       000  000  000  000  000  200         1  6930169708124       21134675       21134675   513493120001  N  0                        190476 01/03/2022       USD          114          342    408037808
01 37134207  EL071  M  TACHIFORTE 1GR. X20TA                       212400923371265400344  506160142480184674       000  000  000  000  000  200         1  7591062900948       21133366       21133366   513493120001  N  0                        21037A 01/07/2023       USD          304          608    408037808
01 37134207  13120  M  TAMSULOSINA CL BM 0,4X30T                   211147500001137500000  455000002229500000       000  000  000  000  000  200         1  6972718560029       21133366       21133366   513493120001  N  0                        191243 01/11/2022       USD          273          546    408037808
01 37134207  LT930  M  VIASEK COMPR. 50MG. X2                      4 541450000 552500000  442000002165800000       000  000  000  000  000  200         1  7591585111005       21133366       21133366   513493120001  N  0                           094 01/04/2024       USD          133          531    408037808
01 37134207  ED185  M  VIZERUL 150MG. X10CO                        310510500001072500000 1072500003153150000       000  000  000  000  000  200         1  7592803000989       21134675       21133366   513493120001  N  0                       2104523 01/04/2024       USD          258          773    408037808
01 37134207  ED185  M  VIZERUL 150MG. X10CO                        210510500001072500000 1072500002102100000       000  000  000  000  000  200         1  7592803000989       21133366       21133366   513493120001  N  0                       2104523 01/04/2024       USD          258          515    408037808
01 37134207  10324  C  LOCION JAB AVISPA 120ML.                    2 886409372 904499359  361799741772818744 283650999  000  000  000  000  200         2  7591635910206       21134675       21134675   513493120002  N  0                       0130421 01/04/2023       USD          217          434    408037808
01 37134207  PD390  M  FLEMICAINE SOL.TOP. 5ML.                    210192000001040000000  416000002038400000       000  000  000  000  000  200         3  7591955000489       21134675       21134675   513493120003  N  0                          0026 01/09/2023       USD          250          500    408037808
02 37134207         58   68090479775    1772818744     283650999   70146949518    0    0    0  000    0    0    0   10/08/2021 01:29:48 p.m.   PR           000           000             0            18           USD    408037808        17122
