01 37133549  LO469  M  ALFADYN 0,20% SO.OFT.5ML.                   427353800132791204095 223296328       000       000  000  000  000  000  200         1  7591196003430       21133329       21133329   513493130001  N  0                        061806 01/06/2023       USD          670         2681    408037808
01 37133549  12928  M  CLOTRIMAZOL AL500MG X1OVU                   2 799357079 906300543 2138869281598714158       000  000  000 1000  000  200         1  7597758000664       21134675       21134675   513493130001  N  0                      K1AHK004 01/07/2023       USD          196          392    408037808
01 37133549  12720  M  COFADOR-T SOL. OF X5ML                      221828223032227369697  890947884365644606       000  000  000  000  000  200         1  7591818716786       21133329       21133329   513493130001  N  0                        209170 01/09/2023       USD          535         1070    408037808
01 37133549  VM017  M  ESQUIDONE 1MG. X30TA                        212153724991240176019  496070402430744998       000  000  000  000  000  200         1  7591020080538       21134675       21134675   513493130001  N  0                            28 01/05/2023       USD          298          596    408037808
01 37133549  LO580  M  QUINOTIC HC OTICA 5ML.                      313760179271404099925  842459944128053781       000  000  000  000  000  200         1  7591196000637       21134675       21134675   513493130001  N  0                        051739 01/05/2023       USD          337         1012    408037808
01 37133549  13415  M  SILDENAFIL 50MG X4TAB                       4 615596800 628160000  502528002462387200       000  000  000  000  000  200         1  7592601303596       21134675       21134675   513493130001  N  0                        158503 01/04/2023       USD          151          603    408037808
01 37133549  PD124  M  TRIDETARMON CR. 15GR.                       311911900001430000000 7164300003573570000       000  000  000 1500  000  200         1  7591955000762       21133366       21133366   513493130001  N  0                          0081 01/04/2023       USD          292          876    408037808
02 37133549         20   29500634795           000           000   29500634795    0    0    0  000    0    0    0   10/08/2021 09:43:34 a.m.   PR           000           000             0             7           USD    408037808         7230
