01 37134499  11716  M  ARUDIL 20MG. X10TA                          140131000004095000000  819000004013100000       000  000  000  000  000  200         1  7591821210028       21135036       21135036   513497460001  N  0                       2105171 01/05/2023       USD          984          984    408037808
01 37134499  PF204  M  ATAMEL FORTE 650MG. X10TA                   6 800182724 816512984  979815604801096344       000  000  000  000  000  200         1  7591257000552       21135030       21135030   513497460001  N  0                     026130021 01/05/2023       USD          196         1177    408037808
01 37134499  10189  M  AZITROMICINA BF500 X3CO                    12 591136000 603200000 1447680007093632000       000  000  000  000  000  200         1  8470007069430       21135021       21135021   513497460001  N  0                       L200748 01/05/2023       USD          145         1738    408037808
01 37134499  13652  M  CETIRIZINA 10MGX10TA BUKA                   6 382200000 390000000  468000002293200000       000  000  000  000  000  200         1  0675696260009       21134806       21134806   513497460001  N  0                        CTR202 01/11/2023       USD          094          562    408037808
01 37134499  12641  M  CIPROFLOXACINA DAC 500X10                   6 703248000 717600000  861120004219488000       000  000  000  000  000  200         1  7598578000094       21134806       21134806   513497460001  N  0                          V182 01/01/2024       USD          172         1034    408037808
01 37134499  GN146  M  ENALAPRIL GN 20MG. X30CO                    6 495331200 505440000  606528002971987200       000  000  000  000  000  200         1  7591585378538       21135030       21135030   513497460001  N  0                           420 01/03/2023       USD          121          728    408037808
02 37134499         37   25392503544           000           000   25392503544    0    0    0  000    0    0    0   10/08/2021 02:25:29 p.m.   PR           000           000             0             6           USD    408037808         6223
