01 37130841  KL489  M  ANASMOL 5MG. X30CO                          219110000001950000000  780000003822000000       000  000  000  000  000  200         1  7591955003091       21131265       21131265   513458310001  N  0                          0042 01/06/2023       USD          473          946    404078473
01 37130841  10091  M  CLAVOXILIN 500-125 X16CO                    230147936003076320000 1230528006029587200       000  000  000  000  000  200         1  5600360011644       21131338       21131338   513458310001  N  0                     J0011013J 01/10/2022       USD          746         1492    404078473
01 37130841  15085  M  COMPLEJO MULTIVIT.BM X30                    610510500001072500000 1287000006306300000       000  000  000  000  000  200         1  7598127001213       21131265       21131265   513458310001  N  0                        210167 01/01/2024       USD          260         1561    404078473
01 37130841  14215  M  DECOBEL 0.5MG X30TA                         611083800001131000000 1357200006650280000       000  000  000  000  000  200         1  7592806133110       21131302       21131302   513458310001  N  0                        105081 01/05/2023       USD          274         1646    404078473
01 37130841  ZU001  C  IODINEX JABON LIQ. 120ML.                   213194963211346424817  538569922638992642       000  000  000  000  000  200         2  7595248000033       21131338       21131338   513458310002  N  0                       0200543 01/04/2026       USD          327          653    404078473
02 37130841         18   22808167200    2638992642           000   25447159842    0    0    0  000    0    0    0   06/08/2021 01:12:09 p.m.   PR           000           000             0             5           USD    404078473         6298
