01 37130337  GN121  M  AC FOLICO GN 10MG. X30CO                   12 592792200 604890000 1451736007113506400       000  000  000  000  000  200         1  7591585271495       21131000       21131000   513453570001  N  0                          0411 01/05/2023       USD          147         1760    404078473
01 37130337  13895  M  AMOXI+AC POR250/62.5 60ML                   323734620002421900000 1453140007120386000       000  000  000  000  000  200         1  7750215007204       21130997       21130997   513453570001  N  0                       2040361 01/04/2023       USD          587         1762    404078473
01 37130337  ZA102  M  EVIGAX 125MG. X10CA.BLA                     312779138771303993752  782396253833741631       000  000  000  000  000  200         1  7592432900032       21130997       21130997   513453570001  N  0                        210153 01/04/2024       USD          316          949    404078473
01 37130337  LC840  M  LETISAN SOL.ORAL 120ML.                     3 972062000 991900000  595140002916186000       000  000  000  000  000  200         1  7591585214881       21130997       21130997   513453570001  N  0                           497 01/05/2024       USD          241          722    404078473
01 37130337  14566  M  LEVON+ETINIL LAND X21TA                     212612600001287000000  514800002522520000       000  000  000  000  000  200         1  7598008000465       21130997       21130997   513453570001  N  0                         T9073 01/09/2023       USD          312          624    404078473
01 37130337  14231  M  LORATADINA GDG.PH 10MGX10                  10 294803600 300820000  601640002948036000       000  000  000  000  000  200         1  7598307000074       21130997       21130997   513453570001  N  0                         SM017 01/12/2023       USD          073          730    404078473
01 37130337  10703  M  METFORMINA SP 850MG.X30CO                   4 812175000 975000000 6513000003248700000       000  000  000 1500  000  200         1  7590027002123       21130870       21130870   513453570001  N  0                           301 01/03/2023       USD          201          804    404078473
01 37130337  KV199  M  TERAGRIP FORTE NOC X6 SOB.                  216339050001667250000  666900003267810000       000  000  000  000  000  200         1  7591821801882       21131000       21131000   513453570001  N  0                       2105144 01/06/2023       USD          404          809    404078473
02 37130337         39   32970886031           000           000   32970886031    0    0    0  000    0    0    0   06/08/2021 10:47:21 a.m.   PR           000           000             0             8           USD    404078473         8160
