01 37132497  15264  M  ACETAMINOFEN BM800 X10TA                   10 337610000 344500000  689000003376100000       000  000  000  000  000  200         1  7598127000988       21132979       21132979   513477710001  N  0                        210398 01/03/2024       USD          083          830    406882303
01 37132497  12545  M  ACETAZOLAMIDA 250MG X30TA                   224730888002523560000 1009424004946177600       000  000  000  000  000  200         1  7703153037635       21132979       21132979   513477710001  N  0                       1285409 01/02/2022       USD          608         1216    406882303
01 37132497  11044  N  ACHICORIA FG JBE. 120ML.                    2 696460757 710674242  284269701392921514       000  000  000  000  000  200         1       25525755       21132979       21132979   513477710001  N  0                          2376 01/06/2024       USD          171          342    406882303
01 37132497  12230  C  AGUA OX. PAS 9% V30 120ML                   6 239512000 244400000  293280001437072000 229931520  000  000  000  000  200         1  7593723002558       21132983       21132983   513477710001  N  0                       2011363 01/11/2023       USD          059          353    406882303
01 37132497  12827  M  ALBENDAZOL PX 200MG X2TA                    4 313615484 320015800  256012641254461936       000  000  000  000  000  200         1  7594001100263       21132979       21132979   513477710001  N  0                          5751 01/05/2022       USD          077          308    406882303
01 37132497  14869  M  AMOXICILINA FM500 X10CA                    12 509600000 520000000 1248000006115200000       000  000  000  000  000  200         1  8906082150676       21132979       21132979   513477710001  N  0                     ACAMX2012 01/10/2023       USD          125         1503    406882303
01 37132497  10189  M  AZITROMICINA BF500 X3CO                    12 591136000 603200000 1447680007093632000       000  000  000  000  000  200         1  8470007069430       21132983       21132983   513477710001  N  0                       L200748 01/05/2023       USD          145         1743    406882303
01 37132497  12909  M  AZOPT SOL. OF 2%/5% X5ML                    217122560001747200000  698880003424512000       000  000  000  000  000  200         1  7598055000043       21132018       21132018   513477710001  N  0                            15 01/08/2022       USD          421          842    406882303
01 37132497  12909  M  AZOPT SOL. OF 2%/5% X5ML                    417122560001747200000 1397760006849024000       000  000  000  000  000  200         1  7598055000043       21132018       21131995   513477710001  N  0                            15 01/08/2022       USD          421         1683    406882303
01 37132497  12909  M  AZOPT SOL. OF 2%/5% X5ML                    417122560001747200000 1397760006849024000       000  000  000  000  000  200         1  7598055000043       21131995       21132018   513477710001  N  0                            15 01/08/2022       USD          421         1683    406882303
01 37132497  LT389  M  CENARET 5MG. X10CO                          3 586040000 598000000  358800001758120000       000  000  000  000  000  200         1  7591585114334       21132488       21132488   513477710001  N  0                           107 01/03/2022       USD          144          432    406882303
01 37132497  KW004  C  CLIMAX AROS PRESERV. X3                     2 318500000 325000000  13000000 637000000 101920000  000  000  000  000  200         1  8852961006117       21132983       21132983   513477710001  N  0                        174604 01/10/2022       USD          078          157    406882303
01 37132497  LA102  C  CLIMAX BANANA PRESERV. X3                   2 318500000 325000000  13000000 637000000 101920000  000  000  000  000  200         1  8852961008661       21132983       21132983   513477710001  N  0                        174501 01/10/2022       USD          078          157    406882303
01 37132497  KW003  C  CLIMAX CHOCO PRESERV. X3                    2 318500000 325000000  13000000 637000000 101920000  000  000  000  000  200         1  8852961006124       21132983       21132983   513477710001  N  0                        174502 01/10/2022       USD          078          157    406882303
01 37132497  14306  C  CREMA PEINAR M.MOÑITOS240                   2 543890936 554990751  221996301087781872 174045100  000  000  000  000  200         1  7596097009024       21132488       21132488   513477710001  N  0                   00121882416 01/01/2023       USD          134          267    406882303
01 37132497  15226  M  DORZO+TIMO LAND2-0.5 5ML.                   616256240001658800000 1990560009753744000       000  000  000  000  000  200         1  7598008000861       21132018       21132018   513477710001  N  0                         E1246 01/02/2024       USD          400         2397    406882303
01 37132497  FA018  M  FITEX 20MG. X1TA                           12 209131181 213399164  512157962509574172       000  000  000  000  000  200         1  7591821904293       21132488       21132488   513477710001  N  0                       2006366 01/10/2022       USD          051          617    406882303
01 37132497  10372  M  GYNOMET 15%-4%CR.VAG.40GR                   216694496001703520000  681408003338899200       000  000  000  000  000  200         1  7591585119131       21132983       21132983   513477710001  N  0                           050 01/02/2023       USD          410          821    406882303
01 37132497  GN101  M  LOSARTAN P. GN 50MG. X30                   20 525525000 536250000 214500000       000       000  000  000  000  000  200         1  7591585278951       21132927       21132927   513477710001  N  0                           356 01/01/2023       USD          129         2583    406882303
01 37132497  14375  M  PARACETA PORTU500 X100TA                    229302000002990000000 1196000005860400000       000  000  000  000  000  200         1  7750215496886       21133257       21133257   513477710001  N  0                       2043131 01/04/2024       USD          720         1440    406882303
01 37132497  12212  M  PREDNABENE 15MG.S.ORA60ML                   422522510032298215309 1838572249009004012       000  000  000  000  000  200         1  7406076101895       21133044       21133044   513477710001  N  0                           G43 01/03/2023       USD          554         2214    406882303
01 37132497  13542  M  ACETAMINOFEN GN650 X10CO                   11 293020000 299000000  657800003223220000       000  000  000  000  000  200         2  7591585279057       21132983       21132983   513477710002  N  0                           053 01/05/2023       USD          072          792    406882303
01 37132497  GN739  M  DICLOFENAC P. GN50 X10CO                   24 233587900 238355000 1144104005606109600       000  000  000  000  000  200         2  7591585279248       21132983       21132983   513477710002  N  0                          7551 01/03/2024       USD          057         1378    406882303
01 37132497  SX140  C  TOALLAS C. SECUREZZA X 10                   6 390843045 398819434  478583342345058270 375209323  000  000  000  000  200         2  7591353700028       21132488       21132488   513477710002  N  0                      10712106 01/07/2023       USD          096          576    406882303
02 37132497        156   92870624034    6780912142    1084945943  100736482119    0    0    0  000    0    0    0   09/08/2021 01:54:19 p.m.   PR           000           000             0            24           USD    406882303        24491
