01 37137001  13542  M  ACETAMINOFEN GN650 X10CO                   12 293020000 299000000  717600003516240000       000  000  000  000  000  200         1  7591585279057       21136406       21136406   513523660001  N  0                           055 01/06/2023       USD          071          854    411705464
01 37137001  14534  M  CEFADROXILO GN500 X10CA                     6 9949940001015300000 1218360005969964000       000  000  000  000  000  200         1  7591585470225       21137094       21137094   513523660001  N  0                           560 01/11/2023       USD          242         1450    411705464
01 37137001  ZA102  M  EVIGAX 125MG. X10CA.BLA                     313139217361340736465  804441873941765208       000  000  000  000  000  200         1  7592432900032       21136406       21136406   513523660001  N  0                        210153 01/04/2024       USD          319          957    411705464
01 37137001  VP664  M  EVIGAX 125MG. X20CA.BLA                     219683921552008563423  803425363936784310       000  000  000  000  000  200         1  7592432010212       21136406       21136406   513523660001  N  0                        210003 01/11/2023       USD          478          956    411705464
01 37137001  14117  M  FANASAL  AD. X 15ML GTAS                    6 363090000 370500000  444600002178540000       000  000  000  000  000  200         1  7592236002215       21136484       21136484   513523660001  N  0                          6851 01/06/2023       USD          088          529    411705464
01 37137001  KV860  M  FEMMEX ULTRA 200/30 X10TA                   2 708025500 760500000 1049490001416051000       000  000  000  500  000  200         1  7591821801004       21137094       21137094   513523660001  N  0                       2009132 01/10/2023       USD          172          344    411705464
01 37137001  EL035  M  GENURIN 200MG. X10CO                        320159182322057059420 1234235646047754696       000  000  000  000  000  200         1  7591062901198       21136476       21136476   513523660001  N  0                        21018A 01/03/2023       USD          490         1469    411705464
01 37137001  14846  M  KETOPROFENO ZIEL100 X5A                     128963658142955475320  591095062896365814       000  000  000  000  000  200         1  0781584377633       21136406       21136406   513523660001  N  0                     EP0121011 01/03/2023       USD          704          704    411705464
01 37137001  FS280  N  MIEL DE BORAX FSI 30ML.X6                   123811060002429700000  485940002381106000       000  000  000  000  000  200         1  7592368000608       21137094       21137094   513523660001  N  0                       0721032 01/07/2023       USD          578          578    411705464
01 37137001  13505  M  PEDIALY MAX 60 COCO 500ML                   3 9870903921007235094  604341062961271176       000  000  000  000  000  200         1  7501033961540       21136484       21136484   513523660001  N  0                       27431MC 01/03/2023       USD          240          719    411705464
01 37137001  13506  M  PEDIALY MAX 60 UVA 500ML                    3 9870903921007235094  604341062961271176       000  000  000  000  000  200         1  7501033957376       21136484       21136484   513523660001  N  0                       26458MC 01/03/2023       USD          240          719    411705464
01 37137001  GP740  M  VIGRASOL 50MG. X1CO                         8 254800000 260000000  416000002038400000       000  000  000  000  000  200         1  7594000491645       21136476       21136476   513523660001  N  0                          0012 01/08/2022       USD          062          495    411705464
01 37137001  ET340  C  ADEMINA PLUS CR.CORP.30GR                   3 765604574 781229157  468737492296813722 367490196  000  000  000  000  200         2  7591844000439       21136406       21136406   513523660002  N  0                    AP30210103 01/05/2024       USD          186          558    411705464
01 37137001  10535  C  PROT LAB.CEREZA NEVADA4GR                   2 518368054 528946994  211578801036736108 165877777  000  000  000  000  200         2  7591635910244       21137094       21137094   513523660002  N  0                       0210620 01/10/2022       USD          126          252    411705464
01 37137001  10536  C  PROT LAB.FRESA NEVADA4GR                    2 518368054 528946994  211578801036736108 165877777  000  000  000  000  200         2  7591635910251       21137094       21137094   513523660002  N  0                       0200620 01/10/2022       USD          126          252    411705464
01 37137001  14113  M  BROMEXINA 4MGX120ML                         8 484120000 494000000  790400003872960000       000  000  000  000  000  200         3  7592236002055       21137094       21137094   513523660003  N  0                          7571 01/07/2023       USD          118          941    411705464
01 37137001  PD720  M  CLENBUXOL JBE.PED. 120CC.                   312740000001300000000  780000003822000000       000  000  000  000  000  200         3  7591955000168       21136406       21136406   513523660003  N  0                          0104 01/02/2025       USD          309          928    411705464
01 37137001  TQ175  M  GRAUSIN JBE. 120ML.                         211466000001170000000  468000002293200000       000  000  000  000  000  200         3  7591955002452       21136476       21136476   513523660003  N  0                          0029 01/07/2023       USD          278          557    411705464
02 37137001         70   50233673380    4370285938     699245750   55303205068    0    0    0  000    0    0    0   12/08/2021 09:55:08 a.m.   PR           000           000             0            18           USD    411705464        13263
