01 37138055  VP990  M  CEVAX 500MG. X30CA.BLA                      313922161451578476355 5587806304176648435       000  000 1000  000  000  200         1  7592432007649       21137691       21137691   513532280001  N  0                        210181 01/06/2023       USD          338         1014    411705464
01 37138055  FS250  C  PASTA AL AGUA 30GR. X6                      123811060002429700000  485940002381106000 380976960  000  000  000  000  200         1  7592368000967       21137652       21137652   513532280001  N  0                       0721076 01/07/2022       USD          578          578    411705464
01 37138055  CH789  C  SECUREZZA CLASSIC GDE. X6                   216946789451729264230  691705703389357890 542297262  000  000  000  000  200         1  7591353515011       21137630       21137630   513532280001  N  0                      10731101 01/07/2023       USD          412          823    411705464
01 37138055  LT439  M  TEKRON 200MG. X30CO                         237837800003861000000 1544400007567560000       000  000  000  000  000  200         1  7591585218568       21137890       21137890   513532280001  N  0                           184 01/06/2023       USD          919         1838    411705464
01 37138055  11197  C  SIEMPRESECO PAÑAL AD.G X6                   212424180001267773469  507109382484836000 397573760  000  000  000  000  200         2  7591353699018       21137630       21137630   513532280002  N  0                      10728201 01/07/2023       USD          302          604    411705464
01 37138055  LT434  M  PULMOLET SUSP. P.NEB.15CC                   811338600001157000000 1851200009070880000       000  000  000  000  000  200         3  7591585117199       21137739       21137739   513532280003  N  0                           029 01/07/2023       USD          275         2203    411705464
02 37138055         18   20815088435    8255299890    1320847982   30391236307    0    0    0  000    0    0    0   12/08/2021 02:26:46 p.m.   PR           000           000             0             6           USD    411705464         7061
