01 37135612  12137  M  ATENOLOL BM100MG. X100TA                    315702050001602250000  961350004710615000       000  000  000  000  000  200         1  6930169708063       21135882       21135882   513507590001  N  0                        190446 01/03/2022       USD          383         1150    409450202
01 37135612  NP099  N  CALCIBON NATAL FORT X30TA                   125058943002749500000 2436057002505894300 400943088  000  000  700  000  200         1  7591821102071       21135196       21135196   513507590001  N  0                      21040651 01/04/2023       USD          612          612    409450202
01 37135612  LN165  M  MADECASSOL 2% POLVO 5GR.                    217325459021767903982  707161603465091804       000  000  000  000  000  200         1  7592348218108       21135882       21135882   513507590001  N  0                       2102027 01/02/2026       USD          423          846    409450202
01 37135612  12923  N  OMEGA 3 NS1000MG.X60CABL                    121384090002182050000  436410002138409000       000  000  000  000  000  200         1   646824222060       21135196       21135196   513507590001  N  0                         39459 01/06/2024       USD          522          522    409450202
01 37135612  14880  M  OMEPRAZOL FM20MG. X10CA                    12 229320000 234000000  561600002751840000       000  000  000  000  000  200         1  8906082150706       21135882       21135882   513507590001  N  0                         C1001 01/12/2023       USD          056          672    409450202
01 37135612  13505  M  PEDIALY MAX 60 COCO 500ML                   3 9870903921007235094  604341062961271176       000  000  000  000  000  200         1  7501033961540       21135196       21135196   513507590001  N  0                       27431MC 01/03/2023       USD          241          723    409450202
01 37135612  CV220  C  SANALO CR. FACIAL 30GR.                     3 488324200 498290000  298974001464972600 234395616  000  000  000  000  200         2  7591138073323       21135196       21135196   513507590002  N  0                        210081 01/03/2024       USD          119          358    409450202
01 37135612  KV007  N  TERATOSIL MIEL JBE.120ML.                   312612600001287000000  772200003783780000       000  000  000  000  000  200         3  7591821802551       21135196       21135196   513507590003  N  0                       2106812 01/06/2024       USD          308          924    409450202
02 37135612         28   22316901280    1464972600     635338704   24417212584    0    0    0  000    0    0    0   11/08/2021 11:14:05 a.m.   PR           000           000             0             8           USD    409450202         5808
