01 37145042  GN091  M  CAPTOPRIL GN 25MG.X30CO                     4 815360000 832000000  665600003261440000       000  000  000  000  000  200         1  7591585370167       21144073       21144073   513601280001  N  0                           119 01/04/2025       USD          197          790    413016486
01 37145042  15221  M  CEFATRIAX 1G.IM/IV 10VIAL                   193639000009555000000 1911000009363900000       000  000  000  000  000  200         1  7754662003079       21144073       21144073   513601280001  N  0                        210417 01/04/2024       USD         2267         2267    413016486
01 37145042  KW005  C  CLIMAX 6 SENTIDO PRES. X3                   2 573300000 585000000  234000001146600000 183456000  000  000  000  000  200         1  8852961006131       21144073       21144073   513601280001  N  0                        174401 01/10/2022       USD          139          278    413016486
01 37145042  LA103  C  CLIMAX EXPLO PRESERV.X3                     2 573300000 585000000  234000001146600000 183456000  000  000  000  000  200         1  8852961009392       21144073       21144073   513601280001  N  0                        174402 01/10/2022       USD          139          278    413016486
01 37145042  SP760  M  KETOPROFENO SP100MG.X10CO                   4 675220000 689000000  551200002700880000       000  000  000  000  000  200         1  7590027001362       21144073       21144073   513601280001  N  0                           201 01/03/2024       USD          163          654    413016486
01 37145042  15344  M  LACRIDOS SOL.OFT. 10ML.                     8 672831250 686562500 1098500005382650000       000  000  000  000  000  200         1  7591196007247       21144073       21144073   513601280001  N  0                        071138 01/07/2024       USD          163         1303    413016486
01 37145042  VL150  C  MELODY TALCO 100GR.                         2 545301324 556429922  222571961090602648 174496424  000  000  000  000  200         1   736674020067       21144073       21144073   513601280001  N  0                      11660102 01/06/2025       USD          132          264    413016486
01 37145042  ML100  C  MULTI PLUS SOL. 240 CC.                     122524508552298419240  459683852252450855 360392137  000  000  000  000  200         2  7591929717009       21144073       21144073   513601280002  N  0                      MP221008 01/07/2024       USD          545          545    413016486
02 37145042         24   20708870000    5636253503     901800560   27246924063    0    0    0  000    0    0    0   18/08/2021 02:07:36 p.m.   PR           000           000             0             8           USD    413016486         6379
