01 37143227  12827  M  ALBENDAZOL PX 200MG X2TA                    8 313615484 320015800  512025282508923872       000  000  000  000  000  200         1  7594001100263       21142770       21142770   513586100001  N  0                          5751 01/05/2022       USD          076          610    411049800
01 37143227  14426  M  HIDROCOR AL500IM/IM X1AM                    318027170301839507173 1103704295408151090       000  000  000  000  000  200         1  7597758000695       21142770       21142770   513586100001  N  0                       2120170 01/07/2023       USD          439         1316    411049800
01 37143227  LP220  M  PROTOSULFIL 1% CR. 30GR.                    115288000001560000000  312000001528800000       000  000  000  000  000  200         1  7591955001486       21142770       21142770   513586100001  N  0                          0297 01/07/2022       USD          372          372    411049800
01 37143227  GM204  M  SILDENAFIL MY 50MG. X2TA                    6 273655200 279240000  335088001641931200       000  000  000  000  000  200         1  7592601301400       21142770       21142770   513586100001  N  0                        158504 01/06/2023       USD          067          399    411049800
01 37143227  GM850  M  AC FOLICO MY GOTAS 15ML.                    3 8145369961013610000 5972190122443610988       000  000  000 1800  000  200         2  7592601300779       21142770       21142770   513586100002  N  0                        154204 01/04/2023       USD          198          594    411049800
02 37143227         21   13531417150           000           000   13531417150    0    0    0  000    0    0    0   17/08/2021 02:22:32 p.m.   PR           000           000             0             5           USD    411049800         3292
