01 37148084  LC309  M  ALIVET 4DIAS 8D-4N X12CO                    2 895755133 942305000  930997341791510266       000  000  000  300  000  200         1  7591585116000       21146394       21146394   513630790001  N  0                           341 01/12/2022       USD          217          435    412222338
01 37148084  KV004  M  ANTILAX 2MG. X10TA                          4 533169000 544050000  435240002132676000       000  000  000  000  000  200         1  7591821102095       21146394       21146394   513630790001  N  0                       2010043 01/10/2022       USD          129          517    412222338
01 37148084  PA054  M  BETADERM PLUS CREMA 15GR.                   416162874911649272950 1319418366465149964       000  000  000  000  000  200         1  7591243804164       21146394       21146394   513630790001  N  0                       9257702 01/06/2023       USD          392         1568    412222338
01 37148084  LT077  M  CANFIR LP 500MG. X30CO                      310045490001079000000 2233530003013647000       000  000  500  000  000  200         1  7591585112620       21146610       21146610   513630790001  N  0                           029 01/12/2022       USD          244          731    412222338
01 37148084  11320  M  CRISOMET 50-850 X10TA                       225059144292557055540 1022822225011828858       000  000  000  000  000  200         1  7591821210349       21146394       21146394   513630790001  N  0                       2104091 01/03/2023       USD          608         1216    412222338
01 37148084  FA018  M  FITEX 20MG. X1TA                            6 202928580 213474206  632737561217571480       000  000  000  300  000  200         1  7591821904293       21146446       21146446   513630790001  N  0                       2006366 01/10/2022       USD          049          295    412222338
01 37148084  LC409  M  MIGREN 650-50-1 X10CO                       3 617890000 650000000  963300001853670000       000  000  000  300  000  200         1  7591585115737       21146446       21146446   513630790001  N  0                           530 01/06/2023       USD          150          450    412222338
01 37148084  PO550  M  MILAX POLVO 120GR.                          121785400002223000000  444600002178540000       000  000  000  000  000  200         1  7592806132038       21146446       21146446   513630790001  N  0                        106085 01/06/2024       USD          528          528    412222338
01 37148084  SP002  M  MONTELUKAST SP10MG. X10TA                   2 947537500 966875000  386750001895075000       000  000  000  000  000  200         1  7590027002154       21146446       21146446   513630790001  N  0                           511 01/04/2023       USD          230          460    412222338
01 37148084  KV204  M  TERAGRIP FORTE GRAN.X6SOB                   215848878501667250000 1647243003169775700       000  000  000  300  000  200         1  7591821802490       21146394       21146394   513630790001  N  0                       2104125 01/04/2023       USD          384          769    412222338
01 37148084  KV199  M  TERAGRIP FORTE NOC X6 SOB.                  216339050001667250000  666900003267810000       000  000  000  000  000  200         1  7591821801882       21146394       21146394   513630790001  N  0                       2105144 01/06/2023       USD          396          793    412222338
01 37148084  15296  M  VIZERUL 75MG. X20CO                         210192000001040000000  416000002038400000       000  000  000  000  000  200         1  7592803004024       21146610       21146610   513630790001  N  0                       2105542 01/06/2024       USD          247          494    412222338
01 37148084  RN100  C  GERDEX SOL. 240 CC.                         3 349151664 356277208  213766321047454992 167592799  000  000  000  000  200         2  7591838000025       21146394       21146394   513630790002  N  0                       B242062 01/06/2024       USD          085          254    412222338
02 37148084         36   34035654268    1047454992     167592799   35250702059    0    0    0  000    0    0    0   20/08/2021 01:23:56 p.m.   PR           000           000             0            13           USD    412222338         8511
