01 37147853  14423  M  ACETAMINOFEN AL180 120ML                    6 636843431 81230029410527411783821060586       000  000  000 2000  000  200         1  7597758000459       21146446       21146446   513630800001  N  0                         DL147 01/07/2022       USD          154          927    412222338
01 37147853  12193  M  AZITROMICINA AL200 22,5ML                   6 9894782591009671693 1211606045936869554       000  000  000  000  000  200         1  7597758000152       21146394       21146394   513630800001  N  0                      A1ARD001 01/02/2024       USD          240         1440    412222338
01 37147853  11640  M  CYTRIAX 1GR.IV-IM. X1                      12 585314447 597259640 1433423167023773364       000  000  000  000  000  200         1       75971342       21146502       21146502   513630800001  N  0                       3121034 01/02/2024       USD          142         1704    412222338
01 37147853  14427  M  HIOSCINA BUTIL AL20MG.5AM                   322588375132304936238 1382961756776512539       000  000  000  000  000  200         1  7597758000701       21146446       21146446   513630800001  N  0                       1321079 01/02/2024       USD          548         1644    412222338
01 37147853  PD900  M  NEFROTAL H 50/12,5 X14CO                    3 891800000 910000000  546000002675400000       000  000  000  000  000  200         1  7591955558270       21146394       21146394   513630800001  N  0                          0014 01/04/2024       USD          216          649    412222338
01 37147853  14374  M  PARACETA PORT120 JBE120ML                   211800425001204125000  481650002360085000       000  000  000  000  000  200         1  7750215575819       21146610       21146610   513630800001  N  0                       2039371 01/03/2024       USD          286          573    412222338
01 37147853  12081  M  XANEXTRA 500MG. IV X1A.                     3 580747625 592599617  355559761742242875       000  000  000  000  000  200         1       75971335       21146394       21146394   513630800001  N  0                       2220117 01/07/2023       USD          141          423    412222338
01 37147853  14512  M  ACEVAL 180MG. SOL.PED.120                   4 9841650001004250000  803400003936660000       000  000  000  000  000  200         2  7591020008839       21146394       21146394   513630800002  N  0                            05 01/07/2023       USD          239          955    412222338
02 37147853         39   34272603918           000           000   34272603918    0    0    0  000    0    0    0   20/08/2021 11:17:04 a.m.   PR           000           000             0             8           USD    412222338         8314
