01 37140643  12137  M  ATENOLOL BM100MG. X100TA                    215702050001602250000  640900003140410000       000  000  000  000  000  200         1  6930169708063       21140671       21140671   513562040001  N  0                        190446 01/03/2022       USD          380          759    413548809
01 37140643  14542  M  AZITROMICINA LAND500 X3TA                  12 672672000 686400000 1647360008072064000       000  000  000  000  000  200         1  7598008000656       21140671       21140671   513562040001  N  0                      00T20017 01/11/2023       USD          163         1952    413548809
01 37140643  EL930  M  BRUGESIC 600MG. X10CO                       312229691341247927688  748756623668907402       000  000  000  000  000  200         1  7591062902539       21140671       21140671   513562040001  N  0                        20128A 01/11/2022       USD          296          887    413548809
01 37140643  GN176  M  CARBAMAZEPINA GN 200X30CO                   612466090001272050000 1526460007479654000       000  000  000  000  000  200         1  7591585278265       21140671       21140671   513562040001  N  0                           317 01/02/2026       USD          301         1809    413548809
01 37140643  10091  M  CLAVOXILIN 500-125 X16CO                    231057572003169140000 1267656006211514400       000  000  000  000  000  200         1  5600360011644       21140671       21140671   513562040001  N  0                     J0011013J 01/10/2022       USD          751         1502    413548809
01 37140643  14694  M  DEXAMETASONA KM4 1ML.X10A                   317199000001755000000 1053000005159700000       000  000  000  000  000  200         1  6942189211256       21140671       21140671   513562040001  N  0                        201019 01/10/2023       USD          416         1248    413548809
01 37140643  GN739  M  DICLOFENAC P. GN50 X10CO                   24 245882000 250900000 1204320005901168000       000  000  000  000  000  200         1  7591585279248       21140855       21140855   513562040001  N  0                           755 01/03/2024       USD          059         1427    413548809
01 37140643  PB044  C  DIOXOGEN C.TALC D.BOL90GR                   2 440565024 449556147  17982246 881130048 140980808  000  000  000  000  200         1  7591309000066       21140671       21140671   513562040001  N  0                      A2103065 01/03/2024       USD          107          213    413548809
01 37140643  14117  M  FANASAL  AD. X 15ML GTAS                   12 363090000 370500000  889200004357080000       000  000  000  000  000  200         1  7592236002215       21140671       21140671   513562040001  N  0                          6851 01/06/2023       USD          088         1054    413548809
01 37140643  FA019  M  FITEX  5MG. X30TA                           215664320491598400050  639360023132864098       000  000  000  000  000  200         1  7591821904316       21140671       21140671   513562040001  N  0                       2105765 01/06/2023       USD          379          758    413548809
01 37140643  13860  M  FLUCONAZOL 150 MG. X1CA                     6 413349300 421785000  506142002480095800       000  000  000  000  000  200         1  7702605101245       21140671       21140671   513562040001  N  0                       B00788A 01/03/2024       USD          100          600    413548809
01 37140643  XS008  N  GOTAS VALERIANA XS 30ML.                    6 206353254 210564545  252677461238119524       000  000  000  000  000  200         1  7594001450818       21140671       21140671   513562040001  N  0                      14062179 01/06/2024       USD          050          299    413548809
01 37140643  14782  M  IBUPRO-TIOCOL DAC600-4X10                   311955216001219920000  731952003586564800       000  000  000  000  000  200         1  7598578000247       21140847       21140847   513562040001  N  0                          V186 01/01/2024       USD          289          867    413548809
01 37140643  VP003  M  NYTAXIN 500MG. X6CA.BL.                     222695474452315864740  926345904539094890       000  000  000  000  000  200         1  7592432018010       21140847       21140847   513562040001  N  0                        200313 01/09/2022       USD          549         1098    413548809
01 37140643  11536  M  OLMECAR 20MG. X30CO                         218090800001846000000  738400003618160000       000  000  000  000  000  200         1  7591585318794       21140671       21140671   513562040001  N  0                           041 01/05/2023       USD          437          875    413548809
01 37140643  12559  M  OLMECAR 40MG X30CO                          230690660003131700000 1252680006138132000       000  000  000  000  000  200         1  7591585318800       21140671       21140671   513562040001  N  0                           021 01/03/2023       USD          742         1484    413548809
01 37140643  11343  M  RINARIS 5MG-60MG. X10TA                     611466000001170000000 1404000006879600000       000  000  000  000  000  200         1  7591821802322       21140671       21140671   513562040001  N  0                       2105296 01/05/2023       USD          277         1664    413548809
01 37140643  14881  M  SECNIDAZOL FM500MG. X4TA                    4 509600000 520000000  416000002038400000       000  000  000  000  000  200         1  8906082150737       21140847       21140847   513562040001  N  0                         T0531 01/11/2023       USD          123          493    413548809
01 37140643  11196  C  SIEMPRESECO PAÑAL AD.M X6                   211494185071172876028  469150422298837014 367813922  000  000  000  000  200         1  7591353699001       21140853       21140853   513562040001  N  0                      10721201 01/07/2023       USD          278          556    413548809
01 37140643  LT930  M  VIASEK COMPR. 50MG. X2                      4 351942500 359125000  287300001407770000       000  000  000  000  000  200         1  7591585111005       21140853       21140853   513562040001  N  0                           094 01/04/2024       USD          085          340    413548809
01 37140643  PB054  C  DIOXOGEN A.VERA D.BOL90GR                   2 440565024 449556147  17982246 881130048 140980808  000  000  000  000  200         2  7591309000080       21140671       21140671   513562040002  N  0                      A2010323 01/10/2023       USD          107          213    413548809
01 37140643  RQ009  C  SEC LOC FRESA RENE 200GR                    1 609550609 621990417  12439808 609550609  97528097  000  000  000  000  200         2  7596097001905       21140853       21140853   513562040002  N  0                   00220813032 01/04/2025       USD          147          147    413548809
01 37140643  PB560  C  DIOXOGEN C.BICAR. BOL.90                    2 440565024 449556147  17982246 881130048 140980808  000  000  000  000  200         3  7591309000219       21140671       21140671   513562040003  N  0                      A2012383 01/12/2023       USD          107          213    413548809
01 37140643  LC314  N  FLUVIRIN JBE. 120ML.                        613886600001417000000 1700400008331960000       000  000  000  000  000  200         3  7591585111166       21140671       21140671   513562040003  N  0                           224 01/04/2023       USD          336         2015    413548809
01 37140643  KL819  M  GIVOTAN 100MG.PPSO 30ML.                    326754000002730000000 1638000008026200000       000  000  000  000  000  200         3  7861148020472       21140671       21140671   513562040003  N  0                       210178B 01/02/2024       USD          647         1941    413548809
02 37140643        119   95407458914    5551777767     888284443  101847521124    0    0    0  000    0    0    0   16/08/2021 11:11:31 a.m.   PR           000           000             0            25           USD    413548809        24413
