01 37149935  13975  M  DEFLAZACORT 30MGX10 TAB                     218345600001872000000  748800003669120000       000  000  000  000  000  200         1  7591519000306       21148727       21148727   513651370001  N  0                         31691 01/01/2024       USD          445          890    412346432
01 37149935  11557  M  DESLER M 5MG/10MG. X10TA                    319747000002015000000 1209000005924100000       000  000  000  000  000  200         1  7592454891257       21148727       21148727   513651370001  N  0                       3272603 01/07/2023       USD          479         1437    412346432
01 37149935  QM490  M  DICIGEL SUSP. 240ML.                        326198536002756000000 4084392007859560800       000  000  000  300  000  200         1  7592454889216       21148708       21148708   513651370001  N  0                       3269899 01/06/2023       USD          635         1906    412346432
01 37149935  GQ114  M  FLUDIL 10MG. X20TA                          318536700001950000000 2889900005561010000       000  000  000  300  000  200         1  7592454345057       21148708       21148708   513651370001  N  0                       3263382 01/02/2024       USD          450         1349    412346432
01 37149935  14903  M  SOL RINGER LACT. JL 500ML                   3 703248000 717600000  430560002109744000       000  000  000  000  000  200         1  7598650000028       21148754       21148754   513651370001  N  0                    2B20091411 01/08/2023       USD          171          512    412346432
01 37149935  GQ474  M  CEFADROXILO ELTER250 60ML                   213134940001340300000  536120002626988000       000  000  000  000  000  200         2  7703763180318       21148727       21148727   513651370002  N  0                       3237481 01/01/2022       USD          319          637    412346432
02 37149935         16   27750522800           000           000   27750522800    0    0    0  000    0    0    0   23/08/2021 03:15:52 p.m.   PR           000           000             0             6           USD    412346432         6730
