01 37146351  13581  M  CEFIXIMA 100MG SUSP.60ML                    231765681553241396077 1296558446353136310       000  000  000  000  000  200         1  7598252101017       21145287       21145287   513617470001  N  0                        200572 01/05/2023       USD          778         1555    408537225
01 37146351  15085  M  COMPLEJO MULTIVIT.BM X30                    610510500001072500000 1287000006306300000       000  000  000  000  000  200         1  7598127001213       21145287       21145287   513617470001  N  0                        210167 01/01/2024       USD          257         1544    408537225
01 37146351  14319  C  CURE AID WASHPRO CURITA20                   4 347388222 354477778  283582241389552888 222328462  000  000  000  000  200         1  6223003734060       21145287       21145287   513617470001  N  0                         15C20 01/02/2025       USD          085          340    408537225
01 37146351  15083  M  DEXAMETASONA BM8/2ML.X10A                   219110000001950000000  780000003822000000       000  000  000  000  000  200         1  7598127001084       21145492       21145492   513617470001  N  0                        210170 01/01/2024       USD          468          936    408537225
01 37146351  13848  M  DICLOFENAC P. FM 50MG X10                  24 203840000 208000000  998400004892160000       000  000  000  000  000  200         1  8906082150621       21145492       21145492   513617470001  N  0                         T1018 01/12/2023       USD          050         1197    408537225
01 37146351  12153  M  ENALAPRIL BM10MG. X100TA                    128665000002925000000  585000002866500000       000  000  000  000  000  200         1  6930169708339       21145287       21145287   513617470001  N  0                        190563 01/04/2022       USD          702          702    408537225
01 37146351  AY295  C  GASAS ESTER KX3X3 50-S X2                   128728700002931500000  586300002872870000 459659200  000  000  000  000  200         1 10813333014159       21145287       21145287   513617470001  N  0                      20191009 01/11/2024       USD          703          703    408537225
01 37146351  LX102  M  MIGREN 650-50-1 X20CO                       3 9943703771101100000 3201888692983111131       000  000  500  300  000  200         1  7591585415738       21145287       21145287   513617470001  N  0                           520 01/04/2023       USD          243          730    408537225
01 37146351  14880  M  OMEPRAZOL FM20MG. X10CA                     8 229320000 234000000  374400001834560000       000  000  000  000  000  200         1  8906082150706       21145287       21145287   513617470001  N  0                         C1001 01/12/2023       USD          056          449    408537225
01 37146351  11196  C  SIEMPRESECO PAÑAL AD.M X6                   211494185071172876028  469150422298837014 367813922  000  000  000  000  200         1  7591353699001       21145287       21145287   513617470001  N  0                      10721201 01/07/2023       USD          281          563    408537225
01 37146351  12378  M  TAMSULOSINA 0.4MG X30TA                     219549530001994850000  797940003909906000       000  000  000  000  000  200         1  7598176000069       21145287       21145287   513617470001  N  0                       21T0435 01/03/2024       USD          479          957    408537225
01 37146351  12393  M  TAMSUWELL 0.4MG X100CO                      168830398007023510000 1404702006883039800       000  000  000  000  000  200         1  8904307701177       21145287       21145287   513617470001  N  0                         11348 01/05/2024       USD         1685         1685    408537225
01 37146351  LN255  M  BROMEXINA LN 8MG.JBE120ML                   4 947537503 966875003  773500003790150012       000  000  000  000  000  200         2  7592348204002       21145287       21145287   513617470002  N  0                         41472 01/06/2024       USD          232          928    408537225
02 37146351         60   43640863253    6561259902    1049801584   51251924739    0    0    0  000    0    0    0   19/08/2021 11:28:38 a.m.   PR           000           000             0            13           USD    408537225        12288
