01 37141989  14702  M  AMOXICILINA KM500 X10CA                     8 543488400 554580000  887328004347907200       000  000  000  000  000  200         1  6921875011134       21140985       21140985   513569270001  N  0                       2008470 01/08/2023       USD          131         1051    413548809
01 37141989  12164  M  ANTICONCEPTI BM3-0,03 X21                   219301100001969500000  787800003860220000       000  000  000  000  000  200         1  6930169708360       21141387       21141387   513569270001  N  0                        210178 01/01/2024       USD          467          933    413548809
01 37141989  LT038  M  COVENTROL 6,25MG. X30CO                     210790780001101100000  440440002158156000       000  000  000  000  000  200         1  7591585265630       21141387       21141387   513569270001  N  0                           124 01/03/2023       USD          261          522    413548809
01 37141989  LT930  M  VIASEK COMPR. 50MG. X2                      4 341384225 359125000  709631001365536900       000  000  000  300  000  200         1  7591585111005       21141387       21141387   513569270001  N  0                           094 01/04/2024       USD          083          330    413548809
01 37141989  FS370  N  VIOLETA GENCI FSI 30ML.X6                   117858295001822275000  364455001785829500       000  000  000  000  000  200         1  7592368000844       21141387       21141387   513569270001  N  0                       0521024 01/05/2023       USD          432          432    413548809
01 37141989  11590  C  BARR DER.CLINE NEUTRA80                     2 336913460 343789245  13751570 673826920 107812307  000  000  000  000  200         2  7595481001255       21141387       21141387   513569270002  N  0                        201001 01/10/2024       USD          081          163    413548809
01 37141989  CH694  C  CHICCO CH. 200CC.                           2 714831360 729419755  291767901429662720 228746035  000  000  000  000  200         2  7591061660317       21141387       21141387   513569270002  N  0                         21704 01/07/2023       USD          173          346    413548809
01 37141989  10010  C  PRE TRATAMI GOLD SED380CC                   2 733824000 748800000  299520001467648000 234823680  000  000  000  000  200         2  7593723000882       21141387       21141387   513569270002  N  0                       1911294 01/11/2022       USD          177          355    413548809
01 37141989  PD390  M  FLEMICAINE SOL.TOP. 5ML.                    210192000001040000000  416000002038400000       000  000  000  000  000  200         3  7591955000489       21140985       21140985   513569270003  N  0                          0027 01/04/2024       USD          246          493    413548809
02 37141989         25   15556049600    3571137640     571382022   19698569262    0    0    0  000    0    0    0   16/08/2021 05:52:58 p.m.   PR           000           000             0             9           USD    413548809         4625
