01 37143685  11466  C  ALGODON ALGOBAP 50GR.                       2 232982750 237737500   9509500 465965500  74554480  000  000  000  000  200         1  7593255000169       21142770       21142770   513586080001  N  0                        120718 01/10/2025       USD          057          113    411049800
01 37143685  GN790  M  AMLODIPINA GN 5MG. X30CO                    3 738996440 777400000 1152106802216989320       000  000  000  300  000  200         1  7591585278166       21142770       21142770   513586080001  N  0                           384 01/02/2024       USD          180          539    411049800
01 37143685  11288  M  COLYPAN 200MG. X10TA                        311233240201181700000 1751279403369972060       000  000  000  300  000  200         1  7591821210264       21142770       21142770   513586080001  N  0                       2105708 01/06/2024       USD          273          820    411049800
01 37143685  14306  C  CREMA PEINAR M.MOÑITOS240                   2 600399084 612652127  245060861200798168 192127707  000  000  000  000  200         1  7596097009024       21142770       21142770   513586080001  N  0                   00121882416 01/01/2023       USD          146          292    411049800
01 37143685  14215  M  DECOBEL 0.5MG X30TA                         211083800001131000000  452400002216760000       000  000  000  000  000  200         1  7592806133110       21142770       21142770   513586080001  N  0                        105081 01/05/2023       USD          270          539    411049800
01 37143685  GN146  M  ENALAPRIL GN 20MG. X30CO                    4 507164112 533520000 1054235522028656448       000  000  000  300  000  200         1  7591585378538       21142770       21142770   513586080001  N  0                           420 01/03/2023       USD          123          494    411049800
01 37143685  XV032  C  PAPEL ALUM FLOW PACK 6MT                    3 443046240 452088000  271252801329138720 212662195  000  000  000  000  200         1  7592825000745       21142770       21142770   513586080001  N  0                           10X 01/01/2030       USD          108          323    411049800
01 37143685  11041  N  LIMONADA PURGANTE FG250ML                   2 893984743 912229330  364891741787969486       000  000  000  000  000  200         2  0112244009159       21142770       21142770   513586080002  N  0                          2371 01/05/2024       USD          217          435    411049800
01 37143685  10824  M  REHIDROSOL FRESA  600ML                     2 898039407 916366742  366546701796078814       000  000  000  000  000  200         2  7592637397415       21142770       21142770   513586080002  N  0                       2100095 01/05/2023       USD          218          437    411049800
02 37143685         23   13416426128    2995902388     479344382   16891672898    0    0    0  000    0    0    0   17/08/2021 03:32:07 p.m.   PR           000           000             0             9           USD    411049800         3993
