01 37152116  LT237  M  KETOREL 30MG. IM-IV 1AMP.                   4 686686000 700700000  560560002746744000       000  000  000  000  000  200         1  7591585217875       21150447       21150447   513670770001  N  0                           002 01/01/2023       USD          166          665    412966092
01 37152116  FA239  M  NOTOLAC 30MG. X4TA.SUBL.                    3 787637760 873600000 2578867202362913280       000  000  000  800  000  200         1  7591821210134       21150447       21150447   513670770001  N  0                       2106107 01/07/2023       USD          191          572    412966092
01 37152116  EL374  M  TACHIPIRIN FORTE SUSP.120                   310336158201054710020  632826003100847460       000  000  000  000  000  200         1  7591062017301       21150447       21150447   513670770001  N  0                        21038A 01/08/2024       USD          250          751    412966092
01 37152116  PO100  M  ACETOBEN JBE. 120ML.                        2 9937200001014000000  405600001987440000       000  000  000  000  000  200         2  7592806121018       21150447       21150447   513670770002  N  0                        003033 01/03/2023       USD          241          481    412966092
01 37152116  PO100  M  ACETOBEN JBE. 120ML.                        1 9937200001014000000  20280000 993720000       000  000  000  000  000  200         2  7592806121018       21150447       21150447   513670770002  N  0                        008082 01/08/2023       USD          241          241    412966092
02 37152116         13   11191664740           000           000   11191664740    0    0    0  000    0    0    0   24/08/2021 01:17:27 p.m.   PR           000           000             0             5           USD    412966092         2710
