01 37153503  CO135  M  AIRFEN GOTAS NAS.PED.15ML                   2 730330169 876746902 2928334661460660338       000  000  000 1500  000  200         1  7591818111024       21151376       21151376   513682040001  N  0                         00294 01/07/2023       USD          177          354    412165273
01 37153503  VM026  M  CANDER HCT 8/12,5 X30TAB                    219110000001950000000  780000003822000000       000  000  000  000  000  200         1  7591020080637       21150842       21150842   513682040001  N  0                            29 01/06/2023       USD          464          927    412165273
01 37153503  12927  M  CLOTRIMAZOL AL200MG X3OVU                   3 768612577 871442831 3084907622305837731       000  000  000 1000  000  200         1  7597758000657       21151376       21151376   513682040001  N  0                      K1AAL004 01/07/2023       USD          186          559    412165273
01 37153503  12080  M  TIOCOLCHICOSIDO AL4MG.X2A                   310442076441331897505 8630695833132622932       000  000  000 2000  000  200         1       75971359       21151101       21151101   513682040001  N  0                       2220147 01/08/2023       USD          253          760    412165273
01 37153503  MO003  M  BROLAT 5-30 SO.ORAL 60ML.                   216471546001680770000  672308003294309200       000  000  000  000  000  200         2  7592601301585       21150888       21150888   513682040002  N  0                        135601 01/05/2023       USD          400          799    412165273
02 37153503         12   14015430201           000           000   14015430201    0    0    0  000    0    0    0   25/08/2021 11:08:02 a.m.   PR           000           000             0             5           USD    412165273         3400
