01 37154693  12640  M  AMOXICILINA DAC 500X10TA                    6 632923200 717600000 5080608003797539200       000  000 1000  000  000  200         1  7598578000025       21152217       21152217   513696750001  N  0                          V179 01/01/2023       USD          153          916    414730052
01 37154693  12640  M  AMOXICILINA DAC 500X10TA                    2 632923200 717600000 1693536001265846400       000  000 1000  000  000  200         1  7598578000025       21152217       21152217   513696750001  N  0                          V179 01/01/2023       USD          153          305    414730052
01 37154693  KA274  C  DRENE CH.SECO HYDRA 350CC                   2 947725406 967066741  386826701895450812 303272130  000  000  000  000  200         2  7590005007027       21152217       21152217   513696750002  N  0                     PS2105210 01/05/2023       USD          229          457    414730052
01 37154693  14198  C  KODAK XTRALIFE BAT.AAAX10                   114905800001521000000  304200001490580000 238492800  000  000  000  000  200         2   887930422580       21152217       21152217   513696750002  N  0                           10X 01/11/2030       USD          359          359    414730052
01 37154693  14197  C  KODAK XTRALIFE BAT.AAX10U                   114905800001521000000  304200001490580000 238492800  000  000  000  000  200         2   887930422573       21152217       21152217   513696750002  N  0                           10X 01/01/2030       USD          359          359    414730052
02 37154693         12    5063385600    4876610812     780257730   10720254142    0    0    0  000    0    0    0   26/08/2021 09:28:18 a.m.   PR           000           000             0             5           USD    414730052         2397
