01 37152832  14108  M  ACETAMINOFEN 500MGX20                      12 280280000 286000000  686400003363360000       000  000  000  000  000  200         1  7592236001973       21151101       21151101   513682030001  N  0                     TA1460007 01/01/2024       USD          068          816    412165273
01 37152832  13542  M  ACETAMINOFEN GN650 X10CO                   12 284356800 312000000 3317184003412281600       000  000  000  700  000  200         1  7591585279057       21151101       21151101   513682030001  N  0                           055 01/06/2023       USD          069          828    412165273
01 37152832  14114  M  CIPROFLOXACINA 500MGX10TA                   8 471380000 481000000  769600003771040000       000  000  000  000  000  200         1  7592236002062       21150888       21150888   513682030001  N  0                     TC1220004 01/02/2023       USD          114          915    412165273
01 37152832  14878  M  LOSARTAN P. FM50MG.X30TA                    6 764400000 780000000  936000004586400000       000  000  000  000  000  200         1  8906082150751       21150992       21150992   513682030001  N  0                         T1009 01/12/2023       USD          185         1113    412165273
01 37152832  LC170  M  MONOSULPA GOTAS 15 CC.                      3 798798000 815100000  489060002396394000       000  000  000  000  000  200         1  7591585110923       21151376       21151376   513682030001  N  0                           194 01/12/2022       USD          194          581    412165273
01 37152832  14880  M  OMEPRAZOL FM20MG. X10CA                     8 229320000 234000000  374400001834560000       000  000  000  000  000  200         1  8906082150706       21150888       21150888   513682030001  N  0                         C1001 01/12/2023       USD          056          445    412165273
01 37152832  LN155  M  LISOMUCIN 4MG. JBE.120ML.                   2 972020226 991857373  396742941944040452       000  000  000  000  000  200         2  7592348218009       21150888       21150888   513682030002  N  0                       2106006 01/06/2026       USD          236          472    412165273
01 37152832  LN160  M  LISOMUCIN 8MG. JBE.120ML.                   2 977626203 997577758  399031101955252406       000  000  000  000  000  200         2  7592348218023       21150888       21150888   513682030002  N  0                       2106005 01/06/2024       USD          237          474    412165273
01 37152832  FS018  N  SOLUCION NEBULI 0,9%120ML                   8 368504500 376025000  601640002948036000       000  000  000  000  000  200         2  7592368003319       21151101       21151101   513682030002  N  0                       0621055 01/12/2022       USD          089          715    412165273
02 37152832         61   26211364458           000           000   26211364458    0    0    0  000    0    0    0   25/08/2021 08:55:35 a.m.   PR           000           000             0             9           USD    412165273         6359
