01 37158298  VP529  M  ALBISEC CAPS. X12                           222644858452310699842  924279944528971690       000  000  000  000  000  200         1  7703153037512       21156684       21156684   513740260001  N  0                       1328941 01/12/2023       USD          548         1095    413429805
01 37158298  VP610  M  CETIRIVAX 10MG. X10CA.BL.                   6 535242353 546165666  655398783211454118       000  000  000  000  000  200         1  7592432001654       21156684       21156684   513740260001  N  0                        210169 01/06/2024       USD          129          777    413429805
01 37158298  11288  M  COLYPAN 200MG. X10TA                        311580660001181700000  709020003474198000       000  000  000  000  000  200         1  7591821210264       21156684       21156684   513740260001  N  0                       2105708 01/06/2024       USD          280          840    413429805
01 37158298  NP024  M  NOTOLAC 20MG. X10TA                         311475007181170919100  702551463442502154       000  000  000  000  000  200         1  7591821902022       21156684       21156684   513740260001  N  0                       2101002 01/03/2024       USD          278          833    413429805
01 37158298  KV199  M  TERAGRIP FORTE NOC X6 SOB.                  316339050001667250000 1000350004901715000       000  000  000  000  000  200         1  7591821801882       21156684       21156684   513740260001  N  0                       2105144 01/06/2023       USD          395         1186    413429805
01 37158298  VA010  M  PREVERAL DEXTROMET. 120ML                   311338600001157000000  694200003401580000       000  000  000  000  000  200         2  7592349722864       21156047       21156047   513740260002  N  0                       2107041 01/07/2023       USD          274          823    413429805
02 37158298         20   22960420962           000           000   22960420962    0    0    0  000    0    0    0   30/08/2021 10:12:06 a.m.   PR           000           000             0             6           USD    413429805         5554
