01 37156673  12137  M  ATENOLOL BM100MG. X100TA                    115702050001602250000  320450001570205000       000  000  000  000  000  200         1  6930169708063       21154176       21154176   513721030001  N  0                        190446 01/03/2022       USD          379          379    413986026
01 37156673  PO170  M  ATROBEL 10MG X15ML GTA                      212485200001274000000  509600002497040000       000  000  000  000  000  200         1  7592806123012       21154251       21154251   513721030001  N  0                        012149 01/12/2022       USD          302          603    413986026
01 37156673  14215  M  DECOBEL 0.5MG X30TA                         311083800001131000000  678600003325140000       000  000  000  000  000  200         1  7592806133110       21154176       21154176   513721030001  N  0                        105081 01/05/2023       USD          268          803    413986026
01 37156673  14699  M  METOCLOPRAMIDA KM10 X10A                    210319400001053000000  421200002063880000       000  000  000  000  000  200         1  6921875009186       21154176       21154176   513721030001  N  0                       2004441 01/04/2023       USD          249          499    413986026
01 37156673  12574  M  METRONIDAZOL KMPLU 500X10                   4 316461600 322920000  258336001265846400       000  000  000  000  000  200         1  6921875010878       21154176       21154176   513721030001  N  0                       2004435 01/04/2023       USD          076          306    413986026
01 37156673  CH789  C  SECUREZZA CLASSIC GDE. X6                   217117914791746725999  698690403423582958 547773273  000  000  000  000  200         1  7591353515011       21154691       21154691   513721030001  N  0                      10804201 01/08/2023       USD          413          827    413986026
02 37156673         14   10722111400    3423582958     547773273   14693467631    0    0    0  000    0    0    0   27/08/2021 12:53:44 p.m.   PR           000           000             0             6           USD    413986026         3417
