01 37158404  14113  M  BROMEXINA 4MGX120ML                         6 484120000 494000000  592800002904720000       000  000  000  000  000  200         1  7592236002055       21156684       21156684   513740250001  N  0                          7071 01/07/2023       USD          117          703    413429805
01 37158404  JN110  N  JENGIMIEL JBE.PED. 120ML.                   215021239991532779591  613111843004247998       000  000  000  000  000  200         1  7592520000026       21156684       21156684   513740250001  N  0                        031120 01/11/2022       USD          363          727    413429805
01 37158404  LP720  M  PROSOLVIT GOTAS 15 CC.                      311466000001170000000  702000003439800000       000  000  000  000  000  200         1  7591955001462       21156047       21156047   513740250001  N  0                          0114 01/12/2022       USD          277          832    413429805
01 37158404  KL151  N  PROSPAN JBE. 100CC.                         228028000002860000000 1144000005605600000       000  000  000  000  000  200         1  4104480705113       21156047       21156047   513740250001  N  0                       21B059C 01/01/2024       USD          678         1356    413429805
02 37158404         13   14954367998           000           000   14954367998    0    0    0  000    0    0    0   30/08/2021 10:37:57 a.m.   PR           000           000             0             4           USD    413429805         3617
