01 37183952  12826  M  ALBENDAZOL PX 400MG X10ML                   6 474766500 489450000  881010002848599000       000  000  300  000  000  000         1  7594001100294       21177341       21177341   513992390001  N  0                          5995 01/07/2023       USD          118          708    402327759
01 37183952  OJ007  N  CASTAÑO DE INDIAS HP 60CA                   221071700002341300000 4682600004214340000       000  000  000 1000  000  000         1  7592710000454       21177341       21177341   513992390001  N  0                       0121207 01/07/2024       USD          524         1047    402327759
01 37183952  VM494  M  DUROVAL 50MG. X10TA                         318508327501908075000 1717267505552498250       000  000  300  000  000  000         1  7591020008440       21177341       21177341   513992390001  N  0                           638 01/07/2026       USD          460         1380    402327759
01 37183952  VM494  M  DUROVAL 50MG. X10TA                         118508327501908075000  572422501850832750       000  000  300  000  000  000         1  7591020008440       21177341       21177341   513992390001  N  0                           638 01/07/2026       USD          460          460    402327759
01 37183952  CO185  M  MIOVIT GRAGEAS X10                          3 531956718 731211983 5977657951595870154       000  000  300 2500  000  000         1  7591818118030       21177341       21177341   513992390001  N  0                         10172 01/05/2024       USD          132          397    402327759
01 37183952  CO105  M  MIOVIT GRAGEAS X30                          31404366278193040038215781023124213098834       000  000  300 2500  000  000         1  7591818118047       21177341       21177341   513992390001  N  0                         10308 01/07/2024       USD          349         1047    402327759
01 37183952  PA051  M  PROPRANOLOL PA 10MG.X20TA                   211050000001105000000       0002210000000       000  000  000  000  000  000         1  7591243843064       21177520       21177520   513992390001  N  0                       9200801 01/04/2024       USD          275          549    402327759
01 37183952  CO011  M  MIOVIT JARABE 180ML.                        219170897811917089781       0003834179562       000  000  000  000  000  000         2  7591818251393       21177341       21177341   513992390002  N  0                         10203 01/07/2023       USD          476          953    402327759
02 37183952         22   26319418550           000           000   26319418550    0    0    0  000    0    0    0   16/09/2021 02:41:26 p.m.   PR           000           000             0             8           USD    402327759         6542
