01 37184795  MK088  M  AZITROMICINA +MK 500 X 3                   12 630500000 650000000 2340000007566000000       000  000  300  000  000  000         1  7591519002027       21178757       21178757   514008040001  N  0                        350621 01/06/2023       USD          156         1869    404861340
01 37184795  MY185  M  BENDAMEN 100MG. X6TA                        3 819145600 844480000  760032002457436800       000  000  300  000  000  000         1  7592601100218       21178757       21178757   514008040001  N  0                        111602 01/06/2026       USD          202          607    404861340
01 37184795  MK409  M  SECNIDAZOL +MK 1GR. X 2                     3 756600000 780000000  702000002269800000       000  000  300  000  000  000         1  7591519003918       21178757       21178757   514008040001  N  0                         32155 01/08/2024       USD          187          561    404861340
01 37184795  MK409  M  SECNIDAZOL +MK 1GR. X 2                     2 756600000 780000000  468000001513200000       000  000  300  000  000  000         1  7591519003918       21178757       21178757   514008040001  N  0                         32155 01/08/2024       USD          187          374    404861340
02 37184795         20   13806436800           000           000   13806436800    0    0    0  000    0    0    0   17/09/2021 11:12:19 a.m.   PR           000           000             0             4           USD    404861340         3410
