01 37199106  MK088  M  AZITROMICINA +MK 500 X 3                   12 573300000 585000000 1404000006879600000       000  000  000  200  000  000         1  7591519002027       21188509       21188509   514140770001  N  0                        340621 01/06/2023       USD          140         1676    410421799
01 37199106  14831  M  BETAMETASONA JL4MG. X10A                    117238000001723800000       0001723800000       000  000  000  000  000  000         1  7598650000172       21188509       21188509   514140770001  N  0                        N16292 01/07/2023       USD          420          420    410421799
01 37199106  AO180  M  CALOXPIRINA 81MG. X30TA                     312740000001274000000       0003822000000       000  000  000  000  000  000         1  7591519008487       21188509       21188509   514140770001  N  0                         32233 01/08/2024       USD          310          931    410421799
01 37199106  AP360  M  METREN 250MG.SUSP. 120ML.                   214064700001406470000       0002812940000       000  000  000  000  000  000         1  7592601200307       21188509       21188509   514140770001  N  0                        127402 01/07/2023       USD          343          685    410421799
02 37199106         18   15238340000           000           000   15238340000    0    0    0  000    0    0    0   27/09/2021 05:12:11 p.m.   PR           000           000             0             4           USD    410421799         3713
